:020000041000EA
:4000000000400208230100100D00000085010010000000000000000000000000000000000000000000000000000000008101001000000000000000008101001081010010E9
:400040008101001081010010810100108101001081010010810100108101001081010010810100108101001081010010810100108101001081010010810100108101001060
:400080008101001081010010810100108101001081010010810100108101001081010010810100108101001081010010810100108101001081010010810100108101001020
:4000C00010B5064C2378002B07D1054B002B02D0044800E000BF0123237010BD3C060008000000001C220010084B10B5002B03D00749084800E000BF07480368002B00D1EC
:4001000010BD064B002BFBD09847F9E700000000400600081C220010E8000008000000007047FFF7FDFF72B60F4C104DAC4209DA21686268A368043B02DBC858D050FAE76B
:400140000C34F3E70A490B4A0020521A02DD043A8850FCDC084809490860BFF34F8F00F005F900F01DF8FEE720220010382200103C060008140800080000000808ED00E0EB
:40018000FEE7FEE700B504207146084202D0EFF3098001E0EFF30880043001F00FFAFEE710B562B6014800F067F9FEE70000081010B5002000F07EFF10BDC04670B5624998
:4001C000E0239B00CB580F2213401A00D0329200525807210A40032A05D0042A06D0002A12D15A4814E05A4A106811E01A00C0329200554952581F210A40112A06D0132A7C
:4002000004D0FA20C00103E0524801E080200002002B36D14C4BB222D2009A5801211140B125ED005A59120F032422405B591B0F1C4207D0444C63591B0F03242340012BDC
:4002400002D102E0012300E00023002B01D0002901D1032A4BD13C4BB022D2009D58AD03AD0B3D495958C904C90C9C58240E01231C40013401F0ACFC6843210001F0A8FC2C
:4002800035E0012B33D1304BC822D2009A5801251540C024E4001A59120F03210A401B591B0F194207D028490B591B0F03210B40012B02D102E0012300E00023002B01D049
:4002C000002D01D1032A12D11F4DC022D200AB587F210B40A958090A1F263140AC58240C3440584301F074FC210001F071FCE0239B00154AD3581B0903221340D840144CB8
:400300006060164B1D692D0AFC32154001351969090E013101F05CFCA060290001F058FC0500E06020610E4BC0180E4901F050FC20750D4BE818FA21890001F049FCA06151
:40034000C003E06170BDC0460000264000127A00C000000800366E0184050000000021403F420F0040420F00E703000010B5284801F028FC274CB022D200A3585B005B08D8
:40038000A350E0218900635830208343635080235B04A350204A214BE250A02292010433E250FF221E4BE25001F0FAFBC0225200A35801218B43A35000F0D4F9FFF7FEFE1E
:4003C000B0235B055B78002B04D0B0235B055B78DBB200E02123212B03D1124B0022DA605A60114C22008021042000F009FC2000103000F09DFC0D4B1A685123D35C002BE4
:4004000002D00B4800F00AFD00F0D2FA10BDC046642100100000264001000200840500008C050000E00023405806000810080008381D00108023024AD3580320184070477F
:400440000000214010B501F04CF9084980228C58074B2340074C23438B508823034AD358DB06FAD501F041F910BDC04600002140FCFF00000100FA0570B50500830504D04D
:40048000E821FF310F4801F06BF801F02AF90400FFF7D0FF032801D1FFF7D4FF0A4AB0239B00D55080215058084B03400848034353508823044AD358DB06FAD5200001F0D1
:4004C00014F970BD6C1D001000002140FCFF00000300FA05FEE7C04680221206064B1A608122D201054B1A600222054B1A60054A054B1A607047C04600001041880010412D
:40050000A000104101001180000E1F4130B587B08449A022D2008B58032083438B50824A116808688823CB58C31818687F49084018601368186884241B59C01803681B02C9
:400540001B0A80256D042B430360106805680359EB1818680140196013683E229A5C002A06D07048E02189004258753CA24342503E229A5C002A06D06A48E02189004258F0
:400580003024A24342503E229B5C002B07D06549E02292008B588020000603438B500021012000F0B9FD0021022000F0B5FD0021032000F0B1FD0021042000F0ADFD00217C
:4005C000002000F0A9FD01A8594903000A0032CA32C312CA12C300F0CDFD002802D00420FFF778FF4F49534A8B588020000603438B50514800F07AFE002802D00420FFF712
:4006000069FF484C4D4BE1584D4A0A40E250E1584C4A0A40E250E25880252D062A43E250043BE158484A0A40E250E158474A0A40802189010A43E250E258802109020A4367
:40064000E250434A1168434B0B40802149000B431360002001F086FA3F4BE2581543E550E158012291430A43E2506421002000F0BDFF2D4B1B683F229A5C052A06D97022EA
:400680009A5C01210A403549986842509A6874215B5AD2185168254B0B408C2189010B435360214B1B6873229A5C0321914070229A5C7220185C140084402143012002404A
:4006C0000A43802109060A438021C900986842509A6852583F229A5C132A03D90021204A986881509A6874215B5AD31819680F4A0A401A600C4B1A687323D15C703B8B4055
:4007000019007023D35C7220105C83400B43802109060B438021C9009068435093685B5807B030BD0000264010080008FF00FFFF841D0010087F0000400D03000405000076
:40074000FEFCFFFFFFFF00FFFFF0FFFFFF8FFFFF00002740FFFCFFFF0C050000140C00004C0C000070B58AB09621002000F03EFF00F014FF002814D100F000FFC0235B0082
:400780002B4AD358DB0705D411002A4A8B585B005B088B502649274A8B588020000603438B50012001F076F9234A516C234B0B40E82189010B435364536C1B0AFF221340FF
:4007C0003A2B07D11C4A516C1D4B0B40E82189010B435364FFF79AFE01AD1A4C2A002300143343CB43C243CB43C243CB43C22900154800F0E5F82A002300383313CB13C221
:4008000013CB13C213CB13C22900104800F0D8F824220021280001F067FA4023019329000B4800F0CDF8FFF757FE0AB070BDC046000026400C05000000002740FF00FFFFF5
:40084000FFC5FFDF841D0010800232400003324080043240214B984230D00ED8402831D004D800281FD010282AD031E080282BD080235B00984229D02AE0194B984229D046
:4008800007D8A0231B0698420DD0164B984212D01EE0154B98420AD0144B984209D0144B984215D101E0002016E0124814E0124812E0124810E0A020C0030DE007480BE0D9
:4008C0000F4809E00F4807E00F4805E0034803E00E4801E0A420C0037047C04606005200010000F0090000A0040000F0050000F0030000F0010052000200520003005200CB
:40090000010050000200500005005200FF00520070B5124B1A683123D35C002B04D1C421FF310F4800F01CFE0C4B1D682C00B423EB582A6A944663441B68002B0BDB094B50
:400940001868FFF787FF6B6801229A6063689B68002BFBD100E0044870BDC04610080008E01D0010E80700080200500010B50D4B1861002805D002230370FD3343700023C0
:400980004380094B1B6850229A5C002A08D051229B5C002B04D04F3A0449002000F0F8FA10BDC046E8070008100800086101000810B502481430FFF7D9FF10BDE8070008B9
:4009C00070B505000C0000285DD000295DD0FF230A689A4303D099212D4800F0C1FDFF2322699A4303D09A21294800F0B9FDA3685B0D03D09B21264800F0B2FD63685B0A87
:400A000003D09C21224800F0ABFDE3695B0F03D09D211F4800F0A4FD236A5B0F03D09E211B4800F09DFD1B4A11688B69EB1ADB0949691B01CB18216829607D211068415C3E
:400A40006918E06808607E211068415C6918206908607F211068415C6918606908607C211068415C6918A06808606168A961116880228A5CAD18A2692A60E2691A60226A96
:400A80005A60002002E0044800E0034870BDC046201E00101008000801005A0070B504000D000A4B1A68B423D3581B181B68002B0ADA0B0C03D00649064800F051FD2D043D
:400AC0002D0C6560002000E0034870BD10080008D5020000A01E001001008A0070B505000C000368002B01DA002300E0084B002B0BD1EA60230C03D00649074800F030FD25
:400B00002404240CAC60002000E0014870BDC04601008A00BB020000A01E001070B505000C1E03D19921084800F01AFD074B1A68B423D3585B191B68002B03DAEB682360DB
:400B4000002000E0024870BDE01E00101008000801008A0070B504000D00234B1A683123D35C834236D9002936D00B68DB0635D13123D35C984204D3C421FF311B4800F0A3
:400B8000EFFC194B1B681A6AB0215B5A5C431419174E34602B68DA080021686801F0A4F800212000FFF77AFF3468002D03D111490E4800F0D5FC2A0000212000FFF78EFFF5
:400BC00000280DD10A4B18680021FFF767FF002808D108E0084806E0074804E0064802E0064800E0054870BD10080008A01E0010000800089303000003018A0001018A00C5
:400C000010B50400002A17D1002915D1124B1A683123D35C984204D3C421FF310F4800F09FFC0D4B1B681A6AB0215B5A5C4314190B4B1C6000200EE0002A09D0002909D02A
:400C4000074B59609A60191D2000FFF783FF02E0044800E0034810BD10080008A01E00100008000803018A00F0B583B00D001C4B1B68DC68236883422DD947097B01C01AE0
:400C8000012383401E00002903D100F02AFD019001E000230193124B18680368002B01DA002300E00F4B002B0ED16368BF00DF193B68334203D0B3433B60002400E00A4CE5
:400CC0000021FFF7EBFE00E0084C002D04D1019800F00BFD00E0064C200003B0F0BDC0460008000801008A00020188000301880004018A000A4B1B68DA68136883420BD9F6
:400D000043095901401A0121814052689B009B580B4203D0034802E0034800E003487047000800080101880004018A0000018800034B1B68002B01D1014B18607047C0460D
:400D40000C080008F0B5474680B404000F0090461E002D4B1B68002B03D1B5212B4800F0FFFB294B1B682C2060431C18FF22150035402560330A13406360360CA660244B69
:400D80001A683123D35C9D4204D3C421FF31214800F0E6FB1E4B1A68B023D35A6B43116A8C466344236166683223D35C9E4204D3E021FF31174800F0D3FB154B1B681D6A57
:400DC00080367601AD196561A668330C04D0FF214900104800F0C4FB330C03D00E490D4800F0BEFB3604330C1E43AE604346E36127620023A361069B002B02D000229B5E24
:400E0000A38104BC9046F0BD0C080008201F001010080008A01E0010FF010000F0B58FB0041E03D15221294800F09AFB6368032B03D95421254800F093FBE36A002B03D12E
:400E40005821224800F08CFB236B002B03D159211E4800F085FB07AA1300210061C961C321C921C302AD290023001433C1CBC1C141CB41C10821535E0CAE3380144B1B68B3
:400E800036215B5E07998C466344B370089B0D930B9B0A980096A26AE16AFFF753FF2B69E868002200920021FFF74CFF216B300000F0E8FA0023F25E002A05DB1F231A4085
:400EC0001E3B9340034A13600FB0F0BD201F00101008000800E100E0F8B505000F0016001C00002A03D1FD21224800F039FB224B1B68002B03D1FE211E4800F031FB1E4BD4
:400F00001B682C2128004843181879435918012213004D68AB401B044568AA4015000269002A20D08F69002F1FD11268002A01DA002200E0114A002A19D132681204120CD6
:400F4000134333600369DE6001238B614C6204692B0C03D00A490B4800F002FB2A04120CA260002004E0084802E0084800E00748F8BDC046201F00100C08000801008A0062
:400F8000BB020000A01E001004028A0007028A0070B504000D0016000F4B1B68002B04D1AF2149000D4800F0DBFA0B4B1B682C2060431C18236A002B04D1B1214900074834
:400FC00000F0CEFAE369B34204D9236AB6009D51002000E0024870BD0C080008201F00100A028A0070B582B0040000230193002804D1D221FF312D4800F0B2FA2369002B78
:4010000004D1E9214900294800F0AAFA6369002B04D1D421FF31254800F0A2FA236A002B04D1EA214900214800F09AFA6269D5682B0C24D01B041360136820691C4B1A6819
:40104000B423D358C3181B68002B18DA01A9FFF765FD00280ED1019803681E0CFF221340E269934207D29B00226AD358002B02D0984700E0002631002069FFF70FFD2D042E
:401080002D0C0FD063691D601B68636A002B03D098470023636203E0A36A002B00D098470023A36163691B6802B070BD201F00101008000810B50400084B1B68002B04D18D
:4010C000B221FF31064800F04BFA044B1B682C2060431818FFF786FF10BDC0460C080008201F001010B50400094B1B689B6CC340DB0703D4BE21074800F032FA044B1B6841
:401100001B691034A402E3580F20184010BDC04610080008601F0010134B1A683C23D35C83421DD9042904D94B1EFF3B9BB2132B18D8FF290CD91F2319400C4A0300C033B8
:401140009B009950D03080000423835000200AE007231940D0308000044BC150002002E0034800E002487047100800080000264001004A0070B5041E03D14A494A4800F0D5
:40118000EFF9B023DB00494AD358002B00DA87E0474B22689A4203D94649434800F0E0F923689B039B0BE279002A02D08022520400E000221343B022D2003C498B50A28814
:4011C0003D4B9A4204D98C218900374800F0C8F922893A4B9A4203D93949334800F0C0F9A388DB04D90C23891B04364A13400B43354A2E498B50A37A0F2B04D98E218900A2
:40120000294800F0ADF9E37A0F2B03D92F49264800F0A6F9A289284B9A4203D92C49224800F09EF9A37A0F211940E27A1201FF2313400B43A289120226490A401343A27BC0
:401240001207C02189050A401343B122D20017498B50A379042B03D91F49134800F080F9228A164B9A4204D9912189000E4800F077F90E4819494558194B1D40A3791B020D
:40128000E022D20013402B4343504558154B1D40238A1B040B4A13402B434350002000E0114870BD1F020000A01F001000002640FFFF030029020000FF1F0000FF01000011
:4012C000310200000000FF0184050000390200003A02000000FF1F00430200008C050000FFF8FFFFFFFF00FE03004A0070B505003149324A8B588020000603438B502C0093
:4013000003E0012000F020F9013CB223DB002A4AD3585B0701D4002CF3D12749B122D2008858274B03408020800503438B50002D01D0002C0CD02049B022D2008B58802067
:40134000000603438B5003E0012000F0FDF8013CB223DB00184AD358DB0701D4002CF3D1002D01D0002C08D01349B122D2008B58C020800503438B5013E00F4BB121C900E8
:4013800058580F4A02408020800502435A5008395A58520052085A5008495A58520052085A50002D03D0002C03D0002002E0002000E0044870BDC046000026408C050000B5
:4013C000FFFFFFCF02004A0070B505000C001A4B1B6828229A5C012A15D1820807211000884327D19200AD1AED00FF20A8401B6820339A181168AC4023004B40184004009D
:401400004C40146016E03A229B5EDBB2994203D176210A4800F0A4F8074B1B681B68072215408022120615438022920194466444A400E55070BDC04610080008282000108D
:4014400070B504000D000B4B9A680B4B9A420CD1002904D13821FF31084800F081F81034054BA400E058E55003E01034A400044BE05870BD00ED00E000000008282000103E
:4014800000000010F0B5474680B482B0061E01914AD04368032B03D93221264800F060F80023F05E002804DBB178FFF78DFF002400E0214C0023F15E7368002912DB88086F
:4014C0001E4FC0308000C55903221140C900FC3290468A4095439A01434613408B402B43C35116E089B20F220A40083A92080632920013481018476803221140C900FF2561
:401500002A008A4097439A012B0013408B403B4343600B4B9A680B4B9A4206D10023F05E0199FFF78DFF00E0034C200002B004BC9046F0BD282000100100560000E100E036
:4015400000ED00E00000000810B5034B1B78584300F0BEF810BDC046D400000801BEFEE770B50D00044C18220100200000F0C4FBA5610020FFF7F2FF00060008054B8022C3
:4015800012069A649B6C002B01DB002000E002487047C0460000274003004600054B8022120198585B68FF221A4202D08023DB021843704700002640FEE7C04610B50A4B4C
:4015C0000268DA6142681A6282685A62C2689A620269DA6242691A6382695A63C2699A63FFF7EAFF10BDC04600060008F0B5474680B4002801D0192300E064238B429B414A
:401600005B42304D2C682268A826A45BA41822680327BA433B401A4322602C682268A45BA2181668284CA046264016602C682668AA229446A25A96193268BA431343336060
:401640002A6813686546525BD3181A68444614401C60002805D010291BD921291BD8012024E0184B1B6855229A5C914215D956229A5C914213D957229A5C914211D95822CB
:401680009A5C91420FD959229B5C99420DD804200CE000200AE0022008E0002006E0012004E0022002E0032000E00520054A1268526813680F218B430343136004BC9046A1
:4016C000F0BDC04610080008FFFCFFFF000000000230800803D001300238FCD1C046C0467047EFF3108072B6704780F31088704710B5B0235B059B899BB2002B04D0B02348
:401700005B059B899BB201E080235B0080225200934215D1184C23681968683A9B58C9180B680F208343963A13430B6021680C689C23CB58E318196881430A431A6019E08C
:401740000D4C2368196898229B58C918B02040050A4BC2580A4B13400A681343C022920013430B60226811689C23D358CB18054A82581A6010BDC046100800084818000087
:40178000FFFCFFFF4418000030B5B0235B059B899BB2002B04D0B0235B059B899BB201E080235B0080225200934215D1184C23681968683A9B58C9180B680F208343953AFD
:4017C00013430B6021680C689C23CB58E318196881430A431A6019E00D4D2B68196898229B58C918B0246405C12040012258094B13400A681343C022920013430B602A683E
:4018000011689C23D358CB1822581A6030BDC04610080008FFFCFFFFB0235B059B899BB2002B04D0B0235B059B899BB201E080235B008022520093420DD1104B1B681A6835
:4018400098215B58D21811680D4B0B40C021C9010B43136011E0094B1B68196898229B58C918084BB0225205D258074B13400A681343C022920013430B6070471008000894
:40188000FF8FFFFF18180000FFFCFFFF30B5B0235B059B899BB2002B04D0B0235B059B899BB201E080235B008022520093420DD1134B1B681A6898215B58D2181168114B33
:4018C0000B408021C9010B43136018E00C4D2B68196898229B58C918B02464050A4822580A4B13400A681343C022920013430B602A6811689C23D358CB1822581A6030BD17
:4019000010080008FF8FFFFF4C180000FFFCFFFF10B5B0235B059B899BB2002B04D0B0235B059B899BB201E080235B0080225200934217D10020FFF7D5FBB0235B055B7816
:40194000002B04D0B0235B055B78DBB200E02123222B03D8002803D1013004E0012002E0002000E0012010BDF8B50700012803D93D493E48FFF7F4FDB0235B055B78002BAA
:4019800004D0B0235B055B78DBB200E021239DB2B0235B059B899BB2002B04D0B0235B059E89B6B201E0802676000020FFF79AFB002814D180235B009E4212D1222D12D839
:4019C0002B4B1B685C682B4821582B4B19403B068022520413400B432350002404E0274C02E0264C00E0254C80235B009E4201D1222D03D880235B009E4232D01C4B1A685F
:401A00003123D35C002B04D1C421FF311C48FFF7A7FD174B1B681D6A80235B009E4203D1002F05D0174A06E0002F03D0164A02E0164A00E0164A01212800FFF74FF8002814
:401A40000FD10B4B1A68B423D3585B191B68002BF7DBEB681B0E1B06A0221206934200D100242000F8BDC0464C0A00006C2000101008000818F00000FFFFFFFE0400420041
:401A8000E01D0010010100300300000C010000300100000CF8B50500012804D9822109012948FFF75DFDFFF733FF002849D0FFF718FE0700002D11D10021244B244AD150CA
:401AC000E823DB00B0225205D65CF6B20120FFF74BFF041E19D1FFF70BFE16E0B02252051C4BD0581A4B194958501B49565CF6B21A481A581F218A4314390A431A500320AE
:401B0000FFF722FDFFF7C2FE0024002C15D11049124A8B581F20834306401E438E50002D02D1FFF779FE08E00720FFF70DFDFFF72BFE0020FFF718FF04003800FFF7D5FDB6
:401B400000E0074C2000F8BD6C200010307F00000000264010180000410700001CFF000003004200042805D10B4A116804230B4313600FE0094B1A681168A023D358CB1815
:401B80000006C022920410401860034A136804218B4313607047C04610E000E0100800080749C02252008B589B009B088020C00503438B508B588020000603438B50704778
:401BC00000002640014B18607047C04610080008002243088B4274D303098B425FD3030A8B4244D3030B8B4228D3030C8B420DD3FF22090212BA030C8B4202D312120902F7
:401C000065D0030B8B4219D300E0090AC30B8B4201D3CB03C01A5241830B8B4201D38B03C01A5241430B8B4201D34B03C01A5241030B8B4201D30B03C01A5241C30A8B4273
:401C400001D3CB02C01A5241830A8B4201D38B02C01A5241430A8B4201D34B02C01A5241030A8B4201D30B02C01A5241CDD2C3098B4201D3CB01C01A524183098B4201D3EC
:401C80008B01C01A524143098B4201D34B01C01A524103098B4201D30B01C01A5241C3088B4201D3CB00C01A524183088B4201D38B00C01A524143088B4201D34B00C01A86
:401CC0005241411A00D20146524110467047FFE701B5002000F006F802BDC0460029F7D076E770477047C04603008218934202D019700133FAE77047030030B5002A0DD085
:401D00000C7801335D1E013A2C700131002CF5D19A189A4202D01C700133FAE730BD0000F8B5C046F8BC08BC9E467047F8B5C046F8BC08BC9E4670470300000001000000F7
:401D4000010000000000000005036000040000000100000000000000010000000604600008000000C8070008B101001073797374656D5F70736F63365F636D30706C7573D7
:401D80002E630000F4010000140004010A00090508000000630100000300000000000000000000006800000000000000000000000000000012120000000000000000000071
:401DC0000000000000000000000000BA0000000000000000000000000000000000001D1D47656E6572617465645F536F757263655C50536F43365C70646C5C647269766597
:401E000072732F7065726970686572616C2F6970632F63795F6970635F6472762E68000047656E6572617465645F536F757263655C50536F43365C70646C5C6472697665B8
:401E400072735C7065726970686572616C5C6770696F5C63795F6770696F2E630000000047656E6572617465645F536F757263655C50536F43365C70646C5C6472697665BB
:401E800072735C7065726970686572616C5C6770696F5C63795F6770696F2E680000000047656E6572617465645F536F757263655C50536F43365C70646C5C647269766576
:401EC00072735C7065726970686572616C5C6970635C63795F6970635F6472762E68000047656E6572617465645F536F757263655C50536F43365C70646C5C647269766571
:401F000072735C7065726970686572616C5C6970635C63795F6970635F6472762E63000047656E6572617465645F536F757263655C50536F43365C70646C5C647269766535
:401F400072735C7065726970686572616C5C6970635C63795F6970635F706970652E630047656E6572617465645F536F757263655C50536F43365C70646C5C647269766593
:401F800072735C7065726970686572616C5C70726F745C63795F70726F742E630000000047656E6572617465645F536F757263655C50536F43365C70646C5C64726976654E
:401FC00072735C7065726970686572616C5C737973636C6B5C63795F737973636C6B2E630000000047656E6572617465645F536F757263655C50536F43365C70646C5C641C
:402000007269766572735C7065726970686572616C5C737973636C6B5C63795F737973636C6B2E680000000047656E6572617465645F536F757263655C50536F43365C70B0
:40204000646C5C647269766572735C7065726970686572616C5C737973696E745C63795F737973696E742E630000000047656E6572617465645F536F757263655C50536F08
:4020800043365C70646C5C647269766572735C7065726970686572616C5C737973706D5C63795F737973706D2E6300000000204000002440000000400000000000002340C5
:4020C000000030400000314000009F40000022400000104002020202020202020210101D800017007500FF030602063604102000000000007FC00000000400000000000056
:402100000019324B647D00804000080B100000000000FF012002001F00800004FF081018001000140018001C4044484C500000000810000008000000040000000410000059
:402140000012000004210000002100000016000040114002C41300138013A013200000001C0000000000214000002540000001400000344000002440000031400000324030
:4021800000001F410000234000001140010101010101010101101010800019005500F0000501053B04101C01010000000FC000000004000001010101011D3A5778960008E0
:4021C0002000101208000000001F00000010000F002000023F06080E00080009000A000B24282C3034000000100000009000000088000000080000008000000004F0000034
:4022000000F00000400200002005A000D00100018001A0012000000010000000000000000000001000000008C000000040220010C0000008400500003C060008D801000009
:402240000048E80100127A0000093D0000093D0000093D0004000000A00F00000000D007E9000010C10000100000000010B50004400B27D0144B1A68146AB023D15ACA0049
:40228000531AE3181B68002BF4DA3E220F4B1A600F4A104B1A60104B0621A322D20099500E4A98509B58084B1A68106AB023D15ACA00531AC31800225A60084B064AD3589A
:4022C000002BFADA10BDC04610080008040126401E1F000008012640000026401C05000010B54378FF2B20D100F022FA04000F4B1A683123D35C042B04D8C421FF310C48D0
:4023000000F0FEF9094B1A68116AB023D35A9B00CB18DB685A68116801230B4313601368DB07FCD4200000F023FA10BD10080008E01D0010F0B585B001900291544B1A6811
:402340003123D35C002B04D1C421FF31514800F0D7F94F4B1B681E6AB4229A58971950229B5C002B77D000F0F3F9050003283CD1474B1A683123D35C062B04D8C421FF31A2
:40238000444800F0BDF9424B1968B023CB5A5A00D21853000A6A94466344B4228A58D3181B68002B23DB002000F0BAF93A4B98421FD03A4B1A6900230021012000F0A8F9FB
:4023C000002803D0364C17E0013400E00024002000F0A6F9304B984202D0324B9C42F3D9304B9C4207D92E4C06E0002404E02C4C02E02B4C00E00024002C46D100F098F9F9
:402400000390294B294AD358002B13DA234A0121300000F095F900280ED10298FFF726FF019B002B0AD03B68002BFCDB00F098F9040004E01A4C02E0194C00E01C4C032D12
:4024400005D10121002000F053F90028F9D1039800F08EF919E000F06BF905000F4A0121300000F06DF9002809D1019B002B08D03B68002BFCDB00F073F9040002E0084CD5
:4024800000E00B4C280000F073F9200005B0F0BD10080008E01D001001018800E807000805005200EF4902001C0500000000264001005000F0B54F464646C0B4824B1A683F
:4024C0005468B0235B055B78002B04D0B0235B055B78DBB200E02123212B67D1B023D15ACB005B1A116A8C46634419680029F5DADD6802212943D960B023D15ACB005B1AEA
:40250000116A8C466344D968C9073ED5D9680904090C8C4684271168D559A84641440968090A0904FF26360431400D0088261168894691598846C14449460968090A090646
:40254000294365462943D9601168D359C9180A685E4B98461A4090252D012A430A605A4B99461A6813689C46925962441368414619400B002B4313604B461A681568D15917
:4025800069180B689359EB181B684F4B1A68B021555AEB005B1B156AAC46634400255D60156A515ACA00531AEB185B68484A116904230B431361012801D030BF00E020BFFA
:4025C000414B1A68B023D15ACB005B1A116A8C46634419680029F3DAB02149054978002904D0B02149054978C9B200E02121212932D1D968C90722D5106884215258801816
:402600000468324A1440DB681B0C1B02FF2109020B40234303602C4B19688823C8580B689C46604403681A400D6AB023CC5AE1000B1BEB18DB681B0E1B021A430260224BE8
:402640001A68106AB023D15ACA00531AC318DA6802218A43DA6028E086235B00E358002B23D11C4807681C4BA321C9005E581B4A904615681A4A0260062058503E214246CC
:4026800011600631174A9950164B134AD358002BFADA154A86235B00E2500E4B1F60A323DB000D4AD6500D4B1D60074B1A68106AB023D15ACA00531AC31800225A600CBCDE
:4026C00090469946F0BDC04610080008FF00FFFF00ED00E00801264000002640040126401E1F00001C050000AAAAAAAA0000000001B40248844601BC604700BF690C0010D1
:4027000001B40248844601BC604700BF6115001001B40248844601BC604700BFD90E001001B40248844601BC604700BFF50C001001B40248844601BC604700BFE316001052
:4027400001B40248844601BC604700BFDD0A001001B40248844601BC604700BF3504001001B40248844601BC604700BF1109001001B40248844601BC604700BFEB1600102E
:402780000000000000000000000000000000000000000000000000000000000000000000000000000000000000000000000000000000000000000000000000000000000019
:4027C00000000000000000000000000000000000000000000000000000000000000000000000000000000000000000000000000000000000000000000000000000000000D9
:020000041008E2
:4000000000780408EB0208100D00000051030810510308105103081051030810000000000000000000000000000000004D0308104D030810000000004D0308104D030810DA
:400040004D0308104D0308104D0308104D0308104D0308104D0308104D0308104D0308104D0308104D0308104D0308104D0308104D0308104D0308104D0308104D03081000
:400080004D0308104D0308104D0308104D0308104D0308104D0308104D0308104D0308104D0308104D0308104D0308104D0308104D0308104D0308104D0308104D030810C0
:4000C0004D0308104D0308104D0308104D0308104D0308104D0308104D0308104D0308104D0308104D0308104D0308104D0308104D0308104D0308104D0308104D03081080
:400100004D0308104D0308104D0308104D0308104D0308104D0308104D0308104D0308104D0308104D0308104D0308104D0308104D0308104D0308104D0308104D0308103F
:400140004D0308104D0308104D0308104D0308104D0308104D0308104D0308104D0308104D0308104D0308104D0308104D0308104D0308104D0308104D0308104D030810FF
:400180004D0308104D0308104D0308104D0308104D0308104D0308104D0308104D0308104D0308104D0308104D0308104D0308104D0308104D0308104D0308104D030810BF
:4001C0004D0308104D0308104D0308104D0308104D0308104D0308104D0308104D0308104D0308104D0308104D0308104D0308104D0308104D0308104D0308104D0308107F
:400200004D0308104D0308104D0308104D0308104D0308104D0308104D0308104D0308104D0308104D0308104D0308104D0308104D0308104D0308104D0308104D0308103E
:400240004D0308104D0308104D0308104D0308104D0308104D0308104D0308104D0308104D0308104D0308104D0308104D0308104D0308104D0308104D0308104D030810FE
:400280004D0308104D0308104D03081010B5054C237833B9044B13B10448AFF300800123237010BD64490208000000002C310810084B10B51BB108490848AFF30080084841
:4002C000036803B910BD074B002BFBD0BDE81040184700BF00000000684902082C31081030430208000000007047FFF7FDFF72B6104C114DAC4209DA21686268A368043B09
:40030000A2BFC858D050FAE70C34F3E70B490C4A00209142BCBF41F8040BFAE709480A490860BFF34F8F00F09BF900F075F900F05FF8FEE730310810483108106449020875
:40034000C44B02080040020808ED00E0FEE7FEE700B504207146084202D0EFF3098001E0EFF30880043001F00FFAFEE710B51B4A0123C2F83031D2F83021194C2360194839
:4003800001F002FF6368C3F30B03174AC2F80031164B1B6833B94FF4006262600122134B1A6010BD012B06D100220D4B5A6002220E4B1A6010BD022B07D140F2FF72084B7B
:4003C0005A600322094B1A6010BD032B04D10023034A5360054A136010BD00BF000038408C420208A82B0810000014418049020810B51B4C1B49204601F07AF9B4F9003075
:40040000002B08DB5A0903F01F00012181406032154840F82210002B08DB590903F01F03012202FA03F3104A42F8213062B601F023FE00F04DF90D4B1868002302221946A0
:40044000406801F0A9FE0A4C0A4A0021204601F0FFF90123A3600922C4F814212361FEE7F02B08106D03081000E100E02443020800003840002C081008B5012000F00CFDF6
:4004800008BD00BF704700BF5C4AD2F8803303F00F0303F1D00152F8212002F00702032A04D0042A05D092B9554914E0554A116811E003F1C002514951F8222002F01F02F7
:4004C000112A06D0132A04D04FF4FA4103E04E4901E04FF400418BBB484BD3F8902502F00100D3F88825C2F30172D3F8883513F0405F07D0414BD3F88835C3F30173012B26
:4005000002D102E0012300E0002303B108B9032A46D13A48D0F88025C2F31103D0F88425C2F30C02D0F88005C0F300600130B1FBF2F202FB03F2B2FBF0F131E0012B2FD15C
:400540002E4BD3F8402602F00100D3F80026C2F30172D3F8003613F0405F07D0274BD3F80036C3F30173012B02D102E0012300E0002303B108B9032A12D12048D0F80026CB
:4005800002F07F02D0F80036C3F30423D0F80006C0F3044002FB01F2B2FBF3F2B2FBF0F1164BD3F88033C3F3011321FA03F215494A601648D0F89030C3F3072301330069F4
:4005C000000E0130B2FBF0F08860B2FBF3F3CB600B6103F5742202F23F220D48A0FB0202C2F387420A7503F2E7330A4AA2FB03239B098B61DB03CB61704700BF00002640AD
:4006000000127A00A442020800366E010000214083DE1B43D34D621008B50D4801F0A0F9FFF730FFFFF730FF00221146042000F0FBF9084800F08EFA074B1B6893F85130D7
:4006400013B1064800F0F6FA00F038F908BD00BF4C2F081088490208BC4B0208BC2B081008B501F0EEF8074AD2F8883043F47003C2F88830BFF34F8FBFF36F8F01F0E5F8D4
:4006800008BD00BF00ED00E010B504462146034800F042FC0028F9D010BD00BF00006640054BD3F80833C3F30803002BF8D0024BD3F84003704700BF0000664008B502494E
:4006C000024800F07DFF08BD844B02080000664008B5114B1B785BB9104A1149114800F04BFD1149114801F003F801220A4B1A700E4BB3F90030002B08DB590903F01F03A0
:40070000012202FA03F30A4A42F82130054A136843F00043136008BD084B0208844B02084C2C081000006640BD060810F82B081000E100E01F4B98422DD00CD840282ED07F
:4007400003D8E8B1102828D02FE0802829D0B0F5807F28D029E0184B984228D006D8B0F1204F0DD0154B984212D01EE0144B98420AD00133984209D0023B984215D101E08E
:40078000002070470F4870470F4870470F4870474FF4A0007047074870470D4870470D4870470D487047034870470C4870474FF4A400704706005200010000F0090000A0D7
:4007C000040000F0010052000200520003005200010050000200500005005200FF00520038B5124B1B6893F83130012B04D840F2C3110F4800F0B8FF0C4B1D682A6AB5F8DC
:40080000B03013442C46D5F8B420D358002B0BDB084B1868FFF78EFF6B6801229A6063689B68002BFBD138BD034838BDBC4B02088C2C08100C4B0208020050001A4B186180
:4008400028B102230370FF23437000234380174B1B6893F850202AB300B583B0B3F93830ADF80030002301931149684600F040FFBDF90030002B08DB590903F01F03012242
:4008800002FA03F30B4A42F82130084B1B6893F8513023B102220849012000F077FA03B05DF804FB704700BF0C4B0208BC4B0208A143020800E100E05944020808B502486D
:4008C000FFF7BCFF08BD00BF204B020838B50B4B1B68D3F8B4301B58002B0DDA0D4604460B0C1B0423B140F2D521054800F03CFFA9B26160002038BD024838BDBC4B02088C
:40090000CC2C081001008A0038B50368002B01DA002300E0094B73B90D460446C2600B0C1B0423B140F2BB21054800F01DFFA9B2A160002038BD014838BD00BF01008A0012
:40094000CC2C081038B504460D4619B99921084800F00AFF074B1B68D3F8B4301B59002B03DAE3682B60002038BD034838BD00BF0C2D0810BC4B020801008A00254B1B683E
:4009800093F8313083423AD900293AD00B6813F01F0F38D170B50D4604461E4B1B6893F83130984204D340F2C3111B4800F0DCFE184B1B68186AB3F8B03004FB0304174EB7
:4009C00034602A68D2080021686801F07BFB00212046FFF77BFF346825B940F293310E4800F0C2FE2A4600212046FFF78DFF60B900210A4B1868FFF769FF40B970BD0848D6
:400A000070470748704706487047064870BD054870BD00BFBC4B0208CC2C0810244B020803018A0001018A0010B504461346B2B9A9B9124B1B6893F83130984204D340F2A8
:400A4000C3110F4800F090FE0C4B1B681A6AB3F8B03004FB03240B4B1C60002010BD43B149B1084A51609360111D2046FFF786FF10BD054810BD044810BD00BFBC4B02083C
:400A8000CC2C0810244B020803018A002DE9F0411B4B1B68DC68236883422CD90D464609A0EB4610012303FA00F819B900F0C9FE074600E00027124B18680368002B01DA8F
:400AC000002300E00F4B83B9626852F8263018EA030F05D023EA080342F82630002400E0094C0021FFF7F2FE00E0084C25B9384600F0ABFE00E0064C2046BDE8F08100BF6C
:400B0000244B020801008A00020188000301880004018A000B4B1B68DB681A6882420CD94109A0EB4110012202FA00F05B6853F82130184203D004487047044870470448B1
:400B4000704700BF244B02080101880004018A0000018800024B1B680BB9014B18607047304B02082DE9F8430446884691461D46089F2C4B1B681BB9B5212B4800F0F4FD0E
:400B8000284B1B682C2000FB04F01C18EEB21E50C5F3072363602D0CA560244B1B6893F831309E4204D340F2C311214800F0DCFD1E4B1B68196AB3F8B02006FB0216266188
:400BC000666893F832309E4204D340F2DF11184800F0CAFD154B1B681D6A803605EB46156561A668330C1B0423B14FF4FF71104800F0BAFD330C1B0423B140F2FF110C485F
:400C000000F0B2FDB3B243EA0646AE60C4F81C90C4F820800023A36117B1B7F90030A381BDE8F883304B02084C2D0810BC4B0208CC2C0810F0B58FB0044618B9522127483A
:400C400000F092FDA369072B03D95621234800F08BFDE36A1BB95821204800F085FD236B1BB959211D4800F07FFD07AD04F114060FCE0FC537682F6002AD26460FCE0FC5F2
:400C800033682B60164B1B68B3F93620079B1344ADF83030089B0D93A26AE16A0CAD00953B460A98FFF75EFF00210091069B0A460598FFF757FF216B284600F019FDBDF98A
:400CC0003030002B08DB590903F01F03012202FA03F3044A42F821300FB0F0BD4C2D0810BC4B020800E100E0F8B506460F461D4614461AB9FD211F4800F036FD1E4B1B68E0
:400D00001BB9FE211B4800F02FFD1B4B1B682C2101FB063001FB07314B68012202FA03F31B04466802FA06F60269EAB18F69EFB91268002A01DA002200E0104AC2B9228872
:400D4000134323600369DC6001238B614D620469330C1B0423B140F2BB21094800F004FDB2B2A2600020F8BD0648F8BD0648F8BD0548F8BD4C2D0810304B020801008A0060
:400D8000CC2C081004028A0007028A00F8B505460F4616460E4B1B6823B94FF4AF710D4800F0E2FC0A4B1B682C2404FB0534236A23B94FF4B171074800F0D6FCE369B34299
:400DC00004D9236A43F826700020F8BD0248F8BD304B02084C2D08100A028A0070B582B000230193044620B940F2D111284800F0BBFC236923B94FF4E971254800F0B4FCCA
:400E0000636923B940F2D311214800F0ADFC236A23B94FF4EA711E4800F0A6FC6369DD682A0C20D012041A601B682069194B1B68D3F8B430C358002B15DA01A9FFF782FD36
:400E400060B9019803681E0CDBB2E269934206D2226A52F8233013B1984700E0002631462069FFF733FDADB275B16369ADB21D601B68636A1BB198470023636202E0A36AAF
:400E800003B198470023A36163691B6802B070BD4C2D0810BC4B020810B50446074B1B6823B940F2B111064800F05EFC034B1B682C2000FB0430FFF791FF10BD304B020838
:400EC0004C2D081010B4D0F8003303F00F03072B06D900230DE0D0F84043CC54013300E000239342F7D306E0D0F8404321F8134001339342F8D35DF8044B704710B5144650
:400F0000D0F80833C3F308039A4200D31C462246FFF7D8FF204610BD036813F4006F01D0802200E04022D0F80832C3F30803934203D0C0F84012012070470020704700BFFB
:400F400010B4D0F8003203F00F03072B06D900230DE0CC5CC0F84042013300E000239342F7D306E031F81340C0F8404201339342F8D35DF8044B704710B51446036813F4F9
:400F8000006F01D0802200E04022D0F80832C3F30803D31AA34200D81C462246FFF7D0FF204610BD2DE9F84305460C46036813F4006F02D04FF0800801E04FF04008D5F841
:400FC000007207F00F07A26A012A19D9D4F82490E262561EB9F1000F00D026B940F27351254800F0C1FB324649462846FFF7C4FFA36A1B1AA362072F00D940004844606288
:40100000D5F80832C3F30803984533D0A36A012B30D10023A362072F02D8636A1E7801E0636A1E8800F00DFCC5F840624FF40073C5F8803FD5F8803F00F007FCD5F8883F42
:4010400023F4007222F0010242F4007623F4EE6323F0030323B140F23641084800F084FBC5F8886F236843F002032360236B0BB101209847BDE8F8838C2D0810CC2D081023
:401080002DE9F04105460C46036813F4006F01D0802600E040267608A769D4F81C8017B1B8F1000F04D14FF49961314800F05CFB424639462846FFF721FF236A0344236282
:4010C000E3691B1AE36173BBA368FBB1E3689E4201D8013E00E05E1E2B6813F4006F01D0802300E040239E4204D34FF42371214800F03AFBD5F8043323F0FF03F6B21E43A9
:40110000C5F804630123C5F8C83F02E00023C5F8C83F636823F001036360236B33B304209847BDE8F081A169D5F8002302F00F02072A00D940000844A0619E4216D95C1ECB
:401140002B6813F4006F01D0802300E040239C4204D34FF42371074800F006FBD5F8043323F0FF02E3B21343C5F80433BDE8F0818C2D0810CC2D0810002800F0A48170B592
:401180000546002900F0A18116460C460B78022B03D93F21A24800F0E7FA637B023BDBB2062B03D940219E4800F0DEFAA37B3BB1022B05D0032B03D04121994800F0D4FA82
:4011C00094F82130012B03D94221954800F0CCFA94F82830012B03D94321914800F0C4FA2378012B06D86368083B082B94BF0023012307E0A37F2BB16368013B062B94BF4D
:40120000002301231BB14521854800F0ADFAA368053B042B03D94621814800F0A5FA6369FF2B03D947217E4800F09EFAA369FF2B03D948217A4800F097FAA37C6BB12378A0
:4012400033B9A368092B05D1A37B2BB1012304E0012302E0012300E000231BB14A21704800F082FA636B23F4366323F00D031BB14C216B4800F078FAE36B23F4EE6323F02B
:4012800003031BB14D21664800F06EFA2378022B01D1A37F13B16268013A00E00022237F13B14FF4803100E00021A368082B02D84FF4006300E000230B4302F00F0213439E
:4012C00043F000732B60226B2B6813F4006F01D0802300E040239A4203D36221504800F043FAA26B2B6813F4006F01D0802300E040239A4203D36321494800F035FA626AF7
:401300002B6813F4006F01D0802300E040239A4203D36421424800F027FA23781B0603F040732B64637F0BB1402200E00022A37C13B14FF4806300E000231343227C12B165
:401340004FF4807200E000221343627C12B14FF4007200E000221A43E36A013B1B0403F470231343627B013A02F007021343A27B120102F030021343AB64237B13B14FF4DC
:40138000807200E00022E37B23B92378022B03D1012302E0012300E0002313B14FF4007300E000231A43A368013B03F00F031343C5F80033227DA3691B0403F47F03134331
:4013C000C5F81033E26AD5F8003303F00F0303339A4201D3102A03D97A21114800F0C4F9E37F23B12378012B03D0002302E0002300E0012313B14FF4807200E00022637B2A
:40140000013B03F007031A43A37B1B0103F0300313436B64237B2BB14FF4807203E000BF102E08100022A368013B03F00F0313432278012A02D14FF4803200E00022134341
:40144000C5F8003294F83030C5F8043394F8203013B14FF0007200E0002294F82130012B02D14FF0807300E00023134394F82820012A02D14FF4803200E00022134394F838
:40148000242013432B6594F83830C5F80432636B23F4926323F002031B051B0DC5F8C83FE36B23F08C035B055B0DC5F8883F76B1002070603060B060F0603062F062306363
:4014C000044B736370BD04487047034870BD002070BD00BFEFCDAB000160AA000B694A69934202D34869181A7047CA684869101A184470472DE9F04107460D46036813F4BD
:40150000006F02D04FF0800801E04FF040084FEA5808D7F80863C6F308062C6926E00134EB689C4200D100246B699C420FD12B6B0BB1082098476B699C4208D10023C7F853
:40154000C83F0CB1013C13E0EC68013C10E0D7F84023D7F8003303F00F03072B02D8AB681A5502E0AB6823F81420013E002ED6D12C61EC6829463846FFF7B0FF201A804565
:4015800019D908B1441E00E000243B6813F4006F01D0802300E040239C4204D34FF42371064800F0E1F8D7F8040320F0FF03E0B21843C7F80403BDE8F08100BFCC2D081026
:4015C00038B504460D46D0F8003E13F0080F35D0D0F8CC3F13F448730AD04A681A434A60C0F8C03FD0F8C03F0B6B0BB110209847D4F8CC3F13F4006F09D06B6843F40063C2
:401600006B604FF40063C4F8C03FD4F8C03FD4F8CC3F13F0010F11D0EB6923B129462046FFF72EFD05E0AB681BB129462046FFF761FF0123C4F8C03FD4F8C03FD4F8003E27
:4016400013F0040F2ED0D4F88C3F13F4A0630AD02A681A432A60C4F8803FD4F8803F2B6B0BB120209847D4F88C3F13F0010F08D029462046FFF796FC0123C4F8803FD4F8A1
:40168000803FD4F88C3F13F4007F0BD00022C4F8882F2B6823F001032B60EA622B6B0BB10220984738BD00BF38B50D4B9A680D4B9A420FD10D46044621B940F237110A48B8
:4016C00000F052F804F11003064A52F8230042F8235038BD1030054B53F8200038BD00BF00ED00E000400208502E08100000081048B338B504460D464368072B03D9322144
:40170000134800F031F8B4F900306268002B08DB5201D2B203F1604303F5614383F8002305E003F00F035201D2B20A49CA540A4B9A680A4B9A4208D12946B4F90000FFF733
:40174000B3FF002038BD06487047002038BD00BF502E081014ED00E000ED00E0004002080100560001BEFEE738B50D46044C18220146204600F0BAFDA5610020FFF7F2FF15
:40178000D0480208FEE700BF08B50268254BDA6142681A6282685A62C2689A620269DA6242691A6382695A63C2699A631E4A916AD963D16A1964516A5964516B9964926B7B
:4017C000DA64F1EE103A13F0900F27D0026A154B1A65426A5A65826A9A65C26ADA65026B1A66426B5A66826B9A66C26BDA66026C1A67426C5A67826C9A67C26CDA67026DFE
:40180000C3F88020426DC3F88420826DC3F88820C26DC3F88C20026EC3F89020FFF7B2FF08BD00BFD048020800ED00E0000000000230800803D001300238FCD100BF00BF1F
:401840007047EFF3108072B6704780F31088704700287DD00346002A7CD070B45068000280B29568AD0405F480252843D468240404F4403404431069000600F0E06020437A
:40188000147F0CB1012400E0002420430C1DA4011851D06828B903EB81100024C0F808410CE0012805D1146803EB8110C0F8084104E003EB81100124C0F80841106938B97E
:4018C000546903EB8110C0F80C419469C0F81041146803EB8110C0F81441906CB0F1FF3F17D0946A04F00F04166B360206F470663443956B2D0405F470252543146C240304
:40190000A4B22C430001C0B2204303EB8114C4F82001506A00F00300D66A360106F030063043556B2D0205F440752843D46BA401E4B20443506C800000F00C00204303EB97
:401940008113C3F82401126AC3F83821002003E0024870470148704770BC70470100B600014B1860704700BFBC4B020870B50E461446054620B94FF489715C48FFF7F4FEBA
:4019800024B940F213115948FFF7EEFE002D00F0A780002C00F0A680731EDBB2022B04D94FF48F715148FFF7DFFE23683BB1B3F1804F04D040F21F114C48FFF7D5FE2379FB
:4019C000032B04D94FF490714848FFF7CDFE637943B1082B06D0102B04D040F221114348FFF7C2FEE3883BB1B3F5006F04D04FF491713E48FFF7B8FE23896BB1B3F5807F92
:401A00000AD0B3F5007F07D0B3F5407F04D040F223113648FFF7A8FEA37A33B1802B04D04FF492713148FFF79FFEE37A33B1402B04D040F225112D48FFF796FE237B33B1D8
:401A4000202B04D04FF493712848FFF78DFE23682B60227961790A43E3881A4323891A43A37A1A43E37A1A43237B134311B94FF4805200E000221343012E01D0032E14D1F1
:401A80006B606279082A01D1032200E00122C5F8082FAA6A617B09B1012100E000210A43AA622A6A42F001022A62023EF6B2012E1AD8AB606379082B01D1032300E00123C6
:401AC000C5F8143FAB6A627B0AB1022200E000221343AB622B6A43F002032B62002070BD034870BD024870BD002070BD0430081001002E00002800F0E081F0B5032840F0C9
:401B0000D980032921D809B9072A0AD9012901D10F2A06D9022901D1032A02D9032914D19AB9BA4B1D68AE6895F8710001FA00F7032404FA00F307EA030095F870301340B8
:401B4000034343F08043C6F80034B04B1B6893F83F0037281ED903291CD809B9072A0AD9012901D10F2A06D9022901D1032A02D903290FD172B99D6893F8710001FA00F661
:401B8000032404FA00F0304093F8703013400343C5F8DC3C012922D871B9072A56D89B4B18688468B0F87430234453F8220020F47F4043F8220049E0012947D10F2A45D8F7
:401BC000924B1B689868B3F87630184450F8223023F47F0323F47F4340F8223036E002291BD1032A32D8894C23689868B3F87830184450F8223023F47F0323F47F4340F88B
:401C0000223020688468B0F87830234453F8220020F0F80043F8220018E0032916D1AAB97A4C20688568B0F87A302B4453F82200C0B243F8220020688468B0F87A30234482
:401C400053F8220020F0F80043F82200032900F2338109B9072A0DD9012901D10F2A09D9022901D1032A05D9032940F02581002A40F02281654B1D68AC6895F873600320FD
:401C800000FA06F795F8703095F8726003FA06F63E4395F87170B940B840014031431A4041EA020343F00043C4F80034AB68D3F80034F0BD032921D809B9072A0AD901293F
:401CC00001D10F2A06D9022901D1032A02D9032914D19AB94D480668B76896F8714001FA04FE032505FA04F00EEA000496F870001040204340F08040C7F8000443480068C5
:401D000090F83F40372C1ED903291CD809B9072A0AD9012901D10F2A06D9022901D1032A02D903290FD172B9866890F8714001FA04F7032505FA04F43C4090F870001040FC
:401D40002043C6F8DC0C012932D8A9B9072A00F28480FF2B00F281802C480468A568B4F87400284450F8224024F47F441B029BB2234340F8223070E001296ED10F2A6CD8F2
:401D8000B3F5803F69D2214800688468B0F87600044454F8220020F47F0020F47F401B0223F07F4323F0FF03034344F8223054E002292DD1032A50D8B3F5803F4DD20598DA
:401DC0001F284AD8114D28688468B0F87800044454F8220020F47F0020F47F401B0223F07F4323F0FF03034344F822302B689868B3F87830184450F8223023F0F804059BFE
:401E0000DB00DBB2234340F8223026E0BC4B0208032922D10ABBB3F1807F1ED205981F281BD8264D28688468B0F87A00044454F82200C0B240EA032344F822302B6898683B
:401E4000B3F87A30184450F8223023F0F804059BDB00DBB2234340F8223003292CD809B9072A0AD9012901D10F2A06D9022901D1032A02D903291FD1F2B9104B1D68A8683A
:401E800095F87360032404FA06F795F8703095F8726003FA06F63E4395F87170B940BC40214031431A4041EA020343F00043C0F80034AB68D3F80034F0BD7047BC4B0208EF
:401EC00070B582B00C46054618B949215448FFF74BFC1CB94A215248FFF746FC002D00F09A80002C00F099802378012B03D958214B48FFF739FC636833B1B3F1807F03D05D
:401F000059214748FFF730FC237A042B03D95A214348FFF729FC638963B1B3F5807F09D0B3F5007F06D0B3F5407F03D05B213C48FFF71AFCE3687BB1B3F5800F0CD0B3F5B8
:401F4000400F09D0B3F1006F06D0B3F1086F03D05C213348FFF708FC237C012B03D95D212F48FFF701FC636933B1B3F1804F03D05E212B48FFF7F8FBA3693F2B03D95F213E
:401F80002748FFF7F1FBA36903F03F0263891343217A8A1ED2B2022A01D843F08053042901D143F000536268134362691A43E66816432378012B02D10023012201E0012323
:401FC0000022217C012902D142F4807201E043F4807394F82410A9620121A962C5F8B020C5F8B430E369C3F30B03C5F80031236AC3F30B03C5F8043194F8253043B1E36A69
:40200000A26A94F82610207A246B0094FFF772FD2E60002002E0034800E0024802B070BD403008100100660070B539B900240AE015F8010BFEF728FB013402E016460D46C1
:402040000024B442F4DB204670BD00BF70B561B900240FE0FEF724FBC0B2287001340A2808D00D2806D0013502E016460D460024B442EFDB204670BD10B50E4B1B786BB958
:402080000D4C21460D48FFF71BFF04F1340202210B48FFF76BFC0122064B1A70074A136843F000431360A2F58022136843F00043136010BD704B02088030081000001441FE
:4020C0000000104102440346934202D003F8011BFAE7704770B50E46054618B183690BB900F0CCFAAB69AC6813B9284600F0C6FA224B9C4201D16C6808E0214B9C4201D1B0
:40210000AC6803E01F4B9C4208BFEC68A3891B0701D523693BB92146284600F04FF910B14FF0FF3070BD013EA36816F8011F013BA36091B1002B04DAA269934206DB0A2942
:4021400004D023685A1C22601970EDE72246284600F0E0F80130E7D1E2E7002B08DA22460A21284600F0D6F80130D9D00A2070BD23680A205A1C2260187070BDCC300810E8
:40218000EC3008100C310810024B01461868FFF7A1BF00BF244302082DE9F7431D464F4B1E6804460F46904626B1B36913B9304600F064FA4A4B9C4201D1746808E0494B94
:4021C0009C4201D1B46803E0474B9C4208BFF468B8F1020F04D0B8F1010F79D8002D77DB2146304600F0E0F9616B41B104F14403994202D0304600F033FB00236363002399
:40220000A3616360A3891B0603D52169304600F027FBA38923F44A6323F00303B8F1020FA3811ED001AB6A462146304600F0B0FAA3891843A0810DB9009D00E02FBB2846B5
:4022400000F006FB0746D0B9DDF80090A94502D14FF0FF3006E0484600F0FAFA074678B9F6E70020A38943F00203A3810023A36004F1470323602361012363612AE0A9465B
:40228000A38943F08003A3814D46B36913B9304600F0F4F9B8F1010F08BFA389276004BF43F00103A381A389276103F0080080B2656158B113F001034FF000001DBF6D4278
:4022C000A060A561A56008BF184603E0A06001E04FF0FF3003B0BDE8F08300BF24430208CC300810EC3008100C31081010B5034642B111F8014B03F8014B013A002CF7D118
:402300001A4400E010BD934202D003F8014BFAE710BD0000F8B50F461446064618B183690BB900F0ABF9224B9C4201D1746808E0204B9C4201D1B46803E01F4B9C4208BF37
:40234000F468A369A360A3891A0709D523693BB123682069181A63699842FDB20FDB08E02146304600F02AF80028F1D04FF0FF30F8BD2146304600F017F90028F6D1A36810
:40238000013BA36023685A1C22601F706269431C934204D0A389DB0707D50A2D05D12146304600F001F90028E0D12846F8BD00BFCC300810EC3008100C310810324B70B541
:4023C0001D6806460C4625B1AB6913B9284600F055F92E4B9C4201D16C6808E02C4B9C4201D1AC6803E02B4B9C4208BFEC68B4F90C309AB215071DD4D00602D4092232603B
:402400003AE0510712D5616B41B104F14403994202D0304600F024FA00236363A38923F02403A3810023636023692360A38943F00803A38123694BB9A38903F42073B3F534
:40244000007F03D02146304600F0C6F9A28912F0010305D00023A36063695B42A36103E0920758BF6369A36023695BB9B4F90C3003F0800080B230B143F04003A3814FF09B
:40248000FF3070BD002070BD24430208CC300810EC3008100C3108108A892DE9F041054610070C4659D44B68002B02DC0B6C002B17DDE66AAEB102F48052002392B22F6863
:4024C0002B600AB1606D15E0216A01232846B047411C0FD12B686BB11D2B01D0162B03D12F600020BDE8F081A38943F04003A381BDE8F081A3895A0705D56368C01A636B2B
:402500000BB1236CC01A00230246E66A216A2846B047431CA38906D129681D293AD8214ACA40D60736D500226260D9042269226004D5421C01D12B6803B96065616B2F60DD
:402540000029CED004F14403994202D0284600F087F900206063BDE8F0810F69002FC0D093070E6808BF4B690F6018BF0023C7EB06088B6002E00744C0EB0808B8F1000F5E
:40258000AFDD43463A46216AA66A2846B0470028F1DCA38943F04003A3814FF0FF30BDE8F08100BF0100402038B50B6905460C46DBB118B183690BB900F060F80C4B9C42A7
:4025C00001D16C6808E00B4B9C4201D1AC6803E0094B9C4208BFEC68B4F90C302BB121462846BDE83840FFF757BF002038BD00BFCC300810EC3008100C310810014900F095
:40260000A9B800BFA9250810002310B5044603604360836081814366C281036143618361194608225C30FFF74DFD054B6362054BA362054BE362054B2462236310BD00BF63
:40264000D9290810FB290810332A0810572A081070B568234D1E5D430E4605F1740100F04DF9044640B1002180E842000C30A06005F16802FFF726FD204670BD836910B547
:40268000044633BB8364C3640365124B124A1B688262984204BF0123836100F01FF86060204600F01BF8A060204600F017F80022E06004216068FFF7A7FF01220921A068D2
:4026C000FFF7A2FF02221221E068FFF79DFF0123A36110BDC8300810FD250810F8B51C4B1E68B369074613B93046FFF7C7FF4836B4687368013B04D4B4F90C507DB1683476
:40270000F8E733680BB13668F2E704213846FFF79FFF30600028F6D10C233B60F8BD4FF6FF73E3810123A38165662560A560656025616561A5610822294604F15C00FFF708
:40274000C1FC6563A563A564E5642046F8BD00BFC83008102DE9F8438046894600F14804002694B1A5686768013F0CD4AB89012B07D9B5F90E30013303D029464046C847CF
:4027800006436835F0E72468EBE73046BDE8F88370B50E46B1F90E10002990B014461D4606DA00232B60B3891A060ED540230EE001AA00F077F90028F3DB029A02F470429E
:4027C000A2F500535A425A412A604FF480630020236010B070BD00008B8973B59E0705460C4610D401AB6A46FFF7D2FF00990646284600F083F868B9B4F90C309A0522D496
:4028000043F00203A38104F14703236023610123636118E00D4BAB62A389206043F08003A381009B6361019B20614BB1B4F90E10284600F049F918B1A38943F00103A381F8
:40284000A0893043A08102B070BD00BFFD250810024B0146186800F051B800BF2443020838B50546002946D051F8043C0C1F002BB8BFE41800F04AF91F4A1368114613B983
:402880006360146032E0A3420ED92268A018834204BF18685B68636004BF121822600C6024E0A24203D813465A68002AF9D118681918A1420BD1216801445818824219609B
:4028C00014D1106852685A60014419600EE002D90C232B600AE021686018824204BF10685268626004BF091821605C602846BDE8384000F00CB938BD7C4B020870B5CD1C2B
:4029000025F0030508350C2D38BF0C25002D064601DBA94202D90C23336046E000F0F6F8234B1C681A462146A1B10B685B1B0ED40B2B03D90B60CC18CD501EE08C420DBF0F
:4029400063684B686360136018BF0C4615E00C464968E9E7174C23681BB9304600F02CF820602946304600F027F8431C18D0C41C24F00304A0420DD12560304600F0C7F846
:4029800004F10B00231D20F00700C31A0ED05A42E25070BD211A304600F00EF80130EBD10C233360304600F0B2F8002070BD00BF7C4B0208784B020838B5064C002305464D
:4029C0000846236000F0D6F8431C02D1236803B12B6038BDC04B020810B50C46B1F90E1000F096F80028ABBF636DA3891B1823F48053ACBF6365A38110BD2DE9F0411F466A
:402A00008B89DB0505460C46164605D502230022B1F90E1000F068F8A389B4F90E1023F48053A38132463B462846BDE8F04100F017B810B50C46B1F90E1000F055F8431CF4
:402A4000A38915BF606523F4805343F48053A38118BFA38110BDB1F90E1000F013B8000038B5074C054608461146002222601A46FFF7DAFA431C02D1236803B12B6038BD3F
:402A8000C04B020838B5064C002305460846236000F050F8431C02D1236803B12B6038BDC04B020838B5074C0023054608461146236000F047F8431C02D1236803B12B6044
:402AC00038BD00BFC04B020838B5064C002305460846236000F03EF8431C02D1236803B12B6038BDC04B020838B5074C054608461146002222601A4600F034F8431C02D1E1
:402B0000236803B12B6038BDC04B02087047704738B5074C054608461146002222601A46FFF794FA431C02D1236803B12B6038BDC04B0208024B58221A604FF0FF3070472F
:402B4000C04B0208024B58221A604FF0FF307047C04B0208024B58221A600020704700BFC04B0208024B58221A604FF0FF307047C04B0208044A05491368002B08BF0B4604
:402B80001844106018467047804B0208C84B0208F8B500BFF8BC08BC9E467047F8B500BFF8BC08BC9E467047696E2074686520696E746572727570740D00000003000000EF
:402BC00001000000010000000000000005036000040000000100000000000000010000000604600008000000E84A0208790408105A000000070000002E000000070000008C
:402C000000800000000000000000000000000000020000000040000000400000000000000100000003000000FFFFFFFF03000000FFFFFFFF03000000FFFFFFFF0300000091
:402C4000FFFFFFFF03000000FFFFFFFF000000000C0000000800000000020000000000000000000000000000000000000000000000000000000000000B0000000000000038
:402C800000000000000000000000000047656E6572617465645F536F757263655C50536F43365C70646C5C647269766572732F7065726970686572616C2F6970632F637906
:402CC0005F6970635F6472762E68000047656E6572617465645F536F757263655C50536F43365C70646C5C647269766572735C7065726970686572616C5C6970635C637963
:402D00005F6970635F6472762E68000047656E6572617465645F536F757263655C50536F43365C70646C5C647269766572735C7065726970686572616C5C6970635C637922
:402D40005F6970635F6472762E63000047656E6572617465645F536F757263655C50536F43365C70646C5C647269766572735C7065726970686572616C5C6970635C6379E7
:402D80005F6970635F706970652E630047656E6572617465645F536F757263655C50536F43365C70646C5C647269766572735C7065726970686572616C5C7363625C637949
:402DC0005F7363625F756172742E680047656E6572617465645F536F757263655C50536F43365C70646C5C647269766572735C7065726970686572616C5C7363625C6379FA
:402E00005F7363625F636F6D6D6F6E2E6800000047656E6572617465645F536F757263655C50536F43365C70646C5C647269766572735C7065726970686572616C5C736386
:402E4000625C63795F7363625F756172742E630047656E6572617465645F536F757263655C50536F43365C70646C5C647269766572735C7065726970686572616C5C737968
:402E800073696E745C63795F737973696E742E63000000000000204000002440000000400000000000002340000030400000314000009F40000022400000104002020202A1
:402EC000020202020210101D800017007500FF030602063604102000000000007FC0000000040000000000000019324B647D00804000080B100000000000FF012002001F27
:402F000000800004FF081018001000140018001C4044484C50000000081000000800000004000000041000000012000004210000002100000016000040114002C4130013FB
:402F40008013A013200000001C0000000000214000002540000001400000344000002440000031400000324000001F410000234000001140010101010101010101101010C0
:402F8000800019005500F0000501053B04101C01010000000FC000000004000001010101011D3A57789600082000101208000000001F00000010000F002000023F06080E1A
:402FC00000080009000A000B24282C3034000000100000009000000088000000080000008000000004F0000000F00000400200002005A000D00100018001A0012000000020
:403000001000000047656E6572617465645F536F757263655C50536F43365C70646C5C647269766572735C7065726970686572616C5C6374625C63795F6374622E630000C5
:4030400047656E6572617465645F536F757263655C50536F43365C70646C5C647269766572735C7065726970686572616C5C63746461635C63795F63746461632E63000009
:4030800000000000000000010000000100004000010000000000000022000000000000000000000001000000000000000000000000000000000000000200000800000000A0
:4030C0000000000043000000C4420208000000000000000000000000000000000000000000000000000000000000000000000000000000000000000000000000000000007D
:4031000000000000000000000000000000000000000000000000000000000000000000000000000000000000000000000000000000000810004002088C0200005031081006
:403140008C42020844060000644902086002000001000000000800000A000000010000000A0000000A0000000048E80100127A0000093D0000127A0000127A0008000000C9
:40318000401F00000000A00F00000000CC300810EC3008100C31081000000000000000000000000000000000C4300810000000000000000000000000000000000000000058
:4031C00000000000000000000000000000000000000000000000000000000000000000000000000000000000C4420208B10208108D0208100000000080B2C10050B3164BF6
:403200001B681A6AB3F8B030C3EBC303D358002BF5DA3E22114B1A6041F61E7204331A60A3F584730622C3F8182521F07F41C3F81C15D3F81C35084B1A68116AB2F8B03053
:40324000C3EBC3030B4400225A60054BD3F81C35002BFADA704700BFBC4B02080401264000002640F8B5274B1B6893F83130052B04D840F2C311244800F06CFA214F3A6878
:40328000166AB2F8B03003EB83031E4452684FF26003D458A4B200F04DFA05463B681968D3F890208A58013C032C27D8032A0CD1164A127812F0FF0F07D10822B260196847
:4032C000D3F890208A58032AF9D01968D3F884208B588858C0F307221B0E581C02FB00000B4B03FB00F00B4B1B680B4AA2FB03239B09B0FBF3F08230FFF77EFF284600F068
:4033000039FAF8BDBC4B02088C2C08100B00001640420F00A8420208D34D62104378FF2B23D110B500F006FA0446104B1B6893F83130042B04D840F2C3110D4800F00AFA90
:403340000A4B1A68136AB2F8B02003EB8203DB685A68136843F001031360136813F0010FFBD1204600F006FA10BD7047BC4B02088C2C08102DE9F04707468846554B1B6842
:4033800093F83130012B04D840F2C311524800F0E1F9504B1B681C6AB3F8B0201444D3F8B420161993F85030002B79D04B4B1B7813F0FF0F02D04FF0000901E04FF001096D
:4033C000B9F1000F38D0434B1B6893F83130052B04D840F2C311404800F0BCF93D4B1A68116AB2F8B03003EB83030B44D2F8B420D358002B22DB002000F08CF9384B98421B
:403400001ED00023374A12690121184600F09AF918B1354D17E0013500E00025002000F079F92F4B984202D0304B9D42F3D92F4B9D4207D92C4D06E0002504E02A4D02E037
:40344000294D00E00025002D41D100F073F98246274BD3F81C35002B10DA224A0121204600F080F960B94046FFF7C6FE57B13368002BFCDB00F086F9054604E01A4D02E089
:40348000194D00E01B4DB9F1000F05D00121002000F048F90028F9D1504600F06BF916E000F048F980460F4A0121204600F05AF938B947B13368002BFCDB00F063F9054653
:4034C00002E0094D00E00B4D404600F053F92846BDE8F087BC4B02088C2C08100B000016010188000C4B020805005200EF4902000000264001005000F0B47F4B1A6855682E
:403500004FF0B0535B7813F0FF0F04D04FF0B0535B78DBB200E02123212B55D1116AB2F8B030C3EBC303CC18CB58002BF6DAE36843F00103E360146AB2F8B030C3EBC3039D
:403540001C44E36813F0020F2DD0E3689EB21368D2F884105958090A090401F47F01D2F88870DB591B0A41EA03633343E3601168D2F884208B5823F47F4343F410638B5048
:403580005D4A13681C68D3F88810635823F47F4343F41063635013681A68D3F884105158D3F88830D358544B1A68116AB2F8B030C3EBC3030B4400215960116AB2F8B03096
:4035C000C3EBC3030B445B684B4B19680C68D1F894301C44494A136943F004031361012801D030BF07E020BF454B1B7803B120BF0122434B1A70236803F00303022BE9D006
:403600000A6AB1F8B030C3EBC303D018D358002BF6DA4FF0B0535B7813F0FF0F04D04FF0B0535B78DBB200E02123212B30D1C36813F0020F1FD00C68D1F88410635823F42D
:403640007F42C3681B0C1B0203F47F4313436350294B19680C68D1F88800235823F47F420D6AB1F8B030C3EBC3032B44DB681B0E42EA03232350204B1A68136AB2F8B02053
:40368000C2EBC2021344DA6822F00102DA6026E0D5F80C311BBB1B490E681B4BD3F818451A4A106841F61E770F600621C3F818153E2111604422C3F81C25134BD3F81C3591
:4036C000002BFADA4FF0AA33C5F80C310D4B1E60A3F58473C3F8184503F582731860064B1A68116AB2F8B030C3EBC3030B4400225A60F0BC704700BFBC4B020800ED00E05C
:40370000344B02080801264000002640040126400000000001B40248844601BC604700BF150B081001B40248844601BC604700BF8D0A081001B40248844601BC604700BF15
:403740004318081001B40248844601BC604700BFE90C081001B40248844601BC604700BF6917081001B40248844601BC604700BF0909081001B40248844601BC604700BF57
:403780004B18081001B40248844601BC604700BFE10708100000000000000000000000000000000000000000000000000000000000000000000000000000000000000000A2
:4037C00000000000000000000000000000000000000000000000000000000000000000000000000000000000000000000000000000000000000000000000000000000000C9
:0200000490303A
:02000000A18CD1
:0200000490501A
:0C0000000005E2F021002101E30FC28C9A
:00000001FF