:020000041008E2
:4000000000780408EB0208100D0000005103081051030810510308105103081000000000000000000000000000000000714108104D0308100000000011420810754208100E
:400040004D0308104D0308104D0308104D0308104D0308104D0308104D0308104D0308104D0308104D0308104D0308104D0308104D0308104D0308104D0308104D03081000
:400080004D0308104D0308104D0308104D0308104D0308104D0308104D0308104D0308104D0308104D0308104D0308104D0308104D0308104D0308104D0308104D030810C0
:4000C0004D0308104D0308104D0308104D0308104D0308104D0308104D0308104D0308104D0308104D0308104D0308104D0308104D0308104D0308104D0308104D03081080
:400100004D0308104D0308104D0308104D0308104D0308104D0308104D0308104D0308104D0308104D0308104D0308104D0308104D0308104D0308104D0308104D0308103F
:400140004D0308104D0308104D0308104D0308104D0308104D0308104D0308104D0308104D0308104D0308104D0308104D0308104D0308104D0308104D0308104D030810FF
:400180004D0308104D0308104D0308104D0308104D0308104D0308104D0308104D0308104D0308104D0308104D0308104D0308104D0308104D0308104D0308104D030810BF
:4001C0004D0308104D0308104D0308104D0308104D0308104D0308104D0308104D0308104D0308104D0308104D0308104D0308104D0308104D0308104D0308104D0308107F
:400200004D0308104D0308104D0308104D0308104D0308104D0308104D0308104D0308104D0308104D0308104D0308104D0308104D0308104D0308104D0308104D0308103E
:400240004D0308104D0308104D0308104D0308104D0308104D0308104D0308104D0308104D0308104D0308104D0308104D0308104D0308104D0308104D0308104D030810FE
:400280004D0308104D0308104D03081010B5054C237833B9044B13B10448AFF300800123237010BD14760208000000007C8B0810084B10B51BB108490848AFF300800848BA
:4002C000036803B910BD074B002BFBD0BDE81040184700BF00000000187602087C8B0810D0460208000000007047FFF7FDFF72B6104C114DAC4209DA21686268A368043BDF
:40030000A2BFC858D050FAE70C34F3E70B490C4A00209142BCBF41F8040BFAE709480A490860BFF34F8F00F0DBFA00F0B5FA00F09FF9FEE7006D0910186D091014760208BB
:40034000484203080040020808ED00E0FEE7FEE700B504207146084202D0EFF3098001E0EFF30880043000F0B9FFFEE710B582B045F20103984220D00C4607D8B0F5805F2B
:400380000DD044F20803984209D044E045F20C0398423DD045F20E03984220D03BE01F4805F096FA08221E4B9A60022280335A600021084601F056FE2DE01A4805F088FA4A
:4003C0000822174B5A60022280339A6023E02268D15C02AA1A4402F8081C013300E00023A2889342F3DB9DF80030192B0CD000231A4669460C48006802F026FD012803D01C
:400400000A4805F065FA06E0E06810F0A3FC02E0C86810F09FFC02B010BD00BFE879081000033240F879081030760208047A081000B583B002A9002341F8043D084B18689E
:4004400002F03CFE019B3BB14FF08052054B1A60BFF34F8FBFF36F8F03B05DF804FB00BF8841030804ED00E008B5114805F030FA00214FF0FF3002F0C7FC0E4B18600E48A2
:4004800000F05CFA01E008F0AFFC0C4B1B78022BF9D10B4801F024FD4FF0FF31054B186802F016FF08F0A0FC642003F0CDFAF3E7107A0810884103086D030810944103085C
:4004C0003104081000B583B04C4805F001FA7DE09DF801109DF802301B0403EB01639DF8031003EB01239DF8041019449DF80030013B132B6AD8DFE803F00A0E121A222681
:400500002A2E32363A3E42464A4E565E62663C4805F0DEF95AE03B4805F0DAF956E009B9394900E039493A4805F060F94EE009B9384900E03849394805F058F946E0384827
:4005400005F054F942E0374805F050F93EE0364805F04CF93AE0354805F048F936E0344805F044F932E0334805F040F92EE0324805F03CF92AE0314805F038F926E030485F
:4005800005F034F922E02F4805F030F91EE02E4805F02CF91AE009B92C4900E02C492D4805F024F912E009B9284900E028492A4805F01CF90AE0294805F018F906E028483E
:4005C00005F086F902E0274805F082F900226946254B186802F0D0FD01283FF479AF224B186802F015FF0028F0D0204805F070F941F2883003F028FAE8E700BF507A0810B1
:40060000647A0810787A0810247A08102C7A08108C7A0810347A08103C7A0810A07A0810B87A0810C87A0810D87A0810E87A0810FC7A0810147B0810287B0810407B081017
:400640005C7B0810707B0810947B0810487A08104C7A0810A87B0810B87B0810D07B0810E87B0810FC7B0810307602080C7C081000B583B062B604F029F8184C2068002342
:4006800002221946406805F02BF92068002302221946806805F024F9114805F019F900220521102002F08AFB0E4B1860002401940125009523464FF480620B490B4803F012
:4006C0004DF80194009523464FF480620849094803F044F803F074F8FEE700BF8C460208387C081030760208487C081069040810507C0810C504081008B5012000F002FDDE
:4007000008BD00BF704700BF5C4AD2F8803303F00F0303F1D00152F8212002F00702032A04D0042A05D092B9554914E0554A116811E003F1C002514951F8222002F01F0274
:40074000112A06D0132A04D04FF4FA4103E04E4901E04FF400418BBB484BD3F8902502F00100D3F88825C2F30172D3F8883513F0405F07D0414BD3F88835C3F30173012BA3
:4007800002D102E0012300E0002303B108B9032A46D13A48D0F88025C2F31103D0F88425C2F30C02D0F88005C0F300600130B1FBF2F202FB03F2B2FBF0F131E0012B2FD1DA
:4007C0002E4BD3F8402602F00100D3F80026C2F30172D3F8003613F0405F07D0274BD3F80036C3F30173012B02D102E0012300E0002303B108B9032A12D12048D0F8002649
:4008000002F07F02D0F80036C3F30423D0F80006C0F3044002FB01F2B2FBF3F2B2FBF0F1164BD3F88033C3F3011321FA03F215494A601648D0F89030C3F307230133006971
:40084000000E0130B2FBF0F08860B2FBF3F3CB600B6103F5742202F23F220D48A0FB0202C2F387420A7503F2E7330A4AA2FB03239B098B61DB03CB61704700BF000026402A
:4008800000127A008C42020800366E010000214083DE1B43D34D621008B50D4800F0E2FDFFF730FFFFF730FF00221146042000F0DBF9084800F06EFA074B1B6893F8513068
:4008C00013B1064800F0D6FA00F018F908BD00BF60810810347602088C410308587C081008B500F056FD074AD2F8883043F47003C2F88830BFF34F8FBFF36F8F00F04DFDC7
:4009000008BD00BF00ED00E010B504462146034800F0D8FD0028F9D010BD00BF00006640054BD3F80833C3F30803002BF8D0024BD3F84003704700BF0000664008B518B1B6
:40094000094AD062002000E0084858B9084B1B782BB9054801F000FA0122054B1A7008B901F024FA08BD00BFAC42020801001600B47702081F4B98422DD00CD840282ED06F
:4009800003D8E8B1102828D02FE0802829D0B0F5807F28D029E0184B984228D006D8B0F1204F0DD0154B984212D01EE0144B98420AD00133984209D0023B984215D101E04C
:4009C000002070470F4870470F4870470F4870474FF4A0007047074870470D4870470D4870470D487047034870470C4870474FF4A400704706005200010000F0090000A095
:400A0000040000F0010052000200520003005200010050000200500005005200FF00520038B5124B1B6893F83130012B04D840F2C3110F4800F042FC0C4B1D682A6AB5F812
:400A4000B03013442C46D5F8B420D358002B0BDB084B1868FFF78EFF6B6801229A6063689B68002BFBD138BD034838BD8C410308647F0810E0770208020050001A4B18614C
:400A800028B102230370FF23437000234380174B1B6893F850202AB300B583B0B3F93830ADF80030002301931149684600F0B2FBBDF90030002B08DB590903F01F03012292
:400AC00002FA03F30B4A42F82130084B1B6893F8513023B102220849012000F077FA03B05DF804FB704700BFE07702088C4103084147020800E100E0F947020808B502481D
:400B0000FFF7BCFF08BD00BFF477020838B50B4B1B68D3F8B4301B58002B0DDA0D4604460B0C1B0423B140F2D521054800F0C6FBA9B26160002038BD024838BD8C410308FC
:400B4000A47F081001008A0038B50368002B01DA002300E0094B73B90D460446C2600B0C1B0423B140F2BB21054800F0A7FBA9B2A160002038BD014838BD00BF01008A001F
:400B8000A47F081038B504460D4619B99921084800F094FB074B1B68D3F8B4301B59002B03DAE3682B60002038BD034838BD00BFE47F08108C41030801008A00254B1B685A
:400BC00093F8313083423AD900293AD00B6813F01F0F38D170B50D4604461E4B1B6893F83130984204D340F2C3111B4800F066FB184B1B68186AB3F8B03004FB0304174EEE
:400C000034602A68D2080021686804F075F900212046FFF77BFF346825B940F293310E4800F04CFB2A4600212046FFF78DFF60B900210A4B1868FFF769FF40B970BD084811
:400C400070470748704706487047064870BD054870BD00BF8C410308A47F0810F877020803018A0001018A0010B504461346B2B9A9B9124B1B6893F83130984204D340F274
:400C8000C3110F4800F01AFB0C4B1B681A6AB3F8B03004FB03240B4B1C60002010BD43B149B1084A51609360111D2046FFF786FF10BD054810BD044810BD00BF8C410308AC
:400CC000A47F0810F877020803018A002DE9F0411B4B1B68DC68236883422CD90D464609A0EB4610012303FA00F819B900F051FB074600E00027124B18680368002B01DA9D
:400D0000002300E00F4B83B9626852F8263018EA030F05D023EA080342F82630002400E0094C0021FFF7F2FE00E0084C25B9384600F033FB00E0064C2046BDE8F08100BFA4
:400D4000F877020801008A00020188000301880004018A000B4B1B68DB681A6882420CD94109A0EB4110012202FA00F05B6853F82130184203D0044870470448704704486F
:400D8000704700BFF87702080101880004018A0000018800024B1B680BB9014B18607047047802082DE9F8430446884691461D46089F2C4B1B681BB9B5212B4800F07EFA44
:400DC000284B1B682C2000FB04F01C18EEB21E50C5F3072363602D0CA560244B1B6893F831309E4204D340F2C311214800F066FA1E4B1B68196AB3F8B02006FB02162661BF
:400E0000666893F832309E4204D340F2DF11184800F054FA154B1B681D6A803605EB46156561A668330C1B0423B14FF4FF71104800F044FA330C1B0423B140F2FF110C480E
:400E400000F03CFAB3B243EA0646AE60C4F81C90C4F820800023A36117B1B7F90030A381BDE8F88304780208248008108C410308A47F0810F0B58FB0044618B95221274853
:400E800000F01CFAA369072B03D95621234800F015FAE36A1BB95821204800F00FFA236B1BB959211D4800F009FA07AD04F114060FCE0FC537682F6002AD26460FCE0FC594
:400EC00033682B60164B1B68B3F93620079B1344ADF83030089B0D93A26AE16A0CAD00953B460A98FFF75EFF00210091069B0A460598FFF757FF216B284600F08BF9BDF9DA
:400F00003030002B08DB590903F01F03012202FA03F3044A42F821300FB0F0BD248008108C41030800E100E0F8B506460F461D4614461AB9FD211F4800F0C0F91E4B1B6825
:400F40001BB9FE211B4800F0B9F91B4B1B682C2101FB063001FB07314B68012202FA03F31B04466802FA06F60269EAB18F69EFB91268002A01DA002200E0104AC2B92288AA
:400F8000134323600369DC6001238B614D620469330C1B0423B140F2BB21094800F08EF9B2B2A2600020F8BD0648F8BD0648F8BD0548F8BD248008100478020801008A006C
:400FC000A47F081004028A0007028A00F8B505460F4616460E4B1B6823B94FF4AF710D4800F06CF90A4B1B682C2404FB0534236A23B94FF4B171074800F060F9E369B3421E
:4010000004D9236A43F826700020F8BD0248F8BD04780208248008100A028A0038B504460D46074B1B6823B94FF4C871054800F045F9034B1B682C2202FB0434A56238BD47
:40104000047802082480081070B582B000230193044620B940F2D111284800F02FF9236923B94FF4E971254800F028F9636923B940F2D311214800F021F9236A23B94FF401
:40108000EA711E4800F01AF96369DD682A0C20D012041A601B682069194B1B68D3F8B430C358002B15DA01A9FFF76CFD60B9019803681E0CDBB2E269934206D2226A52F823
:4010C000233013B1984700E0002631462069FFF71DFDADB275B16369ADB21D601B68636A1BB198470023636202E0A36A03B198470023A36163691B6802B070BD2480081041
:401100008C41030810B50446074B1B6823B940F2B111064800F0D2F8034B1B682C2000FB0430FFF791FF10BD047802082480081010B50446104B1B6823B940F22B210F489C
:4011400000F0BCF80C4B1B682C2202FB0434B4F90C30002B0DDB5A0903F01F03012101FA03F32032064941F82230BFF34F8FBFF36F8F002010BD00BF04780208248008108D
:4011800000E100E010B504460D4B1B6823B940F24B210C4800F092F8094B1B682C2202FB0434B4F90C30002B08DB590903F01F03012202FA03F3044A42F82130002010BD99
:4011C000047802082480081000E100E038B50D4B9A680D4B9A420FD10D46044621B940F237110A4800F06AF804F11003064A52F8230042F8235038BD1030054B53F820009A
:4012000038BD00BF00ED00E000400208648008100000081048B338B504460D464368072B03D93221134800F049F8B4F900306268002B08DB5201D2B203F1604303F56143F3
:4012400083F8002305E003F00F035201D2B20A49CA540A4B9A680A4B9A4208D12946B4F90000FFF7B3FF002038BD06487047002038BD00BF6480081014ED00E000ED00E0E1
:40128000004002080100560010B5044605E0084B186800F075F8A4F50044B4F5004FF6D8044B186800FB04F000F06AF810BD00BFA8420208A442020801BEFEE738B50D4662
:4012C000044C18220146204604F0BCFBA5610020FFF7F2FF704C0208FEE700BF08B50268254BDA6142681A6282685A62C2689A620269DA6242691A6382695A63C2699A6332
:401300001E4A916AD963D16A1964516A5964516B9964926BDA64F1EE103A13F0900F27D0026A154B1A65426A5A65826A9A65C26ADA65026B1A66426B5A66826B9A66C26BA8
:40134000DA66026C1A67426C5A67826C9A67C26CDA67026DC3F88020426DC3F88420826DC3F88820C26DC3F88C20026EC3F89020FFF7B2FF08BD00BF704C020800ED00E018
:401380000230800803D001300238FCD100BF00BF7047EFF3108072B6704780F31088704710B30246C3680BB303680BB330B40579114B03EB85035C682346002103E09342C9
:4013C00005D019465B69002BF9D1012000E0002080B124B9084B03EB85056A6000E04A6111610023536105E000207047002070470020704730BC70470878020850B310B40A
:4014000002460479164B03EB840359680B4602E0934204D05B69002BFAD1002000E00120D0B18A420ED14B6933B10D4A02EB8404636000221A610FE0094B03EB84040023CD
:40144000636009E01A69596951615A6922B11B69136101E0002070475DF8044B704700BF08780208014B1860704700BF8C41030810B4D0F8003303F00F03072B06D90023D5
:401480000DE0D0F84043CC54013300E000239342F7D306E0D0F8404321F8134001339342F8D35DF8044B704710B51446D0F80833C3F308039A4200D31C462246FFF7D8FF09
:4014C000204610BD036813F4006F01D0802200E04022D0F80832C3F30803934203D0C0F84012012070470020704700BF10B4D0F8003203F00F03072B06D900230DE0CC5C34
:40150000C0F84042013300E000239342F7D306E031F81340C0F8404201339342F8D35DF8044B704710B51446036813F4006F01D0802200E04022D0F80832C3F30803D31A6B
:40154000A34200D81C462246FFF7D0FF204610BD2DE9F84305460C46036813F4006F02D04FF0800801E04FF04008D5F8007207F00F07A26A012A19D9D4F82490E262561E6F
:40158000B9F1000F00D026B940F273512548FFF795FE324649462846FFF7C4FFA36A1B1AA362072F00D9400048446062D5F80832C3F30803984533D0A36A012B30D10023C0
:4015C000A362072F02D8636A1E7801E0636A1E88FFF7DFFEC5F840624FF40073C5F8803FD5F8803FFFF7D9FED5F8883F23F4007222F0010242F4007623F4EE6323F0030303
:4016000023B140F22A410848FFF758FEC5F8886F236843F002032360236B0BB101209847BDE8F88318820810588208102DE9F04105460C46036813F4006F01D0802600E079
:4016400040267608A769D4F81C8017B1B8F1000F04D14FF499613148FFF730FE424639462846FFF721FF236A03442362E3691B1AE36173BBA368FBB1E3689E4201D8013E0E
:4016800000E05E1E2B6813F4006F01D0802300E040239E4204D34FF420712148FFF70EFED5F8043323F0FF03F6B21E43C5F804630123C5F8C83F02E00023C5F8C83F636856
:4016C00023F001036360236B33B304209847BDE8F081A169D5F8002302F00F02072A00D940000844A0619E4216D95C1E2B6813F4006F01D0802300E040239C4204D34FF4EE
:4017000020710748FFF7DAFDD5F8043323F0FF02E3B21343C5F80433BDE8F0811882081058820810002800F0A48170B50546002900F0A18116460C460B78022B03D93F21C9
:40174000A248FFF7BBFD637B023BDBB2062B03D940219E48FFF7B2FDA37B3BB1022B05D0032B03D041219948FFF7A8FD94F82130012B03D942219548FFF7A0FD94F82830A9
:40178000012B03D943219148FFF798FD2378012B06D86368083B082B94BF0023012307E0A37F2BB16368013B062B94BF002301231BB145218548FFF781FDA368053B042B35
:4017C00003D946218148FFF779FD6369FF2B03D947217E48FFF772FDA369FF2B03D948217A48FFF76BFDA37C6BB1237833B9A368092B05D1A37B2BB1012304E0012302E092
:40180000012300E000231BB14A217048FFF756FD636B23F4366323F00D031BB14C216B48FFF74CFDE36B23F4EE6323F003031BB14D216648FFF742FD2378022B01D1A37FD5
:4018400013B16268013A00E00022237F13B14FF4803100E00021A368082B02D84FF4006300E000230B4302F00F02134343F000732B60226B2B6813F4006F01D0802300E0BF
:4018800040239A4203D362215048FFF717FDA26B2B6813F4006F01D0802300E040239A4203D363214948FFF709FD626A2B6813F4006F01D0802300E040239A4203D364219B
:4018C0004248FFF7FBFC23781B0603F040732B64637F0BB1402200E00022A37C13B14FF4806300E000231343227C12B14FF4807200E000221343627C12B14FF4007200E0F8
:4019000000221A43E36A013B1B0403F470231343627B013A02F007021343A27B120102F030021343AB64237B13B14FF4807200E00022E37B23B92378022B03D1012302E009
:40194000012300E0002313B14FF4007300E000231A43A368013B03F00F031343C5F80033227DA3691B0403F47F031343C5F81033E26AD5F8003303F00F0303339A4201D304
:40198000102A03D97A211148FFF798FCE37F23B12378012B03D0002302E0002300E0012313B14FF4807200E00022637B013B03F007031A43A37B1B0103F0300313436B64A3
:4019C000237B2BB14FF4807203E000BF9C8208100022A368013B03F00F0313432278012A02D14FF4803200E000221343C5F8003294F83030C5F8043394F8203013B14FF009
:401A0000007200E0002294F82130012B02D14FF0807300E00023134394F82820012A02D14FF4803200E00022134394F8242013432B6594F83830C5F80432636B23F4926335
:401A400023F002031B051B0DC5F8C83FE36B23F08C035B055B0DC5F8883F76B1002070603060B060F0603062F0623063044B736370BD04487047034870BD002070BD00BFAF
:401A8000EFCDAB000160AA000B694A69934202D34869181A7047CA694869101A184470472DE9F04107460D46036813F4006F02D04FF0800801E04FF040084FEA5808D7F8F7
:401AC0000863C6F308062C6926E00134EB689C4200D100246B699C420FD12B6B0BB1082098476B699C4208D10023C7F8C83F0CB1013C13E0EC68013C10E0D7F84023D7F8F0
:401B0000003303F00F03072B02D8AB681A5502E0AB6823F81420013E002ED6D12C61EC6829463846FFF7B0FF201A804519D908B1441E00E000243B6813F4006F01D0802377
:401B400000E040239C4204D34FF420710648FFF7B5FBD7F8040320F0FF03E0B21843C7F80403BDE8F08100BF5882081038B504460D46D0F8003E13F0080F35D0D0F8CC3FC1
:401B800013F448730AD04A681A434A60C0F8C03FD0F8C03F0B6B0BB110209847D4F8CC3F13F4006F09D06B6843F400636B604FF40063C4F8C03FD4F8C03FD4F8CC3F13F0AD
:401BC000010F11D0EB6923B129462046FFF72EFD05E0AB681BB129462046FFF761FF0123C4F8C03FD4F8C03FD4F8003E13F0040F2ED0D4F88C3F13F4A0630AD02A681A43B5
:401C00002A60C4F8803FD4F8803F2B6B0BB120209847D4F88C3F13F0010F08D029462046FFF796FC0123C4F8803FD4F8803FD4F88C3F13F4007F0BD00022C4F8882F2B687A
:401C400023F001032B60EA622B6B0BB10220984738BD00BF10B5012902D0082929D02EE01A4B1B78012B2CD00320FFF773F8184B984228D0FFF78DFB164B1860022007F02D
:401C8000B5F8044607F0BDF8022C05D1032805D0052805D1002404E00F4C02E0002400E00D4C0D4B9C420FD10A4B1868FFF775FB0AE0084B1868FFF770FB002404E0064C0F
:401CC00002E0054C00E0044C204610BD944103080101880044780208FF00420008B502291CD0082914D001291ED1124B1B78012B1CD0FFF74EFB104B5860022007F076F8FA
:401D0000022815D00C4B5868FFF747FB0B4808BD094B5868FFF741FB002008BD064B5868FFF73BFB054808BD044808BD034808BD002008BD9441030844780208FF004200C6
:401D400010B5044C2046FFF759FB04F11800FFF755FB10BD2C440208B0B110B50B4A9060C36A03B1D3600024094B1C70094B1C70094B1C60094B1C7000F06CF9084B1C70BD
:401D8000084B1C70204610BD0748704744780208A8410308AC410308B0410308AD41030893410308984103080100160070B59AB0424D15AC28686968AA68EB680FC42869A1
:401DC00020604C22002102A803F096F83C4B029315AB049342F61013ADF8143005238DF81630384B9B681B69069341F2960307931B23ADF82030ADF8223003238DF82430CD
:401E000004238DF8253006238DF8263010238DF827308DF828308DF829307223ADF84C3001238DF85030284C2046FFF7B9FA04F11800FFF7B5FA06F0D5FF08A807F02CF82A
:401E40000346002836D1214B03931E4B9B68996B89B10B460DF12A0220311E685D689C68D868166055609460D060103310328B42F3D11B88138002A806F0D6FF0346B0B921
:401E80000122134B1A700023124A1370124A13700C4B9B681A6A00929B6ADB88ADF804301023ADF8063068460FF0F0FD034600210A4A116018461AB070BD00BFDC82081024
:401EC00021240810447802082C440208044D0208944103089C4103089D410308B041030818B1034A1061002070470248704700BF447802080100160008B5044B1B689847D4
:401F0000034B1B6803B1984708BD00BF687802085478020808B510B1034A52689047034B1B6803B1984708BD687802085478020870B5C0B006460C4615464FF480720849A0
:401F4000684602F0CEFF05E016F8012B6A401DF80250013C002CF7D1284640B070BD00BFF082081008B50022FFF7E2FF08BD00BF08B5FFF70EFA08BD08B5FFF70EFA08BD85
:401F800008B50120FFF7FEF808BD00BF08B50120FFF7CEF808BD00BF08B5094B58601960012208491046FFF711F8034628B9002205490120FFF70AF80346184608BD00BFCC
:401FC00068780208151F0810F91E081038B515460B46024601210020FEF7A6FF044618B129460120FFF71AF8204638BD704700BF704700BF002070470048704711001600D0
:402000000048704711001600004870471100160000487047110016000048704711001600004870471100160000487047110016000048704711001600004870471100160070
:4020400000487047110016000048704711001600704700BF08B5024800F07AFD08BD00BF28440208F8B5022872D8002972D10022134606E03B4CE45C012C01D90132D2B2C3
:402080000133002BF6D0012A0CD1374B1B681C6801EB8102930023445B681B79023BDBB2012B59D8314B1B78002B57D1304B1970E0B92D4F3C68236801EB8105AA009D1808
:4020C0006668C1EBC1014B001E44B18829822168114449686468E45A0C8039680C682244526849680B445B8853801EE001281CD11D4F3C68236801EB8105AA009D186668B5
:40210000C1EBC1014B001E44B1892982216811444D68616819440989298039680C682244526849680B445B895380124B18700E4B1B6818680E4B1B7803EB83039A00104430
:402140000BF03AFA034650B90121084A117006E0094B04E0084B02E0084B00E0084B1846F8BD00BF9C4103084C7802089D41030892410308AD410308010016000200160099
:40218000FF00160070B439B9144B1B681B689968CE7F00231D460EE0104B1B681B68D968CE7FF6E7CA5C52B10133CC5C1B2C01D0134400E00125B34201D2002DF2D05DB142
:4021C00001338279CA54002204E0D4180134855C0D550132052AF8D970BC70474C78020870B504460FF06CFC054620BB134B1968086A228902EB82029300143B03445A68F0
:4022000012F0007F17D0E67B1B695A68CB69D21AC6EBC606B318A28821680948184402F060FEE37B074AD35C012B04D1064A137843F002031370284670BD00BF4C780208DA
:40224000A0410308984103089341030830B587B002891A4B1B685B699B889A4229D1044601AB07C883E807000022ADF81020A289ADF8122040228DF814201846FFF7B0FF15
:40228000054680B923681B7803F002039BB22BB10B4B1B6821460B48984704E0084B1B68214609489847094A137803F0FE03137000E00025284607B030BD00BF4C7802089F
:4022C000507802080500010006000100A84103084288531E9BB21B2B1AD84178D1B910B40F4B1868046A02EB82029300143B23445A6812F0007F0FD01B695A68C369D31AC1
:40230000C1EBC1011944074B5B5A1380002004E0012070470120704700205DF8044B70474C780208A041030800B583B00023ADF804308389ADF800300389ADF802301223F2
:402340008DF80430084B1B7813F0010F09D129B18DF8051068460EF0DDFC02E0C0680EF0F9FC03B05DF804FBA841030810B4044688B10023194606E0104A52F82320944274
:4023800000D1012101330D4A1279934206D20029F2D0002003E00021094800E0002050B949B9064B1B792BB9044A42F823400133137100E003485DF8044B7047B44103080A
:4023C000010016000300160070B506460D460020044606E0084B53F824302946304698470134054B1B799C4204D2044B1B7813F0010FEFD170BD00BFB4410308A841030881
:4024000083792BB100207047C25C32B9013300E00023052BF8D9002070470120704700BF70B58CB004460D46BF4A137843F00103137044F20803984200F04C823CD842F2D1
:402440000403984200F0F08019D841F20203984200F0178108D8B0F5805F76D041F20103984200F00B8159E341F20303984200F0418141F20403984200F04B834EE343F220
:40248000190398425BD00AD843F20103984200F0B98043F21203984200F0B4803EE344F20603984200F01A8200F2CD8144F20403984200F0328131E345F20C03984200F0B1
:4024C000DF821BD845F20103984200F046820AD844F20A03984200F0B38144F21003984200F0B1811AE345F20203984200F0838245F20303984200F0B9820FE345F21003CD
:40250000984200F0F8820AD845F20E03984200F0EC8245F20F03984200F0EA82FEE245F21703984200F0ED8246F20103984200F0118245F21403984240F0F082DEE27A4A25
:40254000137803F0FE031370E8E2784B1E683046FFF756FF60B130460CF024F8734E00213068FFF70FFE01213068FFF70BFE37E06F4B1A68936A1B791BB34FF0B05191F835
:40258000043603F03F0391F8050600F03F0043EA801391F8030600F01F0043EA003391F8001601F07F0143EA4143126B1370604A1168096BC3F3072048701268126B1B0C1D
:4025C00093705B4E3368186B0BF0ECFF33680021186BFFF7D7FD33680121186BFFF7D2FD534B1B68986A02300CF0F2FB514A05AB1068516803C305A80BF0F8FF02224E4B41
:402600001A708BE200234C4A13704C4A13704C4A13700A20FEF738FE43F212039C4240F07D82FFF78DFB79E2464B1B6813F0010F40F074820023ADF814308DF816303C4E02
:4026400033689B6A93F900308DF8143005A80BF0E7FF33689B6A93F901308DF8143001238DF81530FF238DF8163005A80BF0D8FF344A136843F0010313604FE2FFF7A4FEBB
:402680004CE24978304B1B88ADF81430002319E02E4A32F81320ADF808209DF8092012B92B48825C00E00022012A0AD9274A12F81320914205D1254A32F81330ADF8143060
:4026C00002E00133002BE3D09DF81530FF2B05D104D140F2CA311F48FEF7F0FDBDF81430ADF82030ADF81C30C3F3072329781A4AD15413E20B78002B40F010820B7A33B902
:40270000164B0022DA809A80154A1A604B60064A137803F0FE03137000E249790A4B1B88ADF81430002337E0A84103085C4402084C780208F0830810944103089D4103084D
:4027400080780208B0410308F8830810904103089C410308FC830810AC4103088878020814760208B04A32F81320ADF80C209DF80D2012B9AD48825C00E00022012A0AD93F
:40278000A94A12F81320914205D1A74A32F81330ADF8143002E00133002BE3D09DF81530FF2B05D104D140F2CA31A148FEF786FDBDF81430ADF82430ADF81430C3F307230D
:4027C00069789C4AD154EB78002B40F0A7816979994B1B88ADF81430002319E0924A32F81320ADF810209DF8112012B98F48825C00E00022012A0AD98B4A12F81320914250
:4028000005D1894A32F81330ADF8143002E00133002BE3D09DF81530FF2B05D104D140F2CA318348FEF74AFDBDF81430ADF82830ADF81430C3F307230121804AD1546DE1A4
:40284000FFF7C2FD6AE1AB7E002B3FD12B7E012B02D100227A4B1A70E97E774B1B88ADF81030002319E0704A32F81320ADF814209DF8152012B96D48825C00E00022012AC9
:402880000AD9694A12F81320914205D1664A32F81330ADF8103002E00133002BE3D09DF81130FF2B05D104D140F2CA316048FEF705FDBDF81030ADF82C30ADF81030C3F39E
:4028C0000723FF2B02D0297E5E4AD15402225E4B1A7023E102225C4B1A701FE1FFF774FD5A4B1B7813F0010F00F01881544B1B78012B03D10222524B1A700FE1032B03D1E4
:4029000000224F4B1A7009E1022B40F0078100224B4B1A704E4B1B685B684E4A1178C1EBC10203EB42039A79002A00F0F7809B88002B00F0F380484B1B78002B40F0EE805A
:402940000120FFF78FFB002840F0E88001223C4B1A70E3E0FFF738FDE0E00B88ADF800309DF801301BB90221304AD15405E023B940F286312E48FEF7A1FC6A7829882A4B96
:4029800023F812106B780021344AD154C3EBC302334E91192E4B1B6818692B78C3EBC30303F584531033034453F8060F90519A889B798A808B716878C0EBC0000621304445
:4029C000FFF7D0FA6B78C3EBC30333449B7998420CD0244B1B680021234898476B78C3EBC303981900229A51C0F8032029462046FFF7EAFC92E00B88ADF804309DF80530D9
:402A00001BB90021094AD15405E023B940F286310748FEF753FC6B780021084AD15429462046FFF7D1FC79E0904103089C410308FC83081098410308F883081080780208AC
:402A40009D4103088478020894410308A84103084C78020892410308AD410308AC410308A041030850780208040001000B88ADF814301723ADF8163005A80EF057F94DE06A
:402A80000846FFF7E3FB014620B929462046FFF79BFC01462846FFF747FC294B1B7813F0110F04D0274B1B682946204698472A89234B1B7813F0010F11D0531E9BB21B2B31
:402AC0000DD912238DF81830ADF81620AB89ADF8143001238DF8193005A80EF01BF9184A137803F0FE03137018E0FFF76DFC15E0FFF76AFC12E0FFF767FC0FE0FFF764FCA9
:402B00000CE00846FFF7E4FB29462046FFF75CFC04E00D4A137843F001031370084B1B7813F0110F09D0064A137803F0FE031370044B1B682946204698470CB070BD00BF81
:402B4000A841030850780208934103080020704730B108B5034A10600348FFF707FC08BD02487047947802084D2B08100100160000F1080343604FF0FF328260C36003613F
:402B800000230360704700BF00230361704700BF43684B609A688A609A68516099600861036801330360704730B40D68B5F1FF3F01D1026907E000F1080200E01A465368B5
:402BC0001C68A542FAD253684B6099608A605160086103680133036030BC704703694268816891608268416851605A68904201D182685A60002202611A68013A1A6018681C
:402C0000704700BF10B5044601F0C4FAA26BE36B9A4201D1012400E0002401F0DDFA204610BD00BF10B5044601F0B4FAA36B0BB9012400E0002401F0CFFA204610BD00BF1F
:402C400070B504461646856B026CFAB166B9806802F047F9A268236C1344A3606268934214D32368A36011E0C06802F03AF9236C5B42E2681A44E26021688A4202D26268F9
:402C80001344E360022E01D105B1013D0135A563002070BD026C72B110B50346C4681444C4604068844201D31868D8600846D96802F017F910BD704738B5054601F06AFA16
:402CC00095F8454064B20AE06B6A53B105F1240000F07EFF08B101F009F8013C64B2002CF2DCFF2385F8453001F076FA01F052FA95F8444064B20AE02B6953B105F1100009
:402D000000F066FF08B100F0F1FF013C64B2002CF2DCFF2385F8443001F05EFA38BD00BF38B540B94FF0200383F31188BFF36F8FBFF34F8FFEE704460D4601F02BFA216890
:402D4000E26B236C03FB021060600020A063A160013A02FB0313E360FF2384F8443084F845307DB92369ABB104F1100000F030FF80B14FF08052094B1A60BFF34F8FBFF35B
:402D80006F8F07E004F11000FFF7F2FE04F12400FFF7EEFE01F020FA012038BD04ED00E010B5029B0C4609B91B6000E01A60D8631C6401211846FFF7B3FF10BD40B94FF023
:402DC000200383F31188BFF36F8FBFF34F8FFEE7F0B583B0034611B101FB00F000E000201D4617460C46483001F07CFB064638B100903B4600F1480221462846FFF7D0FFA0
:402E0000304603B0F0BD00BF40B94FF0200383F31188BFF36F8FBFF34F8FFEE7884208D24FF0200383F31188BFF36F8FBFF34F8FFEE710B50C4602220021FFF7BFFF0346DB
:402E400000B18463184610BDF0B585B0019240B94FF0200383F31188BFF36F8FBFF34F8FFEE7044619B9026C1AB9012202E0012200E0002242B94FF0200383F31188BFF3EE
:402E80006F8FBFF34F8FFEE7022B03D1E26B012A02D102E0012200E0002242B94FF0200383F31188BFF36F8FBFF34F8FFEE71D460E4600F023FF18B9019B1BB9012302E0AB
:402EC000012300E0002343B94FF0200383F31188BFF36F8FBFF34F8FFEE7002701F05AF9A26BE36B9A4201D3022D21D12A4631462046FFF7A5FE636A6BB104F1240000F0AA
:402F000067FE88B14FF08052324B1A60BFF34F8FBFF36F8F08E038B14FF080522D4B1A60BFF34F8FBFF36F8F01F056F901204EE0019B1BB901F050F9002048E01FB902A894
:402F400000F08AFE012701F047F900F077FC01F021F994F844305BB2B3F1FF3F02D1002384F8443094F845305BB2B3F1FF3F02D1002384F8453001F02FF901A902A800F009
:402F800075FEF0B92046FFF73DFEA0B1019904F1100000F0E5FD2046FFF78EFE00F0DCFC00289BD14FF080520A4B1A60BFF34F8FBFF36F8F92E72046FFF77EFE00F0CCFC2F
:402FC0008CE72046FFF778FE00F0C6FC002005B0F0BD00BF04ED00E02DE9F84340B94FF0200383F31188BFF36F8FBFF34F8FFEE7044619B9006C18B9012002E0012000E08B
:40300000002040B94FF0200383F31188BFF36F8FBFF34F8FFEE7022B03D1E06B012802D102E0012000E0002040B94FF0200383F31188BFF36F8FBFF34F8FFEE71F469046CC
:40304000894601F0B9F9EFF311864FF0200383F31188BFF36F8FBFF34F8FA26BE36B9A4201D3022F1ED194F845506DB23A4649462046FFF7E5FDB5F1FF3F0DD1636A9BB121
:4030800004F1240000F0A4FD80B1B8F1000F0FD00120C8F800000CE06B1C5BB284F84530012006E0002004E0012002E0012000E0012086F31188BDE8F88300BF40B94FF0F3
:4030C000200383F31188BFF36F8FBFF34F8FFEE770B50446036C43B14FF0200383F31188BFF36F8FBFF34F8FFEE703681BB943681BB9012302E0012300E0002343B94FF0EB
:40310000200383F31188BFF36F8FBFF34F8FFEE70E4601F051F9EFF311854FF0200383F31188BFF36F8FBFF34F8FA26BE36B9A4218D294F845305BB20132A263B3F1FF3F37
:403140000AD1636A83B104F1240000F041FD68B176B1012030600CE001335BB284F84530012006E0002004E0012002E0012000E0012085F3118870BDF0B585B0019240B949
:403180004FF0200383F31188BFF36F8FBFF34F8FFEE7044619B9036C1BB9012302E0012300E0002343B94FF0200383F31188BFF36F8FBFF34F8FFEE70E4600F09FFD18B9AA
:4031C000019B1BB9012302E0012300E0002343B94FF0200383F31188BFF36F8FBFF34F8FFEE7002700F0D6FFA56BC5B131462046FFF750FD013DA563236963B104F1100023
:4032000000F0E6FC38B14FF08052304B1A60BFF34F8FBFF36F8F00F0DFFF012053E0019B1BB900F0D9FF00204DE01FB902A800F013FD012700F0D0FF00F000FB00F0AAFFF9
:4032400094F844305BB2B3F1FF3F02D1002384F8443094F845305BB2B3F1FF3F02D1002384F8453000F0B8FF01A902A800F0FEFCF0B92046FFF7D6FCA0B1019904F12400E2
:4032800000F06EFC2046FFF717FD00F065FB0028A8D14FF080520D4B1A60BFF34F8FBFF36F8F9FE72046FFF707FD00F055FB99E72046FFF701FD00F04FFB2046FFF7B2FCEC
:4032C00000288FD0002005B0F0BD00BF04ED00E030B585B0019140B94FF0200383F31188BFF36F8FBFF34F8FFEE70446036C43B14FF0200383F31188BFF36F8FBFF34F8F9C
:40330000FEE700F0FBFC18B9019B1BB9012302E0012300E0002343B94FF0200383F31188BFF36F8FBFF34F8FFEE7002500F032FFA36BA3B1013BA363236963B104F1100032
:4033400000F046FC38B14FF08052304B1A60BFF34F8FBFF36F8F00F03FFF012053E0019B1BB900F039FF00204DE01DB902A800F073FC012500F030FF00F060FA00F00AFF1E
:4033800094F844305BB2B3F1FF3F02D1002384F8443094F845305BB2B3F1FF3F02D1002384F8453000F018FF01A902A800F05EFCF0B92046FFF736FCA0B1019904F1240081
:4033C00000F0CEFB2046FFF777FC00F0C5FA0028ACD14FF080520D4B1A60BFF34F8FBFF36F8FA3E72046FFF767FC00F0B5FA9DE72046FFF761FC00F0AFFA2046FFF712FCA6
:40340000002893D0002005B030BD00BF04ED00E040B94FF0200383F31188BFF36F8FBFF34F8FFEE7836B0BB9012070470020704700230BE0074A52F8332032B9054A42F84F
:40344000331002EBC303586070470133092BF1D9704700BFBC41030870B504460D46164600F098FE94F844305BB2B3F1FF3F02D1002384F8443094F845305BB2B3F1FF3FCE
:4034800002D1002384F8453000F0A6FEA36B2BB93246294604F1240000F07CFB2046FFF70BFC70BD094B9B6A1B680BB9012300E0002323B14FF0FF32044BDA627047034B0D
:4034C0009A6AD268D2685268DA6270479878020810B50446006B01F08BF8204601F088F810BD00BF2DE9F0478246894615469846089F099E0A9C9200A521206B01F0FCFC5F
:40350000236B05F18042013A03EB820525F00705002308E019F80310E21882F8341019F8032012B101330F2BF4D9002384F84330062F00D90627E762201DFFF725FB04F17D
:403540001800FFF721FB2461C7F10703A3616462002306E003F1100204EB8202002151600133042BF6D90023A36584F85C3042465146284600F0E4FD206006B13460BDE889
:40358000F08700BF70B5002407E004EB8402930010481844FFF7ECFA0134062CF5D90E4C04F1BC063046FFF7E3FA04F1D0052846FFF7DEFA04F11400FFF7DAFA04F1E400CC
:4035C000FFF7D6FA2046FFF7D3FAA662C4F8F85070BD00BFC87802089878020838B5044600F0D8FD264BD3F8FC200132C3F8FC20D3F800314BB9224BC3F80041D3F8FC30C2
:40360000012B10D1FFF7BEFF0DE01D4BD3F804314BB91B4BD3F80031DA6AE36A9A4202D8174BC3F80041164AD2F808310133C2F80831E36AD2F80C21934202D9104AC2F8D8
:403640000C310F4D05F1300003EB83039A00211D1044FFF79DFA00F0BFFDD5F804316BB1D5F80031DA6AE36A9A4207D24FF08052044B1A60BFF34F8FBFF36F8F38BD00BF82
:403680009878020804ED00E038B517E000F082FD0D4CD4F8F030DD68281DFFF79FFAD4F8FC30013BC4F8FC30D4F81031013BC4F8103100F091FD2846FFF70AFF024BD3F809
:4036C0001031002BE2D138BD9878020808B5FFF7DBFF064B1B6B012BF9D94FF08052044B1A60BFF34F8FBFF36F8FF0E79878020804ED00E070B504460E46174BD3F8145109
:40370000D3F800010430FFF769FAB4F1FF3F07D136B11148D0F800110431FFF739FA70BD2C440D4BD3F800315C60A54208D90A4BD3F8F800D3F800110431FFF735FA70BD0E
:40374000054DA86AD5F800110431FFF72DFAEB6A9C4200D2EC6270BD987802082DE9F04385B006460F4615469846900000F0BAFE60B18146602000F0B5FE044610B1C0F8CD
:40378000309004E0484600F033FF00E000248CB10023039302940D9B01930C9B009343462A4639463046FFF79DFE2046FFF716FF012001E04FF0FF3005B0BDE8F08300BFC3
:4037C00000B583B0194B019300230093802218491848FFF7C3FF012801D100F0F5FA012814D14FF0200383F31188BFF36F8FBFF34F8F114B4FF0FF32DA620122C3F8042174
:403800000022C3F8142100F067FD0BE0B0F1FF3F08D14FF0200383F31188BFF36F8FBFF34F8FFEE703B05DF804FB00BFB479020834840810CD36081098780208034AD2F8D0
:4038400018310133C2F81831704700BF98780208014BD3F814017047987802082DE9F0413C4BD3F81831002B65D13A4BD3F814410134C3F81441CCB99B6A1B6843B14FF0CE
:40388000200383F31188BFF36F8FBFF34F8FFEE7304B9A6AD3F8F8109962C3F8F820D3F820210132C3F82021FFF7FCFD294BDB6A9C4203D2002645E0012600E00026254B13
:4038C0009B6A1B680BB9012300E0002323B14FF0FF32204BDA6235E01E4B9B6ADB68DD686B689C4202D21B4AD3622BE005F104084046FFF773F9AB6A1BB105F11800FFF766
:403900006DF9EB6A134AD2F80C21934202D9114AC2F80C310F4F07F1300003EB83039A0041461044FFF734F9EA6AD7F80031DB6A9A42C1D2C3E7074AD2F824310133C2F8D4
:4039400024310026034BD3F8283103B101263046BDE8F08198780208394BD3F8183143B94FF0200383F31188BFF36F8FBFF34F8FFEE770B500F00EFC314BD3F81821013AD5
:40398000C3F81821D3F81831002B52D12C4BD3F8FC303BBB00244FE0294D2B6ADC6804F11800FFF71BF9261D3046FFF717F9E36AD5F80C21934201D9C5F80C31204D05F182
:4039C000300003EB83039A0031461044FFF7E0F8E26AD5F80031DB6A9A4204D30122C5F8282100E00024164B5B69002BD4D10CB1FFF758FD124BD3F8244164B1FFF72EFFBF
:403A000018B101220E4BC3F82821013CF6D100220B4BC3F824210A4BD3F828315BB14FF08052084B1A60BFF34F8FBFF36F8F012402E0002400E0002400F0CEFB204670BDA3
:403A40009878020804ED00E010B5B0B10446104BD3F8183143B14FF0200383F31188BFF36F8FBFF34F8FFEE7FFF7E8FE00212046FFF740FEFFF770FF00E0002038B94FF0C6
:403A80008052044B1A60BFF34F8FBFF36F8F10BD9878020804ED00E0304BD3F8183123B101222E4BC3F82821704710B52B4B0022C3F82821D3F800311B6B1A68B2F1A53FCD
:403AC0000BD15A68B2F1A53F07D19A68B2F1A53F03D1DB68B3F1A53F07D0204BD3F80001D3F80011343100F093FC1C4BD3F80C310AE043B94FF0200383F31188BFF36F8F5D
:403B0000BFF34F8FFEE7013B03EB83018A0013490A44126B002AECD008469900CC18A2000244546B64685463303019448A0008320244944206D1606803EB83018A0007494E
:403B40000A445063054903EB830082000A44526BD268C1F80021C1F80C3110BD9878020840B94FF0200383F31188BFF36F8FBFF34F8FFEE710B50C46054BD3F800111831EC
:403B8000FFF712F801212046FFF7B4FD10BD00BF9878020838B540B94FF0200383F31188BFF36F8FBFF34F8FFEE70C461546074AD2F800111831FEF7EBFF0DB14FF0FF3483
:403BC00029462046FFF796FD38BD00BF9878020838B5C368DC6844B94FF0200383F31188BFF36F8FBFF34F8FFEE704F118052846FEF7F4FF154BD3F81831ABB9251D2846BA
:403C0000FEF7ECFFE36A114AD2F80C21934202D90E4AC2F80C3103EB83039A0029460C481044FEF7B5FF03E029460A48FEF7B0FFE26A064BD3F80031DB6A9A4204D9012038
:403C4000024BC3F8280138BD002038BD98780208C8780208AC780208034BD3F820210260D3F814314360704798780208F8B540B94FF0200383F31188BFF36F8FBFF34F8FE0
:403C8000FEE7054641B94FF0200383F31188BFF36F8FBFF34F8FFEE70C4600F07BFA124BD3F814016968421A2368B3F1FF3F14D02F680D4ED6F82061B74201D088420ED21D
:403CC0009A4206D29B1A23602846FFF7C5FF002406E000232360012402E0002400E0012400F07AFA2046F8BD987802080122024BC3F82821704700BF98780208064BD3F817
:403D000004312BB1044BD3F818311BB902207047012070470020704798780208064B1A681368B3FA83F35B09036013B9D368186870470020704700BFC479020808B54160E8
:403D4000006191420AD8D21A83699A4211D2011D0A4B5868FEF728FF002008BD9A4201D2994208D2011D054B1868FEF71DFF002008BD012008BD012008BD00BFC479020848
:403D800070B500F007FA0E4B9B68B3B90C4C04F10C063046FEF7ECFE04F120052846FEF7E7FE2660656000220C210A20FFF706F8A06010B10349FFF73BFB00F00DFA70BDFA
:403DC000C47902083C84081000B583B0FFF7D8FF0D4B9B6853B10D4B019303230093002380220B490B48FFF7B9FC00E0002040B94FF0200383F31188BFF36F8FBFF34F8F2A
:403E0000FEE703B05DF804FBC4790208F879020844840810AD40081040B94FF0200383F31188BFF36F8FBFF34F8FFEE730B585B015460446124A9068F0B11A460191029523
:403E40000394052913DCFFF759FF022807D10023089A01A90A488068FEF7F6FF0DE000231A4601A906488068FEF7EEFF05E0002301A9FFF7B1F800E0002005B030BD00BFC7
:403E8000C479020870B582B029E0DB681E68DC68251D2846FEF7A2FE636A20469847E369012B1CD1A36933449E4207D2636024612946104B1868FEF777FE10E000210091B8
:403EC0000B4632462046FFF7A7FF40B94FF0200383F31188BFF36F8FBFF34F8FFEE7054B1B681A68002AD0D1024A51681160536002B070BDC479020838B50546FFF7A8FC27
:403F00000446074B9B6B984204D2FFF7BBFF01232B6001E000232B60014B9C63204638BDC479020870B582B005460E46134B1B68DB68DC68201DFEF751FEE369012B18D114
:403F4000A1692B46324629442046FFF7F7FE80B1002100910B462A462046FFF75DFF40B94FF0200383F31188BFF36F8FBFF34F8FFEE7636A2046984702B070BDC47902086D
:403F800070B582B006460C46FFF758FC01A8FFF7B3FF019B1BBB054644B9B04206D3FFF7DBFC29463046FFF7BDFF1AE02CB10E4B5B681C68B4FA84F464092246711B0A4B35
:403FC0009868FFF749FAFFF7C7FC50B94FF08052064B1A60BFF34F8FBFF36F8F01E0FFF7BBFC02B070BD00BFC479020804ED00E030B587B04DE0039B002B4ADB059C6369C2
:4040000013B1201DFEF7EAFD02A8FFF775FF039B092B3ED8DFE803F00505053D273A05053D270499A5690B46024629442046FFF785FE70B3636A20469847E369012B28D19C
:40404000A269002100910B46049802442046FFF7E3FEF0B94FF0200383F31188BFF36F8FBFF34F8FFEE70499A16141B94FF0200383F31188BFF36F8FBFF34F8FFEE703465C
:40408000024601442046FFF759FE02E0204600F0AFFA002203A9044B9868FFF76DF80028A9D107B030BD00BFC479020800B583B001A8FFF733FE0199FFF762FFFFF798FFE5
:4040C000F6E700BF82B0002301930D4B1B68B3F1FF3F08D04FF0200383F31188BFF36F8FBFF34F8FFEE74FF0200383F31188BFF36F8FBFF34F8F019B002BFCD002B0704763
:404100006044020808480068006880F308884FF0000080F3148862B661B6BFF34F8FBFF36F8F00DF00BF000008ED00E0DFF80C00016841F4700101607047000088ED00E01F
:404140004FF0807340F8043C21F0010140F8081C054B40F80C3C40F8202C6FF0020340F8243C4438704700BFC540081000000000074B19680868B0E8F04F80F30988BFF3F7
:404180006F8F4FF0000080F311887047AFF30080987902084FF0200383F31188BFF36F8FBFF34F8F0A4A136801331360012B0DD1084B1B6813F0FF0F08D04FF0200383F3FA
:4041C0001188BFF36F8FBFF34F8FFEE7704700BF6044020804ED00E0094B1B6843B94FF0200383F31188BFF36F8FBFF34F8FFEE7013B034A13600BB983F31188704700BF5E
:4042000060440208000000000000000000000000EFF30980BFF36F8F154B1A681EF0100F08BF20ED108A20E9F04F10602DE909004FF0200080F31188BFF34F8FBFF36F8FB6
:40424000FFF72AFC4FF0000080F3118809BC19680868B0E8F04F1EF0100F08BFB0EC108A80F30988BFF36F8F704700BFAFF300809879020808B54FF0200383F31188BFF3D9
:404280006F8FBFF34F8FFFF7E9FA18B14FF08052024B1A60002383F3118808BD04ED00E0084A0023136008490B60084B1B680849A1FB03139B09013B06490B60072313607A
:4042C000704700BF10E000E018E000E098420208D34D621014E000E010B582B0314B1A78D2B20192FF221A701B78DBB28DF803309DF803302C4A03F0200313700723536003
:4043000009E0294A5368013B53609DF803305B00DBB28DF803309DF8033013F0800FF0D1214B5B68C3F10702032A08D04FF0200383F31188BFF36F8FBFF34F8FFEE7032A40
:4043400008D04FF0200383F31188BFF36F8FBFF34F8FFEE71B0203F4E063134A5360019BDBB2104A1370114B1A6842F47F021A601A6842F07F421A60FFF792FF00240C4B62
:404380001C60FFF7D3FE0B4A136843F040431360FFF7B8FEFFF780FBFFF794FE204602B010BD00BF00E400E0007A020820ED00E06044020834EF00E0EFF305830F2B0FD906
:4043C000104A9B5CDBB2104A1278934208D24FF0200383F31188BFF36F8FBFF34F8FFEE70A4B1B6803F4E063074A5268934208D94FF0200383F31188BFF36F8FBFF34F8F32
:40440000FEE77047F0E300E0007A02080CED00E008B54FF0200383F31188BFF36F8FBFF34F8F4FF441710248FCF748FFFEE700BF4C840810134A12F0070F07D0D11D21F012
:404440000701C1F5404313440A4601E04FF440430D49C1F858250020C1F85C051344083B23F00703C1F8603558601860981A50601360C1F86405C1F868054FF00043C1F85A
:404480006C357047087A0208B0340308134B00E013461A688242FBD310B45C681919884203D14168214459601846446801198A420DD10B49D1F860158A4206D0526822443D
:4044C00042601A681268026002E0016000E00260984200D018605DF8044B7047083A0308B034030870B50446FFF7A8F93F4BD3F860350BB9FFF79EFF3C4BD3F86C351C42E6
:404500005CD194B1083414F0070F0ED024F00704083404F0070343B14FF0200383F31188BFF36F8FBFF34F8FFEE7002C48D02F4BD3F868359C4245D82C4BD3F8585503F5EA
:40454000AB6301E02B4615466A68944202D92A68002AF7D1254AD2F86025954234D01E6808362A681A606B681B1B102B10D9281910F0070F08D04FF0200383F31188BFF391
:404580006F8FBFF34F8FFEE743606C60FFF77EFF6A681649D1F868359B1AC1F86835D1F864158B4202D21149C1F864350F4BD3F86C351A436A6000232B6006E0002604E0EA
:4045C000002602E0002600E00026FFF7C5F916F0070F08D04FF0200383F31188BFF36F8FBFF34F8FFEE7304670BD00BFB0340308B8B338B50346A0F1080550F8042C1949DF
:40460000D1F86C1512EA010408D14FF0200383F31188BFF36F8FBFF34F8FFEE750F8080C40B14FF0200383F31188BFF36F8FBFF34F8FFEE7A4B198B91C4622EA010243F88B
:40464000042CFFF7FBF854F8043C064AD2F868150B44C2F868352846FFF718FFFFF77CF938BD7047B034030870B539B900240AE015F8010BFCF748F9013402E016460D469F
:404680000024B442F4DB204670BD00BF70B561B900240FE0FCF744F9C0B2287001340A2808D00D2806D0013502E016460D460024B442EFDB204670BD08B502490248FDF765
:4046C00055FA08BD0C4203080000664008B5114B1B785BB9104A11491148FDF723F811491148FCF797FD01220A4B1A700E4BB3F90030002B08DB590903F01F03012202FAB6
:4047000003F30A4A42F82130054A136843F00043136008BD203A03080C4203089C84081000006640B94608108C7C081000E100E081F0004102E000BF83F0004330B54FEA71
:4047400041044FEA430594EA050F08BF90EA020F1FBF54EA000C55EA020C7FEA645C7FEA655C00F0E2804FEA5454D4EB5555B8BF6D420CDD2C4480EA020281EA030382EA61
:40478000000083EA010180EA020281EA0303362D88BF30BD11F0004F4FEA01314FF4801C4CEA113102D0404261EB410113F0004F4FEA03334CEA133302D0524263EB4303E9
:4047C00094EA050F00F0A780A4F10104D5F1200E0DDB02FA0EFC22FA05F2801841F1000103FA0EF2801843FA05F359410EE0A5F120050EF1200E012A03FA0EFC28BF4CF027
:40480000020C43FA05F3C01851EBE37101F0004507D54FF0000EDCF1000C7EEB00006EEB0101B1F5801F1BD3B1F5001F0CD349085FEA30004FEA3C0C04F101044FEA4452E6
:4048400012F5800F80F09A80BCF1004F08BF5FEA500C50F1000041EB045141EA050130BD5FEA4C0C404141EB010111F4801FA4F10104E9D191F0000F04BF01460020B1FA23
:4048800081F308BF2033A3F10B03B3F120020CDA0C3208DD02F1140CC2F10C0201FA0CF021FA02F10CE002F11402D8BFC2F1200C01FA02F120FA0CFCDCBF41EA0C01904002
:4048C000E41AA2BF01EB0451294330BD6FEA04041F3C1CDA0C340EDC04F11404C4F1200220FA04F001FA02F340EA030021FA04F345EA030130BDC4F10C04C4F1200220FAEC
:4049000002F001FA04F340EA0300294630BD21FA04F0294630BD94F0000F83F4801306BF81F480110134013D4EE77FEA645C18BF7FEA655C29D094EA050F08BF90EA020F88
:4049400005D054EA000C04BF1946104630BD91EA030F1EBF0021002030BD5FEA545C05D14000494128BF41F0004130BD14F580043CBF01F5801130BD01F0004545F0FE4196
:4049800041F470014FF0000030BD7FEA645C1ABF194610467FEA655C1CBF0B46024650EA013406BF52EA033591EA030F41F4002130BD00BF90F0000F04BF0021704730B58A
:4049C0004FF4806404F132044FF000054FF0000150E700BF90F0000F04BF0021704730B54FF4806404F1320410F0004548BF40424FF000013EE700BF42004FEAE2014FEA01
:404A000031014FEA02701FBF12F07F4393F07F4F81F06051704792F0000F14BF93F07F4F704730B54FF4607401F0004521F0004120E700BF50EA010208BF704730B54FF038
:404A400000050AE050EA010208BF704730B511F0004502D5404261EB41014FF4806404F132045FEA915C3FF4DCAE4FF003025FEADC0C18BF03325FEADC0C18BF033202EB8A
:404A8000DC02C2F1200300FA03FC20FA02F001FA03FE40EA0E0021FA02F11444C1E600BF70B54FF0FF0C4CF4E06C1CEA11541DBF1CEA135594EA0C0F95EA0C0F00F0DEF894
:404AC0002C4481EA030621EA4C5123EA4C5350EA013518BF52EA033541F4801143F4801338D0A0FB02CE4FF00005E1FB02E506F00042E0FB03E54FF00006E1FB03569CF0B8
:404B0000000F18BF4EF0010EA4F1FF04B6F5007F64F5407404D25FEA4E0E6D4146EB060642EAC62141EA55514FEAC52040EA5E504FEACE2EB4F1FD0C88BFBCF5E06F1ED813
:404B4000BEF1004F08BF5FEA500E50F1000041EB045170BD06F0004646EA010140EA020081EA0301B4EB5C04C2BFD4EB0C0541EA045170BD41F480114FF0000E013C00F391
:404B8000AB8014F1360FDEBF002001F0004170BDC4F10004203C35DA0C341BDC04F11404C4F1200500FA05F320FA04F001FA05F240EA020001F0004221F0004110EBD37041
:404BC00021FA04F642EB06015EEA430E08BF20EAD37070BDC4F10C04C4F1200500FA04F320FA05F001FA04F240EA020001F0004110EBD37041F100015EEA430E08BF20EAC9
:404C0000D37070BDC4F1200500FA05F24EEA020E20FA04F301FA05F243EA020321FA04F001F0004121FA04F220EA020000EBD3705EEA430E08BF20EAD37070BD94F0000FC3
:404C40000FD101F00046400041EB010111F4801F08BF013CF7D041EA060195F0000F18BF704703F00046520043EB030313F4801F08BF013DF7D043EA0603704794EA0C0F35
:404C80000CEA135518BF95EA0C0F0CD050EA410618BF52EA4306D1D181EA030101F000414FF0000070BD50EA410606BF1046194652EA430619D094EA0C0F02D150EA013677
:404CC00013D195EA0C0F05D152EA03361CBF104619460AD181EA030101F0004141F0FE4141F470014FF0000070BD41F0FE4141F4780170BD70B54FF0FF0C4CF4E06C1CEA11
:404D000011541DBF1CEA135594EA0C0F95EA0C0F00F0A7F8A4EB050481EA030E52EA03354FEA013100F088804FEA03334FF0805545EA131343EA12634FEA022245EA1115EB
:404D400045EA10654FEA00260EF000419D4208BF964244F1FD0404F5407402D25B084FEA3202B61A65EB03055B084FEA32024FF480104FF4002CB6EB020E75EB030E22BFAF
:404D8000B61A754640EA0C005B084FEA3202B6EB020E75EB030E22BFB61A754640EA5C005B084FEA3202B6EB020E75EB030E22BFB61A754640EA9C005B084FEA3202B6EBB9
:404DC000020E75EB030E22BFB61A754640EADC0055EA060E18D04FEA051545EA16754FEA06164FEAC30343EA52734FEAC2025FEA1C1CC0D111F4801F0BD141EA00014FF038
:404E000000004FF0004CB6E711F4801F04BF01430020B4F1FD0C88BFBCF5E06F3FF6AFAEB5EB030C04BFB6EB020C5FEA500C50F1000041EB045170BD0EF0004E4EEA11317D
:404E400014EB5C04C2BFD4EB0C0541EA045170BD41F480114FF0000E013C90E645EA060E8DE60CEA135594EA0C0F08BF95EA0C0F3FF43BAF94EA0C0F0AD150EA01347FF48E
:404E800034AF95EA0C0F7FF425AF104619462CE795EA0C0F06D152EA03353FF4FDAE1046194622E750EA410618BF52EA43067FF4C5AE50EA41047FF40DAF52EA43057FF47D
:404EC000EBAE12E710B501390244904207D010F8013B11F8014FA342F7D0181B10BD002010BD10B5431E0A44914204D011F8014B03F8014FF8E710BD02440346934202D05F
:404F000003F8011BFAE770472DE9F04788B0002B149F1299109EDDF84CA01D4627F02007BBBF03F100431D4600232D231446B8BF1446462F0B7003D0452F03D1013601E0CF
:404F4000032300E0022307AA049206AA03928DE8480422462B4600F0DBFE472F804602D1119BDB0728D5462F08EB060911D198F80030302B0AD1002200232046294602F022
:404F800089FC18B9C6F10106CAF80060DAF800309944002200232046294602F07BFC08B9302202E0CDF81C9006E0079B994503D9591C07911A70F8E7079B159AC8EB030331
:404FC0004046136008B0BDE8F08773B503460029B8BF494203F8022BB4BF2D222B220929427019DD0DF1070216460A2591FBF5F405FB14113031092C02F8011D2146F5DC25
:405000003031541E02F8011CB4421A460AD214F8012B03F8012BF7E730241A46214402F8024B5970101A02B070BD00002DE9F04F91B00C46DDF8688016461F46054601F043
:405040007FFD03680893184600F0F4FC00230E93D8F800300990073323F0070303F1080294F818A0D4F800B0C8F80020D3E90023C4E91223D4E9128929F000430B93CDF846
:4050800028804FF0FF32A74BDDE90A0102F034FCA0B94FF0FF32A34BDDE90A0102F00EFC60B9002200234046494602F0FDFB10B12D2384F843309C4B9C4A0AE042464B4642
:4050C0004046494602F018FC002800F09281984B984ABAF1470F8CBF90469846032323612BF0040323604FF000093DE0BAF1670F00F08A81BAF1470F00F086812360002139
:405100000DF133020193636805900292009342464B460691CDF810A0CDF80CE02846FFF7F3FE0AF0DF03472B804600F08481BAF1650F0D9900F28D810139524604F1500011
:405140000D91FFF742FF0E9A8318012A8146236100F37C812268D10700F178819DF8333013B12D2384F84330009733460FAA2146284600F09FF9013002D14FF0FF3096E15B
:4051800023685A0501D4236965E0BAF1650F40F2D58000220023D4E9120102F07BFB78B30123654A31462846B8470130E5D00E9B0D9A9A420BDB2368D80708D423689B07EF
:4051C00040F111814FF0000804F1190906E1099B089A31462846B8470130CED04FF0000804F11A090E9B013B9845E7DA01234A4631462846B8470130BFD008F10108F1E79A
:405200000D9B002B29DC01234B4A31462846B8470130B2D00D9B23B90E9B13B92368D907CCD5099B089A31462846B8470130A4D04FF0000904F11A0A0D9B5B42994509DA0B
:405240000123524631462846B847013095D009F10109F1E70E9B4246A7E00E9AA36D9A42A8BF1A46002A914606DC4FF0000A29EAE97904F11A0B11E0134631464246284697
:40528000B8470130F1D178E701235A4631462846B84701303FF471AF0AF1010AA36DC9EB03029245F0DB08EB03090D9A0E9B9A420FDB2368DA070CD40E9B0D9A9844C9EBBF
:4052C00008089B1A9845A8BF9846B8F1000F08DC0FE0099B089A31462846B8470130EBD14BE743464A4631462846B84701303FF444AF4FF0000928EAE87804F11A0A09E0E3
:405300000123524631462846B84701303FF435AF09F101090D9A0E9B9B1AC8EB03039945EEDB4BE7FFFFEF7FC0890810C4890810C8890810CC890810D08908100E9A012A9E
:4053400001DCDB0738D50123424631462846B84701303FF412AF099B089A31462846B84701303FF40AAF00220023D4E9120102F091FA20B14FF0000804F11A0A0EE00E9B0B
:4053800008F10102013B19E00123524631462846B84701303FF4F1AE08F101080E9B013B9845F1DB4B4604F1500231462846B84701307FF403AFE0E6012342463146284620
:4053C000B8470130EED1D8E601234A4631462846B84701303FF4D1AE08F10108E3680F9A9B1A9845F0DBE0680F9B9842B8BF18465DE06268531C0EA84BF480630DF1340E03
:405400007FF474AE062201E012B90122626075E6002106910DF133018DE80C00236005904246CDF810A0CDF80CE002914B462846FFF76AFD80460D9BD81C02DB62689342C5
:405440001DDDAAF1020A5FFA8AFA70E60133236184E6BAF1660F14D10029636807DD216113B92268D2071DD501330B4419E013B92268D00701D5023313E0012311E04FF0BB
:40548000670A0D9B0E9A934205DB22682361D10708D5013305E0002BD4BFC3F102030123134423610D9BA3654FF0000956E611B0BDE8F08F2DE9F04791461F460A698B681C
:4054C000DDF820809342B8BF1346C9F8003091F8432006460C4612B10133C9F800302368990642BFD9F800300233C9F80030256815F0060510D104F1190A07E001235246A4
:4055000039463046C04701301AD00135E368D9F800209B1A9D42F1DB94F843302268003318BF012392060FD5E1185A1C302081F84300224494F8451082F84310023303E0A8
:405540004FF0FF30BDE8F08704F1430239463046C0470130F4D02268D9F80050E36802F00602042A08BF5D1B2269A3680CBF25EAE57500259342C4BF9B1AED184FF00009D0
:405580001A344D4509D00123224639463046C0470130D5D009F10109F3E70020BDE8F0872DE9F04317460A7E85B06E2A984606460C460C9B01F1430E00F0AE8011D8632AC5
:4055C00022D009D8002A00F0BB80582A40F0CA8081F84520834955E0642A1ED0692A1CD0C0E0732A00F0B08009D86F2A2ED0702A40F0B8800A6842F020020A603EE0752AE9
:4056000024D0782A3AD0ADE01A6801F14205111D1960136884F84230A8E021681A6811F0800F02D0111D196008E011F0400F02F10401196002D0B2F9003000E01368002BFA
:405640003CDA2D225B4284F8432037E021681A6811F0800F02D0111D196007E011F0400F02F10401196001D0138800E01368227E5C496F2A14BF0A2208221BE078225A4970
:4056800084F845202268186812F0800F00F104051D6003D1550601D5038800E00368D00744BF42F0200222601BB9226822F0200222601022002084F8430001E049490A22A8
:4056C0006568A560002D08DB206820F0040020602BB9002D7DD175460CE0002B79D07546B3FBF2F002FB1033CB5C05F8013D03460028F5D1082A0BD12368DA0708D523692B
:4057000062689A42DEBF302305F8013C05F1FF35C5EB0E0323612EE008681A68496910F0800F03D0101D1860136808E010F0400F02F104001860136801D0198000E0196012
:4057400000232361754616E01A68111D1960156862680021284601F063FA08B1401B6060636804E004F1420584F8422001232361002384F84330CDF800803B4603AA214653
:405780003046FFF797FE013002D14FF0FF3026E023692A4639463046C0470130F5D023689B0710D5002504F1190907E001234A4639463046C0470130E7D00135E368039A97
:4057C0009B1A9D42F2DBE068039B9842B8BF184605E00B7884F8423004F142058AE705B0BDE8F083D2890810E38908100FB40A4B13B51C6824B1A36913B9204601F016F975
:4058000005AB049AA1680193204601F013FE02B0BDE8104004B070478C46020870B50E46054618B183690BB901F000F9AB69AC6813B9284601F0FAF8224B9C4201D16C68CA
:4058400008E0214B9C4201D1AC6803E01F4B9C4208BFEC68A3891B0701D523693BB92146284600F057F910B14FF0FF3070BD013EA36816F8011F013BA36091B1002B04DAB3
:40588000A269934206DB0A2904D023685A1C22601970EDE72246284600F0E8F80130E7D1E2E7002B08DA22460A21284600F0DEF80130D9D00A2070BD23680A205A1C226036
:4058C000187070BD048A0810248A0810448A0810024B01461868FFF7A1BF00BF8C4602082DE9F7431D464F4B1E6804460F46904626B1B36913B9304601F098F84A4B9C422B
:4059000001D1746808E0494B9C4201D1B46803E0474B9C4208BFF468B8F1020F04D0B8F1010F79D8002D77DB2146304601F014F8616B41B104F14403994202D0304601F0FC
:40594000A3FC002363630023A3616360A3891B0603D52169304601F097FCA38923F44A6323F00303B8F1020FA3811ED001AB6A462146304601F0E8F8A3891843A0810DB9BF
:40598000009D00E02FBB284601F03EF90746D0B9DDF80090A94502D14FF0FF3006E0484601F032F9074678B9F6E70020A38943F00203A3810023A36004F147032360236181
:4059C000012363612AE0A946A38943F08003A3814D46B36913B9304601F028F8B8F1010F08BFA389276004BF43F00103A381A389276103F0080080B2656158B113F00103B6
:405A00004FF000001DBF6D42A060A561A56008BF184603E0A06001E04FF0FF3003B0BDE8F08300BF8C460208048A0810248A0810448A0810034613F8012B002AFBD1181ADA
:405A40000138704710B5034642B111F8014B03F8014B013A002CF7D11A4400E010BD934202D003F8014BFAE710BD0000F8B50F461446064618B183690BB900F0D7FF224B6F
:405A80009C4201D1746808E0204B9C4201D1B46803E01F4B9C4208BFF468A369A360A3891A0709D523693BB123682069181A63699842FDB20FDB08E02146304600F02AF8DF
:405AC0000028F1D04FF0FF30F8BD2146304600F043FF0028F6D1A368013BA36023685A1C22601F706269431C934204D0A389DB0707D50A2D05D12146304600F02DFF002855
:405B0000E0D12846F8BD00BF048A0810248A0810448A0810324B70B51D6806460C4625B1AB6913B9284600F081FF2E4B9C4201D16C6808E02C4B9C4201D1AC6803E02B4BAE
:405B40009C4208BFEC68B4F90C309AB215071DD4D00602D4092232603AE0510712D5616B41B104F14403994202D0304601F08CFB00236363A38923F02403A381002363603A
:405B800023692360A38943F00803A38123694BB9A38903F42073B3F5007F03D02146304600F0F6FFA28912F0010305D00023A36063695B42A36103E0920758BF6369A3604B
:405BC00023695BB9B4F90C3003F0800080B230B143F04003A3814FF0FF3070BD002070BD8C460208048A0810248A0810448A08102DE9F74F03690C699C42804600F383800F
:405C0000013C01F114074FEA840E00F1140657F8245006EB0E030193013556F82430B3FBF5F507EB0E09002D39D04FF0000A3846B446D34650F8042B93B205FB03A34FEAC7
:405C4000134A9BB2C3EB0B03120CBCF800B005FB02A213FA8BF34FEA124A1FFA82FBDCF80020CBEB124202EB23429BB243EA024381454FEA224B4CF8043BDBD256F80E30AB
:405C80006BB9019B043B9E421A4602D3C8F8104005E01268043B002AF8D1013CF3E7404601F01BFA00282CDB013530464FF0000E57F8041BD0F800C08AB2C2EB0E03090C5F
:405CC00013FA8CF3C1EB1C4202EB23429BB243EA0243B9454FEA224E40F8043BE8D256F8242006EB840362B9043B9E421A4602D3C8F8104005E01268043B002AF8D1013CCE
:405D0000F3E7284600E0002003B0BDE8F08F00002DE9F04F456A97B08246239CCDE9022345B9102000F070FFCAF82400456085600560C560DAF82430196859B15A684A60F3
:405D4000012393408B60504600F0EFFFDAF8243000221A60039BA04A002BBFBF01232360039B23F00043B8BF0393DDF80C80A4BF0023236028F000431B0D1B0593421DD162
:405D8000229A42F20F731360029B43B9934A944BC8F31300002814BF1846104600E09048249B002B00F04A85C37813B100F1080300E0C31C249A136000F040BDDDE90245E6
:405DC000002200232046294601F064FD074658B1229A01231360249B002B00F0228581481860013800F02ABD14AB019315AB009322462B46504601F0EBF9C8F30A56059022
:405E000056B1C5F3130343F07F51204641F44011A6F2FF3611971DE0159B149E1E4406F23243202B0ADD029A06F21240C3F1400322FA00F008FA03F3184304E0C3F12000D5
:405E4000029B03FA00F0FEF7B5FD0123A1F1F871013E11930022644BFEF76EFC58A3D3E90023FEF71DFE58A3D3E90023FEF766FC044630460D46FEF7ADFD55A3D3E900231B
:405E8000FEF70EFE02460B4620462946FEF756FC04460D4601F046FD0022834600232046294601F001FD58B15846FEF793FD02460B462046294601F0EDFC08B90BF1FF3B1E
:405EC000BBF1160F0DD8494901EBCB01DDE90223D1E9000101F006FD30B10BF1FF3B002300E00123109300E01090149B9E1B731E089343BFC3F10009002308934FF000094E
:405F0000BBF1000F07DB089BCDF834B05B4408930023099306E0CBF1000309930023CBEB09090D93209B092B27D8052BC4BF043B2093209BA3F10203CCBF00250125032BC8
:405F400020D8DFE803F0060E0204012302E0012308E000230C93219B002B1CDD069398461EE000230C93219B5B4403F1010806934346012BB8BF012312E00125002320933B
:405F80000C9501E001230C934FF0FF33069398460022122303E00123069398461A462192DAF8244000226260042101F114029A421ED86268013262604900F6E7AFF30080AC
:405FC00061436F63A787D23FB3C8608B288AC63FFB799F501344D33F0000F07FF4890810FD890810D18908100000F83FA08A08106168504600F064FEDAF8243020601B689C
:406000000793B8F10E0F00F25D81002D00F05A819DED027BBBF1000F8DED0E7B31DDA04A0BF00F0302EBC30393ED007B4FEA2B14E2068DED0A7B0CD59A4BDDE90E01D3E90A
:406040000823FEF757FE04F00F04CDE90201032600E00226934D6CB1E30708D5DDE90A01D5E90023FEF71CFDCDE90A01013664100835F0E7DDE90A23DDE90201FEF73AFECD
:4060800020E0CBF1000404B3854B864D04F00F0203EBC203D3E90023DDE90E01FEF700FDCDE9020124110023022654B1E70705D5D5E90023FEF7F4FC013601236410083590
:4060C000F3E71BB1CDE9020100E00226109BEBB1DDE902450022744B2046294601F0E4FBA0B1B8F1000F11D0069B002B40F3E6800BF1FF330A9300226C4B20462946FEF7A2
:40610000CFFC0136CDE90201069F02E0CDF828B047463046FEF75EFCDDE90223FEF7C0FC0022634BFEF70AFB0446A1F15075CFB90022604BDDE90201FEF7FEFA22462B4643
:40614000CDE9020101F0CEFB002840F04182224605F10043DDE9020101F0A6FB002840F02E82ABE00C9A4E4B791E002A4AD003EBC103D3E9002300204F49FEF7BBFD22468A
:406180002B46FEF7D9FA079C05460E46DDE9020101F0C8FB1290FEF71DFC02460B46DDE90201FEF7C9FA129B303304F8013B2A463346CDE9020101F077FB002840F02183D4
:4061C000DDE9022300203849FEF7B6FA2A46334601F06AFB002840F0D280079BE31ABB426CDA0022314B28463146FEF759FC002205460E462D4BDDE90201FEF751FCCDE9DC
:406200000201C3E703EBC10122462B46D1E90001FEF746FC079BCDE91201DC191D46DDE9020101F07FFB0646FEF7D4FB303602460B46DDE90201FEF77FFA05F8016BAC42A2
:40624000CDE902014FF0000223D11B4BDDE91201FEF774FA02460B46DDE9020101F042FB002840F08C80DDE9122300201249FEF763FA02460B46DDE9020101F015FBE8B1D6
:4062800014F8013C302B04F1FF3240F0BA821446F6E7064BFEF704FCCDE90201BFE700BFA08A0810788A08100000F03F0000244000001C40000014400000E03FDDE90E3447
:4062C000CDE90234159B002B7CDBBBF10E0F79DC8F4B03EBCB03D3E90067219B002B14DAB8F1000F11DC40F06C810022894B30463946FEF7D5FBDDE9022301F0E9FA454618
:406300004646002840F05F8166E1079C32463B46DDE90201FEF7EEFC01F004FB0546FEF759FB32463B46FEF7BBFB0B460246DDE90201FEF701FA05F1300E04F801EB079BD6
:40634000C3EB040EF045CDE902012ED102460B46FEF7F4F98046894602460B463046394601F0A2FA78B942464B463046394601F091FA002800F04782E90704D443E2DDF8E7
:4063800028B000E01C4614F8012C392A04F1FF3307D1079A9A42F5D1079930220BF1010B0A701A7801321A702DE200225A4BFEF777FB00220023CDE9020101F06BFA002869
:4063C000A4D020E20C9A002A2DD0209A012A0ADC119A12B103F2334302E0149BC3F13603099D4C4615E0099B08F1FF35AB42BFBF099B0995EA1A0D9BB7BF9B185D1B0D93A0
:406400000025B8F1000FB9BFC8EB090400234C464346089A01211A4450469944089200F023FD064602E0099D0C9E4C465CB1089B002B08DDA342089AA8BF2346C3EB0909E3
:40644000E41AD31A0893099B002B1DDD0C9BABB185B131462A46504600F0A0FD059A01460646504600F009FD05990746504600F05CFC0597099B5A1B06D000E0099A059957
:40648000504600F08BFD05900121504600F0ECFC0D9B05465BB31A460146504600F07EFD209B012B054618DC029B83B9039BC3F3130373B9039B23F000473F0D3F054FB1E3
:4064C000089B013309F101090893012702E0002700E0029F0D9B73B100E000272B6905EB8303186900F073FCC0F1200004E0209B012BD9DD0D9F0120089B184410F01F007A
:406500000ED0C0F12003042B08DDC0F11C0008E0A08A0810000014400000244006D018461C30089B0344814404440893B9F1000F05DD4A460599504600F07EFD0590089BD2
:40654000002B05DD29461A46504600F075FD0546109BEBB12946059800F0BFFD002817DA00230A220599504600F0F6FB0C9B05900BF1FF3B002B00F05881002331460A2254
:40658000504600F0E9FB069B002B064637DC33E0B8F1000F2ADC209B022B27DDCDF81880069B83B929460522504600F0D5FB01460546059800F091FD00280DDC03E03D463F
:4065C00000E000252E46219B079C6FEA030B0AE0DDF828B03D463E46079B079A5C1C312313700BF1010BB0460026F7E00C9BCDF8188023B9079CB1E0209B022BD0DC002C5D
:4066000005DD31462246504600F016FD06469FB17168504600F054FB326902320446920006F10C010C30FEF75CFC01222146504600F002FD804600E0B046029BDDF81C90B5
:4066400003F00103089329460598FFF7D1FA3146044600F13007059800F03FFD424602902946504600F055FDC36802463BB901460990059800F031FD099A034600E00123B6
:4066800011465046099300F050FB099B4BB9209A3AB9089A2AB9392F28D0029B002B1ADC1BE0029A002A04DB1AD1209AC2B9089AB2B9002B11DD01220599504600F0BCFC39
:4066C0002946059000F009FD002802DC05D1FA0703D5392F0AD004F1310709F101040CE0002B09F101040BDD392F05D1392389F8003009F1010954E0013789F800706DE086
:40670000079B069A04F8017CE31A9342A1463AD000230A220599504600F01EFB464505904FF000034FF00A023146504604D100F013FB0646804686E700F00EFB4146064677
:4067400000230A22504600F007FB80467BE700230A220599504600F0FFFA059029460598FFF746FA00F1300704F8017B079B069AE31A9342EBDB079B012AACBF9B1801333E
:40678000B0469946002601220599504600F054FC2946059000F0A1FC002802DC15D1FB0713D54C4614F8013C392B04F1FF3209D1079B934204D10BF1010B3123079A02E076
:4067C0001446EFE70133137008E04C4614F8013C302B04F1FF3201D11446F7E72946504600F0A3FAB8F1000F0DD02EB1464503D03146504600F099FA4146504600F095FAD4
:4068000001E0DDF828B00599504600F08EFA0023229A23700BF101031360249B1BB11C6001E008480AE0079808E0069B002B3FF7E1AE209B022B7FF7DDAEB1E617B0BDE813
:40684000F08F00BFD08908108A892DE9F041054610070C4659D44B68002B02DC0B6C002B17DDE66AAEB102F48052002392B22F682B600AB1606D15E0216A01232846B0474B
:40688000411C0FD12B686BB11D2B01D0162B03D12F600020BDE8F081A38943F04003A381BDE8F081A3895A0705D56368C01A636B0BB1236CC01A00230246E66A216A28466A
:4068C000B047431CA38906D129681D293AD8214ACA40D60736D500226260D9042269226004D5421C01D12B6803B96065616B2F600029CED004F14403994202D0284600F0A5
:40690000C3FC00206063BDE8F0810F69002FC0D093070E6808BF4B690F6018BF0023C7EB06088B6002E00744C0EB0808B8F1000FAFDD43463A46216AA66A2846B04700286C
:40694000F1DCA38943F04003A3814FF0FF30BDE8F08100BF0100402038B50B6905460C46DBB118B183690BB900F060F80C4B9C4201D16C6808E00B4B9C4201D1AC6803E0D5
:40698000094B9C4208BFEC68B4F90C302BB121462846BDE83840FFF757BF002038BD00BF048A0810248A0810448A0810014900F0A9B800BF59690810002310B504460360D8
:4069C0004360836081814366C281036143618361194608225C30FEF78FFA054B6362054BA362054BE362054B2462236310BD00BF8D760810AF760810E77608100B77081056
:406A000070B568234D1E5D430E4605F1740100F089FC044640B1002180E842000C30A06005F16802FEF768FA204670BD836910B5044633BB8364C3640365124B124A1B6840
:406A40008262984204BF0123836100F01FF86060204600F01BF8A060204600F017F80022E06004216068FFF7A7FF01220921A068FFF7A2FF02221221E068FFF79DFF0123CC
:406A8000A36110BDBC890810AD690810F8B51C4B1E68B369074613B93046FFF7C7FF4836B4687368013B04D4B4F90C507DB16834F8E733680BB13668F2E704213846FFF7D7
:406AC0009FFF30600028F6D10C233B60F8BD4FF6FF73E3810123A38165662560A560656025616561A5610822294604F15C00FEF703FA6563A563A564E5642046F8BD00BF53
:406B0000BC8908102DE9F8438046894600F14804002694B1A5686768013F0CD4AB89012B07D9B5F90E30013303D029464046C84706436835F0E72468EBE73046BDE8F88386
:406B4000004870479046020870B50E46B1F90E10002990B014461D4606DA00232B60B3891A060ED540230EE001AA00F0F5FD0028F3DB029A02F47042A2F500535A425A41C9
:406B80002A604FF480630020236010B070BD00008B8973B59E0705460C4610D401AB6A46FFF7D2FF00990646284600F0BBFB68B9B4F90C309A0522D443F00203A38104F127
:406BC0004703236023610123636118E00D4BAB62A389206043F08003A381009B6361019B20614BB1B4F90E10284600F0C7FD18B1A38943F00103A381A0893043A08102B055
:406C000070BD00BFAD690810024B0146186800F089BB00BF8C460208000000000000000001F0FF01102A2BDB10F0070F08D010F8013B013A8B422DD010F0070F42B3F6D11D
:406C4000F0B441EA012141EA014122F007047FF000070023F0E80256083C85EA010586EA010685FA47F5A3FA87F586FA47F6A5FA87F68EB9EED1F0BC01F0FF0102F0070255
:406C800032B110F8013B013A83EA010313B1F8D10020704701387047002D06BF35460338073815F0010F07D1013015F4807F02BF013015F4C03F0130F0BC0138704700BF1A
:406CC00070B5456A04460E463DB91020FFF79CFF6062456085600560C560656AEB6843B1636ADB6853F8260078B1026843F8262017E021220421204600F0B8FA636AE8606E
:406D0000DB68002BECD1002070BD012101FA06F56A1D9200204600F0A9FA0028F3D04660856000230361C36070BD70B5446A06460D463CB91020FFF767FF70624460846017
:406D40000460C4603DB1736A6A68DB6853F82210296043F8225070BD2DE9F0410D691F4606460C4601F1140E0023DEF8000081B202FB01710F0C000C02FB007089B2013359
:406D800001EB00419D424FEA10474EF8041BECDCD7B1A3689D4212DB616830460131FFF78FFF2269023204F10C01804692000C30FEF797F821463046FFF7B7FF444604EBDB
:406DC000850301355F6125612046BDE8F081030C1B0413B90004102300E0002310F07F4F04BF0002083310F0704F04BF0001043310F0404F04BF80000233002803DB420008
:406E000003D5581C70471846704720207047036813F007020BD0D90722D49A074BBF5B089B08036003604CBF01200220704799B209B91B0C102213F0FF0F04BF1B0A083206
:406E4000190704BF1B090432990704BF9B080232D90702D45B0805D00132036010467047002070472020704710B50C460121FFF727FF01224461026110BD2DE9F74F144639
:406E80000A6923699A42B8BF0B468846BCBFA0461C46D8F81070D4F81090D8F80830D8F8041007EB09069E42C8BF0131FFF708FF00F1140505EB860C2B460022634502D2C4
:406EC00043F8042BFAE704F1140208F1140102EB890301EB87070093009B0192934257D9B2F800B0BBF1000F23D08946AE464FF0000859F8044BBEF800A0A3B20BFB03A36C
:406F00004FEA144ADEF8004043444FEA14480BFB0A8404EB1344F2469BB243EA04434F454FEA14484AF8043B01D9D646E1E7CEF80480019BB3F802A00432BAF1000F21D039
:406F40002B682C4689464FF00008B9F800E0B4F802B00AFB0EBEF044A3469BB243EA08434BF8043B59F8043BB4F804E01B0C0AFB03E303EB18434F454FEA134801D95C46B3
:406F8000E3E763600435A7E75CF8043D13B9013E002EF9DC066103B0BDE8F08F2DE9F843154612F0030206460F4607D0013A214C002354F82220FFF7CFFE0746AD1036D045
:406FC000746A3CB91020FFF71FFE7062446084600460C460D6F82480D8F808404CB940F271213046FFF740FF0023C8F80800044603604FF00008EB070AD53946224630468E
:40700000FFF73BFF394681463046FFF78EFE4F466D100CD0206808B10446ECE7224621463046FFF72AFF2060C0F80080F4E73846BDE8F8836C8A08102DE9F0470C464FEA1B
:40704000621A26694968A368564407469146751CAB4202DA01315B00FAE73846FFF730FE0023804600F114011A46534503DA41F823200133F9E72AEAEA73206901EB830361
:4070800019F01F0904F1140101EB800E14D0C9F1200C0022086800FA09F002439A4643F8042B51F8042B8E4522FA0CF2F2D8CAF8042042B1B51C06E0043B51F8042B43F88C
:4070C000042F8E45F9D8013D3846C8F810502146FFF72BFE4046BDE8F08703690A699B1A10B511D192001430143183180A4453F8044D52F8041D8C4202D007D3012010BD07
:407100009842F4D3002010BD184610BD4FF0FF3010BD2DE9F8430C460746114620461546FFF7DBFF061E08D131463846FFF7C8FD012303614661BDE8F883BCBF23462C4631
:4071400038466168BABF1D4601260026FFF7B8FD2B69C660266905F11409143404EB860709EB830800F114054FF0000C54F8043B59F8042B1CFA83F11FFA82FE120CCEEBFB
:407180000101C2EB134303EB214389B24FEA234CC84541EA0343A64645F8043BE6D8BE450ED25EF8041B1CFA81F2131403EB114392B242EA03424FEA234C45F8042BEEE709
:4071C00055F8043D0BB9013EFAE70661BDE8F8832DE9F34101211C46089E099D9046FFF76FFDC4F31303C4F30A5407460CB143F480130193B8F1000F19D002A840F8088DE2
:40720000FFF705FE009B48B1019AC0F1200102FA01F10B43C2407B61019200E07B61019BBB61002B14BF02210121396107E001A8FFF7EDFD019B7B6101213961203034B17D
