:020000041008E2
:4000000000780408EB0208100D00000051030810510308105103081051030810000000000000000000000000000000004D0308104D030810000000004D0308104D030810DA
:400040004D0308104D0308104D0308104D0308104D0308104D0308104D0308104D0308104D0308104D0308104D0308104D0308104D0308104D0308104D0308104D03081000
:400080004D0308104D0308104D0308104D0308104D0308104D0308104D0308104D0308104D0308104D0308104D0308104D0308104D0308104D0308104D0308104D030810C0
:4000C0004D0308104D0308104D0308104D0308104D0308104D0308104D0308104D0308104D0308104D0308104D0308104D0308104D0308104D0308104D0308104D03081080
:400100004D0308104D0308104D0308104D0308104D0308104D0308104D0308104D0308104D0308104D0308104D0308104D0308104D0308104D0308104D0308104D0308103F
:400140004D0308104D0308104D0308104D0308104D0308104D0308104D0308104D0308104D0308104D0308104D0308104D0308104D0308104D0308104D0308104D030810FF
:400180004D0308104D0308104D0308104D0308104D0308104D0308104D0308104D0308104D0308104D0308104D0308104D0308104D0308104D0308104D0308104D030810BF
:4001C0004D0308104D0308104D0308104D0308104D0308104D0308104D0308104D0308104D0308104D0308104D0308104D0308104D0308104D0308104D0308104D0308107F
:400200004D0308104D0308104D0308104D0308104D0308104D0308104D0308104D0308104D0308104D0308104D0308104D0308104D0308104D0308104D0308104D0308103E
:400240004D0308104D0308104D0308104D0308104D0308104D0308104D0308104D0308104D0308104D0308104D0308104D0308104D0308104D0308104D0308104D030810FE
:400280004D0308104D0308104D03081010B5054C237833B9044B13B10448AFF300800123237010BD4C49020800000000F02D0810084B10B51BB108490848AFF30080084899
:4002C000036803B910BD074B002BFBD0BDE81040184700BF0000000050490208F02D08101C430208000000007047FFF7FDFF72B6104C114DAC4209DA21686268A368043B75
:40030000A2BFC858D050FAE70C34F3E70B490C4A00209142BCBF41F8040BFAE709480A490860BFF34F8F00F081F900F05BF900F047F8FEE7F42D08100C2E08104C49020858
:40034000A44B02080040020808ED00E0FEE7FEE700B504207146084202D0EFF3098001E0EFF30880043001F0F5F9FEE7114B0122C3F83021D3F830310F4B1B68C3F30B01EB
:400380000E4AC2F8001123B94FF400620A4B1A607047B3F5006F04D140F2FF72064B1A60704740F2FF72934202D10022024B1A60704700BF000038408C42020800001441B3
:4003C00008B51A4C1A49204601F078F9B4F90030002B08DB5A0903F01F00012181406032144840F82210002B08DB590903F01F03012202FA03F30F4A42F8213062B601F08D
:400400001FFE00F04BF90C4B1868002302221946406801F043FE094C094A0021204601F0FBF90123A3602361FEE700BFB42808106D03081000E100E010430208000038409F
:40044000C428081008B5012000F00CFD08BD00BF704700BF5C4AD2F8803303F00F0303F1D00152F8212002F00702032A04D0042A05D092B9554914E0554A116811E003F156
:40048000C002514951F8222002F01F02112A06D0132A04D04FF4FA4103E04E4901E04FF400418BBB484BD3F8902502F00100D3F88825C2F30172D3F8883513F0405F07D0D6
:4004C000414BD3F88835C3F30173012B02D102E0012300E0002303B108B9032A46D13A48D0F88025C2F31103D0F88425C2F30C02D0F88005C0F300600130B1FBF2F202FBF3
:4005000003F2B2FBF0F131E0012B2FD12E4BD3F8402602F00100D3F80026C2F30172D3F8003613F0405F07D0274BD3F80036C3F30173012B02D102E0012300E0002303B172
:4005400008B9032A12D12048D0F8002602F07F02D0F80036C3F30423D0F80006C0F3044002FB01F2B2FBF3F2B2FBF0F1164BD3F88033C3F3011321FA03F215494A60164812
:40058000D0F89030C3F3072301330069000E0130B2FBF0F08860B2FBF3F3CB600B6103F5742202F23F220D48A0FB0202C2F387420A7503F2E7330A4AA2FB03239B098B61CE
:4005C000DB03CB61704700BF0000264000127A009042020800366E010000214083DE1B43D34D621008B50D4801F09EF9FFF730FFFFF730FF00221146042000F0FBF90848A1
:4006000000F08EFA074B1B6893F8513013B1064800F0F6FA00F038F908BD00BF102C0810684902089C4B02088028081008B501F0ECF8074AD2F8883043F47003C2F8883089
:40064000BFF34F8FBFF36F8F01F0E3F808BD00BF00ED00E010B504462146034800F042FC0028F9D010BD00BF00006640054BD3F80833C3F30803002BF8D0024BD3F84003A6
:40068000704700BF0000664008B50249024800F07DFF08BD644B02080000664008B5114B1B785BB9104A1149114800F04BFD1149114801F003F801220A4B1A700E4BB3F991
:4006C0000030002B08DB590903F01F03012202FA03F30A4A42F82130054A136843F00043136008BDE84A0208644B0208102908100000664089060810BC28081000E100E089
:400700001F4B98422DD00CD840282ED003D8E8B1102828D02FE0802829D0B0F5807F28D029E0184B984228D006D8B0F1204F0DD0154B984212D01EE0144B98420AD00133D4
:40074000984209D0023B984215D101E0002070470F4870470F4870470F4870474FF4A0007047074870470D4870470D4870470D487047034870470C4870474FF4A400704778
:4007800006005200010000F0090000A0040000F0010052000200520003005200010050000200500005005200FF00520038B5124B1B6893F83130012B04D840F2C3110F48EE
:4007C00000F0B8FF0C4B1D682A6AB5F8B03013442C46D5F8B420D358002B0BDB084B1868FFF78EFF6B6801229A6063689B68002BFBD138BD034838BD9C4B020850290810ED
:40080000EC4A0208020050001A4B186128B102230370FF23437000234380174B1B6893F850202AB300B583B0B3F93830ADF80030002301931149684600F040FFBDF90030BA
:40084000002B08DB590903F01F03012202FA03F30B4A42F82130084B1B6893F8513023B102220849012000F077FA03B05DF804FB704700BFEC4A02089C4B02088D430208C9
:4008800000E100E04544020808B50248FFF7BCFF08BD00BF004B020838B50B4B1B68D3F8B4301B58002B0DDA0D4604460B0C1B0423B140F2D521054800F03CFFA9B26160F6
:4008C000002038BD024838BD9C4B02089029081001008A0038B50368002B01DA002300E0094B73B90D460446C2600B0C1B0423B140F2BB21054800F01DFFA9B2A1600020CA
:4009000038BD014838BD00BF01008A009029081038B504460D4619B99921084800F00AFF074B1B68D3F8B4301B59002B03DAE3682B60002038BD034838BD00BFD02908100F
:400940009C4B020801008A00254B1B6893F8313083423AD900293AD00B6813F01F0F38D170B50D4604461E4B1B6893F83130984204D340F2C3111B4800F0DCFE184B1B6800
:40098000186AB3F8B03004FB0304174E34602A68D2080021686801F079FB00212046FFF77BFF346825B940F293310E4800F0C2FE2A4600212046FFF78DFF60B900210A4BF4
:4009C0001868FFF769FF40B970BD084870470748704706487047064870BD054870BD00BF9C4B020890290810044B020803018A0001018A0010B504461346B2B9A9B9124B66
:400A00001B6893F83130984204D340F2C3110F4800F090FE0C4B1B681A6AB3F8B03004FB03240B4B1C60002010BD43B149B1084A51609360111D2046FFF786FF10BD0548E0
:400A400010BD044810BD00BF9C4B020890290810044B020803018A002DE9F0411B4B1B68DC68236883422CD90D464609A0EB4610012303FA00F819B900F0C7FE074600E00F
:400A80000027124B18680368002B01DA002300E00F4B83B9626852F8263018EA030F05D023EA080342F82630002400E0094C0021FFF7F2FE00E0084C25B9384600F0A9FEA6
:400AC00000E0064C2046BDE8F08100BF044B020801008A00020188000301880004018A000B4B1B68DB681A6882420CD94109A0EB4110012202FA00F05B6853F821301842CA
:400B000003D004487047044870470448704700BF044B02080101880004018A0000018800024B1B680BB9014B18607047104B02082DE9F8430446884691461D46089F2C4BEA
:400B40001B681BB9B5212B4800F0F4FD284B1B682C2000FB04F01C18EEB21E50C5F3072363602D0CA560244B1B6893F831309E4204D340F2C311214800F0DCFD1E4B1B68E5
:400B8000196AB3F8B02006FB02162661666893F832309E4204D340F2DF11184800F0CAFD154B1B681D6A803605EB46156561A668330C1B0423B14FF4FF71104800F0BAFDC9
:400BC000330C1B0423B140F2FF110C4800F0B2FDB3B243EA0646AE60C4F81C90C4F820800023A36117B1B7F90030A381BDE8F883104B0208102A08109C4B02089029081052
:400C0000F0B58FB0044618B95221274800F092FDA369072B03D95621234800F08BFDE36A1BB95821204800F085FD236B1BB959211D4800F07FFD07AD04F114060FCE0FC54B
:400C400037682F6002AD26460FCE0FC533682B60164B1B68B3F93620079B1344ADF83030089B0D93A26AE16A0CAD00953B460A98FFF75EFF00210091069B0A460598FFF7DC
:400C800057FF216B284600F019FDBDF93030002B08DB590903F01F03012202FA03F3044A42F821300FB0F0BD102A08109C4B020800E100E0F8B506460F461D4614461AB907
:400CC000FD211F4800F036FD1E4B1B681BB9FE211B4800F02FFD1B4B1B682C2101FB063001FB07314B68012202FA03F31B04466802FA06F60269EAB18F69EFB91268002A7B
:400D000001DA002200E0104AC2B92288134323600369DC6001238B614D620469330C1B0423B140F2BB21094800F004FDB2B2A2600020F8BD0648F8BD0648F8BD0548F8BDE5
:400D4000102A0810104B020801008A009029081004028A0007028A00F8B505460F4616460E4B1B6823B94FF4AF710D4800F0E2FC0A4B1B682C2404FB0534236A23B94FF44A
:400D8000B171074800F0D6FCE369B34204D9236A43F826700020F8BD0248F8BD104B0208102A08100A028A0070B582B000230193044620B940F2D111284800F0BBFC23697B
:400DC00023B94FF4E971254800F0B4FC636923B940F2D311214800F0ADFC236A23B94FF4EA711E4800F0A6FC6369DD682A0C20D012041A601B682069194B1B68D3F8B43045
:400E0000C358002B15DA01A9FFF782FD60B9019803681E0CDBB2E269934206D2226A52F8233013B1984700E0002631462069FFF733FDADB275B16369ADB21D601B68636A1D
:400E40001BB198470023636202E0A36A03B198470023A36163691B6802B070BD102A08109C4B020810B50446074B1B6823B940F2B111064800F05EFC034B1B682C2000FB61
:400E80000430FFF791FF10BD104B0208102A081010B4D0F8003303F00F03072B06D900230DE0D0F84043CC54013300E000239342F7D306E0D0F8404321F813400133934228
:400EC000F8D35DF8044B704710B51446D0F80833C3F308039A4200D31C462246FFF7D8FF204610BD036813F4006F01D0802200E04022D0F80832C3F30803934203D0C0F8B7
:400F00004012012070470020704700BF10B4D0F8003203F00F03072B06D900230DE0CC5CC0F84042013300E000239342F7D306E031F81340C0F8404201339342F8D35DF810
:400F4000044B704710B51446036813F4006F01D0802200E04022D0F80832C3F30803D31AA34200D81C462246FFF7D0FF204610BD2DE9F84305460C46036813F4006F02D0E6
:400F80004FF0800801E04FF04008D5F8007207F00F07A26A012A19D9D4F82490E262561EB9F1000F00D026B940F27351254800F0C1FB324649462846FFF7C4FFA36A1B1A6E
:400FC000A362072F00D9400048446062D5F80832C3F30803984533D0A36A012B30D10023A362072F02D8636A1E7801E0636A1E8800F00BFCC5F840624FF40073C5F8803FF6
:40100000D5F8803F00F005FCD5F8883F23F4007222F0010242F4007623F4EE6323F0030323B140F23641084800F084FBC5F8886F236843F002032360236B0BB10120984754
:40104000BDE8F883502A0810902A08102DE9F04105460C46036813F4006F01D0802600E040267608A769D4F81C8017B1B8F1000F04D14FF49961314800F05CFB424639461B
:401080002846FFF721FF236A03442362E3691B1AE36173BBA368FBB1E3689E4201D8013E00E05E1E2B6813F4006F01D0802300E040239E4204D34FF42371214800F03AFB2E
:4010C000D5F8043323F0FF03F6B21E43C5F804630123C5F8C83F02E00023C5F8C83F636823F001036360236B33B304209847BDE8F081A169D5F8002302F00F02072A00D9C0
:4011000040000844A0619E4216D95C1E2B6813F4006F01D0802300E040239C4204D34FF42371074800F006FBD5F8043323F0FF02E3B21343C5F80433BDE8F081502A0810AE
:40114000902A0810002800F0A48170B50546002900F0A18116460C460B78022B03D93F21A24800F0E7FA637B023BDBB2062B03D940219E4800F0DEFAA37B3BB1022B05D090
:40118000032B03D04121994800F0D4FA94F82130012B03D94221954800F0CCFA94F82830012B03D94321914800F0C4FA2378012B06D86368083B082B94BF0023012307E014
:4011C000A37F2BB16368013B062B94BF002301231BB14521854800F0ADFAA368053B042B03D94621814800F0A5FA6369FF2B03D947217E4800F09EFAA369FF2B03D9482171
:401200007A4800F097FAA37C6BB1237833B9A368092B05D1A37B2BB1012304E0012302E0012300E000231BB14A21704800F082FA636B23F4366323F00D031BB14C216B487D
:4012400000F078FAE36B23F4EE6323F003031BB14D21664800F06EFA2378022B01D1A37F13B16268013A00E00022237F13B14FF4803100E00021A368082B02D84FF400635D
:4012800000E000230B4302F00F02134343F000732B60226B2B6813F4006F01D0802300E040239A4203D36221504800F043FAA26B2B6813F4006F01D0802300E040239A4263
:4012C00003D36321494800F035FA626A2B6813F4006F01D0802300E040239A4203D36421424800F027FA23781B0603F040732B64637F0BB1402200E00022A37C13B14FF46D
:40130000806300E000231343227C12B14FF4807200E000221343627C12B14FF4007200E000221A43E36A013B1B0403F470231343627B013A02F007021343A27B120102F0BB
:4013400030021343AB64237B13B14FF4807200E00022E37B23B92378022B03D1012302E0012300E0002313B14FF4007300E000231A43A368013B03F00F031343C5F80033CE
:40138000227DA3691B0403F47F031343C5F81033E26AD5F8003303F00F0303339A4201D3102A03D97A21114800F0C4F9E37F23B12378012B03D0002302E0002300E00123AA
:4013C00013B14FF4807200E00022637B013B03F007031A43A37B1B0103F0300313436B64237B2BB14FF4807203E000BFD42A08100022A368013B03F00F0313432278012A09
:4014000002D14FF4803200E000221343C5F8003294F83030C5F8043394F8203013B14FF0007200E0002294F82130012B02D14FF0807300E00023134394F82820012A02D131
:401440004FF4803200E00022134394F8242013432B6594F83830C5F80432636B23F4926323F002031B051B0DC5F8C83FE36B23F08C035B055B0DC5F8883F76B10020706031
:401480003060B060F0603062F0623063044B736370BD04487047034870BD002070BD00BFEFCDAB000160AA000B694A69934202D34869181A7047CA684869101A18447047EF
:4014C0002DE9F04107460D46036813F4006F02D04FF0800801E04FF040084FEA5808D7F80863C6F308062C6926E00134EB689C4200D100246B699C420FD12B6B0BB1082087
:4015000098476B699C4208D10023C7F8C83F0CB1013C13E0EC68013C10E0D7F84023D7F8003303F00F03072B02D8AB681A5502E0AB6823F81420013E002ED6D12C61EC68EA
:4015400029463846FFF7B0FF201A804519D908B1441E00E000243B6813F4006F01D0802300E040239C4204D34FF42371064800F0E1F8D7F8040320F0FF03E0B21843C7F8C2
:401580000403BDE8F08100BF902A081038B504460D46D0F8003E13F0080F35D0D0F8CC3F13F448730AD04A681A434A60C0F8C03FD0F8C03F0B6B0BB110209847D4F8CC3F10
:4015C00013F4006F09D06B6843F400636B604FF40063C4F8C03FD4F8C03FD4F8CC3F13F0010F11D0EB6923B129462046FFF72EFD05E0AB681BB129462046FFF761FF01233C
:40160000C4F8C03FD4F8C03FD4F8003E13F0040F2ED0D4F88C3F13F4A0630AD02A681A432A60C4F8803FD4F8803F2B6B0BB120209847D4F88C3F13F0010F08D02946204644
:40164000FFF796FC0123C4F8803FD4F8803FD4F88C3F13F4007F0BD00022C4F8882F2B6823F001032B60EA622B6B0BB10220984738BD00BF38B50D4B9A680D4B9A420FD148
:401680000D46044621B940F237110A4800F052F804F11003064A52F8230042F8235038BD1030054B53F8200038BD00BF00ED00E000400208142B08100000081048B338B529
:4016C00004460D464368072B03D93221134800F031F8B4F900306268002B08DB5201D2B203F1604303F5614383F8002305E003F00F035201D2B20A49CA540A4B9A680A4B92
:401700009A4208D12946B4F90000FFF7B3FF002038BD06487047002038BD00BF142B081014ED00E000ED00E0004002080100560001BEFEE738B50D46044C18220146204681
:4017400000F056FDA5610020FFF7F2FFB8480208FEE700BF08B50268254BDA6142681A6282685A62C2689A620269DA6242691A6382695A63C2699A631E4A916AD963D16A2E
:401780001964516A5964516B9964926BDA64F1EE103A13F0900F27D0026A154B1A65426A5A65826A9A65C26ADA65026B1A66426B5A66826B9A66C26BDA66026C1A67426C21
:4017C0005A67826C9A67C26CDA67026DC3F88020426DC3F88420826DC3F88820C26DC3F88C20026EC3F89020FFF7B2FF08BD00BFB848020800ED00E00230800803D001306F
:401800000238FCD100BF00BF7047EFF3108072B6704780F31088704700287DD00346002A7CD070B45068000280B29568AD0405F480252843D468240404F4403404431069CE
:40184000000600F0E0602043147F0CB1012400E0002420430C1DA4011851D06828B903EB81100024C0F808410CE0012805D1146803EB8110C0F8084104E003EB8110012490
:40188000C0F80841106938B9546903EB8110C0F80C419469C0F81041146803EB8110C0F81441906CB0F1FF3F17D0946A04F00F04166B360206F470663443956B2D0405F47D
:4018C00070252543146C2403A4B22C430001C0B2204303EB8114C4F82001506A00F00300D66A360106F030063043556B2D0205F440752843D46BA401E4B20443506C800081
:4019000000F00C00204303EB8113C3F82401126AC3F83821002003E0024870470148704770BC70470100B600014B1860704700BF9C4B020870B50E461446054620B94FF453
:4019400089715C48FFF7F6FE24B940F213115948FFF7F0FE002D00F0A780002C00F0A680731EDBB2022B04D94FF48F715148FFF7E1FE23683BB1B3F1804F04D040F21F11A8
:401980004C48FFF7D7FE2379032B04D94FF490714848FFF7CFFE637943B1082B06D0102B04D040F221114348FFF7C4FEE3883BB1B3F5006F04D04FF491713E48FFF7BAFE40
:4019C00023896BB1B3F5807F0AD0B3F5007F07D0B3F5407F04D040F223113648FFF7AAFEA37A33B1802B04D04FF492713148FFF7A1FEE37A33B1402B04D040F225112D48B2
:401A0000FFF798FE237B33B1202B04D04FF493712848FFF78FFE23682B60227961790A43E3881A4323891A43A37A1A43E37A1A43237B134311B94FF4805200E00022134337
:401A4000012E01D0032E14D16B606279082A01D1032200E00122C5F8082FAA6A617B09B1012100E000210A43AA622A6A42F001022A62023EF6B2012E1AD8AB606379082BEC
:401A800001D1032300E00123C5F8143FAB6A627B0AB1022200E000221343AB622B6A43F002032B62002070BD034870BD024870BD002070BDC82C081001002E00002800F0AE
:401AC000E081F0B5032840F0D980032921D809B9072A0AD9012901D10F2A06D9022901D1032A02D9032914D19AB9BA4B1D68AE6895F8710001FA00F7032404FA00F307EA1B
:401B0000030095F870301340034343F08043C6F80034B04B1B6893F83F0037281ED903291CD809B9072A0AD9012901D10F2A06D9022901D1032A02D903290FD172B99D680B
:401B400093F8710001FA00F6032404FA00F0304093F8703013400343C5F8DC3C012922D871B9072A56D89B4B18688468B0F87430234453F8220020F47F4043F8220049E0E2
:401B8000012947D10F2A45D8924B1B689868B3F87630184450F8223023F47F0323F47F4340F8223036E002291BD1032A32D8894C23689868B3F87830184450F8223023F4C6
:401BC0007F0323F47F4340F8223020688468B0F87830234453F8220020F0F80043F8220018E0032916D1AAB97A4C20688568B0F87A302B4453F82200C0B243F822002068D5
:401C00008468B0F87A30234453F8220020F0F80043F82200032900F2338109B9072A0DD9012901D10F2A09D9022901D1032A05D9032940F02581002A40F02281654B1D682F
:401C4000AC6895F87360032000FA06F795F8703095F8726003FA06F63E4395F87170B940B840014031431A4041EA020343F00043C4F80034AB68D3F80034F0BD032921D8E8
:401C800009B9072A0AD9012901D10F2A06D9022901D1032A02D9032914D19AB94D480668B76896F8714001FA04FE032505FA04F00EEA000496F870001040204340F08040BB
:401CC000C7F800044348006890F83F40372C1ED903291CD809B9072A0AD9012901D10F2A06D9022901D1032A02D903290FD172B9866890F8714001FA04F7032505FA04F44B
:401D00003C4090F8700010402043C6F8DC0C012932D8A9B9072A00F28480FF2B00F281802C480468A568B4F87400284450F8224024F47F441B029BB2234340F8223070E054
:401D400001296ED10F2A6CD8B3F5803F69D2214800688468B0F87600044454F8220020F47F0020F47F401B0223F07F4323F0FF03034344F8223054E002292DD1032A50D857
:401D8000B3F5803F4DD205981F284AD8114D28688468B0F87800044454F8220020F47F0020F47F401B0223F07F4323F0FF03034344F822302B689868B3F87830184450F81C
:401DC000223023F0F804059BDB00DBB2234340F8223026E09C4B0208032922D10ABBB3F1807F1ED205981F281BD8264D28688468B0F87A00044454F82200C0B240EA0323BC
:401E000044F822302B689868B3F87A30184450F8223023F0F804059BDB00DBB2234340F8223003292CD809B9072A0AD9012901D10F2A06D9022901D1032A02D903291FD1F4
:401E4000F2B9104B1D68A86895F87360032404FA06F795F8703095F8726003FA06F63E4395F87170B940BC40214031431A4041EA020343F00043C0F80034AB68D3F8003409
:401E8000F0BD70479C4B020870B582B00C46054618B949215448FFF74DFC1CB94A215248FFF748FC002D00F09A80002C00F099802378012B03D958214B48FFF73BFC63689C
:401EC00033B1B3F1807F03D059214748FFF732FC237A042B03D95A214348FFF72BFC638963B1B3F5807F09D0B3F5007F06D0B3F5407F03D05B213C48FFF71CFCE3687BB154
:401F0000B3F5800F0CD0B3F5400F09D0B3F1006F06D0B3F1086F03D05C213348FFF70AFC237C012B03D95D212F48FFF703FC636933B1B3F1804F03D05E212B48FFF7FAFB8F
:401F4000A3693F2B03D95F212748FFF7F3FBA36903F03F0263891343217A8A1ED2B2022A01D843F08053042901D143F000536268134362691A43E66816432378012B02D1DA
:401F80000023012201E001230022217C012902D142F4807201E043F4807394F82410A9620121A962C5F8B020C5F8B430E369C3F30B03C5F80031236AC3F30B03C5F8043180
:401FC00094F8253043B1E36AA26A94F82610207A246B0094FFF772FD2E60002002E0034800E0024802B070BD042D08100100660070B539B900240AE015F8010BFEF72AFBE3
:40200000013402E016460D460024B442F4DB204670BD00BF70B561B900240FE0FEF726FBC0B2287001340A2808D00D2806D0013502E016460D460024B442EFDB204670BDA5
:4020400010B50E4B1B786BB90D4C21460D48FFF71BFF04F1340202210B48FFF76BFC0122064B1A70074A136843F000431360A2F58022136843F00043136010BD504B0208A6
:40208000442D0810000014410000104102440346934202D003F8011BFAE770472DE9F7431D464F4B1E6804460F46904626B1B36913B9304600F0A2F94A4B9C4201D17468E3
:4020C00008E0494B9C4201D1B46803E0474B9C4208BFF468B8F1020F04D0B8F1010F79D8002D77DB2146304600F01EF9616B41B104F14403994202D0304600F035FA0023C8
:4021000063630023A3616360A3891B0603D52169304600F029FAA38923F44A6323F00303B8F1020FA3811ED001AB6A462146304600F0EEF9A3891843A0810DB9009D00E0E7
:402140002FBB284600F008FA0746D0B9DDF80090A94502D14FF0FF3006E0484600F0FCF9074678B9F6E70020A38943F00203A3810023A36004F147032360236101236361FB
:402180002AE0A946A38943F08003A3814D46B36913B9304600F032F9B8F1010F08BFA389276004BF43F00103A381A389276103F0080080B2656158B113F001034FF00000CD
:4021C0001DBF6D42A060A561A56008BF184603E0A06001E04FF0FF3003B0BDE8F08300BF10430208902D0810B02D0810D02D081010B5034642B111F8014B03F8014B013A54
:40220000002CF7D11A4400E010BD934202D003F8014BFAE710BD00008A892DE9F041054610070C4659D44B68002B02DC0B6C002B17DDE66AAEB102F48052002392B22F6801
:402240002B600AB1606D15E0216A01232846B047411C0FD12B686BB11D2B01D0162B03D12F600020BDE8F081A38943F04003A381BDE8F081A3895A0705D56368C01A636BAD
:402280000BB1236CC01A00230246E66A216A2846B047431CA38906D129681D293AD8214ACA40D60736D500226260D9042269226004D5421C01D12B6803B96065616B2F6060
:4022C0000029CED004F14403994202D0284600F04BF900206063BDE8F0810F69002FC0D093070E6808BF4B690F6018BF0023C7EB06088B6002E00744C0EB0808B8F1000F1D
:40230000AFDD43463A46216AA66A2846B0470028F1DCA38943F04003A3814FF0FF30BDE8F08100BF0100402038B50B6905460C46DBB118B183690BB900F060F80C4B9C4229
:4023400001D16C6808E00B4B9C4201D1AC6803E0094B9C4208BFEC68B4F90C302BB121462846BDE83840FFF757BF002038BD00BF902D0810B02D0810D02D0810014900F0D5
:40238000A9B800BF29230810002310B5044603604360836081814366C281036143618361194608225C30FFF771FE054B6362054BA362054BE362054B2462236310BD00BF43
:4023C000E1260810032708103B2708105F27081070B568234D1E5D430E4605F1740100F011F9044640B1002180E842000C30A06005F16802FFF74AFE204670BD836910B5CC
:40240000044633BB8364C3640365124B124A1B688262984204BF0123836100F01FF86060204600F01BF8A060204600F017F80022E06004216068FFF7A7FF01220921A06854
:40244000FFF7A2FF02221221E068FFF79DFF0123A36110BD8C2D08107D230810F8B51C4B1E68B369074613B93046FFF7C7FF4836B4687368013B04D4B4F90C507DB16834B9
:40248000F8E733680BB13668F2E704213846FFF79FFF30600028F6D10C233B60F8BD4FF6FF73E3810123A38165662560A560656025616561A5610822294604F15C00FFF78B
:4024C000E5FD6563A563A564E5642046F8BD00BF8C2D08102DE9F8438046894600F14804002694B1A5686768013F0CD4AB89012B07D9B5F90E30013303D029464046C8476C
:4025000006436835F0E72468EBE73046BDE8F88370B50E46B1F90E10002990B014461D4606DA00232B60B3891A060ED540230EE001AA00F03BF90028F3DB029A02F470425C
:40254000A2F500535A425A412A604FF480630020236010B070BD0000024B0146186800F051B800BF1043020838B50546002946D051F8043C0C1F002BB8BFE41800F03AF9E5
:402580001F4A1368114613B96360146032E0A3420ED92268A018834204BF18685B68636004BF121822600C6024E0A24203D813465A68002AF9D118681918A1420BD1216889
:4025C000014458188242196014D1106852685A60014419600EE002D90C232B600AE021686018824204BF10685268626004BF091821605C602846BDE8384000F0FCB838BD2C
:402600005C4B020870B5CD1C25F0030508350C2D38BF0C25002D064601DBA94202D90C23336046E000F0E6F8234B1C681A462146A1B10B685B1B0ED40B2B03D90B60CC1818
:40264000CD501EE08C420DBF63684B686360136018BF0C4615E00C464968E9E7174C23681BB9304600F02CF820602946304600F027F8431C18D0C41C24F00304A0420DD13E
:402680002560304600F0B7F804F10B00231D20F00700C31A0ED05A42E25070BD211A304600F00EF80130EBD10C233360304600F0A2F8002070BD00BF5C4B0208584B0208B3
:4026C00038B5064C002305460846236000F0BEF8431C02D1236803B12B6038BDA04B020810B50C46B1F90E1000F086F80028ABBF636DA3891B1823F48053ACBF6365A38181
:4027000010BD2DE9F0411F468B89DB0505460C46164605D502230022B1F90E1000F058F8A389B4F90E1023F48053A38132463B462846BDE8F04100F017B810B50C46B1F948
:402740000E1000F045F8431CA38915BF606523F4805343F48053A38118BFA38110BDB1F90E1000F013B8000038B5074C054608461146002222601A46FFF73AFC431C02D1F5
:40278000236803B12B6038BDA04B020838B5064C002305460846236000F040F8431C02D1236803B12B6038BDA04B020838B5074C0023054608461146236000F037F8431C85
:4027C00002D1236803B12B6038BD00BFA04B020838B5074C054608461146002222601A4600F02CF8431C02D1236803B12B6038BDA04B02087047704738B5074C054608461E
:402800001146002222601A46FFF704FC431C02D1236803B12B6038BDA04B0208024B58221A604FF0FF307047A04B0208024B58221A604FF0FF307047A04B0208024B5822E4
:402840001A604FF0FF307047A04B0208044A05491368002B08BF0B461844106018467047604B0208A84B0208F8B500BFF8BC08BC9E467047F8B500BFF8BC08BC9E467047D9
:402880000300000001000000010000000000000005036000040000000100000000000000010000000604600008000000C84A0208450408105A000000070000002E00000027
:4028C0000700000040420F00000000000000000000000000000000000500000005000000010000000200000003000000FFFFFFFF03000000FFFFFFFF03000000FFFFFFFF36
:4029000003000000FFFFFFFF03000000FFFFFFFF000000000C0000000800000000020000000000000000000000000000000000000000000000000000000000000B00000078
:402940000000000000000000000000000000000047656E6572617465645F536F757263655C50536F43365C70646C5C647269766572732F7065726970686572616C2F6970B7
:40298000632F63795F6970635F6472762E68000047656E6572617465645F536F757263655C50536F43365C70646C5C647269766572735C7065726970686572616C5C6970D3
:4029C000635C63795F6970635F6472762E68000047656E6572617465645F536F757263655C50536F43365C70646C5C647269766572735C7065726970686572616C5C697066
:402A0000635C63795F6970635F6472762E63000047656E6572617465645F536F757263655C50536F43365C70646C5C647269766572735C7065726970686572616C5C69702A
:402A4000635C63795F6970635F706970652E630047656E6572617465645F536F757263655C50536F43365C70646C5C647269766572735C7065726970686572616C5C73638B
:402A8000625C63795F7363625F756172742E680047656E6572617465645F536F757263655C50536F43365C70646C5C647269766572735C7065726970686572616C5C73633D
:402AC000625C63795F7363625F636F6D6D6F6E2E6800000047656E6572617465645F536F757263655C50536F43365C70646C5C647269766572735C706572697068657261CE
:402B00006C5C7363625C63795F7363625F756172742E630047656E6572617465645F536F757263655C50536F43365C70646C5C647269766572735C706572697068657261C1
:402B40006C5C737973696E745C63795F737973696E742E63000000000000204000002440000000400000000000002340000030400000314000009F40000022400000104038
:402B800002020202020202020210101D800017007500FF030602063604102000000000007FC0000000040000000000000019324B647D00804000080B100000000000FF01A3
:402BC0002002001F00800004FF081018001000140018001C4044484C50000000081000000800000004000000041000000012000004210000002100000016000040114002E8
:402C0000C41300138013A013200000001C0000000000214000002540000001400000344000002440000031400000324000001F41000023400000114001010101010101014A
:402C400001101010800019005500F0000501053B04101C01010000000FC000000004000001010101011D3A57789600082000101208000000001F00000010000F0020000287
:402C80003F06080E00080009000A000B24282C3034000000100000009000000088000000080000008000000004F0000000F00000400200002005A000D00100018001A00128
:402CC000200000001000000047656E6572617465645F536F757263655C50536F43365C70646C5C647269766572735C7065726970686572616C5C6374625C63795F6374627A
:402D00002E63000047656E6572617465645F536F757263655C50536F43365C70646C5C647269766572735C7065726970686572616C5C63746461635C63795F63746461634C
:402D40002E63000000000000000000010000000100004000010000000000000022000000000000000000000001000000000000000000000000000000000000000200000852
:402D8000000000000000000043000000B0420208000000000000000000000000000000000000000000000000000000000000000000000000000000000000000000000000D4
:402DC0000000000000000000000000000000000000000000000000000000000000000000000000000000000000000000000000000000000000000810004002088C020000E3
:402E0000142E08108C4202082C0600004C49020858020000000800000048E80100127A0000093D0000127A0000127A0008000000401F00000000A00F00000000902D081027
:402E4000B02D0810D02D081000000000000000000000000000000000882D08100000000000000000000000000000000000000000000000000000000000000000000000007B
:402E8000000000000000000000000000000000000000000000000000B0420208B10208108D0208100000000080B2C10050B3164B1B681A6AB3F8B030C3EBC303D358002BF1
:402EC000F5DA3E22114B1A6041F61E7204331A60A3F584730622C3F8182521F07F41C3F81C15D3F81C35084B1A68116AB2F8B030C3EBC3030B4400225A60054BD3F81C35E8
:402F0000002BFADA704700BF9C4B02080401264000002640F8B5274B1B6893F83130052B04D840F2C311244800F04AFA214F3A68166AB2F8B03003EB83031E4452684FF22D
:402F40006003D458A4B200F05BFA05463B681968D3F890208A58013C032C27D8032A0CD1164A127812F0FF0F07D10822B2601968D3F890208A58032AF9D01968D3F8842014
:402F80008B588858C0F307221B0E581C02FB00000B4B03FB00F00B4B1B680B4AA2FB03239B09B0FBF3F08230FFF77EFF284600F02FFAF8BD9C4B0208502908100B0000166D
:402FC00040420F0094420208D34D62104378FF2B23D110B500F014FA0446104B1B6893F83130042B04D840F2C3110D4800F0E8F90A4B1A68136AB2F8B02003EB8203DB6863
:403000005A68136843F001031360136813F0010FFBD1204600F0FCF910BD70479C4B0208502908102DE9F04707468846554B1B6893F83130012B04D840F2C311524800F0EF
:40304000BFF9504B1B681C6AB3F8B0201444D3F8B420161993F85030002B79D04B4B1B7813F0FF0F02D04FF0000901E04FF00109B9F1000F38D0434B1B6893F83130052B68
:4030800004D840F2C311404800F09AF93D4B1A68116AB2F8B03003EB83030B44D2F8B420D358002B22DB002000F0BAF9384B98421ED00023374A12690121184600F0B8F912
:4030C00018B1354D17E0013500E00025002000F0A7F92F4B984202D0304B9D42F3D92F4B9D4207D92C4D06E0002504E02A4D02E0294D00E00025002D41D100F081F9824671
:40310000274BD3F81C35002B10DA224A0121204600F06EF960B94046FFF7C6FE57B13368002BFCDB00F05CF9054604E01A4D02E0194D00E01B4DB9F1000F05D00121002068
:4031400000F046F90028F9D1504600F061F916E000F056F980460F4A0121204600F048F938B947B13368002BFCDB00F039F9054602E0094D00E00B4D404600F049F92846B8
:40318000BDE8F0879C4B0208502908100B00001601018800EC4A020805005200EF4902000000264001005000F0B47F4B1A6855684FF0B0535B7813F0FF0F04D04FF0B05355
:4031C0005B78DBB200E02123212B55D1116AB2F8B030C3EBC303CC18CB58002BF6DAE36843F00103E360146AB2F8B030C3EBC3031C44E36813F0020F2DD0E3689EB213684B
:40320000D2F884105958090A090401F47F01D2F88870DB591B0A41EA03633343E3601168D2F884208B5823F47F4343F410638B505D4A13681C68D3F88810635823F47F43C0
:4032400043F41063635013681A68D3F884105158D3F88830D358544B1A68116AB2F8B030C3EBC3030B4400215960116AB2F8B030C3EBC3030B445B684B4B19680C68D1F89C
:4032800094301C44494A136943F004031361012801D030BF07E020BF454B1B7803B120BF0122434B1A70236803F00303022BE9D00A6AB1F8B030C3EBC303D018D358002B74
:4032C000F6DA4FF0B0535B7813F0FF0F04D04FF0B0535B78DBB200E02123212B30D1C36813F0020F1FD00C68D1F88410635823F47F42C3681B0C1B0203F47F43134363502E
:40330000294B19680C68D1F88800235823F47F420D6AB1F8B030C3EBC3032B44DB681B0E42EA03232350204B1A68136AB2F8B020C2EBC2021344DA6822F00102DA6026E029
:40334000D5F80C311BBB1B490E681B4BD3F818451A4A106841F61E770F600621C3F818153E2111604422C3F81C25134BD3F81C35002BFADA4FF0AA33C5F80C310D4B1E6048
:40338000A3F58473C3F8184503F582731860064B1A68116AB2F8B030C3EBC3030B4400225A60F0BC704700BF9C4B020800ED00E0144B020808012640000026400401264001
:4033C00001B40248844601BC604700BF3517081001B40248844601BC604700BF590A081001B40248844601BC604700BFAD07081001B40248844601BC604700BFD50808107D
:4034000001B40248844601BC604700BF0B18081001B40248844601BC604700BF1318081001B40248844601BC604700BFE10A081001B40248844601BC604700BFB50C081082
:40344000000000000000000000000000000000000000000000000000000000000000000000000000000000000000000000000000000000000000000000000000000000004C
:40348000000000000000000000000000000000000000000000000000000000000000000000000000000000000000000000000000000000000000000000000000000000000C
:4034C00000000000000000000000000000000000000000000000000000000000000000000000000000000000000000000000000000000000000000000000000000000000CC
:40350000000000000000000000000000000000000000000000000000000000000000000000000000000000000000000000000000000000000000000000000000000000008B
:40354000000000000000000000000000000000000000000000000000000000000000000000000000000000000000000000000000000000000000000000000000000000004B
:40358000000000000000000000000000000000000000000000000000000000000000000000000000000000000000000000000000000000000000000000000000000000000B
:4035C00000000000000000000000000000000000000000000000000000000000000000000000000000000000000000000000000000000000000000000000000000000000CB
:0200000490303A
:0200000020E2FC
:0200000490501A
:0C0000000005E2F021002101E30241E2D2
:00000001FF