:020000041000EA
:4000000000400208230100100D00000085010010000000000000000000000000000000000000000000000000000000008101001000000000000000008101001081010010E9
:400040008101001081010010810100108101001081010010810100108101001081010010810100108101001081010010810100108101001081010010810100108101001060
:400080008101001081010010810100108101001081010010810100108101001081010010810100108101001081010010810100108101001081010010810100108101001020
:4000C00010B5064C2378002B07D1054B002B02D0044800E000BF0123237010BD1415000800000000846B0010084B10B5002B03D00749084800E000BF07480368002B00D154
:4001000010BD064B002BFBD09847F9E70000000018150008846B001050020008000000007047FFF7FDFF72B60F4C104DAC4209DA21686268A368043B02DBC858D050FAE769
:400140000C34F3E70A490B4A0020521A02DD043A8850FCDC084809490860BFF34F8F00F00BF900F01DF8FEE7ECB9011004BA011014150008602200080000000808ED00E0CF
:40018000FEE7FEE700B504207146084202D0EFF3098001E0EFF30880043001F07DFDFEE710B562B6002003F041F9034800F06AF906F0CAFDFCE7C0460000081010B5002024
:4001C00001F040F910BDC04670B56249E0239B00CB580F2213401A00D0329200525807210A40032A05D0042A06D0002A12D15A4814E05A4A106811E01A00C0329200554931
:4002000052581F210A40112A06D0132A04D0FA20C00103E0524801E080200002002B36D14C4BB222D2009A5801211140B125ED005A59120F032422405B591B0F1C4207D086
:40024000444C63591B0F03242340012B02D102E0012300E00023002B01D0002901D1032A4BD13C4BB022D2009D58AD03AD0B3D495958C904C90C9C58240E01231C400134FA
:4002800003F0EAF86843210003F0E6F835E0012B33D1304BC822D2009A5801251540C024E4001A59120F03210A401B591B0F194207D028490B591B0F03210B40012B02D1DC
:4002C00002E0012300E00023002B01D0002D01D1032A12D11F4DC022D200AB587F210B40A958090A1F263140AC58240C3440584303F0B2F8210003F0AFF8E0239B00154A7A
:40030000D3581B0903221340D840144C6060164B1D692D0AFC32154001351969090E013103F09AF8A060290003F096F80500E06020610E4BC0180E4903F08EF820750D4B39
:40034000E818FA21890003F087F8A061C003E06170BDC0460000264000127A00C000000800366E0184050000000021403F420F0040420F00E703000010B5284802F0A2F919
:40038000274CB022D200A3585B005B08A350E0218900635830208343635080235B04A350204A214BE250A02292010433E250FF221E4BE25002F074F9C0225200A358012145
:4003C0008B43A35000F0E2F9FFF7FEFEB0235B055B78002B04D0B0235B055B78DBB200E02123212B03D1124B0022DA605A60114C22008021042000F06DFD2000103000F042
:4004000047FE0D4B1A685123D35C002B02D00B4800F0B4FE00F032FB10BDC046AC5E00100000264001000200840500008C050000E0002340301500085C220008B84F00104E
:400440008023024AD3580320184070470000214010B501F0B2FC084980228C58074B2340074C23438B508823034AD358DB06FAD501F0A7FC10BDC04600002140FCFF0000B5
:400480000100FA0570B50500830504D0E821FF310F4801F0CBFB01F090FC0400FFF7D0FF032801D1FFF7D4FF0A4AB0239B00D55080215058084B03400848034353508823B9
:4004C000044AD358DB06FAD5200001F07AFC70BDEC4F001000002140FCFF00000300FA05FEE7C046F0B50025002711E0BB00C658F3B2FF22964308E06A008A181478A419F4
:40050000527822700135013BDBB2002BF4D10137002FEBD0F0BDC04610B50A00002104F01BFD10BD10B504F00EFD10BD30B587B08649A022D2008B58032083438B50844A4D
:40054000116808688823CB58C31818688149084018601368186884241B59C01803681B021B0A80256D042B430360106805680359EB1818680140196013683E229A5C002AE3
:4005800006D07248E02189004258753CA24342503E229A5C002A06D06C48E021890042583024A24342503E229B5C002B07D06749E02292008B588020000603438B500021FE
:4005C000012000F0BDFF0021022000F0B9FF0021032000F0B5FF0021042000F0B1FF0021002000F0ADFF01A85B4903000A0032CA32C312CA12C300F0F7FF002802D0042099
:40060000FFF76EFF5149554A8B588020000603438B50534801F0A4F8002802D00420FFF75FFF4A4C4F4BE1584F4A0A40E250E1584E4A0A40E250E25880252D062A43E2505E
:40064000043BE1584A4A0A40E250E158494A0A40802189010A43E250E258802109020A43E250454A1168454B0B40802149000B431360002001F08AFF414BE2581543E55052
:40068000E158012291430A43E2506421002001F01BFB2F4B1B683F229A5C022A03D90021384A986881509A6874215B5AD2181168284B0B408C2189010B431360244B1B68B8
:4006C0007322995C703A8A40110070229A5C7220185C82400A43802109060A438021C900986842509A6852583F229A5C132A06D970229A5C01210A402349986842509A6842
:4007000074215B5AD2185168124B0B40C42189010B4353600E4B1A687323D35C032199407023D35C7220105C1C0084402143012003400B43802109060B438021C900906801
:40074000435093685B5807B030BDC046000026405C220008FF00FFFF0C500010087F0000400D030004050000FEFCFFFFFFFF00FFFFF0FFFFFF8FFFFF00002740FFFCFFFF8B
:400780000C050000080C00004C0C000070B58AB09621002001F098FA01F06EFA002814D101F05AFAC0235B00484AD358DB0705D41100474A8B585B005B088B504349444A6A
:4007C0008B588020000603438B50012001F076FE404A516C404B0B40E82189010B435364536C1B0AFF2213403A2B07D1394A516C3A4B0B40E82189010B4353640023002292
:400800003749384801F0E0FE002300223649374801F0DAFEFFF78AFE354A364B1A6000240CE0620012195300334AD318198B9A8AD88A00041043FFF76FFE01340B2CF0D974
:4008400000240AE06200121993002B4AD3185A6E196ED86DFFF766FE0134112CF2D9274C2100343120003830FFF73CFE244A1368812149000B43136001AD2A0023003C330F
:4008800043CB43C243CB43C243CB43C229001D4800F000FA2A002300603313CB13C213CB13C213CB13C22900174800F0F3F92A00164B043313CB13C213CB13C213CB13C24F
:4008C0002900134800F0E6F90AB070BD000026400C05000000002740FF00FFFFFFC5FFDF0F0E0040050E0000010700402A0700000300FA05F00121400C5000100C5100102B
:400900000079344000033240800332408C51001080043240C00543425841C0B27047C046214B984230D00ED8402831D004D800281FD010282AD031E080282BD080235B00FF
:40094000984229D02AE0194B984229D007D8A0231B0698420DD0164B984212D01EE0154B98420AD0144B984209D0144B984215D101E0002016E0124814E0124812E012489E
:4009800010E0A020C0030DE007480BE00F4809E00F4807E00F4805E0034803E00E4801E0A420C0037047C04606005200010000F0090000A0040000F0050000F0030000F06C
:4009C000010052000200520003005200010050000200500005005200FF00520070B5124B1A683123D35C002B04D1C421FF310F4801F01CF90C4B1D682C00B423EB582A6A01
:400A0000944663441B68002B0BDB094B1868FFF787FF6B6801229A6063689B68002BFBD100E0044870BDC0465C220008E45A0010C01600080200500010B50D4B186100287B
:400A400005D002230370FD33437000234380094B1B6850229A5C002A08D051229B5C002B04D04F3A0449002000F042FC10BDC046C01600085C220008C902000810B5024859
:400A80001430FFF7D9FF10BDC016000870B504000D00FFF73FFF002836D0002D36D0FFF793FB1B4B1B4A1A6000225A609C60DD60194B1B6852329A5C002A1FD01A6884212F
:400AC0005B58D31819681A68120AFF2313405A1C0B0E01335343114C5C43114B1868FA21890002F0B9FC0100200002F0B5FC0D4BC1188020400004F057FA08E00021802085
:400B0000400004F051FA02E0074800E0064870BDC0160008000100055C220008C0EA2101C4000008482600000600520010B5FFF755FF10BD10B50400FFF7ECFE00283ED027
:400B4000FFF742FBE02252051E4B1A601E4B1B78002B05D01B4A1368802149000B431360184B5C6000229A60DA60184B1B6854329A5C002A1ED01A6884215B58D31819684A
:400B80001A68120AFF2313405A1C0B0E013353430F4C5C430F4B1868FA21890002F05CFC0100200002F058FC0B4BC118002004F0FBF905E00021002004F0F6F900E0074831
:400BC00010BDC046C01600080B0000165C22000860F59000C4000008980800000600520070B504000D00FFF795FE002842D0002D42D0FFF7E9FAC022D204204B1A60204BDB
:400C00001B78002B05D01D4A1368802149000B4313601A4B802252005A609C60DD60194B1B68AD3A9A5C002A1FD01A6884215B58D31819681A68120AFF2313405A1C0B0E83
:400C400001335343104C5C43104B1868FA21890002F002FC0100200002F0FEFBE1239B00C118002004F0A0F907E00021002004F09BF902E0064800E0054870BDC0160008F7
:400C80000B0000165C220008808D5B00C40000080600520070B505000C0000285DD000295DD0FF230A689A4303D099212D4800F0BDFFFF2322699A4303D09A21294800F088
:400CC000B5FFA3685B0D03D09B21264800F0AEFF63685B0A03D09C21224800F0A7FFE3695B0F03D09D211F4800F0A0FF236A5B0F03D09E211B4800F099FF1B4A11688B69F0
:400D0000EB1ADB0949691B01CB18216829607D211068415C6918E06808607E211068415C6918206908607F211068415C6918606908607C211068415C6918A068086061682A
:400D4000A961116880228A5CAD18A2692A60E2691A60226A5A60002002E0044800E0034870BDC046245B00105C22000801005A0070B504000D000A4B1A68B423D3581B18A5
:400D80001B68002B0ADA0B0C03D00649064800F04DFF2D042D0C6560002000E0034870BD5C220008D5020000A45B001001008A0070B505000C000368002B01DA002300E096
:400DC000084B002B0BD1EA60230C03D00649074800F02CFF2404240CAC60002000E0014870BDC04601008A00BB020000A45B001070B505000C1E03D19921084800F016FF26
:400E0000074B1A68B423D3585B191B68002B03DAEB682360002000E0024870BDE45B00105C22000801008A0070B504000D00234B1A683123D35C834236D9002936D00B6811
:400E4000DB0635D13123D35C984204D3C421FF311B4800F0EBFE194B1B681A6AB0215B5A5C431419174E34602B68DA080021686804F072F800212000FFF77AFF3468002D13
:400E800003D111490E4800F0D1FE2A0000212000FFF78EFF00280DD10A4B18680021FFF767FF002808D108E0084806E0074804E0064802E0064800E0054870BD5C220008F9
:400EC000A45B0010D81600089303000003018A0001018A0010B50400002A17D1002915D1124B1A683123D35C984204D3C421FF310F4800F09BFE0D4B1B681A6AB0215B5A66
:400F00005C4314190B4B1C6000200EE0002A09D0002909D0074B59609A60191D2000FFF783FF02E0044800E0034810BD5C220008A45B0010D816000803018A00F0B583B016
:400F40000D001C4B1B68DC68236883422DD947097B01C01A012383401E00002903D100F02CFF019001E000230193124B18680368002B01DA002300E00F4B002B0ED1636874
:400F8000BF00DF193B68334203D133433B60002400E00A4C0021FFF7EBFE00E0084C002D04D1019800F00DFF00E0064C200003B0F0BDC046D816000801008A000201880094
:400FC0000301880004018A00F0B583B00D001C4B1B68DC68236883422DD947097B01C01A012383401E00002903D100F0E6FE019001E000230193124B18680368002B01DA7A
:40100000002300E00F4B002B0ED16368BF00DF193B68334203D0B3433B60002400E00A4C0021FFF7A5FE00E0084C002D04D1019800F0C7FE00E0064C200003B0F0BDC046FB
:40104000D816000801008A00020188000301880004018A000A4B1B68DA68136883420BD943095901401A0121814052689B009B580B4203D0034802E0034800E00348704766
:40108000D81600080101880004018A0000018800034B1B68002B01D1014B18607047C046E4160008F0B5474680B404000F0090461E002D4B1B68002B03D1B5212B4800F0A7
:4010C000B5FD294B1B682C2060431C18FF22150035402560330A13406360360CA660244B1A683123D35C9D4204D3C421FF31214800F09CFD1E4B1A68B023D35A6B43116A14
:401100008C466344236166683223D35C9E4204D3E021FF31174800F089FD154B1B681D6A80367601AD196561A668330C04D0FF214900104800F07AFD330C03D00E490D4879
:4011400000F074FD3604330C1E43AE604346E36127620023A361069B002B02D000229B5EA38104BC9046F0BDE4160008245C00105C220008A45B0010FF010000F0B58FB07E
:40118000041E03D15221294800F050FD6368032B03D95421254800F049FDE36A002B03D15821224800F042FD236B002B03D159211E4800F03BFD07AA1300210061C961C305
:4011C00021C921C302AD290023001433C1CBC1C141CB41C10821535E0CAE3380144B1B6836215B5E07998C466344B370089B0D930B9B0A980096A26AE16AFFF753FF2B69FA
:40120000E868002200920021FFF74CFF216B300000F09EFC0023F25E002A05DB1F231A401E3B9340034A13600FB0F0BD245C00105C22000800E100E0F8B505000F001600E3
:401240001C00002A03D1FD21224800F0EFFC224B1B68002B03D1FE211E4800F0E7FC1E4B1B682C2128004843181879435918012213004D68AB401B044568AA401500026955
:40128000002A20D08F69002F1FD11268002A01DA002200E0114A002A19D132681204120C134333600369DE6001238B614C6204692B0C03D00A490B4800F0B8FC2A04120CE1
:4012C000A260002004E0084802E0084800E00748F8BDC046245C0010E416000801008A00BB020000A45B001004028A0007028A0070B504000D0016000F4B1B68002B04D147
:40130000AF2149000D4800F091FC0B4B1B682C2060431C18236A002B04D1B1214900074800F084FCE369B34204D9236AB6009D51002000E0024870BDE4160008245C001007
:401340000A028A0070B505000C00084B1B68002B04D1C8214900064800F068FC034B1B682C2068431818846270BDC046E4160008245C001070B582B004000023019300281A
:4013800004D1D221FF312D4800F050FC2369002B04D1E9214900294800F048FC6369002B04D1D421FF31254800F040FC236A002B04D1EA214900214800F038FC6269D56800
:4013C0002B0C24D01B041360136820691C4B1A68B423D358C3181B68002B18DA01A9FFF707FD00280ED1019803681E0CFF221340E269934207D29B00226AD358002B02D031
:40140000984700E0002631002069FFF7B1FC2D042D0C0FD063691D601B68636A002B03D098470023636203E0A36A002B00D098470023A36163691B6802B070BD245C001014
:401440005C22000810B50400084B1B68002B04D1B221FF31064800F0E9FB044B1B682C2060431818FFF786FF10BDC046E4160008245C001010B504000E4B1B68002B03D1AD
:401480000D490E4800F0D2FB0A4B1B682C20604318180C23C25E002A0ADB1F231A401E3B9340802206498B50BFF34F8FBFF36F8F002010BDE41600082B020000245C0010EE
:4014C00000E100E010B504000C4B1B68002B03D10B490C4800F0AAFB084B1B682C20604318180C23C25E002A05DB1F231A401E3B9340054A1360002010BDC046E41600087F
:401500004B020000245C001000E100E010B50400094B1B689B6CC340DB0703D4BE21074800F084FB044B1B681B691034A402E3580F20184010BDC0465C220008645C0010E2
:40154000134B1A683C23D35C83421DD9042904D94B1EFF3B9BB2132B18D8FF290CD91F2319400C4A0300C0339B009950D03080000423835000200AE007231940D03080001B
:40158000044BC150002002E0034800E0024870475C2200080000264001004A0010B504000E4B1A683C23D35C834204D8A12149000B4800F03BFB2300D0339B00094A98580B
:4015C00007231840042807D1C034A400A3581B30184080235B00184310BDC0465C220008A45C00100000264070B5041E03D14A494A4800F01BFBB023DB00494AD358002B2A
:4016000000DA87E0474B22689A4203D94649434800F00CFB23689B039B0BE279002A02D08022520400E000221343B022D2003C498B50A2883D4B9A4204D98C2189003748EA
:4016400000F0F4FA22893A4B9A4203D93949334800F0ECFAA388DB04D90C23891B04364A13400B43354A2E498B50A37A0F2B04D98E218900294800F0D9FAE37A0F2B03D912
:401680002F49264800F0D2FAA289284B9A4203D92C49224800F0CAFAA37A0F211940E27A1201FF2313400B43A289120226490A401343A27B1207C02189050A401343B12261
:4016C000D20017498B50A379042B03D91F49134800F0ACFA228A164B9A4204D9912189000E4800F0A3FA0E4819494558194B1D40A3791B02E022D20013402B434350455865
:40170000154B1D40238A1B040B4A13402B434350002000E0114870BD1F020000A45C001000002640FFFF030029020000FF1F0000FF010000310200000000FF018405000054
:40174000390200003A02000000FF1F00430200008C050000FFF8FFFFFFFF00FE03004A0070B505003149324A8B588020000603438B502C0003E0012000F04CFA013CB2237E
:40178000DB002A4AD3585B0701D4002CF3D12749B122D2008858274B03408020800503438B50002D01D0002C0CD02049B022D2008B588020000603438B5003E0012000F0E7
:4017C00029FA013CB223DB00184AD358DB0701D4002CF3D1002D01D0002C08D01349B122D2008B58C020800503438B5013E00F4BB121C90058580F4A02408020800502439C
:401800005A5008395A58520052085A5008495A58520052085A50002D03D0002C03D0002002E0002000E0044870BDC046000026408C050000FFFFFFCF02004A00F0B5564C86
:40184000A04200D9A2E0A24200D9A1E0534B994200D99FE00124524B1C70FF2805D80F2505400E340F26072321E04E4B984205D80F2303400F240026002518E0040A0F2334
:4018800023401D00484B984208D80001FF2318402B000343FF240026002508E00402F020000120402B000343404C00260025FF2A0DD81201FF2002401543E020C002184363
:4018C000F0231E43F0231B0323439C4625E03548824207D81004F022120310401843224394461AE0100A0004F0273F03384018432D4B9A4209D81205F0231B041340184341
:40190000FF231B0423439C4607E01206F0231B051A401043264B23439C46264B1A68176AB023D45AE200131BFB181B68002BF4DA1B4B5B78002B04D01F4B204AD358002B10
:4019400018DA1F4A1F4B1A601F4A204B1A601B4AA324E4001359B3431D4315511C4C13596546AB43184310510D4B5960124BD150002000E017480F4B1A68146AB023D15A33
:40198000CA00531AE31800225A6004E0114802E0104800E00F48F0BD0F060000FFFFFF00E8160008FF040000FF0500000F0F000000000F0F5C2200081C0500000000264056
:4019C0001F1F0000080126403D3D0000040126401405000001004A0070B50022264B1A70264B1C68226AB023E55AEC00631BD3181C68002CF4DA224A1468224A944206D148
:401A0000214A1468214A944203D0002502E0002500E00125A422D2001D4CA4582402240A00225A60002D24D0002C23D000280FD1114B58680A000023002101F0A3FE62089E
:401A4000002380185941220001F07CFE040011E00A0000232000002101F094FE064B5A685408002500196941002301F06BFE040000E00024200070BDE81600085C220008E9
:401A8000080126401F1F0000040126403D3D00000000264070B505000C001A4B1B6828229A5C012A15D1820807211000884327D19200AD1AED00FF20A8401B6820339A1865
:401AC0001168AC4023004B40184004004C40146016E03A229B5EDBB2994203D176210A4800F0A4F8074B1B681B68072215408022120615438022920194466444A400E55003
:401B000070BDC0465C2200082C5D001070B504000D000B4B9A680B4B9A420CD1002904D13821FF31084800F081F81034054BA400E058E55003E01034A400044BE05870BD52
:401B400000ED00E0000000082C5D001000000010F0B5474680B482B0061E01914AD04368032B03D93221264800F060F80023F05E002804DBB178FFF78DFF002400E0214C2D
:401B80000023F15E7368002912DB88081E4FC0308000C55903221140C900FC3290468A4095439A01434613408B402B43C35116E089B20F220A40083A9208063292001348E1
:401BC0001018476803221140C900FF252A008A4097439A012B0013408B403B4343600B4B9A680B4B9A4206D10023F05E0199FFF78DFF00E0034C200002B004BC9046F0BDA6
:401C00002C5D00100100560000E100E000ED00E00000000810B5034B1B78584300F0C4F810BDC046D400000801BEFEE770B50D00044C18220100200003F096F9A561002059
:401C4000FFF7F2FF68070008024B1B685B6801229A6070475C220008054B802212069A649B6C002B01DB002000E002487047C0460000274003004600054B80221201985857
:401C80005B68FF221A4202D08023DB021843704700002640FEE7C04610B50A4B0268DA6142681A6282685A62C2689A620269DA6242691A6382695A63C2699A63FFF7EAFF00
:401CC00010BDC04668070008F0B5474680B4002801D0192300E064238B429B415B42304D2C682268A826A45BA41822680327BA433B401A4322602C682268A45BA2181668CE
:401D0000284CA046264016602C682668AA229446A25A96193268BA43134333602A6813686546525BD3181A68444614401C60002805D010291BD921291BD8012024E0184B5F
:401D40001B6855229A5C914215D956229A5C914213D957229A5C914211D958229A5C91420FD959229B5C99420DD804200CE000200AE0022008E0002006E0012004E00220AB
:401D800002E0032000E00520054A1268526813680F218B430343136004BC9046F0BDC0465C220008FFFCFFFF0230800803D001300238FCD1C046C0467047EFF3108072B67A
:401DC000704780F31088704710B5B0235B059B899BB2002B04D0B0235B059B899BB201E080235B0080225200934215D1184C23681968683A9B58C9180B680F208343963AB2
:401E000013430B6021680C689C23CB58E318196881430A431A6019E00D4C2368196898229B58C918B02040050A4BC2580A4B13400A681343C022920013430B6022681168E3
:401E40009C23D358CB18054A82581A6010BDC0465C22000848180000FFFCFFFF4418000030B5B0235B059B899BB2002B04D0B0235B059B899BB201E080235B0080225200E5
:401E8000934215D1184C23681968683A9B58C9180B680F208343953A13430B6021680C689C23CB58E318196881430A431A6019E00D4D2B68196898229B58C918B024640571
:401EC000C12040012258094B13400A681343C022920013430B602A6811689C23D358CB1822581A6030BDC0465C220008FFFCFFFFB0235B059B899BB2002B04D0B0235B058E
:401F00009B899BB201E080235B008022520093420DD1104B1B681A6898215B58D21811680D4B0B40C021C9010B43136011E0094B1B68196898229B58C918084BB022520519
:401F4000D258074B13400A681343C022920013430B6070475C220008FF8FFFFF18180000FFFCFFFF30B5B0235B059B899BB2002B04D0B0235B059B899BB201E080235B0098
:401F80008022520093420DD1134B1B681A6898215B58D2181168114B0B408021C9010B43136018E00C4D2B68196898229B58C918B02464050A4822580A4B13400A68134309
:401FC000C022920013430B602A6811689C23D358CB1822581A6030BD5C220008FF8FFFFF4C180000FFFCFFFF10B5B0235B059B899BB2002B04D0B0235B059B899BB201E097
:4020000080235B0080225200934217D10020FFF77DFAB0235B055B78002B04D0B0235B055B78DBB200E02123222B03D8002803D1013004E0012002E0002000E0012010BD7E
:4020400010B50400012803D910491148FFF7EEFD002C03D10F4B5869C00F00E000200E4B1A684423D35C002B0ED0012C0CD1094B9B695B0005D4074B9B69002B03DA012086
:4020800002E0012000E0002010BDC04662070000705D0010000026405C22000870B504000D00154B1A684423D35C002B22D0072803D912491248FFF7B9FD0F4B1A6844239E
:4020C000D35C002B04D00F4B9B690722134000E0002321009C420DD00A4882690726B243344014438461002D04D0994202D9C820FFF790FD70BDC0465C220008CC0700003C
:40210000705D00100000264030B5021E22D0C368002B21D00368002B20D00579A900104BCC582300002103E0934205D019005B69002BF9D1012000E0002000280FD0002CFB
:4021400003D1AD00064BEA5000E04A6111610023536104E0002002E0002000E0002030BDF416000830B585B004000D00022807D9042805D0032803D02A492B48FFF756FD17
:402180006B1EDBB2012B07D9042D05D0082D03D026492548FFF74AFDA400254BE458042D13D0012D1CD112E0A3682B420BD1E3681A6802925B6801930393290002A8236865
:4021C00098471B4B5C61646902E0002000E00020002C24D0174B9842E6D1012DE4D11EE0022D01D104E01C006369002BFBD104E00F4B5C69002C00D0246900200DE0A368B2
:402200002B4209D1E3681A6802925B6801930393290002A8236898472469002CEFD105B030BDC046B2090000705D0010B3090000F4160008FF00420070B50500012804D9D4
:40224000E02149001B48FFF7F1FC1B4B1B68002B05D001210020FFF785FF040000E00024002C20D1FFF7A9FD0600134B1B68002B03D004210020FFF775FF104A13690421D9
:402280008B431361012D01D030BF00E020BF3000FFF797FD084B1B68002B09D008210020FFF760FF04E002210020FFF75BFF044C200070BD705D0010F416000800ED00E02D
:4022C000FF00420010B5FFF778FD074B5A6807490A40E824A40122435A605A68114059605B68FFF76EFD10BD00002640FF00FC0FF8B50700012803D93D493E48FFF796FC75
:40230000B0235B055B78002B04D0B0235B055B78DBB200E021239DB2B0235B059B899BB2002B04D0B0235B059E89B6B201E0802676000020FFF7EAF8002814D180235B002D
:402340009E4212D1222D12D82B4B1B685C682B4821582B4B19403B068022520413400B432350002404E0274C02E0264C00E0254C80235B009E4201D1222D03D880235B00A4
:402380009E4232D01C4B1A683123D35C002B04D1C421FF311C48FFF749FC174B1B681D6A80235B009E4203D1002F05D0174A06E0002F03D0164A02E0164A00E0164A0121AC
:4023C0002800FEF7F5FC00280FD10B4B1A68B423D3585B191B68002BF7DBEB681B0E1B06A0221206934200D100242000F8BDC0464C0A0000705D00105C22000818F000001C
:40240000FFFFFFFE04004200E45A0010010100300300000C010000300100000C70B50400022805D0052803D020492148FFF7FEFBFFF7DAFD002836D0FFF7BFFC0600022CC5
:4024400007D10120FFF754FF051E0FD1FFF7BCFC0CE018494B6907229343043A13434B613420FFF7D7FBFFF77DFD0025002D16D110494B69072293431A000723234013435B
:402480004B61022C02D1FFF733FD08E09120FFF7C1FBFFF7E5FC0020FFF72AFF05003000FFF78FFC00E0044D280070BD02070000705D00100000264003004200F8B5050069
:4024C000012804D9822109012948FFF7AFFBFFF78BFD002849D0FFF770FC0700002D11D10021244B244AD150E823DB00B0225205D65CF6B20120FFF7FBFE041E19D1FFF7C7
:4025000063FC16E0B02252051C4BD0581A4B194958501B49565CF6B21A481A581F218A4314390A431A500320FFF774FBFFF71AFD0024002C15D11049124A8B581F20834314
:4025400006401E438E50002D02D1FFF7D1FC08E00720FFF75FFBFFF783FC0020FFF7C8FE04003800FFF72DFC00E0074C2000F8BD705D0010307F00000000264010180000E6
:40258000410700001CFF000003004200042805D10B4A116804230B4313600FE0094B1A681168A023D358CB180006C022920410401860034A136804218B4313607047C0467B
:4025C00010E000E05C220008F0B54F464646C0B483B006000D0000921F00012B03D95B212B48FFF723FB330B03D05C212848FFF71DFB284B1A686E23D35A9B08013B264A3B
:4026000013432A009A4301D16B0003D45D212048FFF70CFB32006A40F0231B011A40141E2FD1FFF7CAFB01901A4B18686C23C15A83689C4661446E23C35A9A08013A2A406D
:40264000920090466A22825A15402D0A5D432A00424455182A68920A9202FF231E40009B002B01D00134FF3426437F0280239B001F403E4316432E600198FFF7A2FB0020C5
:4026800000E0064803B00CBC90469946F0BDC046B05D00105C220008000F00400100CE000749C02252008B589B009B088020C00503438B508B588020000603438B507047BC
:4026C00000002640014B18607047C0465C22000870B50D000F4B184300040F4BD861FA24A40003E0013C0120FFF794FA0A4B1B6CDB0701D4002CF5D1002C08D0064B196C09
:4027000001220A431A64DB6A2B80002000E0034870BDC0460080FFFF00003C400400160010B500040E4B184001430E4BD961FA24A40003E0013C0120FFF76CFA094B1B6C9E
:40274000DB0701D4002CF5D1002C06D0054A116C01230B431364002000E0034810BDC0460000FF7F00003C4004001600F0B583B006000A24C02149017548FFF7D1FF0028E5
:4027800004D16B46991D7248FFF7A2FF002C01D0013C00E06F48002805D16B46DA88C0235B019A42E6D1002825D16B46991D6A48FFF78EFF00281ED16B4606331B885B051A
:4027C00019D40A248021C9006348FFF7A9FF002804D16B46991D6048FFF77AFF002C01D0013C00E05B48002805D16B46DA888023DB009A42E6D1002804D16B46991D5748AE
:40280000FFF766FF002844D16B4606331B883F229343B278012A15D1F178012904D88FB20222D21B95B201E000250227402213439BB2302213436A46D380494BCB40494AE8
:40284000136013E0F178002904D18FB20122D21B95B201E00025012740229343102213436A46D380404BCB403E4A13606B469C1DD9883943D9803948FFF752FFF378DB1BA8
:4028800003221340AA0092B213432380374A38498B50B0235B055B78002B04D0B0235B055B78DBB200E02123212B4FD0314BB0225205D35A9BB2002B48D0002804D16B46A5
:4028C000991D2D48FFF704FF002824D16B469A1DDB8860218B4318001380B0256D05254C2B5B60310B405B08034324490B401380295BC901F020C00001400B432049194055
:402900001180285BC0239B000340DB00194311801948FFF705FF002804D16B46991D1948FFF7D6FE002811D16B469A1DD988C023994311800F4BB0204005C05A30230340CE
:402940009B00194311800F48FFF7EAFE03B0F0BD021E000004001600031E0000091E00000048E801C00000080024F40064F0010000003C4016180000071E00007FF5FFFF11
:40298000FFE7FFFF061E000070B50C004000084901430848FFF7C4FE051E04D106490748FFF7BEFE05006001FFF734F9280070BD01100000081E0000376800000F1E0000D8
:4029C0000349044A8858102303438B507047C04600003C4070F00100F0B59DB013A9144B0A00180070C870C270C870C270C870C20AAD28001A002432D0CAD0C0D0CAD0C05F
:402A0000D0CAD0C001AC22004833C1CBC1C2C1CBC1C2C1CBC1C20748FEF73CF929000648FEF738F921000548FEF734F91DB0F0BD645F001000013240800132400002324028
:402A4000F8B5051E00D1DDE0734B5B689B0301D5FFF738FC714C03E0013C0120FFF7DAF86F4B704AD358002B01D0002CF4D16E4B6C4AD358DB0704D56C4BD358DB0700D599
:402A8000C2E0674B674AD358002B00D0BEE0FFF7A3FF644B6649674A99502A78A02109030A4365495A506549654A9950802252009B58DB0700D5ABE0624B1B6F1B0709D404
:402AC000614B1868614B984206D9190000F0C4FC013802E0012000E00020524B1B68002803D040035A4A104300E05A4818434D4B1860494B5B695B0017D501210320FFF724
:402B0000CDFA454B5B699B0F01221340524A116844228A5C002A0ED0002B0CD03E4A93698021C9050B43936105E03E494B4A8858032303438B503B4C3B4AA658484B33437A
:402B4000A3504020FFF766F8464BE358DB070BD42700444C01233B514020FFF75BF803233B514020FFF756F83F4F37403F4E3E432D4B2C4AD650FA24E40003E0013C012051
:402B8000FFF748F83A4B3B4AD358DB0601D4002CF4D1002C01D0002400E0374C002C23D12049364A8858082303438B500120FFF747FA002801D1324E3E43324B1E400123F8
:402BC0001E43194B174AD650144E03E0013E0120FFF720F8154B134AD358DB0701D4002EF4D1002E00D1244C002C03D12800FFF7BDFD0400002C0CD168782978FFF7C4FEB7
:402C0000040006E0204C04E0204C02E01F4C00E01F4C2000F8BDC04600002640F07E0E006CF0010000003C40A0F00100B4F0010006000001A4F00100A8F001000100010053
:402C4000ACF0010000F03D40C800000800093D00041A0080040A00805C220008C4F0010030000300B0F00100EFFFFEFF2000020010400000000032400400160068F00100B7
:402C800028000200FFFFFBFF010016000300160002001600014B18687047C046C000000810B5002405E02000FEF778FC032804D00134042CF7D9002000E0012010BDC046DA
:402CC000A023DB00064AD35803221340012B03D0032B03D1012002E0012000E0002070470000264070B5012902D0082940D045E00320FEF7AFF9254B984241D0FFF7D0FF9A
:402D000001283FD0022004F023F80500FFF755F81F4B186004F020F80400062817D0022D0AD1022005F05CFE032C01D0052C10D1002810D0174C13E0012005F051FE022C5D
:402D40000BD000280BD1FFF777FA124C08E0002406E0104C04E0002402E00E4C00E00D4C0C4B9C420FD10A4B1868FFF72AF80AE0074B1868FFF725F8002404E0054C02E0D8
:402D8000044C00E0034C200070BDC046010188002C170008FF004200002803D0024B5860002000E0014870472C1700080100160010B594B001AC4C220021200002F0CCF8AE
:402DC000D7231B01A3811B2323836383183B2377013363770C33E3772022A3540132A35441323433E252613A0433E2540D48FFF78BF903F095FF07A803F0DEFF00280ED1E6
:402E0000094B0293094B5B685968002904D022222630684402F097F801A803F0A1FF14B010BDC046E0000008A40700082C170008014B024AD050704778F0010000003C4000
:402E400010B50CF07FFC10BD10B5024B1B68984710BDC0463C17000810B5002809D0FA23FF33994207D80A00044902F06CF8002002E0034800E0024810BDC04607080016BC
:402E800001001600F0B55F4656464D464446F0B4B14CA54481460E00904605930B00AF4A914204D942468A18AD498A4211D9AD4A934204D94246B218AB498A4209D9AB4A0F
:402EC000934200D823E14346F318A94A934200D922E1A84B5B695B0010D5A64B5B6907241C40022C25D10520FFF798FA0190A24B9842F8D003940123049324E09F4B9D4A9E
:402F0000D3581F221A40E823DB00B0214905CB5C9B1A5A1E9341DBB20493002B0FD10120FFF7CCFA944B9842F9D001900523039309E00394012304930023019303E00523C4
:402F40000393002301938E4B019A9A4204D1D621FF318C48FEF76AFEF0231B069C466644730A9A465C0200210320FDF7E7FF0028F9D100250023029399E0B4421BD3BD42C3
:402F800019D24A4652191078804606A84146C154594600290DD1802149058846A044414609786846017001781278914201D001229346013505E080225205A218127806A87C
:402FC000C2540134013304E0002100238B46844647466D4A9342D0D959466046B846002962D0019B002B5FD1059B002B51D1C83300951D00B3465646A24680231B03F71851
:403000007F023800FDF796FD0400013D0120FEF701FEA423DB0322001A409A4201D1002DEBD122000294009D5446B2465E46574B9A4205D1FDF77AFD554B9842FAD0029021
:40304000029B002B19D1C83300971F00A34606A90098FDF7C5FD0400013F0120FEF7DAFDA423DB0322001A409A4204D1002FEED102945C4601E002945C46444B029A9A42BE
:4030800011D1FDF753FD424B9842FAD0029001200AE0802000035044400206A9FDF7F6FC0290012000E0012001239C46E244029B019A134301D1454586D3002801D0FEF7FD
:4030C000C3FD00210320FDF77FFF0028F9D1019B002B25D1274B5B695B0009D5039B022B06D10220FFF79AF90190234B9842F8D0204B1B681B0213D4049B002B10D1002091
:40310000FFF7DCF901901C4B9842F8D008E000230193204B029303E0002301931D4B0293019B002B0CD11C4B029999420AD0194B994207D0002901D1002004E0174802E043
:40314000174800E0174887239B009D443CBC90469946A246AB46F0BDE4FDFFFFFFFFFF0F00001010FFFFFF1300800014FF070016000A001600002640040042001CFF0000A6
:4031800003004200D05F0010FF0100000100500002005000060052000200520013001600120016000100160010B500280AD0FA23FF33994208D8F93BFF3B0A000349FFF749
:4031C00061FE02E0024800E0014810BD07080016010016000020704710B50C000088AE235843044B9C4660440A2100F035F9208010BDC04691FCFFFF10B50C000023C05E48
:40320000044B5843044900F0B1F9BD23181A208010BDC0464B280000102700000020704710B5FEF7F7FC10BD064B1B681B6800229A5E002A05DB1F231A401E3B9340024AAE
:40324000136070473017000800E100E0094B1B681B6800229A5E002A0ADB1F231A401E3B9340802204498B50BFF34F8FBFF36F8F7047C0463017000800E100E0A023DB0054
:40328000024AD358032018407047C04600002640024B034AD058C00F7047C0461C0500000000264010B5FEF797FB10BD70B504000D0016000320FDF7CDFE054B984205D0DE
:4032C000320029002000FEF7B9FA00E0014870BD0101880003004A0070B5431ADC171B196340934227D3164B164CE458A405A40D884208D9401A51084018110000F0ACF8AF
:40330000201A0ED50AE0081A51084018110000F0A3F800190C4B984202D802E0002000E00A48084D06496B589B0A9B028205920D13436B5001E000240020201A70BDC0464D
:403340003C05000000002640FE030000FF03000010B5034B1A6880210902FFF7BDFF10BDF800000810B5FFF737FB0220FFF760FD094C236818680949FEF7EAFB23681B68E7
:4033800000229A5E002A05DB1F231A401E3B9340034A136010BDC04630170008412E001000E100E00420704710B5FEF706FD10BD10B5FEF706FD10BD10B5FEF73DFF10BD4D
:4033C00010B50021FEF76AFE10BDC04610B50020FEF778F810BDC04610B50020FEF74AF810BDC04610B5074B1960012201000020FDF77EFF002803D100220349FDF778FF91
:4034000010BDC0463C170008492E001070B50B001500020000210120FDF70EFF041E03D029000020FDF78EFF200070BD10B5084B1B78002B06D10748FFF7AEFC0122044B33
:403440001A7000E00020002801D1FFF7B1FC10BD40170008FC000008002243088B4274D303098B425FD3030A8B4244D3030B8B4228D3030C8B420DD3FF22090212BA030CDF
:403480008B4202D31212090265D0030B8B4219D300E0090AC30B8B4201D3CB03C01A5241830B8B4201D38B03C01A5241430B8B4201D34B03C01A5241030B8B4201D30B0311
:4034C000C01A5241C30A8B4201D3CB02C01A5241830A8B4201D38B02C01A5241430A8B4201D34B02C01A5241030A8B4201D30B02C01A5241CDD2C3098B4201D3CB01C01A0D
:40350000524183098B4201D38B01C01A524143098B4201D34B01C01A524103098B4201D30B01C01A5241C3088B4201D3CB00C01A524183088B4201D38B00C01A52414308F3
:403540008B4201D34B00C01A5241411A00D20146524110467047FFE701B5002000F0F0F802BDC0460029F7D076E7704703460B437FD4002243088B4274D303098B425FD30B
:40358000030A8B4244D3030B8B4228D3030C8B420DD3FF22090212BA030C8B4202D31212090265D0030B8B4219D300E0090AC30B8B4201D3CB03C01A5241830B8B4201D3E8
:4035C0008B03C01A5241430B8B4201D34B03C01A5241030B8B4201D30B03C01A5241C30A8B4201D3CB02C01A5241830A8B4201D38B02C01A5241430A8B4201D34B02C01A17
:403600005241030A8B4201D30B02C01A5241CDD2C3098B4201D3CB01C01A524183098B4201D38B01C01A524143098B4201D34B01C01A524103098B4201D30B01C01A524198
:40364000C3088B4201D3CB00C01A524183088B4201D38B00C01A524143088B4201D34B00C01A5241411A00D201465241104670475DE0CA0F00D04942031000D3404253405E
:4036800000229C4603098B422DD3030A8B4212D3FC22890112BA030A8B420CD3890192118B4208D3890192118B4204D389013AD0921100E08909C3098B4201D3CB01C01ADF
:4036C000524183098B4201D38B01C01A524143098B4201D34B01C01A524103098B4201D30B01C01A5241C3088B4201D3CB00C01A524183088B4201D38B00C01A5241D9D2D2
:4037000043088B4201D34B00C01A5241411A00D20146634652415B10104601D34042002B00D54942704763465B1000D3404201B5002000F005F802BD0029F8D016E770474C
:403740007047C046002B11D1002A0FD1002900D1002802D00021C943081C07B4024802A14018029003BDC046D9FFFFFF03B4684601B5029800F050F8019B9E4602B00CBC1B
:403780007047C046F0B54F464646C0B41604360C9946330005042C0C070C150C63437E436F4365431C0CAD1964199C46A64203D980235B02984647446346250CEF191D04F1
:4037C0004B464A4343432D0C240464199918C91920000CBC90469946F0BDC04670B500220C4B04000D0001F05DFA002804D12000290001F0B5F970BD064B0022200029009F
:4038000000F05AFE01F0ACF980231B069C466044F1E7C0460000E041F0B54D46564644465F46F0B4924683B004000D0099468B422FD82CD04946504601F05CFA2900060054
:40384000200001F057FA331A9846203B9B4600D574E053465A4693401F005346424693401E00AF4229D826D05B46A41BBD41002B00DA79E0002200230092019301235A4646
:4038800093400193012342469340009319E08242D0D900220023009201930C9B002B01D01C605D600098019903B03CBC90469946A246AB46F0BDA342D6D90022002300925F
:4038C00001934346002BE8D0FB0772081A4346467B080EE0AB4201D1A2420CD8A41A9D41012024196D410021013E24184D41002E06D0AB42EED9013E24196D41002EF8D1C0
:403900005B460098019900196941002B22DB2B005A46D3402A004446E2401C005B461500002B2CDB26009E40330026004746BE403200801A994100900191AEE74246202301
:403940009B1A5246DA40414613004A468A4017001F4382E7424620239B1A2A0046469A402300F3401343D5E74246202300219B1A0022009101920122DA40019282E74246EA
:40398000202326009B1ADE402F00B446974066463B003343C9E7C046F0B556464D4644465F46F0B41D000E034C00CB0F87B0070092468146360B640D98466AD06D4B9C4280
:4039C00035D08022430F12041343F6001E43C3009946694B00279C460023644402932B0368001B0BED0F51469B46400D009500D178E0604B98426CD05B46DA004B0F8021DA
:403A000009040B4313439B465346D9005A4B9C46002360444246201A6A40924601901F430F2F00D9B0E05548BF00C0598746374300D088E000239946023308270026029341
:403A4000CDE74346B34649460093029B009A9246022B00D0BFE1002153460122002689461A40444B002136030C0D2405360B2643434C1B0526401E437600D20776081643A5
:403A80004846310007B03CBC90469946A246AB46F0BD330003434FD0002E00D1BCE1300001F00AF903000B3B1C2B00DDADE11D220100D31A08393A008F408E40DA40B946AC
:403AC0001643304B00279C46002360444442029385E753465A4613432CD1002300219B46023397E70B4320D05B46002B00D19EE1584601F0E1F803000B3B1C2B00DD8FE198
:403B000002005946083A91408B461D21CB1A5146D9400B0059460B4351469B469140194B9C4660444042002374E7002300219B4601336FE703236DE7002399460133042778
:403B4000002602934BE703230C27029347E70122D51A382D00DCB0E153461A4000210023002689467EE700238026994600223603004B77E7FF07000001FCFFFF046B00109B
:403B8000FFFF0F80F30300005E4500D972E100D16DE1019B4D46013B01930023340002935B461E020B0E1E430B020393330C994633041B0C494620000093FFF74DFC009B33
:403BC000370043430600494620009846FFF7CAFC2C0C09040C43A04509D9E419731EA74200D95CE1A04500D859E1023EE4194346E41A49462000FFF72FFC0300009A8046E3
:403C00005343494620009B46FFF7ACFC2A040904120C0A4393450DD94346D219013B974200D93AE1934500D837E102235B429C46D219E0445B46D21A4346360433439B46BD
:403C40000399180C0B0C1D00059309045B46090C0C001B041B0C4443049159436B4368431B190D0CEB189C4203D980246402A44660441C0C09041B04090C20185D18824216
:403C800000D2DEE000D1D7E0161A029B9C465D1BAC459B415B42F61AB74200D106E149463000FFF7D9FB009B04004343494630009846FFF757FC2E0C09040E43B04509D997
:403CC000F619631EB74200D9F3E0B04500D8F0E0023CF6194346F31A494618000293FFF7BBFB009B06004343494602989846FFF739FC2D0409042D0C0D43A84509D9ED1932
:403D0000731EAF4200D9D6E0A84500D8D3E0023EED192404210043463143049E059A3000ED1A0B040C0C1B0C58436643534354439A19030C9B189E4203D980225202944636
:403D400064441A0C00041B04000C14191B18A54250D34DD001231943964A019B94466344002B00DCF3E64A0709D00F220A40042A05D00A1D8A42894149428B4411005A46F2
:403D8000D20108D55A468C4B1A4093468022D2009446019B6344894A934200DD5BE65A46C908500708435602514601225B058146360B5B0D0A4055E680231B031E4211D0D6
:403DC0005A461A420ED15E461E433603360B2A0089467B4B46E6032B00D1E1E0012BBBD11A40BBE61E433603360B4246744B39E6002BB1D07D194A1EAF4252D91100A5420C
:403E0000A8D1039A9A42A5D1A6E703003E00283B9E400023994654E600F04EFF203041E603005246283B9A400021934677E6504600F042FF20305EE6029B0026AB4200D30E
:403E400023E7039E0299B44661448846B045B6415B467642F619B218013B0291974213D290424FD800D18EE0161A9B460DE7894500D28EE674084B46F60735005B081D4391
:403E80004B46DB0702938BE69742EDD10399029CA142E5D93E1A9B46F7E69846CAE61E00A5E6AC423ED874D0110053E70121494252E71C000EE71E002BE71F2D3CDC202369
:403EC0000A0058465B1B9840EA4099400243481E81415E461143EE404B0709D00F230B40042B05D00B00191D99429B415B42F61833023CD55346012200211A400026012320
:403F00008946AFE502235B429C46039CE344A446029B63449846A045B6417642F6190293B218B1E603988A1E41008142B6417642F619AD19039161E71F225242D31A5A4606
:403F4000DA401300202D29D040225846551BA8400143481E814107200B4318400026002809D00F2200261A401900042ABBD10B0070077602360BDB08034399460122534693
:403F80001A4000236EE502998D42BBD89B4600267BE603989842C5D3110032E70020D7E780265B4636031E433603360B009A8946034B57E5FF030000FFFFFFFEFE07000067
:403FC000FF070000F0B55F4656464D464446F0B40D0399464E002B0B87B00700924680469B46760DCC0F002E69D06D4B9E4235D05B468022DD001204430F13432B439B4655
:40400000C3009846674B00279C460023664401934A4615035000D20F53462D0B400D914600D176E05E4A90426CD080225B0F120413435C4AED0094461D4353460022DB003D
:40404000604449463618701C6140029017430F2F00D9AFE05448BF00C759BF465B461F4300D088E000239B469846023308270193CEE74946022A6AD0032A00D109E2012AAD
:4040800000D0BBE111400022002300259046CCB200212D030A0D12052D0B1543434A1B0515401D436D00E4076D0825434046290007B03CBC90469946A246AB46F0BD034300
:4040C00052D05B46002B00D18AE1584600F0F4FD03000B3B1C2B00DD7BE11D22D31A3A0001005D46DA4008398D4013008F402B439B46B8462E4B00279C460023604446421C
:40410000019385E752462A432CD100250023022297E752462A4321D0002D00D154E1280000F0CAFD03000B3B1C2B00DD46E11D21CB1A51460200D9405346083A954093409F
:404140000D431B4A944660444042002279E7012400220C40124B0025904699E70025002301226EE703226CE700239B4698460133042701934CE703230C27019348E700231E
:404180008025984600242D03054B81E75D464346019A6FE75D4643462100019A6AE7C046FF07000001FCFFFF446B0010FFFF0F80F30300004246120C91461A0C94464246CC
:4041C00017044A461B041B0C5A43604690464A4642431000039262461C003F0C7A437C4342440192220C9246019A5244904506D98246802040028046C24450460390100CB1
:40420000049048462404240C1204121905922A0C2D042D0C68432C00824648467C4350438146200C8046574357444744BA4503D9802040028046C144380C3F04B8464844FB
:404240002404240C01900498A044404404905846000C814658460404200C8246070048465F434C464343604660436446834650464443380C8446E4186444A34203D9802374
:404280005B029C46E34448463F04230C3F0C2404E419574668436F4384464D46504655434243380C814662444A445B44944503D9802040028446654403983F0483460498F3
:4042C0003F0C8446E344C345804140428246100484460198674484466744A344BC46A345A4419946D44464428742BF41D4458041E144A04699459B417F424042C844074384
:40430000120CBA18A045A4415F423B0064422343D71843467D19DB0D6D021D435B465A02059B1A43531E9A415B46DB0D1A4343465B021343EA0107D501225C0813402343A7
:40434000EA07029E13436D08574AB218002A4BDD580709D00F201840042805D0181D98429B415B42ED180300E80104D54F4A15408022D200B2184E48824200DDE7E60124BD
:40438000DB08680718436D02530580462D0B5B0D0C407DE6802259461203114208D0154206D115432D0398462D0B4C46414B6FE65D4615432D032D0B3E4B69E603005546DB
:4043C000283B9D400023BCE6504600F075FC2030A8E60300283B9F400023BB46984689E600F06AFC203073E60124A61A382E07DD00220C4000230025904649E6029EA3E71A
:404400001F2E20DC20222C001800921BF040944093400443581E83411C43F540630709D00F232340042B05D023001C1D9C4292415242AD182B021FD5012400220C400123FA
:404440000025904624E61F202C004042821AD440202E1CD04022961BB5402B43581E83410720234318400025002809D00F2200251A401C00042AD8D1230068076D022D0BC9
:404480000124DB08034398460C40002300E60025E3E780220124120315432D0398462D0B0C40044BF4E5C046FF030000FFFFFFFEFE070000FF070000F0B557464E4645462F
:4044C000E0B40E001100F20F9246C500420F180337037400400A4E0F7F0A3043CF4E17435A00640D520DDB0FC900B24200D1E5E001267340A61AB446534500D1AFE0002E16
:4045000000DC0DE1002A3AD103000B4300D0E4E06B0709D00F232B40042B05D02B1DAB42AD416D427F191D003B0200D488E0BB4B01349C4200D110E13A00B94B51461A40A1
:4045400001235007ED08520264050543120B640D0B400021280012030D0D120B64052D0515436208AF4CDB072C401443640064081C4321001CBC90469946A246F0BDA74BF7
:404580009C42C5D080231B0418436346382B00DDFDE01F2B00DD30E1624620239B1A02009A40664690460A009940F24046464B1E99413243114363460200DA40691A8D42AB
:4045C0009B410D00BA1A5B42D71A3B0235D57A02530A98464346002B00D1C4E0404600F06BFB0300083B1F2B00DDC5E020222900D21A4746D1409F400A009D403A439C4245
:4046000000DDC0E01C1B631C1F2B00DDE4E0202114002800C91AD8408C408D400443DA40681E854117002543002471E7424663461A4300D14CE2674645466B0700D069E74C
:40464000012351467807ED08FA080B40054373498C4238D012036405120B640D79E7002E00DC9AE0002A47D06C4A944200D14FE78022120410436246382A00DC08E1014302
:40468000481E81410022C9B24919D219A942BF410D007F42BF183A0200D442E15F4A0134944200D14EE101205D4A69083A4028400843D507054357089A4629E706000E4341
:4046C00000D017E714E72900114300D1F9E1802109030A431203120B3BE701235B429846C4446346002B72D1691A8D429B413F1A5B42FF1A0D0068E702000A4300D107E716
:40470000012252429046C4446246002A00D0E6E06918A942B6413F187642F7190D00BAE7002E00D080E0621C5205520D012A00DCF9E06A1A91464D45B6413A1A7642921B3D
:404740009046120200D499E04D1BA9428941C71B49427A1A90469A463CE752460123002513400022F5E6280000F0A6FA20300300083B1F2B00DC39E72A00283882400025D5
:404780009C4200DC3EE7264FE41A1740C0E60143481E81410022C9B210E7002E00D0F1E0621C94465205520D012A00DCA0E01B4A944500D1C5E06918A94292413F18524268
:4047C000D2194908D5070D4357086446A0E6134B9C4200D0D9E69BE611001F3CE1400C00202B00D180E04021CB1A9A4015436A1E95410027254300241FE763460200203BCC
:40480000DA406346202B71D0402366469B1B98400143481E814111430022CFE6FF070000FFFF7FFFFFFF0F80002C48D0CA4CA24200D1A2E07442A1468024240427434C46F0
:40484000382C00DDDBE01F2C00DD44E14E462024A41B3E00A640A246B0464C462E00E640B4464646644626435446A5406C1EA54134002C434D46EF400D1B28E04A4643463A
:404880004D461A4300D0A5E6002300240025DEE61F2A5ADC66462022921B060096409146B04662460E00D640424616434A4691404A1E9141020060463143C240E4E63C004E
:4048C0002C435AD0F443A146002C52D14D1BA9428941C71B49427F1A14009A4675E69E4A944200D0C7E613E600227FE700208FE7002C00D0C8E03B002B4300D10FE10300DD
:404900000B4300D104E66918A9429B413F185B42DF193B0200D41AE1904B0D001F406446F6E59A4689E63A002A43002C5CD1002A75D102000A4300D1CAE007000D009A46E5
:40494000E6E564460022002581E662460600203AD6406246B046202A00D1B7E040226646921B904001434246481E8141114300228AE6794CA24200D061E707000D00140058
:404980009A46C5E5002C41D13C002C4378D0F443A146002C20D0704CA24271D04C46382C00DDB2E01F2C00DDBCE02026341BA2463C005646B4404E46A0462C00F440A446EB
:4049C000444666463443A4465446A54064466E1EB54125434C46E7406D188D4289413F184942CF19140056E6002A2FD102000A4300D184E007000D009A46574C88E53D43EA
:404A00006F1EBD41ECB200270D1B60E7524CA24236D0744280263604A1463743BEE702000A4300D174E56A1A90464545B6413A1A7642921B9446120200D4F7E54D1BA94295
:404A40008941C71B49427F1A9A4661E502000A433AD0ED087C072C438025FA082D032A4208D0C7082F4205D145072C003A009A46C9080C43670FD200E5001743364C47E5E8
:404A800007000D00140043E53A002A4343D002000A4319D0ED087C072C438025FA082D032A4207D0C6082E4204D147073C003200C9080C43D700620FE50017439A46264CEB
:404AC00026E50022002544E5234C21E5002049E700230025BBE54C463E00203CE6404C46B446202C31D040244E46A61BB7403D436C1EA54164462C4300270D1BE7E68022EC
:404B000000231203144C0025A1E53D436F1EBD410027EDB260E707000D000F4CF8E407000D00F5E44E463C00203EF440A0464C46202C0ED040244E46A41BA7403D436F1E33
:404B4000BD4144460027254346E70027CFE70D0073E50027F2E7C046FF070000FFFF7FFF0B0330B5134D1A0B4B005B0DC90F0024AB4211DD104CA34210DC80246403224388
:404B80000E4CE41A1F2C0CDD0D48C31ADA4013005C42002900D11C00200030BD094BCC18FAE7E040084CA44663449A4013000343EEE7C046FE0300001D04000033040000C4
:404BC00013040000FFFFFF7FEDFBFFFF70B5051E28D000F071F8154B154A1B1AD21A1F2A16DD2C00134A0025D21A94405A052403240B520D002124030B0D240B1B052343F0
:404C00000D4C1205234013435B002800590870BD0B212C00081AC440954024035A05240B520DE7E700220024E4E7C0461E0400003304000013040000FFFF0F808446101CFB
:404C400062468C46191C634600E0C0461FB500F001F9002801D40021C8421FBD10B500F055F84042013010BD10B500F0F3F8002801DB002010BD012010BDC04610B500F078
:404C8000E9F8002801DD002010BD012010BDC04610B500F07BF8002801DC002010BD012010BDC04610B500F071F8002801DA002010BD012010BDC0461C2101231B049842C2
:404CC00001D3000C10391B0A984201D3000A08391B09984201D30009043902A2105C40187047C0460403020201010101000000000000000010B5002903D1FFF7DDFF20303D
:404D000002E0081CFFF7D8FF10BDC046F0B55F4656464D464446F0B41F035C00DB0F9A46194B0E034D00C90F8046360B6D0D8B4691463F0B640D9D4219D0134B9C421BD071
:404D40000123A54206D018003CBC90469946A246AB46F0BDBE42F6D1C845F4D1D34510D0002DF0D1304303005A1E9341EBE7310001230143E7D1E0E73A430123002AE2D15E
:404D8000DEE70023DFE7C046FF070000F0B55F46444656464D46F0B41F033C0B2C4F0E034D00A3465C008446360B6D0DC90F9046640DDB0FBD422BD0254FBC422ED0002DE6
:404DC0000ED130430700814678427841002C17D15F463A4314D14B460020002B0AD006E0002C02D15846024301D099421AD00123484218433CBC90469946A246AB46F0BDB5
:404E00000028F2D058425841012240421043F1E737000743D0D002204042EBE75F461743CDD0F8E7A542E2DC05DB5E45DFD808D000205E45DED24842484101234042184335
:404E4000D8E7C445D3D80020C445F4D3D2E7C046FF070000F0B55F464D4644465646F0B41C03240BA4462F4C0F034D005E00C90F80463F0B6D0D8B469146760DDB0FA54295
:404E800020D0284CA64222D0002D12D1384344424441002E20D0002C0DD05C42634101245B421C4320003CBC90469946A246AB46F0BD002E17D05B4519D05B465C42012340
:404EC0001C43EFE7390002240143EBD1D9E7614602241143E6D1D7E761460A43DBD100240028DFD0E9E761460A43E4D1E5E7B54203DD01225C421443D4E7B542CDDB6745F3
:404F0000DBD809D000246745CCD259464C426141012449420C43C5E7C845CED80024C845F3D3BFE7FF07000030B50024A24208D0035D651C0C5DA34201D0181B02E02C00A1
:404F4000F4E7002030BD002310B59A4203D0CC5CC4540133F9E710BD03008218934202D019700133FAE77047030030B5002A0DD00C7801335D1E013A2C700131002CF5D1DB
:404F80009A189A4202D01C700133FAE730BD0000F8B5C046F8BC08BC9E467047F8B5C046F8BC08BC9E46704701B40248844601BC604700BF1D03000803000000010000005F
:404FC000010000000000000005036000040000000100000000000000010000000604600008000000A0160008BD01001073797374656D5F70736F63365F636D30706C757332
:405000002E6300000300180003000000F4010000140004010A000905080000006301000000203440740080203440740000223440740080223440740000243440740080245B
:4050400034407400002634407400802634407400002834407400802834407400002A34407400802A3440740000213440B45100109000000000233440445200109000000061
:4050800000253440D45200109000000000273440645300109000000000293440F453001090000000002B3440845400109000000000603440145500107C00000080603440E7
:4050C000905500107C000000006134400C5600107C00000080613440885600107C00000000623440045700107C00000080623440805700107C00000000633440FC5700100D
:405100007C00000080633440785800107C00000000643440F45800107C00000080643440705900107C00000000653440EC5900107C00000080653440685A00107C00000092
:405140002840680C02713440080000000000000000000000006000BA0000000000000000000000000000000300001D1D0200000000000000000000006000000000000000AB
:405180000000000000000000000300000000000003000000000000000000000068000000000000000000000000000000121200000000000000000820000000000000000035
:4051C0007FFF25FFFFFFFFFFFFFFFFFFFFFFFFFF7FFFFFF7FF000000FFFFFFFFFFFFFFFFFFFFFFFFFFFFFFFFFFFFFFFFFF0000000000051F00000006000007001F1F001F2D
:405200000000000000000000FFFFFFFFFFFFFFFFFFFFFFFF111111111111111111111111811111111E1111111111111111111111111111111111011111180011111111112B
:4052400001111111000009100000000000000003FFF0FFFFFFFFFFFFFFFF7FFFFFFF0FF3FFFFFFFFF5000000FFFFFFFFFFFFFFFFFFFFFFFFFFFFFFFFFFFFFFFFFF0000009D
:405280001F00001F1F000000001F00071F0A00000010000000000F00FFFFFFFFFFFFFFFFFFCFFFFD111111111F111711111111111111111111111111111111101111111172
:4052C0001111111801110111111111111111115111911111000014020000000000000000FFFFFFFFFFFFFFFFFFFFFFFFFFFFFFF6FFFFFFFFFF000000FFFFFFFFF3FFFFFFCF
:40530000FFFFFFFFFFFFFFFFFFFFFFFFFF00000000001F071F1F1F000D1F0000001F000000000000000000F0FFFFFFFFFFBFFFFFFDFFFFFF1111111111111111111111113E
:40534000110111111111111111111111111111111111111111416111111111111111101111E11111000005060000000000000000FFFFFFFFFFFFFFFFFFFFFFFFFFFFFFFF8F
:40538000FFFFFFFFFF000000FFFFFFFFFFFFFFFFFFFFFFFFFFFFFFFFFFFFFFFFFF0000001F001F001F1F071F071F1F070D1F001FF000000000000060FFFFFFF7FFFFFFFF8E
:4053C000FFFFEF7D1111111111111111111111111111111111111111111111111111111111111111111111111111110111111111110111110000924200000000000000104F
:40540000FFFFFF5FFFFFFFFFFFFFFFFFFFFFFFFFFFFFFFFFF6000000FFFFFFFFFFFFFFFFFFFFFFFFFFFFFFFFFFFFFFFFFF000000001F00001F00001F001F0000061F1F0778
:405440000000F30000000000FFFFFFFFFFFFFFFFFFFFFBF6111111C1111111111111111111111111111111111111111111D111111111111111111111111111011111111007
:4054800011111111009808200000000000000010FFFFF7FFF56FFFFFFFFFFFFFF6F7FFF7FFFFFF6F7F000000FFFFFFFFFFFFFFFFFFFFFFFFFFFFFFFFFFFFFFFFFF000000CD
:4054C00006071F1F1F001F0000000000081F001F00050000F0F00FF0FFFFFFFFFFFFFFFFFF7FBFFE11111111111111111111111111111111111111111111111111111111EA
:4055000011111111171111B1131111111EB111111191E17200000000000000001F1F1F071F1F1F1F1F1F1F1F1F1F1F1F1F1F1F1F1F1F1F1F1F1F1F1F1F1F1F1F0000001F2A
:405540000B00001F000000000C0000080000600000000000FFFFFFFFFFFFFFBFFFFF3FDF111111111D1111111111111161111111111111111111111111111111111111113D
:405580001111111111111511111511111111111100100800000800001F1F1F1F1F0F071F1F1F1F1F1F1F1F1F1F1F1F1F1F1F1F1F0F1F1F1F1F1F1F1F1F00061F0D070000B3
:4055C00005050000001F00000002000000070700FFFFFFFFF7FFF7FFFFDFDFFF17111111111111111111111101111111111111111D1111111111111111D111701111111149
:4056000011111111E11E11001116011100002000000000061F1F1F1F1F1F1F1F1F1F1F1F1F1F1F1F1F1F1F1F1F071F1F1F161F1F0F1F1F1F00001F00050B0E00001F0000AC
:40564000070600060000060000040020FFFDFFFFFFFFFFFFFFDFFFFD1111111111111111111111111111111111011111111111111101111111111111D111D111111119B16D
:40568000111E0C111111111E00000000000400401F1F1F1F1F1F1F1F1F1F1F1F1F1F1F1F1F1F1F1F1F171F1F1F1F1F1F1F1F1F1F1F001F000C02000C1F001F00000E000F7E
:4056C0007000000700000000FFFFFFFFFBFFFFFFEFFFDFFF11111111011111111111111111111118111111111D11111111111111111111111111111111D111111F111111B6
:405700000111111E00000000000000081F1F061F1F1F1F1F1F1F1F1F0E1F1F1F1F151F1F1F1F1F1F1F1F1F1F1F1F1F1F001F000D0000041F071F0C061F05001F0000500258
:4057400000007000FFFFF7FFFFFFEF7FFFFFF7F511111111111111111111111111111111111011111111111111151111411F1111111D1011111111E11D1E0E111E11111100
:4057800000001000000000001F1F04071F1F1F1F1F1F1F1F1F1F1F1F1F1F1F0F1F1F1F1F1F1F1F1F1F1F1F1F001F07000700040000000000001F0006000F001050F00FF088
:4057C000FFFFFFFFFFFFFFFFFFFFFFFF11111111111111111101111111111111111111111111111111411111D41D11011D1111111D111111111ED1111101111E00000000C4
:40580000000000061F1F1F1F1F1F1F1F1F1F1F1F1F1F1F1F1F1F1F1F1F1F1F1F1F1F1F1F1F1F1F1F00001F060000000000001F001F06001F0000000000000000FFFFFFFFFE
:40584000FFFFFFFFFFDFFBFF11111111111111111111111111111111111111111111111111E111111111111111111111111111E11111111111111111000000000000000084
:405880001F1F1F1F1F1F1F1F071F1F1F1F1F1F1F1F1F1F1F1F1F1F1F1F081F1F1F1F071F0E000007000000000000001F0700000000F0000000000F00FFFFFFFFFFFFFFFF1D
:4058C000FFFFFFFF11111111E11111111111111111111111171111111111111111F1111111111111111111111111111111011D181111D10100000000000000A81F1F1F1FEF
:405900001F1F1F1F1F1F1F1F1F1F0E1F1F1F0E1F1F1F1F1F1F1F1F1F1F1F0B1F00000A1F0F001F001F070C000000000000000000000000F0FFFFFFFFFFFFFFFFFFFFF77D56
:405940001111111111111111D111111171111111E11111111111111111111111111118111111111110111111181111111101111100000000000000001F1F1F1F1F1F1F1F12
:405980001F1F1F1F1F1F1F1F1F021F1F1F1F171F1F081F1F1F1F1F1F0D090A001F001F00000E071F001F001FF0000000000200F0FFFFFFFFFFFFFFFFFFFEFFF7D11111119A
:4059C000E611111111111111110111111111111111111E1111111111111111171111111D11E11111111111D711111E1100000000000000001F1F1F1F1F1F1F1F1F1F1F1FC0
:405A00001F1F1F1F1F1F1F1F1F1F1F1F1F081F1F1F1F1F1F000D00000F00000D000E00000000080000000F0000000000FFFFFFFFFFFFFFFFFFFFFFFF11111111DF11111179
:405A400011111111110111111111111111111111111111111111111111111111B1111111111111311111111100000000000000121F1F1F1F1F1F1F1F1F1F1F1F081F1F1FE3
:405A80001F1F1F1F1F1F1F1F1F1F1F1F1F1F171F00001F060000000000000F001F070E0000000000F0300770FFFFFFF7FFFFFFFFFFDFFFFF111111111F1111111111111159
:405AC00011111111111111111711111111111111111111111111111111111111111111111E11E8D147656E6572617465645F536F757263655C50536F43365C70646C5C64F6
:405B00007269766572732F7065726970686572616C2F6970632F63795F6970635F6472762E68000047656E6572617465645F536F757263655C50536F43365C70646C5C647B
:405B40007269766572735C7065726970686572616C5C6770696F5C63795F6770696F2E630000000047656E6572617465645F536F757263655C50536F43365C70646C5C647E
:405B80007269766572735C7065726970686572616C5C6770696F5C63795F6770696F2E680000000047656E6572617465645F536F757263655C50536F43365C70646C5C6439
:405BC0007269766572735C7065726970686572616C5C6970635C63795F6970635F6472762E68000047656E6572617465645F536F757263655C50536F43365C70646C5C6434
:405C00007269766572735C7065726970686572616C5C6970635C63795F6970635F6472762E63000047656E6572617465645F536F757263655C50536F43365C70646C5C64F8
:405C40007269766572735C7065726970686572616C5C6970635C63795F6970635F706970652E630047656E6572617465645F536F757263655C50536F43365C70646C5C6456
:405C80007269766572735C7065726970686572616C5C70726F745C63795F70726F742E630000000047656E6572617465645F536F757263655C50536F43365C70646C5C6411
:405CC0007269766572735C7065726970686572616C5C737973636C6B5C63795F737973636C6B2E630000000047656E6572617465645F536F757263655C50536F43365C70B9
:405D0000646C5C647269766572735C7065726970686572616C5C737973636C6B5C63795F737973636C6B2E680000000047656E6572617465645F536F757263655C50536F28
:405D400043365C70646C5C647269766572735C7065726970686572616C5C737973696E745C63795F737973696E742E630000000047656E6572617465645F536F75726365F4
:405D80005C50536F43365C70646C5C647269766572735C7065726970686572616C5C737973706D5C63795F737973706D2E63000047656E6572617465645F536F7572636522
:405DC0005C50536F43365C70646C5C647269766572735C7065726970686572616C5C747269676D75785C63795F747269676D75782E63000000002040000024400000004095
:405E00000000000000002340000030400000314000009F40000022400000104002020202020202020210101D800017007500FF030602063604102000000000007FC0000079
:405E400000040000000000000019324B647D00804000080B100000000000FF012002001F00800004FF081018001000140018001C4044484C500000000810000008000000F0
:405E800004000000041000000012000004210000002100000016000040114002C41300138013A013200000001C00000000002140000025400000014000003440000024407E
:405EC000000031400000324000001F410000234000001140010101010101010101101010800019005500F0000501053B04101C01010000000FC00000000400000101010145
:405F0000011D3A57789600082000101208000000001F00000010000F002000023F06080E00080009000A000B24282C30340000001000000090000000880000000800000065
:405F40008000000004F0000000F00000400200002005A000D00100018001A001200000001000000000000000000000000000000066666666000000000000FFFF00000000FC
:405F80001C1C1C1C1C1C1C1C00000000000000000000000066E6EE66000000000000FFFF000000001C1A1A1A1A1A000000000000000000000000000066E6666600000000AD
:405FC0000000FFFF000000001A1A001C0000000047656E6572617465645F536F757263655C50536F43365C70646C5C6D6964646C65776172655C626C655C63795F626C659E
:406000005F68616C5F7076742E6300007C01000031010000090901120C000000FF03000080ABCDABCD80409C1B04041BFFFFFFFF000000000410080007070400F216FBE089
:40604000FBE01F60427EF56D720096BE2090000010502604060037D7F401FA00960064004B0032001E00140003040506020D1100ADFA001011FA00101701011075FB00104B
:4060800027FC0010C3000110DB0001109D010110A1FC001051FD001085FF0010B3FF0010EB010110B10001107F0101107F0101107F01011059000110010001104500011099
:4060C00099370110A5370110E5460110CD470110D947011071FB0010ABFA00105B01011025FC00105FFC0010D3000110F5000110E90101104DFD0010EDFD00109FFF00101F
:40610000D9FF001057020110BB000110E9010110E9010110E9010110A9000110E9010110E9010110E9010110E9010110E9010110E9010110E90101100C000800020017008C
:406140000D00010001000200090009000100010006000200090018001800030001000100090009000300030005000000071801100F1801100B18011005180110E3170110C2
:40618000DF170110FD170110FB170110D7170110DB17011013180110FF170110F91701101718011017180110D517011003180110F52E0110A93201106D300110192E01103B
:4061C00029210110DD1D0110AD280110F123011049190110AD19011001340110392C0110892301105D1D011039280110E1760010E92C0110A13401102938011075390110CA
:406200005D3A011061360110ED340110B1370110CD3501100F3601101F36011021360110253601107F010110113601101B36011019360110ED4A0110DD440110594A011067
:40624000094A0110A54A0110E5470110F14601108947011055480110D9DE0010FF440110F5440110FB440110F9440110FD440110F74401107F0101107F0101107F01011052
:4062800065CD00105D5E01103F5E01103F5E01103F5E0110755E0110099C01103F5E0110F99B0110119C0110019C0110FB620110F36201105D620110556201104F5E011043
:4062C000375E01102D5E0110535E01104D6201107D620110475E011075620110D56201103F5E0110856201106D620110656201103F5E01107D5E0110855E01108D5E01101C
:40630000435E0110435E01105D5E01103F5E01103F5E01103F5E0110755E0110099C01103F5E0110F99B0110119C0110019C0110FB620110F36201105D620110556201105E
:406340004F5E0110375E01102D5E0110535E01104D6201107D620110475E011075620110D56201103F5E0110856201106D620110656201103F5E01107D5E0110855E0110D9
:406380008D5E0110435E0110435E01100D8501100185011019850110435E0110435E011099820110D5820110A5820110C9820110BD820110B1820110E1820110ED82011080
:4063C000F5840110F5860110F986011005870110DD860110E9860110435E0110435E0110435E0110435E0110435E0110435E0110435E0110435E0110435E0110435E011072
:40640000435E0110435E0110435E0110435E0110435E0110435E0110435E0110435E0110435E0110435E0110435E0110435E0110435E0110435E0110435E0110F982011062
:4064400037790110E5770110E5770110E577011069790110F9780110E5770110DD780110A9790110F3780110837901107979011067770110E5770110E5770110E5770110D7
:40648000EB760110C778011011770110497901106F7801107F780110F9770110E5770110BF7901103578011027780110E5770110B3780110F7790110E5770110E577011005
:4064C000E5770110BD840110B1840110C98401107D78011017780110E581011021820110F18101101582011009820110FD8101102D82011039820110A58401109586011020
:40650000A1860110AD8601107D86011089860110E5770110E5770110E5770110E5770110E5770110E5770110E5770110E5770110E5770110E5770110E5770110E57701108F
:40654000E5770110E5770110E5770110E5770110E5770110E5770110E5770110E5770110E5770110E5770110E5770110E5770110E577011045820110677C0110957B0110A5
:40658000957B0110957B0110AB7C0110117C0110957B0110597C0110597C0110037C0110C17C0110AF7C0110117B01100D7B0110F17B0110A57A0110977A0110977A011095
:4065C000A97A01108B7C0110C57B0110D97B0110997B0110957B0110F57C0110B17B01109D7B0110957B0110F57B0110117D01100D7D0110957B0110957B0110E9830110D0
:40660000DD830110F5830110397D0110937A01102D81011035810110418101104D81011035810110358101105981011065810110D1830110A1850110AD850110B9850110A5
:406640008985011095850110957B0110957B0110957B0110957B0110957B0110957B0110957B0110957B0110957B0110957B0110957B0110957B0110957B0110957B011002
:40668000957B0110957B0110957B0110957B0110957B0110957B0110957B0110957B0110957B0110957B0110957B01107181011008000000060F00202001070219000000EC
:4066C00007070E05020220001C1202000103000E0306000400402707000007070102000203070304000000000000000000000000000000000000000000000000000800006C
:4067000037790110E5770110E5770110E577011069790110F9780110E5770110DD780110A9790110F3780110837901107979011067770110E5770110E5770110E577011014
:40674000EB760110C778011011770110497901106F7801107F780110F9770110E5770110BF7901103578011027780110E5770110B3780110F7790110E5770110E577011042
:40678000E5770110677C0110957B0110957B0110957B0110AB7C0110117C0110957B0110597C0110597C0110037C0110C17C0110AF7C0110117B01100D7B0110F17B011085
:4067C000A57A0110977A0110977A0110A97A01108B7C0110C57B0110D97B0110997B0110957B0110F57C0110B17B01109D7B0110957B0110F57B0110117D01100D7D011019
:40680000957B0110957B011008000000060F0020200107021900000007070E05020220001C1202000103000E032000800000C00000000004000000A82200000000000004DA
:406840000000F7FFFF7F0000003000000000000000000000000000000000000000000000000000000000000000000000C57F01107D810110E5800110258001108B810110C7
:406880000D810110F57F011099810110F1800110238001109D810110098101100D8001108B81011001810110F77F01108B810110F98001103B800110A9810110158101105F
:4068C00041800110B98101101D810110E5770110957B0110435E0110E5770110957B0110435E0110E5770110957B0110435E0110E5770110957B0110435E0110E57701105F
:40690000957B0110435E0110E5770110957B0110435E0110E5770110957B0110435E0110E5770110957B0110435E01104F800110D181011025810110E5770110957B01103C
:40694000435E0110E5770110957B0110435E0110E5770110957B0110435E0110E5770110957B0110435E0110E5770110957B0110435E01100983011019840110BF830110C7
:40698000078301100D840110B78301102F83011065840110C78301100583011001840110AF830110E5770110957B0110435E0110E5770110957B0110435E0110E5770110D8
:4069C000957B0110435E0110E5770110957B0110435E0110E5770110957B0110435E011045850110018601100000000053850110158601102D490110618501103F860110E8
:406A00005D49011025850110C5850110D945011033850110E3850110F545011030303031423830303031303230333034303530363037303830393041304230433044304566
:406A400030463130313131323133313431353136313731383139314131423143314431453146323032313232323332343235323632373238323932413242324332443245A4
:406A800032463330333133323333333433353336333733383339334133423343334433454142000026002B00300036003C0043004B0055005F006A00770086009600A800A8
:406AC000BD00D400EE000B012B014F017801A601DA01130254029D02EE024A03B1032404A5043605D9058F065C0742084409650AAA0B160DAF0E79107C12BD1445171C1AA2
:406B00004B1DDE20883B0010563A00105C3B00104C3A00105C3B0010663B00105C3B00104C3A0010563A0010563A0010663B00104C3A0010423A0010423A0010423A00107F
:406B4000B83D0010B44100107440001074400010724000108C4100108C4100107E410010724000108C4100107E4100108C410010724000109441001094410010944100107C
:406B80009443001000000000FEB5074600256846058078683C1D34492E46002807D06268002A06D0800702D1207A800701D00D4658E0FCF7D7FBFCF7F7FB0190FCF70CFC96
:406BC000FCF744FB0198FCF7F3FBFCF7EBFB00F033F900283ED1403738790006C00F00F0ABF905460004000C34D12049084600F059FF0004000C2DD12289A17A20681C4C09
:406C0000002806D02060A280E68021810021FEF7A3F9684601F0E6FD054616486B460079E2888000001DC1B21B88A088D418A04206D3C01A801A80B201F076FA044600E088
:406C40000D4C00F0E3FD002C04D100F0B7FB0B480121817000F0FEF8002D03D001F052FC064806702846FEBD010016000D6E001044170008A2170008FFFF000004010008FF
:406C800010B5094CA07801280AD06078012806D12078002803D101F010FC0020607010BD01F0C4F810BD00000401000810B5FCF7E5FA032801D100F09BFE00F017FA01F0E3
:406CC00015FE00F021FF02490020887010BD000004010008004870474417000870B5044600208A0703D08A07920F891A091D084B89B2DA889E885518B54206D81D68AA1845
:406D00002260DA885118D98070BD024870BD00004417000803001600004870475017000810B501F009FD10BD0649002808D0EA218180052101700021417009218170002196
:406D4000084670470100160010B5FFF799FF10BD10B501F02FFE10BD10B501F0FDFC10BD38B50546002069460880002D09D0284601F00EFE0446684601F028FD002C02D09F
:406D800015E00C4838BD01F0DFFC2846FFF7FCFE04000CD1284601F075FD040007D1FCF76DFA032803D100F0E9FD00F037FE204638BD00000100160038B504460020694611
:406DC0000880002C08D0A18D090A05D1617A102902D8E179102901D90A4838BDE0856946204601F09BFD05466946E08D09884018E085002D04D1322221460348FEF7A3F8FE
:406E0000284638BD01001600501700087047000010B5084900200978002909D006F09EF9044606F061F8201A80B281004018C00810BD00000C01000810B5FBF7CDFD4822F9
:406E400002490348FEF77FF8002010BD106000108217000810B5FCF7B9FAFCF7E5F910BD10B51A46034C01F0EBFA002800D00024204610BDFFFF000010B501F0B1FB10BD33
:406E800010B501F00FFB10BD010010B5044806D0044A01201070002008F0C8F8002010BDFFFF00000C01000870B50024034D20462C7008F0E9F82C70204670BD0C010008DE
:406EC00001480078704700000C01000870B5591C89B24C080B4D64000021451906E028685054000A5618891C707089B2A142F6D3D80705D0D0182038D15CC47FD454C177DF
:406F000070BD000000103C4030B50A4C002100195B1E07E054186478555C240225430560891C89B29942F5DB994201D1515C016030BD000000103C40F1B590B0FF2000F023
:406F40001BFA254FFF2078702448254900684018406B3C1D400F01260025022801D0667000E06570FCF78AF9032819D026701A48801C4570FFF7D0FE0446162281180A34D2
:406F80006846FDF7E0FF2222214607A8FDF7DBFF07A90EC9109812F07DFE040002D017E02570E4E712F0CCFE3870012000F0E4F912F0D0FE68460576457606A813F06EFA20
:406FC0006846467606A813F069FA06A801F09EFC204611B0F0BD00000D0100080801000840F03D40F0B50021094D5B1E08E0441924685718260A7E705454001D891C89B29A
:407000009942F4DB994202D1401900685054F0BD00103C4070B500210A4E5B1E09E0541864782502545C2C4385192C60001D891C89B29942F3DB994202D1515C80190160A7
:4070400070BD000000103C40F0B50599091FCFB200217E1E0AE054186478555C24022543144C04192560001D891C89B2B142F2DBFC0710D01C78515C24020E4A0C438118F4
:407080000C609C785D782102001D294384182160001DD9780BE059781A7809021143054A84182160D978001D9B780902194380180160F0BD00103C4038B50B4800244470F9
:4070C00012F048FE69460C704C70684613F0E6F9012069464870684613F0E0F9684601F015FC002038BD00000F01000810B501F02BFB0A480078012805D1FBF7D1FD012854
:4071000009D013F0B9FA05490020891E0870062000F032F910BD13F099FAF4E70F01000810B50B460B281BD00ADC012811D0032813D0062803D11146184613F01BF910BDCF
:40714000112811D01228FAD111461846FCF754F810BD0020FFF7F0FE10BDFFF7ADFF10BD04480078107010BD11461846FCF734F810BD000011010008F8B5184D184E28681B
:407180008019846AE00719D001F01AFB0127012811D1002001F0F6FB052000F0EDF81149FF204870881C4078002804D128688019416B39434163286880198762E0050CD5EC
:4071C0000848801C0078052802D1042000F0D4F8FF202968013089198862F8BD0801000840F03D400D0100080549002805D005494A78427009780170002108467047000030
:40720000010016001101000838B504000C4816D06178012913D801F097FA607813F0F2F8207000280AD169460870684600F096F869460878012801D104202070002038BDE4
