:020000041008E2
:4000000000780408EB0208100D0000005103081051030810510308105103081000000000000000000000000000000000514E08104D03081000000000F14E0810554F081048
:400040004D0308104D0308104D0308104D0308104D0308104D0308104D0308104D0308104D0308104D0308104D0308104D0308104D0308104D0308104D0308104D03081000
:400080004D0308104D0308104D0308104D0308104D0308104D0308104D0308104D0308104D0308104D0308104D0308104D0308104D0308104D0308104D0308104D030810C0
:4000C0004D0308104D0308104D0308104D0308104D0308104D0308104D0308104D0308104D0308104D0308104D0308104D0308104D0308104D0308104D0308104D03081080
:400100004D0308104D0308104D0308104D0308104D0308104D0308104D0308104D0308104D0308104D0308104D0308104D0308104D0308104D0308104D0308104D0308103F
:400140004D0308104D0308104D0308104D0308104D0308104D0308104D0308104D0308104D0308104D0308104D0308104D0308104D0308104D0308104D0308104D030810FF
:400180004D0308104D0308104D0308104D0308104D0308104D0308104D0308104D0308104D0308104D0308104D0308104D0308104D0308104D0308104D0308104D030810BF
:4001C0004D0308104D0308104D0308104D0308104D0308104D0308104D0308104D0308104D0308104D0308104D0308104D0308104D0308104D0308104D0308104D0308107F
:400200004D0308104D0308104D0308104D0308104D0308104D0308104D0308104D0308104D0308104D0308104D0308104D0308104D0308104D0308104D0308104D0308103E
:400240004D0308104D0308104D0308104D0308104D0308104D0308104D0308104D0308104D0308104D0308104D0308104D0308104D0308104D0308104D0308104D030810FE
:400280004D0308104D0308104D03081010B5054C237833B9044B13B10448AFF300800123237010BD147602080000000024980810084B10B51BB108490848AFF30080084805
:4002C000036803B910BD074B002BFBD0BDE81040184700BF000000001876020824980810D4460208000000007047FFF7FDFF72B6104C114DAC4209DA21686268A368043B26
:40030000A2BFC858D050FAE70C34F3E70B490C4A00209142BCBF41F8040BFAE709480A490860BFF34F8F00F0A9FB00F083FB00F063FAFEE7A8790910C079091014760208F0
:40034000DC4203080040020808ED00E0FEE7FEE700B504207146084202D0EFF3098001E0EFF30880043001F071FFFEE710B584B0474B0222C3F83021D3F83021D3F80821C4
:40038000444B1A60444B1B684BB9444B02225A6004229A60424B1A68424B1A6022E0012B09D13E4B02225A6004225A604FF400623C4B1A6016E0022B09D1384B02225A6028
:4003C00004229A60384B1A68364B1A600AE0032B08D1324B02229A6004225A604FF40062304B1A602F4B1B68C3F30B032F4AC2F800312F4C0021204602F0C2F9002120467C
:4004000002F018FA07EE900AF8EEE77ACDED037ADDED037AFDEEE77ACDED017ABDF904200021204602F05CFA02901B4B1B68214A52F823206AB9032B05D1174B1A605A6802
:4004400001325A60F1E7022BEFDC0133124A1360EBE7013A0E49C1F80C21032B06D10E4B5A6801325A6000221A6002E001330A4A13600122064B1A61074B5A680E4B1B680D
:400480009A4203D113B10122014B5A6104B010BD00003840A44103083076020880043240A8410308B84103089C4103080000144100001D418C410308BC41030810B582B0A5
:4004C0005B4805F0E7FF00F05FFB04F0E5FE594C5949204601F04CFEB4F90030002B08DB5A0903F01F00012181406032534840F82210002B08DB590903F01F03012202FAF7
:4005000003F34E4A42F821304D4C4E4A0021204601F060FF0123A3607CE09DF801409DF802301B0403EB04639DF8034003EB04239DF804401C449DF80030013B102B69D863
:40054000DFE803F009141B282D343B42495057685E68686865003C4805F09CFF3B4B1A68374BC3F80C2101221A6153E0384805F091FF0122324B5A614CE00CB9354900E02A
:400580003549364805F014FF003418BF0124344B1C703FE02146334805F00AFF3AE02146314805F005FF314B1C6033E02146304805F0FEFE2F4B1C602CE021462E4805F05B
:4005C000F7FE2E4B1C6025E021462D4805F0F0FE1E4B1C601EE021462A4805F0E9FE1B4B5C6017E02146284805F0E2FE174B9C6010E02146254805F0DBFE144BDC6009E07C
:400600002146234805F0D4FE224B1C6002E00222214B9A6000226946204B986803F028FC01283FF47AAF41F2883004F079F8F1E7B8850810688708106D03081000E100E027
:4006400000003840888A0810CC8508108C410308E0850810A8850810B0850810F4850810B04103080886081030860810A8410308408608109C41030850860810A0410308F3
:4006800060860810748608108C860810A0860810B8860810BC410308800432403076020810B582B045F20103984220D00C4607D8B0F5805F0DD044F20803984209D044E018
:4006C00045F20C0398423DD045F20E03984220D03BE01F4805F0DEFE08221E4B9A60022280335A600021084602F038FB2DE01A4805F0D0FE0822174B5A60022280339A606D
:4007000023E02268D15C02AA1A4402F8081C013300E00023A2889342F3DB9DF80030192B0CD000231A4669460C48806803F008FA012803D00A4805F0ADFE06E0E06811F06E
:400740005DF902E0C86811F059F902B010BD00BFD086081000033240E086081030760208EC86081000B583B002A9002341F8043D084B186803F01EFB019B3BB14FF080523D
:40078000054B1A60BFF34F8FBFF36F8F03B05DF804FB00BFAC41030804ED00E008B5114805F078FE00214FF0FF3003F0A9F90E4B18600E4800F0CCF901E009F069F90C4B8C
:4007C0001B78022BF9D10B4802F006FA4FF0FF31054B186803F0F8FB09F05AF9642003F09FFFF3E7F8860810AC410308A1060810604203086507081000B583B062B600F05C
:4008000075F91C4C2068002302221946406805F049FE2068002302221946806805F042FE154805F037FE00220521142003F042F9124B9860124B08229A6001255D60022277
:400840009A6004225A6000240194009523464FF480620C490C4803F0EDFD0194009523464FF4806209490A4803F0E4FD03F014FEFEE700BF904602080C8708103076020828
:40088000800432401C8708109D07081024870810BD04081008B5012000F0F0FF08BD00BF704700BF5C4AD2F8803303F00F0303F1D00152F8212002F00702032A04D0042AD6
:4008C00005D092B9554914E0554A116811E003F1C002514951F8222002F01F02112A06D0132A04D04FF4FA4103E04E4901E04FF400418BBB484BD3F8902502F00100D3F8B9
:400900008825C2F30172D3F8883513F0405F07D0414BD3F88835C3F30173012B02D102E0012300E0002303B108B9032A46D13A48D0F88025C2F31103D0F88425C2F30C02F6
:40094000D0F88005C0F300600130B1FBF2F202FB03F2B2FBF0F131E0012B2FD12E4BD3F8402602F00100D3F80026C2F30172D3F8003613F0405F07D0274BD3F80036C3F340
:400980000173012B02D102E0012300E0002303B108B9032A12D12048D0F8002602F07F02D0F80036C3F30423D0F80006C0F3044002FB01F2B2FBF3F2B2FBF0F1164BD3F891
:4009C0008033C3F3011321FA03F215494A601648D0F89030C3F3072301330069000E0130B2FBF0F08860B2FBF3F3CB600B6103F5742202F23F220D48A0FB0202C2F38742CC
:400A00000A7503F2E7330A4AA2FB03239B098B61DB03CB61704700BF0000264000127A008C42020800366E010000214083DE1B43D34D621008B50D4801F054FDFFF730FF67
:400A4000FFF730FF00221146042000F0C9FC084800F05CFD074B1B6893F8513013B1064800F0C4FD00F006FC08BD00BF088E08103C760208F84103082C87081008B501F025
:400A800040FC074AD2F8883043F47003C2F88830BFF34F8FBFF36F8F01F037FC08BD00BF00ED00E010B504462146034800F074FF0028F9D010BD00BF00006640054BD3F8F4
:400AC0000833C3F30803002BF8D0024BD3F84003704700BF0000664008B50249024801F0AFFA08BDC04103080000664008B5114B1B785BB9104A1149114801F07DF81149A0
:400B0000114801F035FB01220A4B1A700E4BB3F90030002B08DB590903F01F03012202FA03F30A4A42F82130054A136843F00043136008BDBC770208C041030880870810AB
:400B400000006640D90A08107087081000E100E008B518B1094AD062002000E0084858B9084B1B782BB9054801F072FF0122054B1A7008B901F096FF08BD00BFAC4202085F
:400B800001001600BD77020808B5084B1B7833B90749084800F0F6F90122044B1A70054A136843F00043136008BD00BFE8770208D48A081000001441002800F0E081F0B54D
:400BC000032840F0D980032921D809B9072A0AD9012901D10F2A06D9022901D1032A02D9032914D19AB9BA4B1D68AE6895F8710001FA00F7032404FA00F307EA030095F8A0
:400C000070301340034343F08043C6F80034B04B1B6893F83F0037281ED903291CD809B9072A0AD9012901D10F2A06D9022901D1032A02D903290FD172B99D6893F87100AE
:400C400001FA00F6032404FA00F0304093F8703013400343C5F8DC3C012922D871B9072A56D89B4B18688468B0F87430234453F8220020F47F4043F8220049E0012947D1AB
:400C80000F2A45D8924B1B689868B3F87630184450F8223023F47F0323F47F4340F8223036E002291BD1032A32D8894C23689868B3F87830184450F8223023F47F0323F47E
:400CC0007F4340F8223020688468B0F87830234453F8220020F0F80043F8220018E0032916D1AAB97A4C20688568B0F87A302B4453F82200C0B243F8220020688468B0F8E9
:400D00007A30234453F8220020F0F80043F82200032900F2338109B9072A0DD9012901D10F2A09D9022901D1032A05D9032940F02581002A40F02281654B1D68AC6895F831
:400D40007360032000FA06F795F8703095F8726003FA06F63E4395F87170B940B840014031431A4041EA020343F00043C4F80034AB68D3F80034F0BD032921D809B9072AA5
:400D80000AD9012901D10F2A06D9022901D1032A02D9032914D19AB94D480668B76896F8714001FA04FE032505FA04F00EEA000496F870001040204340F08040C7F80004FA
:400DC0004348006890F83F40372C1ED903291CD809B9072A0AD9012901D10F2A06D9022901D1032A02D903290FD172B9866890F8714001FA04F7032505FA04F43C4090F819
:400E0000700010402043C6F8DC0C012932D8A9B9072A00F28480FF2B00F281802C480468A568B4F87400284450F8224024F47F441B029BB2234340F8223070E001296ED1FE
:400E40000F2A6CD8B3F5803F69D2214800688468B0F87600044454F8220020F47F0020F47F401B0223F07F4323F0FF03034344F8223054E002292DD1032A50D8B3F5803F68
:400E80004DD205981F284AD8114D28688468B0F87800044454F8220020F47F0020F47F401B0223F07F4323F0FF03034344F822302B689868B3F87830184450F8223023F02D
:400EC000F804059BDB00DBB2234340F8223026E0F8410308032922D10ABBB3F1807F1ED205981F281BD8264D28688468B0F87A00044454F82200C0B240EA032344F822304F
:400F00002B689868B3F87A30184450F8223023F0F804059BDB00DBB2234340F8223003292CD809B9072A0AD9012901D10F2A06D9022901D1032A02D903291FD1F2B9104B8B
:400F40001D68A86895F87360032404FA06F795F8703095F8726003FA06F63E4395F87170B940BC40214031431A4041EA020343F00043C0F80034AB68D3F80034F0BD7047BA
:400F8000F841030870B582B00C46054618B94921544801F04BF91CB94A21524801F046F9002D00F09A80002C00F099802378012B03D958214B4801F039F9636833B1B3F152
:400FC000807F03D05921474801F030F9237A042B03D95A21434801F029F9638963B1B3F5807F09D0B3F5007F06D0B3F5407F03D05B213C4801F01AF9E3687BB1B3F5800FD2
:401000000CD0B3F5400F09D0B3F1006F06D0B3F1086F03D05C21334801F008F9237C012B03D95D212F4801F001F9636933B1B3F1804F03D05E212B4801F0F8F8A3693F2B7D
:4010400003D95F21274801F0F1F8A36903F03F0263891343217A8A1ED2B2022A01D843F08053042901D143F000536268134362691A43E66816432378012B02D10023012223
:4010800001E001230022217C012902D142F4807201E043F4807394F82410A9620121A962C5F8B020C5F8B430E369C3F30B03C5F80031236AC3F30B03C5F8043194F82530F4
:4010C00043B1E36AA26A94F82610207A246B0094FFF772FD2E60002002E0034800E0024802B070BD088B0810010066001F4B98422DD00CD840282ED003D8E8B1102828D09A
:401100002FE0802829D0B0F5807F28D029E0184B984228D006D8B0F1204F0DD0154B984212D01EE0144B98420AD00133984209D0023B984215D101E0002070470F48704783
:401140000F4870470F4870474FF4A0007047074870470D4870470D4870470D487047034870470C4870474FF4A400704706005200010000F0090000A0040000F001005200AB
:401180000200520003005200010050000200500005005200FF00520038B5124B1B6893F83130012B04D840F2C3110F4801F03EF80C4B1D682A6AB5F8B03013442C46D5F863
:4011C000B420D358002B0BDB084B1868FFF78EFF6B6801229A6063689B68002BFBD138BD034838BDF8410308488B0810F0770208020050001A4B186128B102230370FF233C
:40120000437000234380174B1B6893F850202AB300B583B0B3F93830ADF80030002301931149684600F0A4FFBDF90030002B08DB590903F01F03012202FA03F30B4A42F826
:401240002130084B1B6893F8513023B102220849012000F077FA03B05DF804FB704700BFF0770208F84103084547020800E100E0FD47020808B50248FFF7BCFF08BD00BF5D
:401280000478020838B50B4B1B68D3F8B4301B58002B0DDA0D4604460B0C1B0423B140F2D521054800F0C2FFA9B26160002038BD024838BDF8410308888B081001008A0077
:4012C00038B50368002B01DA002300E0094B73B90D460446C2600B0C1B0423B140F2BB21054800F0A3FFA9B2A160002038BD014838BD00BF01008A00888B081038B50446FC
:401300000D4619B99921084800F090FF074B1B68D3F8B4301B59002B03DAE3682B60002038BD034838BD00BFC88B0810F841030801008A00254B1B6893F8313083423AD924
:4013400000293AD00B6813F01F0F38D170B50D4604461E4B1B6893F83130984204D340F2C3111B4800F062FF184B1B68186AB3F8B03004FB0304174E34602A68D208002109
:40138000686804F09BFB00212046FFF77BFF346825B940F293310E4800F048FF2A4600212046FFF78DFF60B900210A4B1868FFF769FF40B970BD0848704707487047064878
:4013C0007047064870BD054870BD00BFF8410308888B08100878020803018A0001018A0010B504461346B2B9A9B9124B1B6893F83130984204D340F2C3110F4800F016FF5B
:401400000C4B1B681A6AB3F8B03004FB03240B4B1C60002010BD43B149B1084A51609360111D2046FFF786FF10BD054810BD044810BD00BFF8410308888B08100878020833
:4014400003018A002DE9F0411B4B1B68DC68236883422CD90D464609A0EB4610012303FA00F819B900F04DFF074600E00027124B18680368002B01DA002300E00F4B83B930
:40148000626852F8263018EA030F05D023EA080342F82630002400E0094C0021FFF7F2FE00E0084C25B9384600F02FFF00E0064C2046BDE8F08100BF0878020801008A00A1
:4014C000020188000301880004018A000B4B1B68DB681A6882420CD94109A0EB4110012202FA00F05B6853F82130184203D004487047044870470448704700BF08780208EC
:401500000101880004018A0000018800024B1B680BB9014B18607047147802082DE9F8430446884691461D46089F2C4B1B681BB9B5212B4800F07AFE284B1B682C2000FB5E
:4015400004F01C18EEB21E50C5F3072363602D0CA560244B1B6893F831309E4204D340F2C311214800F062FE1E4B1B68196AB3F8B02006FB02162661666893F832309E42D9
:4015800004D340F2DF11184800F050FE154B1B681D6A803605EB46156561A668330C1B0423B14FF4FF71104800F040FE330C1B0423B140F2FF110C4800F038FEB3B243EA6A
:4015C0000646AE60C4F81C90C4F820800023A36117B1B7F90030A381BDE8F88314780208088C0810F8410308888B0810F0B58FB0044618B95221274800F018FEA369072BE4
:4016000003D95621234800F011FEE36A1BB95821204800F00BFE236B1BB959211D4800F005FE07AD04F114060FCE0FC537682F6002AD26460FCE0FC533682B60164B1B6846
:40164000B3F93620079B1344ADF83030089B0D93A26AE16A0CAD00953B460A98FFF75EFF00210091069B0A460598FFF757FF216B284600F07DFDBDF93030002B08DB590996
:4016800003F01F03012202FA03F3044A42F821300FB0F0BD088C0810F841030800E100E0F8B506460F461D4614461AB9FD211F4800F0BCFD1E4B1B681BB9FE211B4800F0CC
:4016C000B5FD1B4B1B682C2101FB063001FB07314B68012202FA03F31B04466802FA06F60269EAB18F69EFB91268002A01DA002200E0104AC2B92288134323600369DC60E8
:4017000001238B614D620469330C1B0423B140F2BB21094800F08AFDB2B2A2600020F8BD0648F8BD0648F8BD0548F8BD088C08101478020801008A00888B081004028A00AA
:4017400007028A00F8B505460F4616460E4B1B6823B94FF4AF710D4800F068FD0A4B1B682C2404FB0534236A23B94FF4B171074800F05CFDE369B34204D9236A43F8267026
:401780000020F8BD0248F8BD14780208088C08100A028A0038B504460D46074B1B6823B94FF4C871054800F041FD034B1B682C2202FB0434A56238BD14780208088C0810B9
:4017C00070B582B000230193044620B940F2D111284800F02BFD236923B94FF4E971254800F024FD636923B940F2D311214800F01DFD236A23B94FF4EA711E4800F016FDF8
:401800006369DD682A0C20D012041A601B682069194B1B68D3F8B430C358002B15DA01A9FFF76CFD60B9019803681E0CDBB2E269934206D2226A52F8233013B1984700E089
:40184000002631462069FFF71DFDADB275B16369ADB21D601B68636A1BB198470023636202E0A36A03B198470023A36163691B6802B070BD088C0810F841030810B504464C
:40188000074B1B6823B940F2B111064800F0CEFC034B1B682C2000FB0430FFF791FF10BD14780208088C081010B50446104B1B6823B940F22B210F4800F0B8FC0C4B1B687E
:4018C0002C2202FB0434B4F90C30002B0DDB5A0903F01F03012101FA03F32032064941F82230BFF34F8FBFF36F8F002010BD00BF14780208088C081000E100E010B50446B4
:401900000D4B1B6823B940F24B210C4800F08EFC094B1B682C2202FB0434B4F90C30002B08DB590903F01F03012202FA03F3044A42F82130002010BD14780208088C08109F
:4019400000E100E010B4D0F8003303F00F03072B06D900230DE0D0F84043CC54013300E000239342F7D306E0D0F8404321F8134001339342F8D35DF8044B704710B5144695
:40198000D0F80833C3F308039A4200D31C462246FFF7D8FF204610BD036813F4006F01D0802200E04022D0F80832C3F30803934203D0C0F84012012070470020704700BF71
:4019C00010B4D0F8003203F00F03072B06D900230DE0CC5CC0F84042013300E000239342F7D306E031F81340C0F8404201339342F8D35DF8044B704710B51446036813F46F
:401A0000006F01D0802200E04022D0F80832C3F30803D31AA34200D81C462246FFF7D0FF204610BD2DE9F84305460C46036813F4006F02D04FF0800801E04FF04008D5F8B6
:401A4000007207F00F07A26A012A19D9D4F82490E262561EB9F1000F00D026B940F27351254800F0E3FB324649462846FFF7C4FFA36A1B1AA362072F00D9400048446062DB
:401A8000D5F80832C3F30803984533D0A36A012B30D10023A362072F02D8636A1E7801E0636A1E8800F02DFCC5F840624FF40073C5F8803FD5F8803F00F027FCD5F8883F78
:401AC00023F4007222F0010242F4007623F4EE6323F0030323B140F22A41084800F0A6FBC5F8886F236843F002032360236B0BB101209847BDE8F883488C0810888C08104D
:401B00002DE9F04105460C46036813F4006F01D0802600E040267608A769D4F81C8017B1B8F1000F04D14FF49961314800F07EFB424639462846FFF721FF236A03442362D5
:401B4000E3691B1AE36173BBA368FBB1E3689E4201D8013E00E05E1E2B6813F4006F01D0802300E040239E4204D34FF42071214800F05CFBD5F8043323F0FF03F6B21E43FF
:401B8000C5F804630123C5F8C83F02E00023C5F8C83F636823F001036360236B33B304209847BDE8F081A169D5F8002302F00F02072A00D940000844A0619E4216D95C1E41
:401BC0002B6813F4006F01D0802300E040239C4204D34FF42071074800F028FBD5F8043323F0FF02E3B21343C5F80433BDE8F081488C0810888C0810002800F0A48170B5B3
:401C00000546002900F0A18116460C460B78022B03D93F21A24800F009FB637B023BDBB2062B03D940219E4800F000FBA37B3BB1022B05D0032B03D04121994800F0F6FA8F
:401C400094F82130012B03D94221954800F0EEFA94F82830012B03D94321914800F0E6FA2378012B06D86368083B082B94BF0023012307E0A37F2BB16368013B062B94BF7E
:401C8000002301231BB14521854800F0CFFAA368053B042B03D94621814800F0C7FA6369FF2B03D947217E4800F0C0FAA369FF2B03D948217A4800F0B9FAA37C6BB123788E
:401CC00033B9A368092B05D1A37B2BB1012304E0012302E0012300E000231BB14A21704800F0A4FA636B23F4366323F00D031BB14C216B4800F09AFAE36B23F4EE6323F05D
:401D000003031BB14D21664800F090FA2378022B01D1A37F13B16268013A00E00022237F13B14FF4803100E00021A368082B02D84FF4006300E000230B4302F00F021343F1
:401D400043F000732B60226B2B6813F4006F01D0802300E040239A4203D36221504800F065FAA26B2B6813F4006F01D0802300E040239A4203D36321494800F057FA626A28
:401D80002B6813F4006F01D0802300E040239A4203D36421424800F049FA23781B0603F040732B64637F0BB1402200E00022A37C13B14FF4806300E000231343227C12B1B9
:401DC0004FF4807200E000221343627C12B14FF4007200E000221A43E36A013B1B0403F470231343627B013A02F007021343A27B120102F030021343AB64237B13B14FF452
:401E0000807200E00022E37B23B92378022B03D1012302E0012300E0002313B14FF4007300E000231A43A368013B03F00F031343C5F80033227DA3691B0403F47F031343A6
:401E4000C5F81033E26AD5F8003303F00F0303339A4201D3102A03D97A21114800F0E6F9E37F23B12378012B03D0002302E0002300E0012313B14FF4807200E00022637B7D
:401E8000013B03F007031A43A37B1B0103F0300313436B64237B2BB14FF4807203E000BFCC8C08100022A368013B03F00F0313432278012A02D14FF4803200E0002213439D
:401EC000C5F8003294F83030C5F8043394F8203013B14FF0007200E0002294F82130012B02D14FF0807300E00023134394F82820012A02D14FF4803200E00022134394F8AE
:401F0000242013432B6594F83830C5F80432636B23F4926323F002031B051B0DC5F8C83FE36B23F08C035B055B0DC5F8883F76B1002070603060B060F0603062F0623063D8
:401F4000044B736370BD04487047034870BD002070BD00BFEFCDAB000160AA000B694A69934202D34869181A7047CA694869101A184470472DE9F04107460D46036813F431
:401F8000006F02D04FF0800801E04FF040084FEA5808D7F80863C6F308062C6926E00134EB689C4200D100246B699C420FD12B6B0BB1082098476B699C4208D10023C7F8C9
:401FC000C83F0CB1013C13E0EC68013C10E0D7F84023D7F8003303F00F03072B02D8AB681A5502E0AB6823F81420013E002ED6D12C61EC6829463846FFF7B0FF201A8045DB
:4020000019D908B1441E00E000243B6813F4006F01D0802300E040239C4204D34FF42071064800F003F9D7F8040320F0FF03E0B21843C7F80403BDE8F08100BF888C081060
:4020400038B504460D46D0F8003E13F0080F35D0D0F8CC3F13F448730AD04A681A434A60C0F8C03FD0F8C03F0B6B0BB110209847D4F8CC3F13F4006F09D06B6843F4006337
:402080006B604FF40063C4F8C03FD4F8C03FD4F8CC3F13F0010F11D0EB6923B129462046FFF72EFD05E0AB681BB129462046FFF761FF0123C4F8C03FD4F8C03FD4F8003E9D
:4020C00013F0040F2ED0D4F88C3F13F4A0630AD02A681A432A60C4F8803FD4F8803F2B6B0BB120209847D4F88C3F13F0010F08D029462046FFF796FC0123C4F8803FD4F817
:40210000803FD4F88C3F13F4007F0BD00022C4F8882F2B6823F001032B60EA622B6B0BB10220984738BD00BF38B50D4B9A680D4B9A420FD10D46044621B940F237110A482D
:4021400000F074F804F11003064A52F8230042F8235038BD1030054B53F8200038BD00BF00ED00E0004002080C8D08100000081048B338B504460D464368072B03D932217C
:40218000134800F053F8B4F900306268002B08DB5201D2B203F1604303F5614383F8002305E003F00F035201D2B20A49CA540A4B9A680A4B9A4208D12946B4F90000FFF787
:4021C000B3FF002038BD06487047002038BD00BF0C8D081014ED00E000ED00E0004002080100560010B5044605E0084B186800F07FF8A4F50044B4F5004FF6D8044B18689F
:4022000000FB04F000F074F810BD00BFA8420208A442020808B5034B1B7800FB03F000F067F808BDA042020801BEFEE738B50D46044C18220146204604F0E6F9A561002043
:40224000FFF7F2FF704C0208FEE700BF08B50268254BDA6142681A6282685A62C2689A620269DA6242691A6382695A63C2699A631E4A916AD963D16A1964516A5964516B1F
:402280009964926BDA64F1EE103A13F0900F27D0026A154B1A65426A5A65826A9A65C26ADA65026B1A66426B5A66826B9A66C26BDA66026C1A67426C5A67826C9A67C26CE9
:4022C000DA67026DC3F88020426DC3F88420826DC3F88820C26DC3F88C20026EC3F89020FFF7B2FF08BD00BF704C020800ED00E00230800803D001300238FCD100BF00BF01
:402300007047EFF3108072B6704780F31088704710B30246C3680BB303680BB330B40579114B03EB85035C682346002103E0934205D019465B69002BF9D1012000E000206E
:4023400080B124B9084B03EB85056A6000E04A6111610023536105E000207047002070470020704730BC70471878020850B310B402460479164B03EB840359680B4602E0E9
:40238000934204D05B69002BFAD1002000E00120D0B18A420ED14B6933B10D4A02EB8404636000221A610FE0094B03EB84040023636009E01A69596951615A6922B11B6910
:4023C000136101E0002070475DF8044B704700BF1878020800287DD00346002A7CD070B45068000280B29568AD0405F480252843D468240404F4403404431069000600F07C
:40240000E0602043147F0CB1012400E0002420430C1DA4011851D06828B903EB81100024C0F808410CE0012805D1146803EB8110C0F8084104E003EB81100124C0F80841B9
:40244000106938B9546903EB8110C0F80C419469C0F81041146803EB8110C0F81441906CB0F1FF3F17D0946A04F00F04166B360206F470663443956B2D0405F470252543B5
:40248000146C2403A4B22C430001C0B2204303EB8114C4F82001506A00F00300D66A360106F030063043556B2D0205F440752843D46BA401E4B20443506C800000F00C00B6
:4024C000204303EB8113C3F82401126AC3F83821002003E0024870470148704770BC70470100B600014B1860704700BFF84103082DE9F8430E46074618B93A217548FFF79A
:4025000095FE1EB93B217348FFF790FE002F00F0DA80002E00F0DA8032686F4B13401BB14A216C48FFF782FE72686C4B13401BB14B216848FFF77AFEB36813F0FC2F03D047
:402540004C216448FFF772FEF36813F0FC2F03D04D216048FFF76AFE337D032B03D94E215C48FFF763FEB369B3F5803F03D34F215848FFF75BFEF36D072B03D950215548B4
:40258000FFF754FE336EB3F5803F03D351215148FFF74CFE736EB3F5803F03D352214D48FFF744FE736843F000437B60B3683B61F3687B613369BB61337D9B07FB61B369B0
:4025C0003B62336803F46068736803F00409002435E02546A31D06EB83035A68404B13401BB163213B48FFF721FEAB1D06EB8303596805F1200247F822105B6813F0012F27
:402600000BD1B8F5606F08D1B9F1000F05D04FF47842344B23F8152003E00022314B23F81520726F02F11C7303F58033520093FBF2F31BB22C4A42F825300134E4B20F2C93
:40264000C7D9F36DC7F81832F36DC7F81032336EC7F82832336EC7F82032736EC7F83832736EC7F8303296F87030DBB1B36EB3F1804F03D382211748FFF7D8FDF36E23F40F
:402680004F0323F0FF031BB183211248FFF7CEFD6FF04043C7F80433B36EC7F80033F36EC7F84433D7F8003F3F2B02D0D7F8003F13B90B23C7F8003F336843F400133B60D6
:4026C0000020BDE8F8830948BDE8F8830748BDE8F88300BFC08E08100811DF0001FE302088CA887EFC4103081C4203080100060038B50D46044618B9B5211748FFF796FD25
:402700002CB30023236063604FF0031222616261A361E361236206E003F12002002144F822100133DBB20F2BF6D90023C4F81832C4F82832C4F838325DB16FF04043C4F884
:4027400004330020C4F84003C4F8440338BD034838BD002038BD00BFC08E08100100060008B50368002B0ADBD0F8A032002BFBDB036843F0004303600220FFF74BFD08BD4E
:4027800038B505460C46012904D940F271110648FFF74CFD012C04D16B6843F480336B6038BD01236B6238BDC08E081038B505460C460F2904D94FF415710848FFF736FD9B
:4027C0000F2C07D8203455F8243013F0012F03D0002038BD002038BD012038BDC08E081038B505460C460F2904D940F222211048FFF71CFD0F2C14D821462846FFF7D6FFDC
:4028000080F0010010F0FF0F05D06B6813F0080F09D1002038BD6B6813F0040F05D1002038BD002038BD012038BD012038BD00BFC08E081038B505460C460F2904D940F25D
:402840007B210648FFF7F2FC0F2C04D8603455F8240080B200E0002000B238BDC08E0810F8B506460C4615460F2904D940F27B311948FFF7DBFC0F2C2BD8736813F0800FBD
:4028800022D104F1200356F8233013F4806F1BD07768C7F302170137012303FA07F7736813F4807F02D1102F00D9102721463046FFF796FF20B9ADB2B5FBF7F52DB203E081
:4028C0003FB295FBF7F52DB2044B33F81430ED1A2DB22846F8BD00BFC08E0810FC41030870B505460C4616460F2904D94FF477711348FFF79BFC0F2C1AD86B6813F0020FFE
:4029000019D1324621462846FFF7AAFF07EE900AF8EEE77AF2EE046A67EEA66A094B53F8243007EE103AB8EEC77AC6EE877A04E0DFED057A01E0DFED047A17EE900A70BD44
:40294000C08E08101C4203080000000010B5012902D0082929D02EE01A4B1B78012B2CD00320FEF7B3FD184B984228D0FFF7C9FC164B1860022007F08DF8044607F095F872
:40298000022C05D1032805D0052805D1002404E00F4C02E0002400E00D4C0D4B9C420FD10A4B1868FFF7B1FC0AE0084B1868FFF7ACFC002404E0064C02E0054C00E0044CC8
:4029C000204610BD604203080101880054780208FF00420008B502291CD0082914D001291ED1124B1B78012B1CD0FFF78AFC104B5860022007F04EF8022815D00C4B586838
:402A0000FFF783FC0B4808BD094B5868FFF77DFC002008BD064B5868FFF777FC054808BD044808BD034808BD002008BD6042030854780208FF00420010B5044C2046FFF7DA
:402A400095FC04F11800FFF791FC10BD30440208B0B110B50B4A9060C36A03B1D3600024094B1C70094B1C70094B1C60094B1C7000F06CF9084B1C70084B1C70204610BD91
:402A8000074870475478020874420308784203087C420308794203085F420308644203080100160070B59AB0424D15AC28686968AA68EB680FC4286920604C22002102A80F
:402AC00002F0FCFF3C4B029315AB049342F61013ADF8143005238DF81630384B9B681B69069341F2960307931B23ADF82030ADF8223003238DF8243004238DF825300623E3
:402B00008DF8263010238DF827308DF828308DF829307223ADF84C3001238DF85030284C2046FFF7F5FB04F11800FFF7F1FB06F0ADFF08A807F004F80346002836D1214B39
:402B400003931E4B9B68996B89B10B460DF12A0220311E685D689C68D868166055609460D060103310328B42F3D11B88138002A806F0AEFF0346B0B90122134B1A700023F2
:402B8000124A1370124A13700C4B9B681A6A00929B6ADB88ADF804301023ADF8063068460FF0C8FD034600210A4A116018461AB070BD00BFFC8E0810193108105478020809
:402BC00030440208044D02086042030868420308694203087C42030818B1034A1061002070470248704700BF547802080100160008B5044B1B689847034B1B6803B198473E
:402C000008BD00BF787802086478020808B510B1034A52689047034B1B6803B1984708BD787802086478020870B5C0B006460C4615464FF480720849684602F034FF05E0FF
:402C400016F8012B6A401DF80250013C002CF7D1284640B070BD00BF108F081008B50022FFF7E2FF08BD00BF08B5FFF74AFB08BD08B5FFF74AFB08BD08B50120FEF73EFE14
:402C800008BD00BF08B50120FEF70EFE08BD00BF08B5094B58601960012208491046FEF751FD034628B9002205490120FEF74AFD0346184608BD00BF787802080D2C081071
:402CC000F12B081038B515460B46024601210020FEF7E6FC044618B129460120FEF75AFD204638BD704700BF704700BF00207047004870471100160000487047110016004D
:402D00000048704711001600004870471100160000487047110016000048704711001600004870471100160000487047110016000048704711001600004870471100160063
:402D40000048704711001600704700BF08B5024800F07AFD08BD00BF2C440208F8B5022872D8002972D10022134606E03B4CE45C012C01D90132D2B20133002BF6D0012A88
:402D80000CD1374B1B681C6801EB8102930023445B681B79023BDBB2012B59D8314B1B78002B57D1304B1970E0B92D4F3C68236801EB8105AA009D186668C1EBC1014B00C4
:402DC0001E44B18829822168114449686468E45A0C8039680C682244526849680B445B8853801EE001281CD11D4F3C68236801EB8105AA009D186668C1EBC1014B001E4414
:402E0000B1892982216811444D68616819440989298039680C682244526849680B445B895380124B18700E4B1B6818680E4B1B7803EB83039A0010440BF012FA034650B9E5
:402E40000121084A117006E0094B04E0084B02E0084B00E0084B1846F8BD00BF684203085C780208694203085E420308794203080100160002001600FF00160070B439B99E
:402E8000144B1B681B689968CE7F00231D460EE0104B1B681B68D968CE7FF6E7CA5C52B10133CC5C1B2C01D0134400E00125B34201D2002DF2D05DB101338279CA540022F1
:402EC00004E0D4180134855C0D550132052AF8D970BC70475C78020870B504460FF044FC054620BB134B1968086A228902EB82029300143B03445A6812F0007F17D0E67BA1
:402F00001B695A68CB69D21AC6EBC606B318A28821680948184402F0C6FDE37B074AD35C012B04D1064A137843F002031370284670BD00BF5C7802086C42030864420308B7
:402F40005F42030830B587B002891A4B1B685B699B889A4229D1044601AB07C883E807000022ADF81020A289ADF8122040228DF814201846FFF7B0FF054680B923681B7869
:402F800003F002039BB22BB10B4B1B6821460B48984704E0084B1B68214609489847094A137803F0FE03137000E00025284607B030BD00BF5C78020860780208050001003C
:402FC00006000100744203084288531E9BB21B2B1AD84178D1B910B40F4B1868046A02EB82029300143B23445A6812F0007F0FD01B695A68C369D31AC1EBC1011944074BA2
:403000005B5A1380002004E0012070470120704700205DF8044B70475C7802086C42030800B583B00023ADF804308389ADF800300389ADF8023012238DF80430084B1B7886
:4030400013F0010F09D129B18DF8051068460EF0B5FC02E0C0680EF0D1FC03B05DF804FB7442030810B4044688B10023194606E0104A52F82320944200D1012101330D4A0B
:403080001279934206D20029F2D0002003E00021094800E0002050B949B9064B1B792BB9044A42F823400133137100E003485DF8044B70478042030801001600030016007E
:4030C00070B506460D460020044606E0084B53F824302946304698470134054B1B799C4204D2044B1B7813F0010FEFD170BD00BF804203087442030883792BB1002070475B
:40310000C25C32B9013300E00023052BF8D9002070470120704700BF70B58CB004460D46BF4A137843F00103137044F20803984200F04C823CD842F20403984200F0F08032
:4031400019D841F20203984200F0178108D8B0F5805F76D041F20103984200F00B8159E341F20303984200F0418141F20403984200F04B834EE343F2190398425BD00AD851
:4031800043F20103984200F0B98043F21203984200F0B4803EE344F20603984200F01A8200F2CD8144F20403984200F0328131E345F20C03984200F0DF821BD845F2010318
:4031C000984200F046820AD844F20A03984200F0B38144F21003984200F0B1811AE345F20203984200F0838245F20303984200F0B9820FE345F21003984200F0F8820AD829
:4032000045F20E03984200F0EC8245F20F03984200F0EA82FEE245F21703984200F0ED8246F20103984200F0118245F21403984240F0F082DEE27A4A137803F0FE0313703C
:40324000E8E2784B1E683046FFF756FF60B130460BF0FCFF734E00213068FFF70FFE01213068FFF70BFE37E06F4B1A68936A1B791BB34FF0B05191F8043603F03F0391F854
:40328000050600F03F0043EA801391F8030600F01F0043EA003391F8001601F07F0143EA4143126B1370604A1168096BC3F3072048701268126B1B0C93705B4E3368186B3E
:4032C0000BF0C4FF33680021186BFFF7D7FD33680121186BFFF7D2FD534B1B68986A02300CF0CAFB514A05AB1068516803C305A80BF0D0FF02224E4B1A708BE200234C4AC6
:4033000013704C4A13704C4A13700A20FEF76AFF43F212039C4240F07D82FFF78DFB79E2464B1B6813F0010F40F074820023ADF814308DF816303C4E33689B6A93F9003016
:403340008DF8143005A80BF0BFFF33689B6A93F901308DF8143001238DF81530FF238DF8163005A80BF0B0FF344A136843F0010313604FE2FFF7A4FE4CE24978304B1B884D
:40338000ADF81430002319E02E4A32F81320ADF808209DF8092012B92B48825C00E00022012A0AD9274A12F81320914205D1254A32F81330ADF8143002E00133002BE3D06C
:4033C0009DF81530FF2B05D104D140F2CA311F48FEF72CFFBDF81430ADF82030ADF81C30C3F3072329781A4AD15413E20B78002B40F010820B7A33B9164B0022DA809A80B4
:40340000154A1A604B60064A137803F0FE03137000E249790A4B1B88ADF81430002337E074420308604402085C780208109008106042030869420308907802087C420308B4
:40344000189008105C420308684203081C900810784203089878020814760208B04A32F81320ADF80C209DF80D2012B9AD48825C00E00022012A0AD9A94A12F8132091425C
:4034800005D1A74A32F81330ADF8143002E00133002BE3D09DF81530FF2B05D104D140F2CA31A148FEF7C2FEBDF81430ADF82430ADF81430C3F3072369789C4AD154EB7877
:4034C000002B40F0A7816979994B1B88ADF81430002319E0924A32F81320ADF810209DF8112012B98F48825C00E00022012A0AD98B4A12F81320914205D1894A32F813307C
:40350000ADF8143002E00133002BE3D09DF81530FF2B05D104D140F2CA318348FEF786FEBDF81430ADF82830ADF81430C3F307230121804AD1546DE1FFF7C2FD6AE1AB7E47
:40354000002B3FD12B7E012B02D100227A4B1A70E97E774B1B88ADF81030002319E0704A32F81320ADF814209DF8152012B96D48825C00E00022012A0AD9694A12F8132012
:40358000914205D1664A32F81330ADF8103002E00133002BE3D09DF81130FF2B05D104D140F2CA316048FEF741FEBDF81030ADF82C30ADF81030C3F30723FF2B02D0297E5A
:4035C0005E4AD15402225E4B1A7023E102225C4B1A701FE1FFF774FD5A4B1B7813F0010F00F01881544B1B78012B03D10222524B1A700FE1032B03D100224F4B1A7009E174
:40360000022B40F0078100224B4B1A704E4B1B685B684E4A1178C1EBC10203EB42039A79002A00F0F7809B88002B00F0F380484B1B78002B40F0EE800120FFF78FFB0028B4
:4036400040F0E88001223C4B1A70E3E0FFF738FDE0E00B88ADF800309DF801301BB90221304AD15405E023B940F286312E48FEF7DDFD6A7829882A4B23F812106B780021D4
:40368000344AD154C3EBC302334E91192E4B1B6818692B78C3EBC30303F584531033034453F8060F90519A889B798A808B716878C0EBC00006213044FFF7D0FA6B78C3EB28
:4036C000C30333449B7998420CD0244B1B680021234898476B78C3EBC303981900229A51C0F8032029462046FFF7EAFC92E00B88ADF804309DF805301BB90021094AD154B0
:4037000005E023B940F286310748FEF78FFD6B780021084AD15429462046FFF7D1FC79E05C420308684203081C900810644203081890081090780208694203089478020832
:4037400060420308744203085C7802085E42030879420308784203086C42030860780208040001000B88ADF814301723ADF8163005A80EF02FF94DE00846FFF7E3FB01461D
:4037800020B929462046FFF79BFC01462846FFF747FC294B1B7813F0110F04D0274B1B682946204698472A89234B1B7813F0010F11D0531E9BB21B2B0DD912238DF81830A5
:4037C000ADF81620AB89ADF8143001238DF8193005A80EF0F3F8184A137803F0FE03137018E0FFF76DFC15E0FFF76AFC12E0FFF767FC0FE0FFF764FC0CE00846FFF7E4FB9E
:4038000029462046FFF75CFC04E00D4A137843F001031370084B1B7813F0110F09D0064A137803F0FE031370044B1B682946204698470CB070BD00BF7442030860780208E0
:403840005F4203080020704730B108B5034A10600348FFF707FC08BD02487047A4780208453808100100160000F1080343604FF0FF328260C360036100230360704700BF1A
:4038800000230361704700BF43684B609A688A609A68516099600861036801330360704730B40D68B5F1FF3F01D1026907E000F1080200E01A4653681C68A542FAD25368B2
:4038C0004B6099608A605160086103680133036030BC704703694268816891608268416851605A68904201D182685A60002202611A68013A1A601868704700BF10B504467C
:4039000001F0B8FAA26BE36B9A4201D1012400E0002401F0D1FA204610BD00BF10B5044601F0A8FAA36B0BB9012400E0002401F0C3FA204610BD00BF70B504461646856B0C
:40394000026CFAB166B9806802F0ADF8A268236C1344A3606268934214D32368A36011E0C06802F0A0F8236C5B42E2681A44E26021688A4202D262681344E360022E01D141
:4039800005B1013D0135A563002070BD026C72B110B50346C4681444C4604068844201D31868D8600846D96802F07DF810BD704738B5054601F05EFA95F8454064B20AE03A
:4039C0006B6A53B105F1240000F06EFF08B100F0F9FF013C64B2002CF2DCFF2385F8453001F06AFA01F046FA95F8444064B20AE02B6953B105F1100000F056FF08B100F052
:403A0000E1FF013C64B2002CF2DCFF2385F8443001F052FA38BD00BF38B540B94FF0200383F31188BFF36F8FBFF34F8FFEE704460D4601F01FFA2168E26B236C03FB0210BD
:403A400060600020A063A160013A02FB0313E360FF2384F8443084F845307DB92369ABB104F1100000F020FF80B14FF08052094B1A60BFF34F8FBFF36F8F07E004F1100060
:403A8000FFF7F2FE04F12400FFF7EEFE01F014FA012038BD04ED00E010B5029B0C4609B91B6000E01A60D8631C6401211846FFF7B3FF10BD40B94FF0200383F31188BFF328
:403AC0006F8FBFF34F8FFEE7F0B583B0034611B101FB00F000E000201D4617460C46483001F018FB064638B100903B4600F1480221462846FFF7D0FF304603B0F0BD00BF46
:403B000040B94FF0200383F31188BFF36F8FBFF34F8FFEE7884208D24FF0200383F31188BFF36F8FBFF34F8FFEE710B50C4602220021FFF7BFFF034600B18463184610BDA0
:403B4000F0B585B0019240B94FF0200383F31188BFF36F8FBFF34F8FFEE7044619B9026C1AB9012202E0012200E0002242B94FF0200383F31188BFF36F8FBFF34F8FFEE731
:403B8000022B03D1E26B012A02D102E0012200E0002242B94FF0200383F31188BFF36F8FBFF34F8FFEE71D460E4600F013FF18B9019B1BB9012302E0012300E0002343B9FE
:403BC0004FF0200383F31188BFF36F8FBFF34F8FFEE7002701F04EF9A26BE36B9A4201D3022D21D12A4631462046FFF7A5FE636A6BB104F1240000F057FE88B14FF080522D
:403C0000324B1A60BFF34F8FBFF36F8F08E038B14FF080522D4B1A60BFF34F8FBFF36F8F01F04AF901204EE0019B1BB901F044F9002048E01FB902A800F07AFE012701F0CD
:403C40003BF900F067FC01F015F994F844305BB2B3F1FF3F02D1002384F8443094F845305BB2B3F1FF3F02D1002384F8453001F023F901A902A800F065FEF0B92046FFF759
:403C80003DFEA0B1019904F1100000F0D5FD2046FFF78EFE00F0CCFC00289BD14FF080520A4B1A60BFF34F8FBFF36F8F92E72046FFF77EFE00F0BCFC8CE72046FFF778FE85
:403CC00000F0B6FC002005B0F0BD00BF04ED00E02DE9F84340B94FF0200383F31188BFF36F8FBFF34F8FFEE7044619B9006C18B9012002E0012000E0002040B94FF0200358
:403D000083F31188BFF36F8FBFF34F8FFEE7022B03D1E06B012802D102E0012000E0002040B94FF0200383F31188BFF36F8FBFF34F8FFEE71F469046894601F0ADF9EFF3F2
:403D400011864FF0200383F31188BFF36F8FBFF34F8FA26BE36B9A4201D3022F1ED194F845506DB23A4649462046FFF7E5FDB5F1FF3F0DD1636A9BB104F1240000F094FDCE
:403D800080B1B8F1000F0FD00120C8F800000CE06B1C5BB284F84530012006E0002004E0012002E0012000E0012086F31188BDE8F88300BF40B94FF0200383F31188BFF3AC
:403DC0006F8FBFF34F8FFEE770B50446036C43B14FF0200383F31188BFF36F8FBFF34F8FFEE703681BB943681BB9012302E0012300E0002343B94FF0200383F31188BFF3DE
:403E00006F8FBFF34F8FFEE70E4601F045F9EFF311854FF0200383F31188BFF36F8FBFF34F8FA26BE36B9A4218D294F845305BB20132A263B3F1FF3F0AD1636A83B104F149
:403E4000240000F031FD68B176B1012030600CE001335BB284F84530012006E0002004E0012002E0012000E0012085F3118870BDF0B585B0019240B94FF0200383F31188AC
:403E8000BFF36F8FBFF34F8FFEE7044619B9036C1BB9012302E0012300E0002343B94FF0200383F31188BFF36F8FBFF34F8FFEE70E4600F08FFD18B9019B1BB9012302E0A8
:403EC000012300E0002343B94FF0200383F31188BFF36F8FBFF34F8FFEE7002700F0CAFFA56BC5B131462046FFF750FD013DA563236963B104F1100000F0D6FC38B14FF0AE
:403F00008052304B1A60BFF34F8FBFF36F8F00F0D3FF012053E0019B1BB900F0CDFF00204DE01FB902A800F003FD012700F0C4FF00F0F0FA00F09EFF94F844305BB2B3F186
:403F4000FF3F02D1002384F8443094F845305BB2B3F1FF3F02D1002384F8453000F0ACFF01A902A800F0EEFCF0B92046FFF7D6FCA0B1019904F1240000F05EFC2046FFF7FC
:403F800017FD00F055FB0028A8D14FF080520D4B1A60BFF34F8FBFF36F8F9FE72046FFF707FD00F045FB99E72046FFF701FD00F03FFB2046FFF7B2FC00288FD0002005B069
:403FC000F0BD00BF04ED00E030B585B0019140B94FF0200383F31188BFF36F8FBFF34F8FFEE70446036C43B14FF0200383F31188BFF36F8FBFF34F8FFEE700F0EBFC18B95E
:40400000019B1BB9012302E0012300E0002343B94FF0200383F31188BFF36F8FBFF34F8FFEE7002500F026FFA36BA3B1013BA363236963B104F1100000F036FC38B14FF084
:404040008052304B1A60BFF34F8FBFF36F8F00F033FF012053E0019B1BB900F02DFF00204DE01DB902A800F063FC012500F024FF00F050FA00F0FEFE94F844305BB2B3F10B
:40408000FF3F02D1002384F8443094F845305BB2B3F1FF3F02D1002384F8453000F00CFF01A902A800F04EFCF0B92046FFF736FCA0B1019904F1240000F0BEFB2046FFF73C
:4040C00077FC00F0B5FA0028ACD14FF080520D4B1A60BFF34F8FBFF36F8FA3E72046FFF767FC00F0A5FA9DE72046FFF761FC00F09FFA2046FFF712FC002893D0002005B07E
:4041000030BD00BF04ED00E000230BE0074A52F8332032B9054A42F8331002EBC303586070470133092BF1D9704700BF8842030870B504460D46164600F09CFE94F8443008
:404140005BB2B3F1FF3F02D1002384F8443094F845305BB2B3F1FF3F02D1002384F8453000F0AAFEA36B2BB93246294604F1240000F07CFB2046FFF71BFC70BD094B9B6AA9
:404180001B680BB9012300E0002323B14FF0FF32044BDA627047034B9A6AD268D2685268DA627047A878020810B50446006B00F0E1FF204600F0DEFF10BD00BF2DE9F04718
:4041C0008246894615469846089F099E0A9C9200A521206B01F072FC236B05F18042013A03EB820525F00705002308E019F80310E21882F8341019F8032012B101330F2B56
:40420000F4D9002384F84330062F00D90627E762201DFFF735FB04F11800FFF731FB2461C7F10703A3616462002306E003F1100204EB8202002151600133042BF6D90023CF
:40424000A36584F85C3042465146284600F0E4FD206006B13460BDE8F08700BF70B5002407E004EB8402930010481844FFF7FCFA0134062CF5D90E4C04F1BC063046FFF7A0
:40428000F3FA04F1D0052846FFF7EEFA04F11400FFF7EAFA04F1E400FFF7E6FA2046FFF7E3FAA662C4F8F85070BD00BFD8780208A878020838B5044600F0DCFD264BD3F878
:4042C000FC200132C3F8FC20D3F800314BB9224BC3F80041D3F8FC30012B10D1FFF7BEFF0DE01D4BD3F804314BB91B4BD3F80031DA6AE36A9A4202D8174BC3F80041164AB8
:40430000D2F808310133C2F80831E36AD2F80C21934202D9104AC2F80C310F4D05F1300003EB83039A00211D1044FFF7ADFA00F0C3FDD5F804316BB1D5F80031DA6AE36AF2
:404340009A4207D24FF08052044B1A60BFF34F8FBFF36F8F38BD00BFA878020804ED00E038B517E000F086FD0D4CD4F8F030DD68281DFFF7AFFAD4F8FC30013BC4F8FC30DE
:40438000D4F81031013BC4F8103100F095FD2846FFF70AFF024BD3F81031002BE2D138BDA878020808B5FFF7DBFF064B1B6B012BF9D94FF08052044B1A60BFF34F8FBFF3F4
:4043C0006F8FF0E7A878020804ED00E070B504460E46174BD3F81451D3F800010430FFF779FAB4F1FF3F07D136B11148D0F800110431FFF749FA70BD2C440D4BD3F80031FC
:404400005C60A54208D90A4BD3F8F800D3F800110431FFF745FA70BD054DA86AD5F800110431FFF73DFAEB6A9C4200D2EC6270BDA87802082DE9F04385B006460F461546A5
:404440009846900000F066FE60B18146602000F061FE044610B1C0F8309004E0484600F089FE00E000248CB10023039302940D9B01930C9B009343462A4639463046FFF77D
:404480009DFE2046FFF716FF012001E04FF0FF3005B0BDE8F08300BF00B583B0194B019300230093802218491848FFF7C3FF012801D100F0F5FA012814D14FF0200383F383
:4044C0001188BFF36F8FBFF34F8F114B4FF0FF32DA620122C3F804210022C3F8142100F06BFD0BE0B0F1FF3F08D14FF0200383F31188BFF36F8FBFF34F8FFEE703B05DF82D
:4045000004FB00BFC479020854900810A5430810A8780208034AD2F818310133C2F81831704700BFA8780208014BD3F814017047A87802082DE9F0413C4BD3F81831002BFF
:4045400065D13A4BD3F814410134C3F81441CCB99B6A1B6843B14FF0200383F31188BFF36F8FBFF34F8FFEE7304B9A6AD3F8F8109962C3F8F820D3F820210132C3F8202129
:40458000FFF7FCFD294BDB6A9C4203D2002645E0012600E00026254B9B6A1B680BB9012300E0002323B14FF0FF32204BDA6235E01E4B9B6ADB68DD686B689C4202D21B4A65
:4045C000D3622BE005F104084046FFF783F9AB6A1BB105F11800FFF77DF9EB6A134AD2F80C21934202D9114AC2F80C310F4F07F1300003EB83039A0041461044FFF744F9D9
:40460000EA6AD7F80031DB6A9A42C1D2C3E7074AD2F824310133C2F824310026034BD3F8283103B101263046BDE8F081A8780208394BD3F8183143B94FF0200383F31188E7
:40464000BFF36F8FBFF34F8FFEE770B500F012FC314BD3F81821013AC3F81821D3F81831002B52D12C4BD3F8FC303BBB00244FE0294D2B6ADC6804F11800FFF72BF9261D71
:404680003046FFF727F9E36AD5F80C21934201D9C5F80C31204D05F1300003EB83039A0031461044FFF7F0F8E26AD5F80031DB6A9A4204D30122C5F8282100E00024164B64
:4046C0005B69002BD4D10CB1FFF758FD124BD3F8244164B1FFF72EFF18B101220E4BC3F82821013CF6D100220B4BC3F824210A4BD3F828315BB14FF08052084B1A60BFF37F
:404700004F8FBFF36F8F012402E0002400E0002400F0D2FB204670BDA878020804ED00E010B5B0B10446104BD3F8183143B14FF0200383F31188BFF36F8FBFF34F8FFEE708
:40474000FFF7E8FE00212046FFF740FEFFF770FF00E0002038B94FF08052044B1A60BFF34F8FBFF36F8F10BDA878020804ED00E0304BD3F8183123B101222E4BC3F8282167
:40478000704710B52B4B0022C3F82821D3F800311B6B1A68B2F1A53F0BD15A68B2F1A53F07D19A68B2F1A53F03D1DB68B3F1A53F07D0204BD3F80001D3F80011343100F0F2
:4047C00097FC1C4BD3F80C310AE043B94FF0200383F31188BFF36F8FBFF34F8FFEE7013B03EB83018A0013490A44126B002AECD008469900CC18A2000244546B6468546301
:40480000303019448A0008320244944206D1606803EB83018A0007490A445063054903EB830082000A44526BD268C1F80021C1F80C3110BDA878020840B94FF0200383F3D1
:404840001188BFF36F8FBFF34F8FFEE710B50C46054BD3F800111831FFF722F801212046FFF7B4FD10BD00BFA878020838B540B94FF0200383F31188BFF36F8FBFF34F8F62
:40488000FEE70C461546074AD2F800111831FEF7FBFF0DB14FF0FF3429462046FFF796FD38BD00BFA878020838B5C368DC6844B94FF0200383F31188BFF36F8FBFF34F8F8C
:4048C000FEE704F118052846FFF704F8154BD3F81831ABB9251D2846FEF7FCFFE36A114AD2F80C21934202D90E4AC2F80C3103EB83039A0029460C481044FEF7C5FF03E08A
:4049000029460A48FEF7C0FFE26A064BD3F80031DB6A9A4204D90120024BC3F8280138BD002038BDA8780208D8780208BC780208034BD3F820210260D3F814314360704727
:40494000A8780208F8B540B94FF0200383F31188BFF36F8FBFF34F8FFEE7054641B94FF0200383F31188BFF36F8FBFF34F8FFEE70C4600F07FFA124BD3F814016968421AD1
:404980002368B3F1FF3F14D02F680D4ED6F82061B74201D088420ED29A4206D29B1A23602846FFF7C5FF002406E000232360012402E0002400E0012400F07EFA2046F8BD7A
:4049C000A87802080122024BC3F82821704700BFA8780208064BD3F804312BB1044BD3F818311BB9022070470120704700207047A8780208064B1A681368B3FA83F35B098E
:404A0000036013B9D368186870470020704700BFD479020808B54160006191420AD8D21A83699A4211D2011D0A4B5868FEF738FF002008BD9A4201D2994208D2011D054BC7
:404A40001868FEF72DFF002008BD012008BD012008BD00BFD479020870B500F00BFA0E4B9B68B3B90C4C04F10C063046FEF7FCFE04F120052846FEF7F7FE26606560002249
:404A80000C210A20FFF716F8A06010B10349FFF73BFB00F011FA70BDD47902085C90081000B583B0FFF7D8FF0D4B9B6853B10D4B019303230093002380220B490B48FFF7C4
:404AC000B9FC00E0002040B94FF0200383F31188BFF36F8FBFF34F8FFEE703B05DF804FBD4790208087A020864900810854D081040B94FF0200383F31188BFF36F8FBFF3C6
:404B00004F8FFEE730B585B015460446124A9068F0B11A46019102950394052913DCFFF759FF022807D10023089A01A90A488068FFF706F80DE000231A4601A90648806884
:404B4000FEF7FEFF05E0002301A9FFF7C1F800E0002005B030BD00BFD479020870B582B029E0DB681E68DC68251D2846FEF7B2FE636A20469847E369012B1CD1A36933446E
:404B80009E4207D2636024612946104B1868FEF787FE10E0002100910B4632462046FFF7A7FF40B94FF0200383F31188BFF36F8FBFF34F8FFEE7054B1B681A68002AD0D114
:404BC000024A51681160536002B070BDD479020838B50546FFF7A8FC0446074B9B6B984204D2FFF7BBFF01232B6001E000232B60014B9C63204638BDD479020870B582B0F0
:404C000005460E46134B1B68DB68DC68201DFEF761FEE369012B18D1A1692B46324629442046FFF7F7FE80B1002100910B462A462046FFF75DFF40B94FF0200383F3118804
:404C4000BFF36F8FBFF34F8FFEE7636A2046984702B070BDD479020870B582B006460C46FFF758FC01A8FFF7B3FF019B1BBB054644B9B04206D3FFF7DBFC29463046FFF70A
:404C8000BDFF1AE02CB10E4B5B681C68B4FA84F464092246711B0A4B9868FFF749FAFFF7C7FC50B94FF08052064B1A60BFF34F8FBFF36F8F01E0FFF7BBFC02B070BD00BFA2
:404CC000D479020804ED00E030B587B04DE0039B002B4ADB059C636913B1201DFEF7FAFD02A8FFF775FF039B092B3ED8DFE803F00505053D273A05053D270499A5690B462E
:404D0000024629442046FFF785FE70B3636A20469847E369012B28D1A269002100910B46049802442046FFF7E3FEF0B94FF0200383F31188BFF36F8FBFF34F8FFEE7049930
:404D4000A16141B94FF0200383F31188BFF36F8FBFF34F8FFEE70346024601442046FFF759FE02E0204600F005FA002203A9044B9868FFF77DF80028A9D107B030BD00BF54
:404D8000D479020800B583B001A8FFF733FE0199FFF762FFFFF798FFF6E700BF82B0002301930D4B1B68B3F1FF3F08D04FF0200383F31188BFF36F8FBFF34F8FFEE74FF077
:404DC000200383F31188BFF36F8FBFF34F8F019B002BFCD002B070476444020808480068006880F308884FF0000080F3148862B661B6BFF34F8FBFF36F8F00DF00BF000015
:404E000008ED00E0DFF80C00016841F4700101607047000088ED00E04FF0807340F8043C21F0010140F8081C054B40F80C3C40F8202C6FF0020340F8243C4438704700BFE3
:404E40009D4D0810000000000000000000000000074B19680868B0E8F04F80F30988BFF36F8F4FF0000080F311887047AFF30080A87902084FF0200383F31188BFF36F8FF2
:404E8000BFF34F8F0A4A136801331360012B0DD1084B1B6813F0FF0F08D04FF0200383F31188BFF36F8FBFF34F8FFEE7704700BF6444020804ED00E0094B1B6843B94FF082
:404EC000200383F31188BFF36F8FBFF34F8FFEE7013B034A13600BB983F31188704700BF64440208000000000000000000000000EFF30980BFF36F8F154B1A681EF0100F3A
:404F000008BF20ED108A20E9F04F10602DE909004FF0200080F31188BFF34F8FBFF36F8FFFF726FC4FF0000080F3118809BC19680868B0E8F04F1EF0100F08BFB0EC108A67
:404F400080F30988BFF36F8F704700BFAFF30080A879020808B54FF0200383F31188BFF36F8FBFF34F8FFFF7E5FA18B14FF08052024B1A60002383F3118808BD04ED00E00E
:404F8000084A0023136008490B60084B1B680849A1FB03139B09013B06490B6007231360704700BF10E000E018E000E098420208D34D621014E000E010B582B0314B1A78D0
:404FC000D2B20192FF221A701B78DBB28DF803309DF803302C4A03F0200313700723536009E0294A5368013B53609DF803305B00DBB28DF803309DF8033013F0800FF0D1DA
:40500000214B5B68C3F10702032A08D04FF0200383F31188BFF36F8FBFF34F8FFEE7032A08D04FF0200383F31188BFF36F8FBFF34F8FFEE71B0203F4E063134A5360019B4B
:40504000DBB2104A1370114B1A6842F47F021A601A6842F07F421A60FFF792FF00240C4B1C60FFF7CFFE0B4A136843F040431360FFF7B4FEFFF77CFBFFF790FE204602B0DD
:4050800010BD00BF00E400E0107A020820ED00E06444020834EF00E0EFF305830F2B0FD9104A9B5CDBB2104A1278934208D24FF0200383F31188BFF36F8FBFF34F8FFEE7D7
:4050C0000A4B1B6803F4E063074A5268934208D94FF0200383F31188BFF36F8FBFF34F8FFEE77047F0E300E0107A02080CED00E008B54FF0200383F31188BFF36F8FBFF3E0
:405100004F8F4FF441710248FDF790F8FEE700BF6C90081038B5044610F0070F02D020F007040834FFF7F6F9104B1B682BB90F4A02F10C0323F0070313600D4BD3F85C3562
:405140001C444BF6F772944208D8A34208D2074A15681D44064BC3F85C4502E0002500E00025FFF765FA284638BD00BF187A0208C034030840B14FF0200383F31188BFF3A2
:405180006F8FBFF34F8FFEE7704700BF70B539B900240AE015F8010BFBF784FC013402E016460D460024B442F4DB204670BD00BF70B561B900240FE0FBF780FCC0B228708B
:4051C00001340A2808D00D2806D0013502E016460D460024B442EFDB204670BD38B504461E4B1A68916892F8703003F00403DBB243F08043C1F800340369FF2B0AD8916807
:40520000B2F874200A44116921F47F411B029BB20B431361114B1A68906892F87310032303FA01F592F8703092F8721003FA01F1294303F004030B4343F00043C0F8003430
:405240009368D3F80034064D00212846FDF750FAA1682846FDF74CF938BD00BFF841030800001D4108B5084B1B7963B907490848FCF77EFF044B5B792BB90122024B5A71FC
:405280000448FFF7ABFF08BD203A0308C552081060870810F890081008B5084B1B7913F0010F06D1FFF7DEFF044A137943F0010313710348FDF754FA08BD00BF203A03089E
:4052C00000001D4110B5094BD3F81042072C04D940F231610648FCF7A9FF044BC3F81042D3F81022D3F8103210BD00BF00001D41BC90081081F0004102E000BF83F00043A0
:4053000030B54FEA41044FEA430594EA050F08BF90EA020F1FBF54EA000C55EA020C7FEA645C7FEA655C00F0E2804FEA5454D4EB5555B8BF6D420CDD2C4480EA020281EAE9
:40534000030382EA000083EA010180EA020281EA0303362D88BF30BD11F0004F4FEA01314FF4801C4CEA113102D0404261EB410113F0004F4FEA03334CEA133302D052423F
:4053800063EB430394EA050F00F0A780A4F10104D5F1200E0DDB02FA0EFC22FA05F2801841F1000103FA0EF2801843FA05F359410EE0A5F120050EF1200E012A03FA0EFCEA
:4053C00028BF4CF0020C43FA05F3C01851EBE37101F0004507D54FF0000EDCF1000C7EEB00006EEB0101B1F5801F1BD3B1F5001F0CD349085FEA30004FEA3C0C04F10104C7
:405400004FEA445212F5800F80F09A80BCF1004F08BF5FEA500C50F1000041EB045141EA050130BD5FEA4C0C404141EB010111F4801FA4F10104E9D191F0000F04BF014653
:405440000020B1FA81F308BF2033A3F10B03B3F120020CDA0C3208DD02F1140CC2F10C0201FA0CF021FA02F10CE002F11402D8BFC2F1200C01FA02F120FA0CFCDCBF41EA48
:405480000C019040E41AA2BF01EB0451294330BD6FEA04041F3C1CDA0C340EDC04F11404C4F1200220FA04F001FA02F340EA030021FA04F345EA030130BDC4F10C04C4F17F
:4054C000200220FA02F001FA04F340EA0300294630BD21FA04F0294630BD94F0000F83F4801306BF81F480110134013D4EE77FEA645C18BF7FEA655C29D094EA050F08BF0C
:4055000090EA020F05D054EA000C04BF1946104630BD91EA030F1EBF0021002030BD5FEA545C05D14000494128BF41F0004130BD14F580043CBF01F5801130BD01F00045B3
:4055400045F0FE4141F470014FF0000030BD7FEA645C1ABF194610467FEA655C1CBF0B46024650EA013406BF52EA033591EA030F41F4002130BD00BF90F0000F04BF0021E6
:40558000704730B54FF4806404F132044FF000054FF0000150E700BF90F0000F04BF0021704730B54FF4806404F1320410F0004548BF40424FF000013EE700BF42004FEAB5
:4055C000E2014FEA31014FEA02701FBF12F07F4393F07F4F81F06051704792F0000F14BF93F07F4F704730B54FF4607401F0004521F0004120E700BF50EA010208BF704775
:4056000030B54FF000050AE050EA010208BF704730B511F0004502D5404261EB41014FF4806404F132045FEA915C3FF4DCAE4FF003025FEADC0C18BF03325FEADC0C18BFBC
:40564000033202EBDC02C2F1200300FA03FC20FA02F001FA03FE40EA0E0021FA02F11444C1E600BF70B54FF0FF0C4CF4E06C1CEA11541DBF1CEA135594EA0C0F95EA0C0F6C
:4056800000F0DEF82C4481EA030621EA4C5123EA4C5350EA013518BF52EA033541F4801143F4801338D0A0FB02CE4FF00005E1FB02E506F00042E0FB03E54FF00006E1FB0B
:4056C00003569CF0000F18BF4EF0010EA4F1FF04B6F5007F64F5407404D25FEA4E0E6D4146EB060642EAC62141EA55514FEAC52040EA5E504FEACE2EB4F1FD0C88BFBCF5A8
:40570000E06F1ED8BEF1004F08BF5FEA500E50F1000041EB045170BD06F0004646EA010140EA020081EA0301B4EB5C04C2BFD4EB0C0541EA045170BD41F480114FF0000EB0
:40574000013C00F3AB8014F1360FDEBF002001F0004170BDC4F10004203C35DA0C341BDC04F11404C4F1200500FA05F320FA04F001FA05F240EA020001F0004221F0004183
:4057800010EBD37021FA04F642EB06015EEA430E08BF20EAD37070BDC4F10C04C4F1200500FA04F320FA05F001FA04F240EA020001F0004110EBD37041F100015EEA430E90
:4057C00008BF20EAD37070BDC4F1200500FA05F24EEA020E20FA04F301FA05F243EA020321FA04F001F0004121FA04F220EA020000EBD3705EEA430E08BF20EAD37070BDBA
:4058000094F0000F0FD101F00046400041EB010111F4801F08BF013CF7D041EA060195F0000F18BF704703F00046520043EB030313F4801F08BF013DF7D043EA060370476F
:4058400094EA0C0F0CEA135518BF95EA0C0F0CD050EA410618BF52EA4306D1D181EA030101F000414FF0000070BD50EA410606BF1046194652EA430619D094EA0C0F02D183
:4058800050EA013613D195EA0C0F05D152EA03361CBF104619460AD181EA030101F0004141F0FE4141F470014FF0000070BD41F0FE4141F4780170BD70B54FF0FF0C4CF426
:4058C000E06C1CEA11541DBF1CEA135594EA0C0F95EA0C0F00F0A7F8A4EB050481EA030E52EA03354FEA013100F088804FEA03334FF0805545EA131343EA12634FEA022223
:4059000045EA111545EA10654FEA00260EF000419D4208BF964244F1FD0404F5407402D25B084FEA3202B61A65EB03055B084FEA32024FF480104FF4002CB6EB020E75EB80
:40594000030E22BFB61A754640EA0C005B084FEA3202B6EB020E75EB030E22BFB61A754640EA5C005B084FEA3202B6EB020E75EB030E22BFB61A754640EA9C005B084FEAD0
:405980003202B6EB020E75EB030E22BFB61A754640EADC0055EA060E18D04FEA051545EA16754FEA06164FEAC30343EA52734FEAC2025FEA1C1CC0D111F4801F0BD141EAD7
:4059C00000014FF000004FF0004CB6E711F4801F04BF01430020B4F1FD0C88BFBCF5E06F3FF6AFAEB5EB030C04BFB6EB020C5FEA500C50F1000041EB045170BD0EF0004EEC
:405A00004EEA113114EB5C04C2BFD4EB0C0541EA045170BD41F480114FF0000E013C90E645EA060E8DE60CEA135594EA0C0F08BF95EA0C0F3FF43BAF94EA0C0F0AD150EAF0
:405A400001347FF434AF95EA0C0F7FF425AF104619462CE795EA0C0F06D152EA03353FF4FDAE1046194622E750EA410618BF52EA43067FF4C5AE50EA41047FF40DAF52EAC4
:405A800043057FF4EBAE12E710B501390244904207D010F8013B11F8014FA342F7D0181B10BD002010BD10B5431E0A44914204D011F8014B03F8014FF8E710BD024403467F
:405AC000934202D003F8011BFAE770472DE9F04788B0002B149F1299109EDDF84CA01D4627F02007BBBF03F100431D4600232D231446B8BF1446462F0B7003D0452F03D175
:405B0000013601E0032300E0022307AA049206AA03928DE8480422462B4600F0DDFE472F804602D1119BDB0728D5462F08EB060911D198F80030302B0AD10022002320469D
:405B4000294602F087FC18B9C6F10106CAF80060DAF800309944002200232046294602F079FC08B9302202E0CDF81C9006E0079B994503D9591C07911A70F8E7079B159AC1
:405B8000C8EB03034046136008B0BDE8F08773B503460029B8BF494203F8022BB4BF2D222B220929427019DD0DF1070216460A2591FBF5F405FB14113031092C02F8011DD8
:405BC0002146F5DC3031541E02F8011CB4421A460AD214F8012B03F8012BF7E730241A46214402F8024B5970101A02B070BD00002DE9F04F91B00C46DDF8688016461F467C
:405C0000054601F081FD03680893184600F0F4FC00230E93D8F800300990073323F0070303F1080294F818A0D4F800B0C8F80020D3E90023C4E91223D4E9128929F000439F
:405C40000B93CDF828804FF0FF32A74BDDE90A0102F032FCA0B94FF0FF32A34BDDE90A0102F00CFC60B9002200234046494602F0FBFB10B12D2384F843309C4B9C4A0AE032
:405C800042464B464046494602F016FC002800F09281984B984ABAF1470F8CBF90469846032323612BF0040323604FF000093DE0BAF1670F00F08A81BAF1470F00F08681FA
:405CC000236000210DF133020193636805900292009342464B460691CDF810A0CDF80CE02846FFF7F3FE0AF0DF03472B804600F08481BAF1650F0D9900F28D8101395246E7
:405D000004F150000D91FFF742FF0E9A8318012A8146236100F37C812268D10700F178819DF8333013B12D2384F84330009733460FAA2146284600F09FF9013002D14FF0F0
:405D4000FF3096E123685A0501D4236965E0BAF1650F40F2D58000220023D4E9120102F079FB78B30123654A31462846B8470130E5D00E9B0D9A9A420BDB2368D80708D4AC
:405D800023689B0740F111814FF0000804F1190906E1099B089A31462846B8470130CED04FF0000804F11A090E9B013B9845E7DA01234A4631462846B8470130BFD008F182
:405DC0000108F1E70D9B002B29DC01234B4A31462846B8470130B2D00D9B23B90E9B13B92368D907CCD5099B089A31462846B8470130A4D04FF0000904F11A0A0D9B5B4220
:405E0000994509DA0123524631462846B847013095D009F10109F1E70E9B4246A7E00E9AA36D9A42A8BF1A46002A914606DC4FF0000A29EAE97904F11A0B11E01346314600
:405E400042462846B8470130F1D178E701235A4631462846B84701303FF471AF0AF1010AA36DC9EB03029245F0DB08EB03090D9A0E9B9A420FDB2368DA070CD40E9B0D9A8D
:405E80009844C9EB08089B1A9845A8BF9846B8F1000F08DC0FE0099B089A31462846B8470130EBD14BE743464A4631462846B84701303FF444AF4FF0000928EAE87804F194
:405EC0001A0A09E00123524631462846B84701303FF435AF09F101090D9A0E9B9B1AC8EB03039945EEDB4BE7FFFFEF7F689608106C96081070960810749608107896081010
:405F00000E9A012A01DCDB0738D50123424631462846B84701303FF412AF099B089A31462846B84701303FF40AAF00220023D4E9120102F08FFA20B14FF0000804F11A0A05
:405F40000EE00E9B08F10102013B19E00123524631462846B84701303FF4F1AE08F101080E9B013B9845F1DB4B4604F1500231462846B84701307FF403AFE0E601234246A2
:405F800031462846B8470130EED1D8E601234A4631462846B84701303FF4D1AE08F10108E3680F9A9B1A9845F0DBE0680F9B9842B8BF18465DE06268531C0EA84BF4806392
:405FC0000DF1340E7FF474AE062201E012B90122626075E6002106910DF133018DE80C00236005904246CDF810A0CDF80CE002914B462846FFF76AFD80460D9BD81C02DB59
:40600000626893421DDDAAF1020A5FFA8AFA70E60133236184E6BAF1660F14D10029636807DD216113B92268D2071DD501330B4419E013B92268D00701D5023313E0012380
:4060400011E04FF0670A0D9B0E9A934205DB22682361D10708D5013305E0002BD4BFC3F102030123134423610D9BA3654FF0000956E611B0BDE8F08F2DE9F04791461F4686
:406080000A698B68DDF820809342B8BF1346C9F8003091F8432006460C4612B10133C9F800302368990642BFD9F800300233C9F80030256815F0060510D104F1190A07E02E
:4060C0000123524639463046C04701301AD00135E368D9F800209B1A9D42F1DB94F843302268003318BF012392060FD5E1185A1C302081F84300224494F8451082F8431039
:40610000023303E04FF0FF30BDE8F08704F1430239463046C0470130F4D02268D9F80050E36802F00602042A08BF5D1B2269A3680CBF25EAE57500259342C4BF9B1AED1834
:406140004FF000091A344D4509D00123224639463046C0470130D5D009F10109F3E70020BDE8F0872DE9F04317460A7E85B06E2A984606460C460C9B01F1430E00F0AE8027
:4061800011D8632A22D009D8002A00F0BB80582A40F0CA8081F84520834955E0642A1ED0692A1CD0C0E0732A00F0B08009D86F2A2ED0702A40F0B8800A6842F020020A6064
:4061C0003EE0752A24D0782A3AD0ADE01A6801F14205111D1960136884F84230A8E021681A6811F0800F02D0111D196008E011F0400F02F10401196002D0B2F9003000E018
:406200001368002B3CDA2D225B4284F8432037E021681A6811F0800F02D0111D196007E011F0400F02F10401196001D0138800E01368227E5C496F2A14BF0A2208221BE03B
:4062400078225A4984F845202268186812F0800F00F104051D6003D1550601D5038800E00368D00744BF42F0200222601BB9226822F0200222601022002084F8430001E05D
:4062800049490A226568A560002D08DB206820F0040020602BB9002D7DD175460CE0002B79D07546B3FBF2F002FB1033CB5C05F8013D03460028F5D1082A0BD12368DA070A
:4062C00008D5236962689A42DEBF302305F8013C05F1FF35C5EB0E0323612EE008681A68496910F0800F03D0101D1860136808E010F0400F02F104001860136801D0198037
:4063000000E0196000232361754616E01A68111D1960156862680021284601F061FA08B1401B6060636804E004F1420584F8422001232361002384F84330CDF800803B4644
:4063400003AA21463046FFF797FE013002D14FF0FF3026E023692A4639463046C0470130F5D023689B0710D5002504F1190907E001234A4639463046C0470130E7D001359F
:40638000E368039A9B1A9D42F2DBE068039B9842B8BF184605E00B7884F8423004F142058AE705B0BDE8F0837A9608108B9608100FB40A4B13B51C6824B1A36913B9204657
:4063C00001F018F905AB049AA1680193204601F011FE02B0BDE8104004B070479046020870B50E46054618B183690BB901F002F9AB69AC6813B9284601F0FCF8224B9C429D
:4064000001D16C6808E0214B9C4201D1AC6803E01F4B9C4208BFEC68A3891B0701D523693BB92146284600F057F910B14FF0FF3070BD013EA36816F8011F013BA36091B14A
:40644000002B04DAA269934206DB0A2904D023685A1C22601970EDE72246284600F0E8F80130E7D1E2E7002B08DA22460A21284600F0DEF80130D9D00A2070BD23680A2059
:406480005A1C2260187070BDAC960810CC960810EC960810024B01461868FFF7A1BF00BF904602082DE9F7431D464F4B1E6804460F46904626B1B36913B9304601F09AF8B8
:4064C0004A4B9C4201D1746808E0494B9C4201D1B46803E0474B9C4208BFF468B8F1020F04D0B8F1010F79D8002D77DB2146304601F016F8616B41B104F14403994202D023
:40650000304601F0A1FC002363630023A3616360A3891B0603D52169304601F095FCA38923F44A6323F00303B8F1020FA3811ED001AB6A462146304601F0EAF8A389184375
:40654000A0810DB9009D00E02FBB284601F040F90746D0B9DDF80090A94502D14FF0FF3006E0484601F034F9074678B9F6E70020A38943F00203A3810023A36004F14703D1
:4065800023602361012363612AE0A946A38943F08003A3814D46B36913B9304601F02AF8B8F1010F08BFA389276004BF43F00103A381A389276103F0080080B2656158B1E8
:4065C00013F001034FF000001DBF6D42A060A561A56008BF184603E0A06001E04FF0FF3003B0BDE8F08300BF90460208AC960810CC960810EC960810034613F8012B002AE6
:40660000FBD1181A0138704710B5034642B111F8014B03F8014B013A002CF7D11A4400E010BD934202D003F8014BFAE710BD0000F8B50F461446064618B183690BB900F0E8
:40664000D9FF224B9C4201D1746808E0204B9C4201D1B46803E01F4B9C4208BFF468A369A360A3891A0709D523693BB123682069181A63699842FDB20FDB08E021463046E0
:4066800000F02AF80028F1D04FF0FF30F8BD2146304600F045FF0028F6D1A368013BA36023685A1C22601F706269431C934204D0A389DB0707D50A2D05D12146304600F0C9
:4066C0002FFF0028E0D12846F8BD00BFAC960810CC960810EC960810324B70B51D6806460C4625B1AB6913B9284600F083FF2E4B9C4201D16C6808E02C4B9C4201D1AC68C8
:4067000003E02B4B9C4208BFEC68B4F90C309AB215071DD4D00602D4092232603AE0510712D5616B41B104F14403994202D0304601F08AFB00236363A38923F02403A381FD
:406740000023636023692360A38943F00803A38123694BB9A38903F42073B3F5007F03D02146304600F0F8FFA28912F0010305D00023A36063695B42A36103E0920758BF66
:406780006369A36023695BB9B4F90C3003F0800080B230B143F04003A3814FF0FF3070BD002070BD90460208AC960810CC960810EC9608102DE9F74F03690C699C4280464A
:4067C00000F38380013C01F114074FEA840E00F1140657F8245006EB0E030193013556F82430B3FBF5F507EB0E09002D39D04FF0000A3846B446D34650F8042B93B205FBE5
:4068000003A34FEA134A9BB2C3EB0B03120CBCF800B005FB02A213FA8BF34FEA124A1FFA82FBDCF80020CBEB124202EB23429BB243EA024381454FEA224B4CF8043BDBD28C
:4068400056F80E306BB9019B043B9E421A4602D3C8F8104005E01268043B002AF8D1013CF3E7404601F019FA00282CDB013530464FF0000E57F8041BD0F800C08AB2C2EB2F
:406880000E03090C13FA8CF3C1EB1C4202EB23429BB243EA0243B9454FEA224E40F8043BE8D256F8242006EB840362B9043B9E421A4602D3C8F8104005E01268043B002AE2
:4068C000F8D1013CF3E7284600E0002003B0BDE8F08F0000000000002DE9F04F456A97B08246239CCDE9022345B9102000F070FFCAF82400456085600560C560DAF8243019
:40690000196859B15A684A60012393408B60504600F0EBFFDAF8243000221A60039BA04A002BBFBF01232360039B23F00043B8BF0393DDF80C80A4BF0023236028F00043AE
:406940001B0D1B0593421DD1229A42F20F731360029B43B9934A944BC8F31300002814BF1846104600E09048249B002B00F04A85C37813B100F1080300E0C31C249A136009
:4069800000F040BDDDE90245002200232046294601F060FD074658B1229A01231360249B002B00F0228581481860013800F02ABD14AB019315AB009322462B46504601F0F4
:4069C000E7F9C8F30A56059056B1C5F3130343F07F51204641F44011A6F2FF3611971DE0159B149E1E4406F23243202B0ADD029A06F21240C3F1400322FA00F008FA03F38D
:406A0000184304E0C3F12000029B03FA00F0FEF7B3FD0123A1F1F871013E11930022644BFEF76CFC58A3D3E90023FEF71BFE58A3D3E90023FEF764FC044630460D46FEF7C5
:406A4000ABFD55A3D3E90023FEF70CFE02460B4620462946FEF754FC04460D4601F042FD0022834600232046294601F0FDFC58B15846FEF791FD02460B462046294601F0C2
:406A8000E9FC08B90BF1FF3BBBF1160F0DD8494901EBCB01DDE90223D1E9000101F002FD30B10BF1FF3B002300E00123109300E01090149B9E1B731E089343BFC3F10009B0
:406AC000002308934FF00009BBF1000F07DB089BCDF834B05B4408930023099306E0CBF1000309930023CBEB09090D93209B092B27D8052BC4BF043B2093209BA3F10203FB
:406B0000CCBF00250125032B20D8DFE803F0060E0204012302E0012308E000230C93219B002B1CDD069398461EE000230C93219B5B4403F1010806934346012BB8BF012359
:406B400012E00125002320930C9501E001230C934FF0FF33069398460022122303E00123069398461A462192DAF8244000226260042101F114029A421ED86268013262603A
:406B80004900F6E7AFF3008061436F63A787D23FB3C8608B288AC63FFB799F501344D33F0000F07F9C960810A5960810799608100000F83F489708106168504600F060FEE1
:406BC000DAF8243020601B680793B8F10E0F00F25D81002D00F05A819DED027BBBF1000F8DED0E7B31DDA04A0BF00F0302EBC30393ED007B4FEA2B14E2068DED0A7B0CD58C
:406C00009A4BDDE90E01D3E90823FEF755FE04F00F04CDE90201032600E00226934D6CB1E30708D5DDE90A01D5E90023FEF71AFDCDE90A01013664100835F0E7DDE90A2385
:406C4000DDE90201FEF738FE20E0CBF1000404B3854B864D04F00F0203EBC203D3E90023DDE90E01FEF7FEFCCDE9020124110023022654B1E70705D5D5E90023FEF7F2FCE1
:406C80000136012364100835F3E71BB1CDE9020100E00226109BEBB1DDE902450022744B2046294601F0E0FBA0B1B8F1000F11D0069B002B40F3E6800BF1FF330A9300224F
:406CC0006C4B20462946FEF7CDFC0136CDE90201069F02E0CDF828B047463046FEF75CFCDDE90223FEF7BEFC0022634BFEF708FB0446A1F15075CFB90022604BDDE90201C5
:406D0000FEF7FCFA22462B46CDE9020101F0CAFB002840F04182224605F10043DDE9020101F0A2FB002840F02E82ABE00C9A4E4B791E002A4AD003EBC103D3E900230020AF
:406D40004F49FEF7B9FD22462B46FEF7D7FA079C05460E46DDE9020101F0C4FB1290FEF71BFC02460B46DDE90201FEF7C7FA129B303304F8013B2A463346CDE9020101F0D5
:406D800073FB002840F02183DDE9022300203849FEF7B4FA2A46334601F066FB002840F0D280079BE31ABB426CDA0022314B28463146FEF757FC002205460E462D4BDDE9A9
:406DC0000201FEF74FFCCDE90201C3E703EBC10122462B46D1E90001FEF744FC079BCDE91201DC191D46DDE9020101F07BFB0646FEF7D2FB303602460B46DDE90201FEF7B6
:406E00007DFA05F8016BAC42CDE902014FF0000223D11B4BDDE91201FEF772FA02460B46DDE9020101F03EFB002840F08C80DDE9122300201249FEF761FA02460B46DDE9E1
:406E4000020101F011FBE8B114F8013C302B04F1FF3240F0BA821446F6E7064BFEF702FCCDE90201BFE700BF48970810209708100000F03F0000244000001C4000001440A1
:406E80000000E03FDDE90E34CDE90234159B002B7CDBBBF10E0F79DC8F4B03EBCB03D3E90067219B002B14DAB8F1000F11DC40F06C810022894B30463946FEF7D3FBDDE9AB
:406EC000022301F0E5FA45464646002840F05F8166E1079C32463B46DDE90201FEF7ECFC01F000FB0546FEF757FB32463B46FEF7B9FB0B460246DDE90201FEF7FFF905F160
:406F0000300E04F801EB079BC3EB040EF045CDE902012ED102460B46FEF7F2F98046894602460B463046394601F09EFA78B942464B463046394601F08DFA002800F047821F
:406F4000E90704D443E2DDF828B000E01C4614F8012C392A04F1FF3307D1079A9A42F5D1079930220BF1010B0A701A7801321A702DE200225A4BFEF775FB00220023CDE95E
:406F8000020101F067FA0028A4D020E20C9A002A2DD0209A012A0ADC119A12B103F2334302E0149BC3F13603099D4C4615E0099B08F1FF35AB42BFBF099B0995EA1A0D9B98
:406FC000B7BF9B185D1B0D930025B8F1000FB9BFC8EB090400234C464346089A01211A4450469944089200F01FFD064602E0099D0C9E4C465CB1089B002B08DDA342089A6B
:40700000A8BF2346C3EB0909E41AD31A0893099B002B1DDD0C9BABB185B131462A46504600F09CFD059A01460646504600F005FD05990746504600F058FC0597099B5A1BFE
:4070400006D000E0099A0599504600F087FD05900121504600F0E8FC0D9B05465BB31A460146504600F07AFD209B012B054618DC029B83B9039BC3F3130373B9039B23F003
:4070800000473F0D3F054FB1089B013309F101090893012702E0002700E0029F0D9B73B100E000272B6905EB8303186900F06FFCC0F1200004E0209B012BD9DD0D9F0120F9
:4070C000089B184410F01F000ED0C0F12003042B08DDC0F11C0008E048970810000014400000244006D018461C30089B0344814404440893B9F1000F05DD4A4605995046D7
:4071000000F07AFD0590089B002B05DD29461A46504600F071FD0546109BEBB12946059800F0BBFD002817DA00230A220599504600F0F2FB0C9B05900BF1FF3B002B00F094
:407140005881002331460A22504600F0E5FB069B002B064637DC33E0B8F1000F2ADC209B022B27DDCDF81880069B83B929460522504600F0D1FB01460546059800F08DFD57
:4071800000280DDC03E03D4600E000252E46219B079C6FEA030B0AE0DDF828B03D463E46079B079A5C1C312313700BF1010BB0460026F7E00C9BCDF8188023B9079CB1E0DA
:4071C000209B022BD0DC002C05DD31462246504600F012FD06469FB17168504600F050FB326902320446920006F10C010C30FEF75AFC01222146504600F0FEFC804600E04D
:40720000B046029BDDF81C9003F00103089329460598FFF7CFFA3146044600F13007059800F03BFD424602902946504600F051FDC36802463BB901460990059800F02DFDD4
