:020000041000EA
:4000000000400208230100100D00000085010010000000000000000000000000000000000000000000000000000000008101001000000000000000008101001081010010E9
:400040008101001081010010810100108101001081010010810100108101001081010010810100108101001081010010810100108101001081010010810100108101001060
:400080008101001081010010810100108101001081010010810100108101001081010010810100108101001081010010810100108101001081010010810100108101001020
:4000C00010B5064C2378002B07D1054B002B02D0044800E000BF0123237010BD14150008000000007C640010084B10B5002B03D00749084800E000BF07480368002B00D163
:4001000010BD064B002BFBD09847F9E700000000181500087C64001050020008000000007047FFF7FDFF72B60F4C104DAC4209DA21686268A368043B02DBC858D050FAE778
:400140000C34F3E70A490B4A0020521A02DD043A8850FCDC084809490860BFF34F8F00F00BF900F01DF8FEE7E4B20110FCB2011014150008602200080000000808ED00E0EE
:40018000FEE7FEE700B504207146084202D0EFF3098001E0EFF30880043001F0B5FFFEE710B562B6002000F03DFC034800F06AF906F046FAFCE7C0460000081010B5002075
:4001C00001F078FB10BDC04670B56249E0239B00CB580F2213401A00D0329200525807210A40032A05D0042A06D0002A12D15A4814E05A4A106811E01A00C03292005549F7
:4002000052581F210A40112A06D0132A04D0FA20C00103E0524801E080200002002B36D14C4BB222D2009A5801211140B125ED005A59120F032422405B591B0F1C4207D086
:40024000444C63591B0F03242340012B02D102E0012300E00023002B01D0002901D1032A4BD13C4BB022D2009D58AD03AD0B3D495958C904C90C9C58240E01231C400134FA
:4002800003F0A0FA6843210003F09CFA35E0012B33D1304BC822D2009A5801251540C024E4001A59120F03210A401B591B0F194207D028490B591B0F03210B40012B02D16C
:4002C00002E0012300E00023002B01D0002D01D1032A12D11F4DC022D200AB587F210B40A958090A1F263140AC58240C3440584303F068FA210003F065FAE0239B00154A0A
:40030000D3581B0903221340D840144C6060164B1D692D0AFC32154001351969090E013103F050FAA060290003F04CFA0500E06020610E4BC0180E4903F044FA20750D4B11
:40034000E818FA21890003F03DFAA061C003E06170BDC0460000264000127A00C000000800366E0184050000000021403F420F0040420F00E703000010B5284802F06EFB93
:40038000274CB022D200A3585B005B08A350E0218900635830208343635080235B04A350204A214BE250A02292010433E250FF221E4BE25002F040FBC0225200A358012177
:4003C0008B43A35000F082FAFFF7FEFEB0235B055B78002B04D0B0235B055B78DBB200E02123212B03D1124B0022DA605A60114C22008021042000F0A5FF2000103001F066
:400400007FF80D4B1A685123D35C002B02D00B4801F0ECF800F0D0FB10BDC046A45700100000264001000200840500008C050000E0002340301500085C22000828530010E6
:400440008023024AD3580320184070470000214010B501F0EAFE084980228C58074B2340074C23438B508823034AD358DB06FAD501F0DFFE10BDC04600002140FCFF000041
:400480000100FA0570B50500830504D0E821FF310F4801F003FE01F0C8FE0400FFF7D0FF032801D1FFF7D4FF0A4AB0239B00D55080215058084B0340084803435350882344
:4004C000044AD358DB06FAD5200001F0B2FE70BD5C53001000002140FCFF00000300FA05FEE7C04680221206044B1A608022D202034B1A60034A044B1A60704700001D41F1
:4005000000031D4101001180000E1F4130B587B0DA4A116808230B431360D94C03E0012001F0B0FD013CD54B1B695B0701D4002CF5D1002C01D1D34B00E00023002B02D0C8
:400540000520FFF7CDFFD048A021C900435803229343023A13434350CC4A116808688823CB58C3181868CA49084018601368186884241B59C01803681B021B0A80256D048A
:400580002B430360106805680359EB1818680140196013683E229A5C002A06D0BA48E02189004258753CA24342503E229A5C002A06D0B548E021890042583024A24342508B
:4005C0003E229B5C002B07D0AF49E02292008B588020000603438B500021012001F0E8F90021022001F0E4F90021032001F0E0F90021042001F0DCF90021002001F0D8F92B
:4006000001A8A44903000A0032CA32C312CA12C301F022FA002802D00420FFF761FF9A499D4A8B588020000603438B509B4801F0CFFA002802D00420FFF752FF924C984BBD
:40064000E158984A0A40E250E158974A0A40E250E25880252D062A43E250043BE158934A0A40E250E158924A0A40802189010A43E250E258802109020A43E2507F4A11681B
:400680008C4B0B401360002002F0B8F98A4BE2582A43E250E158012291430A43E2506421002001F049FD794B1B683F229A5C052A03D90021814A986881509A6874215B5AF7
:4006C000D2181168724B0B408C2189010B4313606E4B1B687322995C703A8A40110070229A5C7220185C82400A43802109060A438021C900986842509A6852583F229A5CB3
:40070000132A06D970229A5C01210A406C49986842509A6874215B5AD21851685C4B0B40C42189010B435360584B1B6873229A5C0321914070229A5C7220185C1400844005
:400740002143012002400A43802109060A438021C900986842509A6852583F229A5C142A07D970229A5C02210A40C5210901986842509A6874215B5AD2189168444B0B40CB
:40078000C42189010B439360404B1B6873229A5C0321914070229A5C7220185C140084402143022002400A43802109060A438021C900986842509A6852583F229A5C152A45
:4007C00006D970229A5C03210A403E49986842509A6874215B5AD218D1682D4B0B40C42189010B43D360294B1B6873229A5C03200400944070229A5C7221595C15008D40BA
:400800002900214302400A43802109060A438021C900986842509A6852583F229A5C392A06D970229A5C04210A402749986842509A6874215B5AD2181169154B0B40C42125
:4008400089010B431361114B1A687323D35C032199407023D35C7220105C1C0084402143042003400B43802109060B438021C9009068435093685B5807B030BD0000274027
:4008800020A1070002004A00000026405C220008FF00FFFF7C530010087F0000400D030004050000FEFCFFFFFFFF00FFFFF0FFFFFF8FFFFFFFFCFFFF0C050000140C0000E4
:4008C0004C0C0000540C0000E40C000070B58EB09621002001F030FC01F006FC002814D101F0F2FBC0235B00424AD358DB0705D41100414A8B585B005B088B503D493E4A45
:400900008B588020000603438B50012002F00EF83A4A516C3A4B0B40E82189010B435364536C1B0AFF2213403A2B07D1334A516C344B0B40E82189010B43536401AC342217
:400940000021200004F0BEFC2F4D22000021280000F03EFA34220021200004F0B3FC22000121280000F034FAFFF7D0FD24220021200004F0A7FC102301932100280000F0D4
:40098000C1FB224D22002B00143343CB43C243CB43C243CB43C221001D4800F0B3FB22002B00383343CB43C243CB43C243CB43C22100184800F0A6FB22002B005C3323CB4E
:4009C00023C223CB23C223CB23C22100124800F099FB124923000A0023CA23C323CA23C323CA23C321000E4800F08CFBFFF77AFD0EB070BD000026400C0500000000274048
:400A0000FF00FFFFFFC5FFDF000032407C530010800232400003324080043240FC5300100005324010B5084B1B78002B06D1074802F074F80122044B1A7000E00020002813
:400A400001D102F077F810BDC0160008E0000008C00543425841C0B27047C046214B984230D00ED8402831D004D800281FD010282AD031E080282BD080235B00984229D05F
:400A80002AE0194B984229D007D8A0231B0698420DD0164B984212D01EE0154B98420AD0144B984209D0144B984215D101E0002016E0124814E0124812E0124810E0A02080
:400AC000C0030DE007480BE00F4809E00F4807E00F4805E0034803E00E4801E0A420C0037047C04606005200010000F0090000A0040000F0050000F0030000F00100520088
:400B00000200520003005200010050000200500005005200FF00520070B5124B1A683123D35C002B04D1C421FF310F4801F0B6FA0C4B1D682C00B423EB582A6A94466344F6
:400B40001B68002B0BDB094B1868FFF787FF6B6801229A6063689B68002BFBD100E0044870BDC0465C22000820540010C41600080200500010B50D4B1861002805D0022387
:400B80000370FD33437000234380094B1B6850229A5C002A08D051229B5C002B04D04F3A0449002000F0DCFD10BDC046C41600085C220008C902000810B502481430FFF739
:400BC000D9FF10BDC416000870B504000D00FFF73FFF002836D0002D36D0FFF7F5FA1B4B1B4A1A6000225A609C60DD60194B1B6852329A5C002A1FD01A6884215B58D31825
:400C000019681A68120AFF2313405A1C0B0E01335343114C5C43114B1868FA21890002F0D1FD0100200002F0CDFD0D4BC1188020400004F071FB08E000218020400004F060
:400C40006BFB02E0074800E0064870BDC4160008000100055C220008C0EA2101C4000008482600000600520010B5FFF755FF10BD10B50400FFF7ECFE00283ED0FFF7A4FA67
:400C8000E02252051E4B1A601E4B1B78002B05D01B4A1368802149000B431360184B5C6000229A60DA60184B1B6854329A5C002A1ED01A6884215B58D31819681A68120A9E
:400CC000FF2313405A1C0B0E013353430F4C5C430F4B1868FA21890002F074FD0100200002F070FD0B4BC118002004F015FB05E00021002004F010FB00E0074810BDC04651
:400D0000C41600080B0000165C22000860F59000C4000008980800000600520070B504000D00FFF795FE002842D0002D42D0FFF74BFAC022D204204B1A60204B1B78002B48
:400D400005D01D4A1368802149000B4313601A4B802252005A609C60DD60194B1B68AD3A9A5C002A1FD01A6884215B58D31819681A68120AFF2313405A1C0B0E0133534336
:400D8000104C5C43104B1868FA21890002F01AFD0100200002F016FDE1239B00C118002004F0BAFA07E00021002004F0B5FA02E0064800E0054870BDC41600080B000016F2
:400DC0005C220008808D5B00C400000806005200F8B54F464646C0B406000D001400002800D16FE1002A00D16EE1072903D94521B84801F053F92368012B03D94621B5483F
:400E000001F04CF90F2362689A4303D04721B14801F044F9237A1F22934303D04821AD4801F03CF9E368032B03D94921A94801F035F92369012B03D94A21A64801F02EF962
:400E40006369012B03D94B21A24801F027F9A369012B03D94C219F4801F020F9E369032B03D94D219B4801F019F9236A012B03D94E21984801F012F9636A012B03D94F21F6
:400E8000944801F00BF9A36A012B03D95021914801F004F9E36A032B03D951218D4801F0FDF8236B072B03D952218A4801F0F6F82768072D03D98849884801F0EFF8012F88
:400EC00004D9CA218900854801F0E8F8002F03D10123AB40736002E00123AB40B3606768072D04D9F12189007C4801F0D7F80F233A009A4303D07A49784801F0CFF8A9001B
:400F0000784B1A687D23D35C9B191A6890460F2291468A40404690430200484607408F4017431F60277A072D04D9A22189006B4801F0B4F81F233A009A4303D06A4967480B
:400F400001F0ACF8674B1A689369F31ADB0952691B01D318032D0AD81968E8001F22824091431F22174087400F431F600AE02A1F5968D2001F20904081431F200740974081
:400F80000F435F60E768082D04D9DD21C900534801F084F8032F03D95449504801F07EF86900504B1A687C23D35C9B191A689046032291468A4040469043020048460740F0
:400FC0008F4017431F602769082D03D94849434801F064F8012F03D94649404801F05EF8B36901221100A9408B431740AF401F43B76163699846072D03D93F49374801F05C
:401000004DF84346012B03D93C49344801F046F834487E230268D35C9B191A6801273900A9408C468A43110042463A40AA400A431A606B0010229046984403210B0042460B
:4010400093406246134399467F2203689A5C9446B44463461A684B469A43A3693B40AB401A43E3691940434699400A4363461A6002688023D35CF6183368FF229446934357
:401080001800236A1F40636A5A00022313403B43A26A9100042739400B431F00E36AD900182319403B000B43226B520161460A401343AD00FE2292001540AB40034333607F
:4010C000002002E00E4800E00D480CBC90469946F8BDC0466054001027030000A0540010C50300005C22000889020000E9060000690600006A060000030400000404000083
:4011000001005A0070B505000C0000285DD000295DD0FF230A689A4303D099212D4800F0BDFFFF2322699A4303D09A21294800F0B5FFA3685B0D03D09B21264800F0AEFF1A
:4011400063685B0A03D09C21224800F0A7FFE3695B0F03D09D211F4800F0A0FF236A5B0F03D09E211B4800F099FF1B4A11688B69EB1ADB0949691B01CB18216829607D21E2
:401180001068415C6918E06808607E211068415C6918206908607F211068415C6918606908607C211068415C6918A06808606168A961116880228A5CAD18A2692A60E26940
:4011C0001A60226A5A60002002E0044800E0034870BDC046605400105C22000801005A0070B504000D000A4B1A68B423D3581B181B68002B0ADA0B0C03D00649064800F093
:401200004DFF2D042D0C6560002000E0034870BD5C220008D5020000E054001001008A0070B505000C000368002B01DA002300E0084B002B0BD1EA60230C03D006490748A1
:4012400000F02CFF2404240CAC60002000E0014870BDC04601008A00BB020000E054001070B505000C1E03D19921084800F016FF074B1A68B423D3585B191B68002B03DADB
:40128000EB682360002000E0024870BD205500105C22000801008A0070B504000D00234B1A683123D35C834236D9002936D00B68DB0635D13123D35C984204D3C421FF31FC
:4012C0001B4800F0EBFE194B1B681A6AB0215B5A5C431419174E34602B68DA080021686803F0F0FF00212000FFF77AFF3468002D03D111490E4800F0D1FE2A00002120008D
:40130000FFF78EFF00280DD10A4B18680021FFF767FF002808D108E0084806E0074804E0064802E0064800E0054870BD5C220008E0540010DC1600089303000003018A00C0
:4013400001018A0010B50400002A17D1002915D1124B1A683123D35C984204D3C421FF310F4800F09BFE0D4B1B681A6AB0215B5A5C4314190B4B1C6000200EE0002A09D05B
:40138000002909D0074B59609A60191D2000FFF783FF02E0044800E0034810BD5C220008E0540010DC16000803018A00F0B583B00D001C4B1B68DC68236883422DD9470927
:4013C0007B01C01A012383401E00002903D100F02CFF019001E000230193124B18680368002B01DA002300E00F4B002B0ED16368BF00DF193B68334203D133433B600024F9
:4014000000E00A4C0021FFF7EBFE00E0084C002D04D1019800F00DFF00E0064C200003B0F0BDC046DC16000801008A00020188000301880004018A00F0B583B00D001C4B7C
:401440001B68DC68236883422DD947097B01C01A012383401E00002903D100F0E6FE019001E000230193124B18680368002B01DA002300E00F4B002B0ED16368BF00DF1973
:401480003B68334203D0B3433B60002400E00A4C0021FFF7A5FE00E0084C002D04D1019800F0C7FE00E0064C200003B0F0BDC046DC16000801008A000201880003018800C4
:4014C00004018A000A4B1B68DA68136883420BD943095901401A0121814052689B009B580B4203D0034802E0034800E003487047DC1600080101880004018A0000018800DE
:40150000034B1B68002B01D1014B18607047C046E8160008F0B5474680B404000F0090461E002D4B1B68002B03D1B5212B4800F0B5FD294B1B682C2060431C18FF221500B4
:4015400035402560330A13406360360CA660244B1A683123D35C9D4204D3C421FF31214800F09CFD1E4B1A68B023D35A6B43116A8C466344236166683223D35C9E4204D38B
:40158000E021FF31174800F089FD154B1B681D6A80367601AD196561A668330C04D0FF214900104800F07AFD330C03D00E490D4800F074FD3604330C1E43AE604346E361E5
:4015C00027620023A361069B002B02D000229B5EA38104BC9046F0BDE8160008605500105C220008E0540010FF010000F0B58FB0041E03D15221294800F050FD6368032B92
:4016000003D95421254800F049FDE36A002B03D15821224800F042FD236B002B03D159211E4800F03BFD07AA1300210061C961C321C921C302AD290023001433C1CBC1C172
:4016400041CB41C10821535E0CAE3380144B1B6836215B5E07998C466344B370089B0D930B9B0A980096A26AE16AFFF753FF2B69E868002200920021FFF74CFF216B300071
:4016800000F09EFC0023F25E002A05DB1F231A401E3B9340034A13600FB0F0BD605500105C22000800E100E0F8B505000F0016001C00002A03D1FD21224800F0EFFC224B62
:4016C0001B68002B03D1FE211E4800F0E7FC1E4B1B682C2128004843181879435918012213004D68AB401B044568AA4015000269002A20D08F69002F1FD11268002A01DA0B
:40170000002200E0114A002A19D132681204120C134333600369DE6001238B614C6204692B0C03D00A490B4800F0B8FC2A04120CA260002004E0084802E0084800E0074855
:40174000F8BDC04660550010E816000801008A00BB020000E054001004028A0007028A0070B504000D0016000F4B1B68002B04D1AF2149000D4800F091FC0B4B1B682C20FB
:4017800060431C18236A002B04D1B1214900074800F084FCE369B34204D9236AB6009D51002000E0024870BDE8160008605500100A028A0070B505000C00084B1B68002B8D
:4017C00004D1C8214900064800F068FC034B1B682C2068431818846270BDC046E81600086055001070B582B0040000230193002804D1D221FF312D4800F050FC2369002BCA
:4018000004D1E9214900294800F048FC6369002B04D1D421FF31254800F040FC236A002B04D1EA214900214800F038FC6269D5682B0C24D01B041360136820691C4B1A6831
:40184000B423D358C3181B68002B18DA01A9FFF707FD00280ED1019803681E0CFF221340E269934207D29B00226AD358002B02D0984700E0002631002069FFF7B1FC2D04E3
:401880002D0C0FD063691D601B68636A002B03D098470023636203E0A36A002B00D098470023A36163691B6802B070BD605500105C22000810B50400084B1B68002B04D1A9
:4018C000B221FF31064800F0E9FB044B1B682C2060431818FFF786FF10BDC046E81600086055001010B504000E4B1B68002B03D10D490E4800F0D2FB0A4B1B682C206043E5
:4019000018180C23C25E002A0ADB1F231A401E3B9340802206498B50BFF34F8FBFF36F8F002010BDE81600082B0200006055001000E100E010B504000C4B1B68002B03D1FD
:401940000B490C4800F0AAFB084B1B682C20604318180C23C25E002A05DB1F231A401E3B9340054A1360002010BDC046E81600084B0200006055001000E100E010B50400BD
:40198000094B1B689B6CC340DB0703D4BE21074800F084FB044B1B681B691034A402E3580F20184010BDC0465C220008A0550010134B1A683C23D35C83421DD9042904D95D
:4019C0004B1EFF3B9BB2132B18D8FF290CD91F2319400C4A0300C0339B009950D03080000423835000200AE007231940D0308000044BC150002002E0034800E0024870473C
:401A00005C2200080000264001004A0010B504000E4B1A683C23D35C834204D8A12149000B4800F03BFB2300D0339B00094A985807231840042807D1C034A400A3581B30B0
:401A4000184080235B00184310BDC0465C220008E05500100000264070B5041E03D14A494A4800F01BFBB023DB00494AD358002B00DA87E0474B22689A4203D946494348A5
:401A800000F00CFB23689B039B0BE279002A02D08022520400E000221343B022D2003C498B50A2883D4B9A4204D98C218900374800F0F4FA22893A4B9A4203D939493348D2
:401AC00000F0ECFAA388DB04D90C23891B04364A13400B43354A2E498B50A37A0F2B04D98E218900294800F0D9FAE37A0F2B03D92F49264800F0D2FAA289284B9A4203D959
:401B00002C49224800F0CAFAA37A0F211940E27A1201FF2313400B43A289120226490A401343A27B1207C02189050A401343B122D20017498B50A379042B03D91F491348DD
:401B400000F0ACFA228A164B9A4204D9912189000E4800F0A3FA0E4819494558194B1D40A3791B02E022D20013402B4343504558154B1D40238A1B040B4A13402B434350A5
:401B8000002000E0114870BD1F020000E055001000002640FFFF030029020000FF1F0000FF010000310200000000FF0184050000390200003A02000000FF1F0043020000F3
:401BC0008C050000FFF8FFFFFFFF00FE03004A0070B505003149324A8B588020000603438B502C0003E0012000F04CFA013CB223DB002A4AD3585B0701D4002CF3D12749C3
:401C0000B122D2008858274B03408020800503438B50002D01D0002C0CD02049B022D2008B588020000603438B5003E0012000F029FA013CB223DB00184AD358DB0701D41F
:401C4000002CF3D1002D01D0002C08D01349B122D2008B58C020800503438B5013E00F4BB121C90058580F4A02408020800502435A5008395A58520052085A5008495A5875
:401C8000520052085A50002D03D0002C03D0002002E0002000E0044870BDC046000026408C050000FFFFFFCF02004A00F0B5564CA04200D9A2E0A24200D9A1E0534B994204
:401CC00000D99FE00124524B1C70FF2805D80F2505400E340F26072321E04E4B984205D80F2303400F240026002518E0040A0F2323401D00484B984208D80001FF2318405C
:401D00002B000343FF240026002508E00402F020000120402B000343404C00260025FF2A0DD81201FF2002401543E020C0021843F0231E43F0231B0323439C4625E03548B7
:401D4000824207D81004F022120310401843224394461AE0100A0004F0273F03384018432D4B9A4209D81205F0231B0413401843FF231B0423439C4607E01206F0231B0570
:401D80001A401043264B23439C46264B1A68176AB023D45AE200131BFB181B68002BF4DA1B4B5B78002B04D01F4B204AD358002B18DA1F4A1F4B1A601F4A204B1A601B4A55
:401DC000A324E4001359B3431D4315511C4C13596546AB43184310510D4B5960124BD150002000E017480F4B1A68146AB023D15ACA00531AE31800225A6004E0114802E074
:401E0000104800E00F48F0BD0F060000FFFFFF00EC160008FF040000FF0500000F0F000000000F0F5C2200081C050000000026401F1F0000080126403D3D00000401264068
:401E40001405000001004A0070B50022264B1A70264B1C68226AB023E55AEC00631BD3181C68002CF4DA224A1468224A944206D1214A1468214A944203D0002502E000252E
:401E800000E00125A422D2001D4CA4582402240A00225A60002D24D0002C23D000280FD1114B58680A000023002101F021FE6208002380185941220001F0FAFD040011E06F
:401EC0000A0000232000002101F012FE064B5A685408002500196941002301F0E9FD040000E00024200070BDEC1600085C220008080126401F1F0000040126403D3D0000AB
:401F00000000264070B505000C001A4B1B6828229A5C012A15D1820807211000884327D19200AD1AED00FF20A8401B6820339A181168AC4023004B40184004004C40146003
:401F400016E03A229B5EDBB2994203D176210A4800F0A4F8074B1B681B68072215408022120615438022920194466444A400E55070BDC0465C2200086856001070B504003D
:401F80000D000B4B9A680B4B9A420CD1002904D13821FF31084800F081F81034054BA400E058E55003E01034A400044BE05870BD00ED00E000000008685600100000001096
:401FC000F0B5474680B482B0061E01914AD04368032B03D93221264800F060F80023F05E002804DBB178FFF78DFF002400E0214C0023F15E7368002912DB88081E4FC030D7
:402000008000C55903221140C900FC3290468A4095439A01434613408B402B43C35116E089B20F220A40083A92080632920013481018476803221140C900FF252A008A407E
:4020400097439A012B0013408B403B4343600B4B9A680B4B9A4206D10023F05E0199FFF78DFF00E0034C200002B004BC9046F0BD685600100100560000E100E000ED00E09C
:402080000000000810B5034B1B78584300F0C4F810BDC046D400000801BEFEE770B50D00044C18220100200003F014F9A5610020FFF7F2FF68070008024B1B685B680122C1
:4020C0009A6070475C220008054B802212069A649B6C002B01DB002000E002487047C0460000274003004600054B8022120198585B68FF221A4202D08023DB021843704743
:4021000000002640FEE7C04610B50A4B0268DA6142681A6282685A62C2689A620269DA6242691A6382695A63C2699A63FFF7EAFF10BDC04668070008F0B5474680B4002847
:4021400001D0192300E064238B429B415B42304D2C682268A826A45BA41822680327BA433B401A4322602C682268A45BA2181668284CA046264016602C682668AA22944623
:40218000A25A96193268BA43134333602A6813686546525BD3181A68444614401C60002805D010291BD921291BD8012024E0184B1B6855229A5C914215D956229A5C9142E7
:4021C00013D957229A5C914211D958229A5C91420FD959229B5C99420DD804200CE000200AE0022008E0002006E0012004E0022002E0032000E00520054A12685268136811
:402200000F218B430343136004BC9046F0BDC0465C220008FFFCFFFF0230800803D001300238FCD1C046C0467047EFF3108072B6704780F31088704710B5B0235B059B8968
:402240009BB2002B04D0B0235B059B899BB201E080235B0080225200934215D1184C23681968683A9B58C9180B680F208343963A13430B6021680C689C23CB58E3181968A6
:4022800081430A431A6019E00D4C2368196898229B58C918B02040050A4BC2580A4B13400A681343C022920013430B60226811689C23D358CB18054A82581A6010BDC04638
:4022C0005C22000848180000FFFCFFFF4418000030B5B0235B059B899BB2002B04D0B0235B059B899BB201E080235B0080225200934215D1184C23681968683A9B58C91803
:402300000B680F208343953A13430B6021680C689C23CB58E318196881430A431A6019E00D4D2B68196898229B58C918B0246405C12040012258094B13400A681343C022A0
:40234000920013430B602A6811689C23D358CB1822581A6030BDC0465C220008FFFCFFFFB0235B059B899BB2002B04D0B0235B059B899BB201E080235B00802252009342DD
:402380000DD1104B1B681A6898215B58D21811680D4B0B40C021C9010B43136011E0094B1B68196898229B58C918084BB0225205D258074B13400A681343C022920013434D
:4023C0000B6070475C220008FF8FFFFF18180000FFFCFFFF30B5B0235B059B899BB2002B04D0B0235B059B899BB201E080235B008022520093420DD1134B1B681A689821B2
:402400005B58D2181168114B0B408021C9010B43136018E00C4D2B68196898229B58C918B02464050A4822580A4B13400A681343C022920013430B602A6811689C23D3581D
:40244000CB1822581A6030BD5C220008FF8FFFFF4C180000FFFCFFFF10B5B0235B059B899BB2002B04D0B0235B059B899BB201E080235B0080225200934217D10020FFF777
:402480007DFAB0235B055B78002B04D0B0235B055B78DBB200E02123222B03D8002803D1013004E0012002E0002000E0012010BD10B50400012803D910491148FFF7EEFD5E
:4024C000002C03D10F4B5869C00F00E000200E4B1A684423D35C002B0ED0012C0CD1094B9B695B0005D4074B9B69002B03DA012002E0012000E0002010BDC0466207000024
:40250000AC560010000026405C22000870B504000D00154B1A684423D35C002B22D0072803D912491248FFF7B9FD0F4B1A684423D35C002B04D00F4B9B690722134000E03B
:40254000002321009C420DD00A4882690726B243344014438461002D04D0994202D9C820FFF790FD70BDC0465C220008CC070000AC5600100000264030B5021E22D0C36805
:40258000002B21D00368002B20D00579A900104BCC582300002103E0934205D019005B69002BF9D1012000E0002000280FD0002C03D1AD00064BEA5000E04A6111610023B0
:4025C000536104E0002002E0002000E0002030BDF816000830B585B004000D00022807D9042805D0032803D02A492B48FFF756FD6B1EDBB2012B07D9042D05D0082D03D08B
:4026000026492548FFF74AFDA400254BE458042D13D0012D1CD112E0A3682B420BD1E3681A6802925B6801930393290002A8236898471B4B5C61646902E0002000E000203F
:40264000002C24D0174B9842E6D1012DE4D11EE0022D01D104E01C006369002BFBD104E00F4B5C69002C00D0246900200DE0A3682B4209D1E3681A6802925B680193039369
:40268000290002A8236898472469002CEFD105B030BDC046B2090000AC560010B3090000F8160008FF00420070B50500012804D9E02149001B48FFF7F1FC1B4B1B68002B08
:4026C00005D001210020FFF785FF040000E00024002C20D1FFF7A9FD0600134B1B68002B03D004210020FFF775FF104A136904218B431361012D01D030BF00E020BF3000DA
:40270000FFF797FD084B1B68002B09D008210020FFF760FF04E002210020FFF75BFF044C200070BDAC560010F816000800ED00E0FF00420010B5FFF778FD074B5A680749B9
:402740000A40E824A40122435A605A68114059605B68FFF76EFD10BD00002640FF00FC0FF8B50700012803D93D493E48FFF796FCB0235B055B78002B04D0B0235B055B78BA
:40278000DBB200E021239DB2B0235B059B899BB2002B04D0B0235B059E89B6B201E0802676000020FFF7EAF8002814D180235B009E4212D1222D12D82B4B1B685C682B4888
:4027C00021582B4B19403B068022520413400B432350002404E0274C02E0264C00E0254C80235B009E4201D1222D03D880235B009E4232D01C4B1A683123D35C002B04D1FE
:40280000C421FF311C48FFF749FC174B1B681D6A80235B009E4203D1002F05D0174A06E0002F03D0164A02E0164A00E0164A01212800FEF7F5FC00280FD10B4B1A68B423B0
:40284000D3585B191B68002BF7DBEB681B0E1B06A0221206934200D100242000F8BDC0464C0A0000AC5600105C22000818F00000FFFFFFFE04004200205400100101003030
:402880000300000C010000300100000C70B50400022805D0052803D020492148FFF7FEFBFFF7DAFD002836D0FFF7BFFC0600022C07D10120FFF754FF051E0FD1FFF7BCFC0F
:4028C0000CE018494B6907229343043A13434B613420FFF7D7FBFFF77DFD0025002D16D110494B69072293431A000723234013434B61022C02D1FFF733FD08E09120FFF768
:40290000C1FBFFF7E5FC0020FFF72AFF05003000FFF78FFC00E0044D280070BD02070000AC5600100000264003004200F8B50500012804D9822109012948FFF7AFFBFFF757
:402940008BFD002849D0FFF770FC0700002D11D10021244B244AD150E823DB00B0225205D65CF6B20120FFF7FBFE041E19D1FFF763FC16E0B02252051C4BD0581A4B194928
:4029800058501B49565CF6B21A481A581F218A4314390A431A500320FFF774FBFFF71AFD0024002C15D11049124A8B581F20834306401E438E50002D02D1FFF7D1FC08E034
:4029C0000720FFF75FFBFFF783FC0020FFF7C8FE04003800FFF72DFC00E0074C2000F8BDAC560010307F00000000264010180000410700001CFF000003004200042805D1B3
:402A00000B4A116804230B4313600FE0094B1A681168A023D358CB180006C022920410401860034A136804218B4313607047C04610E000E05C2200080749C02252008B58E3
:402A40009B009B088020C00503438B508B588020000603438B50704700002640014B18607047C0465C22000870B5012902D0082940D045E00320FEF725FD254B984241D0A8
:402A800000F07EFE01283FD0022003F0DDFD0500FFF7CBFB1F4B186003F0DAFD0400062817D0022D0AD1022005F016FC032C01D0052C10D1002810D0174C13E0012005F044
:402AC0000BFC022C0BD000280BD1FFF7EDFD124C08E0002406E0104C04E0002402E00E4C00E00D4C0C4B9C420FD10A4B1868FFF7A0FB0AE0074B1868FFF79BFB002404E0EE
:402B0000054C02E0044C00E0034C200070BDC0460101880030170008FF004200002803D0024B5860002000E001487047301700080100160010B594B001AC4C2200212000AB
:402B400002F0C0FBD7231B01A3811B2323836383183B2377013363770C33E3772022A3540132A35441323433E252613A0433E2540D48FFF701FD03F04FFD07A803F098FDD8
:402B800000280ED1094B0293094B5B685968002904D022222630684402F08BFB01A803F05BFD14B010BDC046E8000008A407000830170008014B024AD050704778F001003D
:402BC00000003C4010B50CF039FA10BD10B5024B1B68984710BDC0464017000810B5002809D0FA23FF33994207D80A00044902F060FB002002E0034800E0024810BDC04635
:402C00000708001601001600F0B55F4656464D464446F0B4B14CA54481460E00904605930B00AF4A914204D942468A18AD498A4211D9AD4A934204D94246B218AB498A4243
:402C400009D9AB4A934200D823E14346F318A94A934200D922E1A84B5B695B0010D5A64B5B6907241C40022C25D10520FFF70EFE0190A24B9842F8D003940123049324E0A0
:402C80009F4B9D4AD3581F221A40E823DB00B0214905CB5C9B1A5A1E9341DBB20493002B0FD10120FFF742FE944B9842F9D001900523039309E00394012304930023019307
:402CC00003E005230393002301938E4B019A9A4204D1D621FF318C48FFF7E0F9F0231B069C466644730A9A465C0200210320FEF75DFB0028F9D100250023029399E0B44243
:402D00001BD3BD4219D24A4652191078804606A84146C154594600290DD1802149058846A044414609786846017001781278914201D001229346013505E080225205A21849
:402D4000127806A8C2540134013304E0002100238B46844647466D4A9342D0D959466046B846002962D0019B002B5FD1059B002B51D1C83300951D00B3465646A2468023C8
:402D80001B03F7187F023800FDF772FF0400013D0120FFF777F9A423DB0322001A409A4201D1002DEBD122000294009D5446B2465E46574B9A4205D1FDF756FF554B9842A5
:402DC000FAD00290029B002B19D1C83300971F00A34606A90098FDF7A1FF0400013F0120FFF750F9A423DB0322001A409A4204D1002FEED102945C4601E002945C46444B0C
:402E0000029A9A4211D1FDF72FFF424B9842FAD0029001200AE0802000035044400206A9FDF7D2FE0290012000E0012001239C46E244029B019A134301D1454586D3002811
:402E400001D0FFF739F900210320FEF7F5FA0028F9D1019B002B25D1274B5B695B0009D5039B022B06D10220FFF710FD0190234B9842F8D0204B1B681B0213D4049B002BEF
:402E800010D10020FFF752FD01901C4B9842F8D008E000230193204B029303E0002301931D4B0293019B002B0CD11C4B029999420AD0194B994207D0002901D1002004E08C
:402EC000174802E0174800E0174887239B009D443CBC90469946A246AB46F0BDE4FDFFFFFFFFFF0F00001010FFFFFF1300800014FF070016000A0016000026400400420003
:402F00001CFF0000030042005C580010FF0100000100500002005000060052000200520013001600120016000100160010B500280AD0FA23FF33994208D8F93BFF3B0A006D
:402F40000349FFF761FE02E0024800E0014810BD07080016010016000020704710B50C000088AE235843044B9C4660440A2100F029FC208010BDC04691FCFFFF10B50C00D2
:402F80000023C05E044B5843044900F0A5FCBD23181A208010BDC0464B280000102700000020704710B5FFF76DF810BD064B1B681B6800229A5E002A05DB1F231A401E3BA5
:402FC0009340024A136070473417000800E100E0094B1B681B6800229A5E002A0ADB1F231A401E3B9340802204498B50BFF34F8FBFF36F8F7047C0463417000800E100E04E
:40300000A023DB00024AD358032018407047C04600002640024B034AD058C00F7047C0461C0500000000264010B5FEF70DFF10BD70B504000D0016000320FEF743FA054B84
:40304000984205D0320029002000FEF72FFE00E0014870BD0101880003004A0070B5431ADC171B196340934227D3164B164CE458A405A40D884208D9401A5108401811009C
:4030800000F0A0FB201A0ED50AE0081A51084018110000F097FB00190C4B984202D802E0002000E00A48084D06496B589B0A9B028205920D13436B5001E000240020201A81
:4030C00070BDC0463C05000000002640FE030000FF03000010B5034B1A6880210902FFF7BDFF10BD0001000810B500F0E5F90220FFF760FD094C236818680949FEF760FF1C
:4031000023681B6800229A5E002A05DB1F231A401E3B9340034A136010BDC04634170008C52B001000E100E00420704710B5FFF77CF810BD10B5FFF77CF810BD10B5FFF760
:40314000B3FA10BD10B50021FFF7E0F910BDC04610B50020FEF7EEFB10BDC04610B50020FEF7C0FB10BDC04610B5074B1960012201000020FEF7F4FA002803D1002203492E
:40318000FEF7EEFA10BDC04640170008CD2B001070B50B001500020000210120FEF784FA041E03D029000020FEF704FB200070BD70B50D000F4B184300040F4BD861FA24E1
:4031C000A40003E0013C0120FEF75CFF0A4B1B6CDB0701D4002CF5D1002C08D0064B196C01220A431A64DB6A2B80002000E0034870BDC0460080FFFF00003C4004001600CB
:4032000010B500040E4B184001430E4BD961FA24A40003E0013C0120FEF734FF094B1B6CDB0701D4002CF5D1002C06D0054A116C01230B431364002000E0034810BDC046B9
:403240000000FF7F00003C4004001600F0B583B006000A24C02149017548FFF7D1FF002804D16B46991D7248FFF7A2FF002C01D0013C00E06F48002805D16B46DA88C02306
:403280005B019A42E6D1002825D16B46991D6A48FFF78EFF00281ED16B4606331B885B0519D40A248021C9006348FFF7A9FF002804D16B46991D6048FFF77AFF002C01D01B
:4032C000013C00E05B48002805D16B46DA888023DB009A42E6D1002804D16B46991D5748FFF766FF002844D16B4606331B883F229343B278012A15D1F178012904D88FB2A2
:403300000222D21B95B201E000250227402213439BB2302213436A46D380494BCB40494A136013E0F178002904D18FB20122D21B95B201E0002501274022934310221343D1
:403340006A46D380404BCB403E4A13606B469C1DD9883943D9803948FFF752FFF378DB1B03221340AA0092B213432380374A38498B50B0235B055B78002B04D0B0235B057C
:403380005B78DBB200E02123212B4FD0314BB0225205D35A9BB2002B48D0002804D16B46991D2D48FFF704FF002824D16B469A1DDB8860218B4318001380B0256D05254C50
:4033C0002B5B60310B405B08034324490B401380295BC901F020C00001400B43204919401180285BC0239B000340DB00194311801948FFF705FF002804D16B46991D19484B
:40340000FFF7D6FE002811D16B469A1DD988C023994311800F4BB0204005C05A302303409B00194311800F48FFF7EAFE03B0F0BD021E000004001600031E0000091E0000E1
:403440000048E801C00000080024F40064F0010000003C4016180000071E00007FF5FFFFFFE7FFFF061E000070B50C004000084901430848FFF7C4FE051E04D106490748F9
:40348000FFF7BEFE05006001FEF7FCFD280070BD01100000081E0000376800000F1E00000349044A8858102303438B507047C04600003C4070F00100F0B59DB013A9144B39
:4034C0000A00180070C870C270C870C270C870C20AAD28001A002432D0CAD0C0D0CAD0C0D0CAD0C001AC22004833C1CBC1C2C1CBC1C2C1CBC1C20748FDF704FE290006486C
:40350000FDF700FE21000548FDF7FCFD1DB0F0BD98580010000132408001324000023240F8B5051E00D1DDE0734B5B689B0301D5FFF700F9714C03E0013C0120FEF7A2FD16
:403540006F4B704AD358002B01D0002CF4D16E4B6C4AD358DB0704D56C4BD358DB0700D5C2E0674B674AD358002B00D0BEE0FFF7A3FF644B6649674A99502A78A021090309
:403580000A4365495A506549654A9950802252009B58DB0700D5ABE0624B1B6F1B0709D4614B1868614B984206D9190000F00AF9013802E0012000E00020524B1B680028A0
:4035C00003D040035A4A104300E05A4818434D4B1860494B5B695B0017D501210320FEF795FF454B5B699B0F01221340524A116844228A5C002A0ED0002B0CD03E4A9369FC
:403600008021C9050B43936105E03E494B4A8858032303438B503B4C3B4AA658484B3343A3504020FEF72EFD464BE358DB070BD42700444C01233B514020FEF723FD03239C
:403640003B514020FEF71EFD3F4F37403F4E3E432D4B2C4AD650FA24E40003E0013C0120FEF710FD3A4B3B4AD358DB0601D4002CF4D1002C01D0002400E0374C002C23D162
:403680002049364A8858082303438B500120FEF70FFF002801D1324E3E43324B1E4001231E43194B174AD650144E03E0013E0120FEF7E8FC154B134AD358DB0701D4002E40
:4036C000F4D1002E00D1244C002C03D12800FFF7BDFD0400002C0CD168782978FFF7C4FE040006E0204C04E0204C02E01F4C00E01F4C2000F8BDC04600002640F07E0E007D
:403700006CF0010000003C40A0F00100B4F0010006000001A4F00100A8F0010001000100ACF0010000F03D40C800000800093D00041A0080040A00805C220008C4F00100BC
:4037400030000300B0F00100EFFFFEFF2000020010400000000032400400160068F0010028000200FFFFFBFF010016000300160002001600014B18687047C046C000000878
:4037800010B5002405E02000FEF740F9032804D00134042CF7D9002000E0012010BDC046A023DB00064AD35803221340012B03D0032B03D1012002E0012000E00020704758
:4037C00000002640002243088B4274D303098B425FD3030A8B4244D3030B8B4228D3030C8B420DD3FF22090212BA030C8B4202D31212090265D0030B8B4219D300E0090A8D
:40380000C30B8B4201D3CB03C01A5241830B8B4201D38B03C01A5241430B8B4201D34B03C01A5241030B8B4201D30B03C01A5241C30A8B4201D3CB02C01A5241830A8B42DE
:4038400001D38B02C01A5241430A8B4201D34B02C01A5241030A8B4201D30B02C01A5241CDD2C3098B4201D3CB01C01A524183098B4201D38B01C01A524143098B4201D352
:403880004B01C01A524103098B4201D30B01C01A5241C3088B4201D3CB00C01A524183088B4201D38B00C01A524143088B4201D34B00C01A5241411A00D201465241104660
:4038C0007047FFE701B5002000F0F0F802BDC0460029F7D076E7704703460B437FD4002243088B4274D303098B425FD3030A8B4244D3030B8B4228D3030C8B420DD3FF229A
:40390000090212BA030C8B4202D31212090265D0030B8B4219D300E0090AC30B8B4201D3CB03C01A5241830B8B4201D38B03C01A5241430B8B4201D34B03C01A5241030B55
:403940008B4201D30B03C01A5241C30A8B4201D3CB02C01A5241830A8B4201D38B02C01A5241430A8B4201D34B02C01A5241030A8B4201D30B02C01A5241CDD2C3098B4253
:4039800001D3CB01C01A524183098B4201D38B01C01A524143098B4201D34B01C01A524103098B4201D30B01C01A5241C3088B4201D3CB00C01A524183088B4201D38B00AD
:4039C000C01A524143088B4201D34B00C01A5241411A00D201465241104670475DE0CA0F00D04942031000D34042534000229C4603098B422DD3030A8B4212D3FC228901F2
:403A000012BA030A8B420CD3890192118B4208D3890192118B4204D389013AD0921100E08909C3098B4201D3CB01C01A524183098B4201D38B01C01A524143098B4201D3F9
:403A40004B01C01A524103098B4201D30B01C01A5241C3088B4201D3CB00C01A524183088B4201D38B00C01A5241D9D243088B4201D34B00C01A5241411A00D20146634633
:403A800052415B10104601D34042002B00D54942704763465B1000D3404201B5002000F005F802BD0029F8D016E770477047C046002B11D1002A0FD1002900D1002802D0C2
:403AC0000021C943081C07B4024802A14018029003BDC046D9FFFFFF03B4684601B5029800F050F8019B9E4602B00CBC7047C046F0B54F464646C0B41604360C99463300FB
:403B000005042C0C070C150C63437E436F4365431C0CAD1964199C46A64203D980235B02984647446346250CEF191D044B464A4343432D0C240464199918C91920000CBCD5
:403B400090469946F0BDC04670B500220C4B04000D0001F05DFA002804D12000290001F0B5F970BD064B00222000290000F05AFE01F0ACF980231B069C466044F1E7C04612
:403B80000000E041F0B54D46564644465F46F0B4924683B004000D0099468B422FD82CD04946504601F05CFA29000600200001F057FA331A9846203B9B4600D574E053464C
:403BC0005A4693401F005346424693401E00AF4229D826D05B46A41BBD41002B00DA79E0002200230092019301235A4693400193012342469340009319E08242D0D900224D
:403C00000023009201930C9B002B01D01C605D600098019903B03CBC90469946A246AB46F0BDA342D6D900220023009201934346002BE8D0FB0772081A4346467B080EE006
:403C4000AB4201D1A2420CD8A41A9D41012024196D410021013E24184D41002E06D0AB42EED9013E24196D41002EF8D15B460098019900196941002B22DB2B005A46D34076
:403C80002A004446E2401C005B461500002B2CDB26009E40330026004746BE403200801A994100900191AEE7424620239B1A5246DA40414613004A468A4017001F4382E7DD
:403CC000424620239B1A2A0046469A402300F3401343D5E74246202300219B1A0022009101920122DA40019282E74246202326009B1ADE402F00B446974066463B0033430B
:403D0000C9E7C046F0B556464D4644465F46F0B41D000E034C00CB0F87B0070092468146360B640D98466AD06D4B9C4235D08022430F12041343F6001E43C3009946694B83
:403D400000279C460023644402932B0368001B0BED0F51469B46400D009500D178E0604B98426CD05B46DA004B0F802109040B4313439B465346D9005A4B9C460023604416
:403D80004246201A6A40924601901F430F2F00D9B0E05548BF00C0598746374300D088E0002399460233082700260293CDE74346B34649460093029B009A9246022B00D0AC
:403DC000BFE1002153460122002689461A40444B002136030C0D2405360B2643434C1B0526401E437600D207760816434846310007B03CBC90469946A246AB46F0BD3300AA
:403E000003434FD0002E00D1BCE1300001F00AF903000B3B1C2B00DDADE11D220100D31A08393A008F408E40DA40B9461643304B00279C46002360444442029385E7534640
:403E40005A4613432CD1002300219B46023397E70B4320D05B46002B00D19EE1584601F0E1F803000B3B1C2B00DD8FE102005946083A91408B461D21CB1A5146D9400B0075
:403E800059460B4351469B469140194B9C4660444042002374E7002300219B4601336FE703236DE70023994601330427002602934BE703230C27029347E70122D51A382DD8
:403EC00000DCB0E153461A4000210023002689467EE700238026994600223603004B77E7FF07000001FCFFFFFC630010FFFF0F80F30300005E4500D972E100D16DE1019B9B
:403F00004D46013B01930023340002935B461E020B0E1E430B020393330C994633041B0C494620000093FFF74DFC009B370043430600494620009846FFF7CAFC2C0C09046B
:403F40000C43A04509D9E419731EA74200D95CE1A04500D859E1023EE4194346E41A49462000FFF72FFC0300009A80465343494620009B46FFF7ACFC2A040904120C0A4346
:403F800093450DD94346D219013B974200D93AE1934500D837E102235B429C46D219E0445B46D21A4346360433439B460399180C0B0C1D00059309045B46090C0C001B042A
:403FC0001B0C4443049159436B4368431B190D0CEB189C4203D980246402A44660441C0C09041B04090C20185D18824200D2DEE000D1D7E0161A029B9C465D1BAC459B4101
:404000005B42F61AB74200D106E149463000FFF7D9FB009B04004343494630009846FFF757FC2E0C09040E43B04509D9F619631EB74200D9F3E0B04500D8F0E0023CF61900
:404040004346F31A494618000293FFF7BBFB009B06004343494602989846FFF739FC2D0409042D0C0D43A84509D9ED19731EAF4200D9D6E0A84500D8D3E0023EED192404D6
:40408000210043463143049E059A3000ED1A0B040C0C1B0C58436643534354439A19030C9B189E4203D980225202944664441A0C00041B04000C14191B18A54250D34DD026
:4040C00001231943964A019B94466344002B00DCF3E64A0709D00F220A40042A05D00A1D8A42894149428B4411005A46D20108D55A468C4B1A4093468022D2009446019BAF
:404100006344894A934200DD5BE65A46C908500708435602514601225B058146360B5B0D0A4055E680231B031E4211D05A461A420ED15E461E433603360B2A0089467B4B7D
:4041400046E6032B00D1E1E0012BBBD11A40BBE61E433603360B4246744B39E6002BB1D07D194A1EAF4252D91100A542A8D1039A9A42A5D1A6E703003E00283B9E40002307
:40418000994654E600F04EFF203041E603005246283B9A400021934677E6504600F042FF20305EE6029B0026AB4200D323E7039E0299B44661448846B045B6415B4676422D
:4041C000F619B218013B0291974213D290424FD800D18EE0161A9B460DE7894500D28EE674084B46F60735005B081D434B46DB0702938BE69742EDD10399029CA142E5D91B
:404200003E1A9B46F7E69846CAE61E00A5E6AC423ED874D0110053E70121494252E71C000EE71E002BE71F2D3CDC20230A0058465B1B9840EA4099400243481E81415E46C6
:404240001143EE404B0709D00F230B40042B05D00B00191D99429B415B42F61833023CD55346012200211A40002601238946AFE502235B429C46039CE344A446029B6344AB
:404280009846A045B6417642F6190293B218B1E603988A1E41008142B6417642F619AD19039161E71F225242D31A5A46DA401300202D29D040225846551BA8400143481E09
:4042C000814107200B4318400026002809D00F2200261A401900042ABBD10B0070077602360BDB0803439946012253461A4000236EE502998D42BBD89B4600267BE60398B5
:404300009842C5D3110032E70020D7E780265B4636031E433603360B009A8946034B57E5FF030000FFFFFFFEFE070000FF070000F0B55F4656464D464446F0B40D03994617
:404340004E002B0B87B00700924680469B46760DCC0F002E69D06D4B9E4235D05B468022DD001204430F13432B439B46C3009846674B00279C460023664401934A46150308
:404380005000D20F53462D0B400D914600D176E05E4A90426CD080225B0F120413435C4AED0094461D4353460022DB00604449463618701C6140029017430F2F00D9AFE0DF
:4043C0005448BF00C759BF465B461F4300D088E000239B469846023308270193CEE74946022A6AD0032A00D109E2012A00D0BBE111400022002300259046CCB200212D039E
:404400000A0D12052D0B1543434A1B0515401D436D00E4076D0825434046290007B03CBC90469946A246AB46F0BD034352D05B46002B00D18AE1584600F0F4FD03000B3B56
:404440001C2B00DD7BE11D22D31A3A0001005D46DA4008398D4013008F402B439B46B8462E4B00279C46002360444642019385E752462A432CD100250023022297E7524606
:404480002A4321D0002D00D154E1280000F0CAFD03000B3B1C2B00DD46E11D21CB1A51460200D9405346083A954093400D431B4A944660444042002279E7012400220C40D6
:4044C000124B0025904699E70025002301226EE703226CE700239B4698460133042701934CE703230C27019348E700238025984600242D03054B81E75D464346019A6FE7B9
:404500005D4643462100019A6AE7C046FF07000001FCFFFF3C640010FFFF0F80F30300004246120C91461A0C9446424617044A461B041B0C5A43604690464A4642431000D4
:40454000039262461C003F0C7A437C4342440192220C9246019A5244904506D98246802040028046C24450460390100C049048462404240C1204121905922A0C2D042D0C6A
:4045800068432C00824648467C4350438146200C8046574357444744BA4503D9802040028046C144380C3F04B84648442404240C01900498A044404404905846000C814678
:4045C00058460404200C8246070048465F434C464343604660436446834650464443380C8446E4186444A34203D980235B029C46E34448463F04230C3F0C2404E419574670
:4046000068436F4384464D46504655434243380C814662444A445B44944503D9802040028446654403983F04834604983F0C8446E344C3458041404282461004844601981C
:40464000674484466744A344BC46A345A4419946D44464428742BF41D4458041E144A04699459B417F424042C8440743120CBA18A045A4415F423B0064422343D7184346AC
:404680007D19DB0D6D021D435B465A02059B1A43531E9A415B46DB0D1A4343465B021343EA0107D501225C0813402343EA07029E13436D08574AB218002A4BDD580709D0ED
:4046C0000F201840042805D0181D98429B415B42ED180300E80104D54F4A15408022D200B2184E48824200DDE7E60124DB08680718436D02530580462D0B5B0D0C407DE602
:40470000802259461203114208D0154206D115432D0398462D0B4C46414B6FE65D4615432D032D0B3E4B69E603005546283B9D400023BCE6504600F075FC2030A8E6030003
:40474000283B9F400023BB46984689E600F06AFC203073E60124A61A382E07DD00220C4000230025904649E6029EA3E71F2E20DC20222C001800921BF040944093400443D9
:40478000581E83411C43F540630709D00F232340042B05D023001C1D9C4292415242AD182B021FD5012400220C4001230025904624E61F202C004042821AD440202E1CD035
:4047C0004022961BB5402B43581E83410720234318400025002809D00F2200251A401C00042AD8D1230068076D022D0B0124DB08034398460C40002300E60025E3E7802210
:404800000124120315432D0398462D0B0C40044BF4E5C046FF030000FFFFFFFEFE070000FF070000F0B557464E464546E0B40E001100F20F9246C500420F18033703740052
:40484000400A4E0F7F0A3043CF4E17435A00640D520DDB0FC900B24200D1E5E001267340A61AB446534500D1AFE0002E00DC0DE1002A3AD103000B4300D0E4E06B0709D0CE
:404880000F232B40042B05D02B1DAB42AD416D427F191D003B0200D488E0BB4B01349C4200D110E13A00B94B51461A4001235007ED08520264050543120B640D0B400021DE
:4048C000280012030D0D120B64052D0515436208AF4CDB072C401443640064081C4321001CBC90469946A246F0BDA74B9C42C5D080231B0418436346382B00DDFDE01F2B43
:4049000000DD30E1624620239B1A02009A40664690460A009940F24046464B1E99413243114363460200DA40691A8D429B410D00BA1A5B42D71A3B0235D57A02530A98467E
:404940004346002B00D1C4E0404600F06BFB0300083B1F2B00DDC5E020222900D21A4746D1409F400A009D403A439C4200DDC0E01C1B631C1F2B00DDE4E02021140028006F
:40498000C91AD8408C408D400443DA40681E854117002543002471E7424663461A4300D14CE2674645466B0700D069E7012351467807ED08FA080B40054373498C4238D00E
:4049C00012036405120B640D79E7002E00DC9AE0002A47D06C4A944200D14FE78022120410436246382A00DC08E10143481E81410022C9B24919D219A942BF410D007F420A
:404A0000BF183A0200D442E15F4A0134944200D14EE101205D4A69083A4028400843D507054357089A4629E706000E4300D017E714E72900114300D1F9E1802109030A439D
:404A40001203120B3BE701235B429846C4446346002B72D1691A8D429B413F1A5B42FF1A0D0068E702000A4300D107E7012252429046C4446246002A00D0E6E06918A94214
:404A8000B6413F187642F7190D00BAE7002E00D080E0621C5205520D012A00DCF9E06A1A91464D45B6413A1A7642921B9046120200D499E04D1BA9428941C71B49427A1ACE
:404AC00090469A463CE752460123002513400022F5E6280000F0A6FA20300300083B1F2B00DC39E72A002838824000259C4200DC3EE7264FE41A1740C0E60143481E8141EC
:404B00000022C9B210E7002E00D0F1E0621C94465205520D012A00DCA0E01B4A944500D1C5E06918A94292413F185242D2194908D5070D4357086446A0E6134B9C4200D09C
:404B4000D9E69BE611001F3CE1400C00202B00D180E04021CB1A9A4015436A1E95410027254300241FE763460200203BDA406346202B71D0402366469B1B98400143481EB5
:404B8000814111430022CFE6FF070000FFFF7FFFFFFF0F80002C48D0CA4CA24200D1A2E07442A1468024240427434C46382C00DDDBE01F2C00DD44E14E462024A41B3E00E5
:404BC000A640A246B0464C462E00E640B4464646644626435446A5406C1EA54134002C434D46EF400D1B28E04A4643464D461A4300D0A5E6002300240025DEE61F2A5ADCDB
:404C000066462022921B060096409146B04662460E00D640424616434A4691404A1E9141020060463143C240E4E63C002C435AD0F443A146002C52D14D1BA9428941C71BBF
:404C400049427F1A14009A4675E69E4A944200D0C7E613E600227FE700208FE7002C00D0C8E03B002B4300D10FE103000B4300D104E66918A9429B413F185B42DF193B02E4
:404C800000D41AE1904B0D001F406446F6E59A4689E63A002A43002C5CD1002A75D102000A4300D1CAE007000D009A46E6E564460022002581E662460600203AD6406246F3
:404CC000B046202A00D1B7E040226646921B904001434246481E8141114300228AE6794CA24200D061E707000D0014009A46C5E5002C41D13C002C4378D0F443A146002CB9
:404D000020D0704CA24271D04C46382C00DDB2E01F2C00DDBCE02026341BA2463C005646B4404E46A0462C00F440A446444666463443A4465446A54064466E1EB5412543C2
:404D40004C46E7406D188D4289413F184942CF19140056E6002A2FD102000A4300D184E007000D009A46574C88E53D436F1EBD41ECB200270D1B60E7524CA24236D0744213
:404D800080263604A1463743BEE702000A4300D174E56A1A90464545B6413A1A7642921B9446120200D4F7E54D1BA9428941C71B49427F1A9A4661E502000A433AD0ED08CB
:404DC0007C072C438025FA082D032A4208D0C7082F4205D145072C003A009A46C9080C43670FD200E5001743364C47E507000D00140043E53A002A4343D002000A4319D067
:404E0000ED087C072C438025FA082D032A4207D0C6082E4204D147073C003200C9080C43D700620FE50017439A46264C26E50022002544E5234C21E5002049E70023002521
:404E4000BBE54C463E00203CE6404C46B446202C31D040244E46A61BB7403D436C1EA54164462C4300270D1BE7E6802200231203144C0025A1E53D436F1EBD410027EDB2DC
:404E800060E707000D000F4CF8E407000D00F5E44E463C00203EF440A0464C46202C0ED040244E46A41BA7403D436F1EBD4144460027254346E70027CFE70D0073E5002717
:404EC000F2E7C046FF070000FFFF7FFF0B0330B5134D1A0B4B005B0DC90F0024AB4211DD104CA34210DC8024640322430E4CE41A1F2C0CDD0D48C31ADA4013005C42002900
:404F000000D11C00200030BD094BCC18FAE7E040084CA44663449A4013000343EEE7C046FE0300001D0400003304000013040000FFFFFF7FEDFBFFFF70B5051E28D000F049
:404F400071F8154B154A1B1AD21A1F2A16DD2C00134A0025D21A94405A052403240B520D002124030B0D240B1B0523430D4C1205234013435B002800590870BD0B212C0083
:404F8000081AC440954024035A05240B520DE7E700220024E4E7C0461E0400003304000013040000FFFF0F808446101C62468C46191C634600E0C0461FB500F001F90028E6
:404FC00001D40021C8421FBD10B500F055F84042013010BD10B500F0F3F8002801DB002010BD012010BDC04610B500F0E9F8002801DD002010BD012010BDC04610B500F09C
:405000007BF8002801DC002010BD012010BDC04610B500F071F8002801DA002010BD012010BDC0461C2101231B04984201D3000C10391B0A984201D3000A08391B09984276
:4050400001D30009043902A2105C40187047C0460403020201010101000000000000000010B5002903D1FFF7DDFF203002E0081CFFF7D8FF10BDC046F0B55F4656464D46DF
:405080004446F0B41F035C00DB0F9A46194B0E034D00C90F8046360B6D0D8B4691463F0B640D9D4219D0134B9C421BD00123A54206D018003CBC90469946A246AB46F0BDE1
:4050C000BE42F6D1C845F4D1D34510D0002DF0D1304303005A1E9341EBE7310001230143E7D1E0E73A430123002AE2D1DEE70023DFE7C046FF070000F0B55F4644465646DD
:405100004D46F0B41F033C0B2C4F0E034D00A3465C008446360B6D0DC90F9046640DDB0FBD422BD0254FBC422ED0002D0ED130430700814678427841002C17D15F463A43C3
:4051400014D14B460020002B0AD006E0002C02D15846024301D099421AD00123484218433CBC90469946A246AB46F0BD0028F2D058425841012240421043F1E7370007438C
:40518000D0D002204042EBE75F461743CDD0F8E7A542E2DC05DB5E45DFD808D000205E45DED248424841012340421843D8E7C445D3D80020C445F4D3D2E7C046FF070000F8
:4051C000F0B55F464D4644465646F0B41C03240BA4462F4C0F034D005E00C90F80463F0B6D0D8B469146760DDB0FA54220D0284CA64222D0002D12D1384344424441002E38
:4052000020D0002C0DD05C42634101245B421C4320003CBC90469946A246AB46F0BD002E17D05B4519D05B465C4201231C43EFE7390002240143EBD1D9E761460224114349
:40524000E6D1D7E761460A43DBD100240028DFD0E9E761460A43E4D1E5E7B54203DD01225C421443D4E7B542CDDB6745DBD809D000246745CCD259464C426141012449426B
:405280000C43C5E7C845CED80024C845F3D3BFE7FF07000030B50024A24208D0035D651C0C5DA34201D0181B02E02C00F4E7002030BD002310B59A4203D0CC5CC4540133A4
:4052C000F9E710BD03008218934202D019700133FAE77047030030B5002A0DD00C7801335D1E013A2C700131002CF5D19A189A4202D01C700133FAE730BD0000F8B5C046AA
:40530000F8BC08BC9E467047F8B5C046F8BC08BC9E4670470000000001B40248844601BC604700BF1D0300080300000001000000010000000000000005036000040000000F
:405340000100000000000000010000000604600008000000A0160008BD01001073797374656D5F70736F63365F636D30706C75732E6300000300180003000000F401000077
:40538000140004010A0009050800000063010000030000000000000000000000680000000000000000000000000000001212000000000000140000000000000000000000AD
:4053C000000606BA0000000000000000000000000000080008001D1D080000000000000000000000660600000000000000000000000000000000000000000400080000001D
:40540000000000000000000000000000000000000000000000000000000000040000000047656E6572617465645F536F757263655C50536F43365C70646C5C647269766510
:4054400072732F7065726970686572616C2F6970632F63795F6970635F6472762E68000047656E6572617465645F536F757263655C50536F43365C70646C5C647269766542
:4054800072735C7065726970686572616C5C6770696F5C63795F6770696F2E630000000047656E6572617465645F536F757263655C50536F43365C70646C5C647269766545
:4054C00072735C7065726970686572616C5C6770696F5C63795F6770696F2E680000000047656E6572617465645F536F757263655C50536F43365C70646C5C647269766500
:4055000072735C7065726970686572616C5C6970635C63795F6970635F6472762E68000047656E6572617465645F536F757263655C50536F43365C70646C5C6472697665FA
:4055400072735C7065726970686572616C5C6970635C63795F6970635F6472762E63000047656E6572617465645F536F757263655C50536F43365C70646C5C6472697665BF
:4055800072735C7065726970686572616C5C6970635C63795F6970635F706970652E630047656E6572617465645F536F757263655C50536F43365C70646C5C64726976651D
:4055C00072735C7065726970686572616C5C70726F745C63795F70726F742E630000000047656E6572617465645F536F757263655C50536F43365C70646C5C6472697665D8
:4056000072735C7065726970686572616C5C737973636C6B5C63795F737973636C6B2E630000000047656E6572617465645F536F757263655C50536F43365C70646C5C64A5
:405640007269766572735C7065726970686572616C5C737973636C6B5C63795F737973636C6B2E680000000047656E6572617465645F536F757263655C50536F43365C703A
:40568000646C5C647269766572735C7065726970686572616C5C737973696E745C63795F737973696E742E630000000047656E6572617465645F536F757263655C50536F92
:4056C00043365C70646C5C647269766572735C7065726970686572616C5C737973706D5C63795F737973706D2E63000000002040000024400000004000000000000023404F
:40570000000030400000314000009F40000022400000104002020202020202020210101D800017007500FF030602063604102000000000007FC000000004000000000000DF
:405740000019324B647D00804000080B100000000000FF012002001F00800004FF081018001000140018001C4044484C5000000008100000080000000400000004100000E3
:405780000012000004210000002100000016000040114002C41300138013A013200000001C00000000002140000025400000014000003440000024400000314000003240BA
:4057C00000001F410000234000001140010101010101010101101010800019005500F0000501053B04101C01010000000FC000000004000001010101011D3A57789600086A
:405800002000101208000000001F00000010000F002000023F06080E00080009000A000B24282C3034000000100000009000000088000000080000008000000004F00000BD
:4058400000F00000400200002005A000D00100018001A001200000001000000047656E6572617465645F536F757263655C50536F43365C70646C5C6D6964646C6577617216
:40588000655C626C655C63795F626C655F68616C5F7076742E63000000000000000000000000000066666666000000000000FFFF000000001C1C1C1C1C1C1C1C00000000D6
:4058C000000000000000000066E6EE66000000000000FFFF000000001C1A1A1A1A1A000000000000000000000000000066E66666000000000000FFFF000000001A1A001C06
:40590000000000007C01000031010000090901120C000000FF03000080ABCDABCD80409C1B04041BFFFFFFFF000000000410080007070400F216FBE0FBE01F60427EF56DF2
:40594000720096BE2090000010502604060037D7F401FA00960064004B0032001E00140003040506020D1100A5F3001009F300100FFA00106DF400101FF50010BBF9001023
:40598000D3F9001095FA001099F5001049F600107DF80010ABF80010E3FA0010A9F9001077FA001077FA001077FA001051F90010F9F800103DF90010913001109D300110D4
:4059C000DD3F0110C5400110D140011069F40010A3F3001053FA00101DF5001057F50010CBF90010EDF90010E1FA001045F60010E5F6001097F80010D1F800104FFB001097
:405A0000B3F90010E1FA0010E1FA0010E1FA0010A1F90010E1FA0010E1FA0010E1FA0010E1FA0010E1FA0010E1FA0010E1FA00100C000800020017000D0001000100020094
:405A4000090009000100010006000200090018001800030001000100090009000300030005000000FF1001100711011003110110FD100110DB100110D7100110F510011019
:405A8000F3100110CF100110D31001100B110110F7100110F11001100F1101100F110110CD100110FB100110ED270110A12B01106529011011270110211A0110D5160110F9
:405AC000A5210110E91C011041120110A5120110F92C011031250110811C01105516011031210110D96F0010E1250110992D0110213101106D32011055330110592F0110D8
:405B0000E52D0110A9300110C52E0110072F0110172F0110192F01101D2F011077FA0010092F0110132F0110112F0110E5430110D53D011051430110014301109D4301104B
:405B4000DD400110E93F0110814001104D410110D1D70010F73D0110ED3D0110F33D0110F13D0110F53D0110EF3D011077FA001077FA001077FA00105DC6001055570110A2
:405B80003757011037570110375701106D5701100195011037570110F194011009950110F9940110F35B0110EB5B0110555B01104D5B0110475701102F5701102557011007
:405BC0004B570110455B0110755B01103F5701106D5B0110CD5B0110375701107D5B0110655B01105D5B011037570110755701107D570110855701103B5701103B570110F1
:405C0000555701103757011037570110375701106D5701100195011037570110F194011009950110F9940110F35B0110EB5B0110555B01104D5B0110475701102F57011056
:405C4000255701104B570110455B0110755B01103F5701106D5B0110CD5B0110375701107D5B0110655B01105D5B011037570110755701107D570110855701103B57011086
:405C80003B570110057E0110F97D0110117E01103B5701103B570110917B0110CD7B01109D7B0110C17B0110B57B0110A97B0110D97B0110E57B0110ED7D0110ED7F011010
:405CC000F17F0110FD7F0110D57F0110E17F01103B5701103B5701103B5701103B5701103B5701103B5701103B5701103B5701103B5701103B5701103B5701103B5701101C
:405D00003B5701103B5701103B5701103B5701103B5701103B5701103B5701103B5701103B5701103B5701103B5701103B5701103B570110F17B01102F720110DD7001108F
:405D4000DD700110DD70011061720110F1710110DD700110D5710110A1720110EB7101107B720110717201105F700110DD700110DD700110DD700110E36F0110BF7101103A
:405D800009700110417201106771011077710110F1700110DD700110B77201102D7101101F710110DD700110AB710110EF720110DD700110DD700110DD700110B57D0110FF
:405DC000A97D0110C17D0110757101100F710110DD7A0110197B0110E97A01100D7B0110017B0110F57A0110257B0110317B01109D7D01108D7F0110997F0110A57F01105A
:405E0000757F0110817F0110DD700110DD700110DD700110DD700110DD700110DD700110DD700110DD700110DD700110DD700110DD700110DD700110DD700110DD70011028
:405E4000DD700110DD700110DD700110DD700110DD700110DD700110DD700110DD700110DD700110DD700110DD7001103D7B01105F7501108D7401108D7401108D74011034
:405E8000A3750110097501108D7401105175011051750110FB740110B9750110A77501100974011005740110E97401109D7301108F7301108F730110A17301108375011083
:405EC000BD740110D1740110917401108D740110ED750110A9740110957401108D740110ED74011009760110057601108D7401108D740110E17C0110D57C0110ED7C011019
:405F0000317601108B730110257A01102D7A0110397A0110457A01102D7A01102D7A0110517A01105D7A0110C97C0110997E0110A57E0110B17E0110817E01108D7E01104C
:405F40008D7401108D7401108D7401108D7401108D7401108D7401108D7401108D7401108D7401108D7401108D7401108D7401108D7401108D7401108D7401108D74011001
:405F80008D7401108D7401108D7401108D7401108D7401108D7401108D7401108D7401108D740110697A011008000000060F0020200107021900000007070E050202200086
:405FC0001C1202000103000E0306000400402707000007070102000203070304000000000000000000000000000000000000000000000000000800002F720110DD700110A8
:40600000DD700110DD70011061720110F1710110DD700110D5710110A1720110EB7101107B720110717201105F700110DD700110DD700110DD700110E36F0110BF71011077
:4060400009700110417201106771011077710110F1700110DD700110B77201102D7101101F710110DD700110AB710110EF720110DD700110DD700110DD7001105F7501109A
:406080008D7401108D7401108D740110A3750110097501108D7401105175011051750110FB740110B9750110A77501100974011005740110E97401109D7301108F7301108C
:4060C0008F730110A173011083750110BD740110D1740110917401108D740110ED750110A9740110957401108D740110ED74011009760110057601108D7401108D74011020
:4061000008000000060F0020200107021900000007070E05020220001C1202000103000E032000800000C00000000004000000A822000000000000040000F7FFFF7F0000AF
:40614000003000000000000000000000000000000000000000000000000000000000000000000000BD780110757A0110DD7901101D790110837A0110057A0110ED78011087
:40618000917A0110E97901101B790110957A0110017A011005790110837A0110F9790110EF780110837A0110F179011033790110A17A01100D7A011039790110B17A01105E
:4061C000157A0110DD7001108D7401103B570110DD7001108D7401103B570110DD7001108D7401103B570110DD7001108D7401103B570110DD7001108D7401103B570110A0
:40620000DD7001108D7401103B570110DD7001108D7401103B570110DD7001108D7401103B57011047790110C97A01101D7A0110DD7001108D7401103B570110DD700110E7
:406240008D7401103B570110DD7001108D7401103B570110DD7001108D7401103B570110DD7001108D7401103B570110017C0110117D0110B77C0110FF7B0110057D0110A1
:40628000AF7C0110277C01105D7D0110BF7C0110FD7B0110F97C0110A77C0110DD7001108D7401103B570110DD7001108D7401103B570110DD7001108D7401103B5701103B
:4062C000DD7001108D7401103B570110DD7001108D7401103B5701103D7E0110F97E0110000000004B7E01100D7F011025420110597E0110377F0110554201101D7E011032
:40630000BD7E0110D13E01102B7E0110DB7E0110ED3E011030303031423830303031303230333034303530363037303830393041304230433044304530463130313131328E
:4063400031333134313531363137313831393141314231433144314531463230323132323233323432353236323732383239324132423243324432453246333033313332A3
:406380003333333433353336333733383339334133423343334433454142000026002B00300036003C0043004B0055005F006A00770086009600A800BD00D400EE000B01C8
:4063C0002B014F017801A601DA01130254029D02EE024A03B1032404A5043605D9058F065C0742084409650AAA0B160DAF0E79107C12BD1445171C1A4B1DDE20F43E00108C
:40640000C23D0010C83E0010B83D0010C83E0010D23E0010C83E0010B83D0010C23D0010C23D0010D23E0010B83D0010AE3D0010AE3D0010AE3D00102441001020450010C3
:40644000E0430010E0430010DE430010F8440010F8440010EA440010DE430010F8440010EA440010F8440010DE430010004500100045001000450010004700100000000021
:40648000FEB5074600256846058078683C1D34492E46002807D06268002A06D0800702D1207A800701D00D4658E0FCF71DFEFCF73DFE0190FCF752FEFCF78AFD0198FCF7A4
:4064C00039FEFCF731FE00F033F900283ED1403738790006C00F00F0ABF905460004000C34D12049084600F059FF0004000C2DD12289A17A20681C4C002806D02060A2809C
:40650000E68021810021FEF7DDFE684601F0E6FD054616486B460079E2888000001DC1B21B88A088D418A04206D3C01A801A80B201F076FA044600E00D4C00F0E3FD002C9B
:4065400004D100F0B7FB0B480121817000F0FEF8002D03D001F052FC064806702846FEBD010016000567001044170008A2170008FFFF00000401000810B5094CA07801280F
:406580000AD06078012806D12078002803D101F010FC0020607010BD01F0C4F810BD00000401000810B5FCF72BFD032801D100F09BFE00F017FA01F015FE00F021FF02498E
:4065C0000020887010BD000004010008004870474417000870B5044600208A0703D08A07920F891A091D084B89B2DA889E885518B54206D81D68AA182260DA885118D98014
:4066000070BD024870BD00004417000803001600004870475017000810B501F009FD10BD0649002808D0EA2181800521017000214170092181700021084670470100160027
:4066400010B5FFF799FF10BD10B501F02FFE10BD10B501F0FDFC10BD38B50546002069460880002D09D0284601F00EFE0446684601F028FD002C02D015E00C4838BD01F093
:40668000DFFC2846FFF7FCFE04000CD1284601F075FD040007D1FCF7B3FC032803D100F0E9FD00F037FE204638BD00000100160038B50446002069460880002C08D0A18D45
:4066C000090A05D1617A102902D8E179102901D90A4838BDE0856946204601F09BFD05466946E08D09884018E085002D04D1322221460348FEF7DDFD284638BD0100160006
:40670000501700087047000010B5084900200978002909D006F09EF9044606F061F8201A80B281004018C00810BD00000C01000810B5FCF7C1FE482202490348FEF7B9FD43
:40674000002010BD085900108217000810B5FCF7FFFCFCF72BFC10BD10B51A46034C01F0EBFA002800D00024204610BDFFFF000010B501F0B1FB10BD10B501F00FFB10BD2D
:40678000010010B5044806D0044A01201070002008F0C8F8002010BDFFFF00000C01000870B50024034D20462C7008F0E9F82C70204670BD0C0100080148007870470000FA
:4067C0000C01000870B5591C89B24C080B4D64000021451906E028685054000A5618891C707089B2A142F6D3D80705D0D0182038D15CC47FD454C17770BD000000103C40A5
:4068000030B50A4C002100195B1E07E054186478555C240225430560891C89B29942F5DB994201D1515C016030BD000000103C40F1B590B0FF2000F01BFA254FFF20787053
:406840002448254900684018406B3C1D400F01260025022801D0667000E06570FCF7D0FB032819D026701A48801C4570FFF7D0FE0446162281180A346846FEF71AFD222223
:40688000214607A8FEF715FD07A90EC9109812F07DFE040002D017E02570E4E712F0CCFE3870012000F0E4F912F0D0FE68460576457606A813F06EFA6846467606A813F098
:4068C00069FA06A801F09EFC204611B0F0BD00000D0100080801000840F03D40F0B50021094D5B1E08E0441924685718260A7E705454001D891C89B29942F4DB994202D164
:40690000401900685054F0BD00103C4070B500210A4E5B1E09E0541864782502545C2C4385192C60001D891C89B29942F3DB994202D1515C8019016070BD000000103C404D
:40694000F0B50599091FCFB200217E1E0AE054186478555C24022543144C04192560001D891C89B2B142F2DBFC0710D01C78515C24020E4A0C4381180C609C785D7821023C
:40698000001D294384182160001DD9780BE059781A7809021143054A84182160D978001D9B780902194380180160F0BD00103C4038B50B480024447012F048FE69460C7005
:4069C0004C70684613F0E6F9012069464870684613F0E0F9684601F015FC002038BD00000F01000810B501F02BFB0A480078012805D1FCF7C5FE012809D013F0B9FA0549FB
:406A00000020891E0870062000F032F910BD13F099FAF4E70F01000810B50B460B281BD00ADC012811D0032813D0062803D11146184613F01BF910BD112811D01228FAD194
:406A400011461846FCF79AFA10BD0020FFF7F0FE10BDFFF7ADFF10BD04480078107010BD11461846FCF77AFA10BD000011010008F8B5184D184E28688019846AE00719D05A
:406A800001F01AFB0127012811D1002001F0F6FB052000F0EDF81149FF204870881C4078002804D128688019416B39434163286880198762E0050CD50848801C00780528B9
:406AC00002D1042000F0D4F8FF202968013089198862F8BD0801000840F03D400D0100080549002805D005494A784270097801700021084670470000010016001101000897
:406B000038B504000C4816D06178012913D801F097FA607813F0F2F8207000280AD169460870684600F096F869460878012801D104202070002038BD0100160010B50949EE
:406B400000280CD00278082A09D24278042A06D205494A700078087012F078FD0021084610BD0000010016001101000810B504460448032C05D801F063FA204613F0CAF80E
:406B8000002010BDFFFF160010B5040008480ED0617801290BD801F053FA204613F0FAF86078012802D1204601F02CFB002010BD0100160010B5FCF7E3FD01220849920466
:406BC0000028084B086804D0C018016A1143016210BDC018016A9143016212F099FC10BD0801000880F03D400949087805280ED14A780848084900684018002A03D1416B88
:406C0000490849004163C16A01221143C16270470F0100080801000840F03D4001480078704700000F01000802484078022800D0012070470D010008012807D0032807D048
:406C4000042803D0052803D0FF207047012070470220704710B5040002D012F091FC207010BD000001494870704700000F01000870B50446FCF75AFA0546FCF76FFAFCF7E6
:406C8000A7F92846FCF756FA062C01D9FF2C01D103480470FCF75CFAFCF788F970BD00000F01000801494870704700000D010008002070471CB5002469460C700A20019038
:406CC0002346054A054800F059FA04480068401C00D1034C20461CBD296D001014010008FFFF00003EB50F4A01460D4800230124126800290BD0012908D1684600930481A5
:406D000043816946104600F034FA80B23EBD68460093048143816946104600F025FAF4E7FFFF00001401000810B50089002100280BD0012802D0052807D103E000200EF038
:406D400023F902E0084600F047F9002010BD000010B50248006800F0C7FC10BD14010008FFB581B01F001546064644D001F068F9FCF7DCF90446FCF7F1F9FCF729F920461B
:406D8000FCF7D8F93649374B4878401CC0B2044606E02201D218127A202A2AD0641CE4B2202CF6D3002406E02201D218127A202A1FD0641CE4B28442F6D32024202C1AD04D
:406DC0003470029828490202120A200602432001C61872601F50224869180078009120280CD0FFF791FC0746BD4225D3281AF0601BE04C70E2E71D4805B0F0BD1A4840427D
:406E0000854207D9FFF7BCFC014618488142F3D0009807E0A8B2FFF7B3FC014613488142EAD01BE0F0600E4804703472FCF790F9FCF7BCF80020DFE7FFF7B2FC781B012116
:406E400000F078F9084840428542DBD8A8B2FFF797FC0649884201D10846CDE70020E1E718010008CC170008C063FFFFFFFF000070B5074CA5780D2D07D2FFF771FF00284C
:406E800002D1A178491CA17070BD024870BD000018010008FFFF000070B5074CE578002D01D0064870BDFFF75BFF0028FAD1E178491CE17070BD000018010008FFFF0000C1
:406EC000F8B520280BD22D4D07017C19207A202805D001F0B5F8E068002802D045E00120F8BDFCF723F90546FCF738F9FCF770F82846FCF71FF9FFF707FC012100F01AF9A7
:406F000000201E4EE060FFF74BFCFCF721F9FCF74DF800F0DDF80546202823D0FCF706F90090FCF71BF9FCF753F80098FCF702F9280186191248F168814205D90646FFF70D
:406F40001FFC0021304604E088B2FFF719FC0021F06800F0EFF8FCF7FBF8FCF727F80948057002E00749202008702020034920720020C8516060E060F8BD0000CC17000847
:406F8000409C00001801000810B5074CA178002908D0FFF795FF002802D1A078401EA070002010BD014810BD18010008FFFF000010B5074CE178002908D0FFF781FF002865
:406FC00002D1E078401EE070002010BD014810BD18010008FFFF0000F0B500258BB02E46089501F02DF800236A4618463549040161180C7A202C02D0C96800291DD0002131
:407000001154401CC0B22028F0D300240993099800280FD06846005D00284DD029482101081806684168089100210160202241600272C160002D04D03AE0012111540B460A
:40704000DFE700F045F8054620282BD01D4829010818C7681C4887420FD90021074600F069F8FCF763F80A90FCF778F8FBF7B0FF0A98FCF75FF838460EE00021384600F00A
:4070800059F8FCF753F80A90FCF768F8FBF7A0FF0A98FCF74FF8B8B2FFF772FBFCF758F8FBF784FF094805700998002808D00125002E01D00898B047641CE4B2202CA6D364
:4070C0000BB0F0BDCC170008409C00001801000830B50023DB432020094C00210A011219157A202D06D0D268002A03D09A4201D808461346491CC9B22029EFD330BD000011
:40710000CC17000830B50020084C05462023020111190B72A550401C4D60C0B2CD602028F5D303480370457030BD0000CC1700081801000830B50B4D00231A015219147A46
:40714000202C0AD0D468002901D0241804E0844201D9241A00E00024D4605B1CDBB2202BEBD330BDCC17000810B50EC900F0D4FA10BD10B50EC900F011FB10BD38B50024FB
:40718000E443054600290AD0052000904B68097804A000F065FA2860401C00D00024204638BD00007461736B000000000EB5002005216A460090118150810348694600688A
:4071C000FFF7D7FF0EBD00001401000810B51C481C4C0178491E0170FF206070FBF71AFF002823D0FCF7C6FA01460020FBF71CFFFBF770FF401C022811D8628812488242E5
:407200000AD0124B0021601CFFF746FE002803D00D2011F03CF910BD0220207010BDFF20F530FBF7BFFE00F075F810BD0548084B02220021401CFFF72FFE0028E8D110BD67
