:020000041008E2
:4000000000780408EB0208100D00000051030810510308105103081051030810000000000000000000000000000000004D0308104D030810000000004D0308104D030810DA
:400040004D0308104D0308104D0308104D0308104D0308104D0308104D0308104D0308104D0308104D0308104D0308104D0308104D0308104D0308104D0308104D03081000
:400080004D0308104D0308104D0308104D0308104D0308104D0308104D0308104D0308104D0308104D0308104D0308104D0308104D0308104D0308104D0308104D030810C0
:4000C0004D0308104D0308104D0308104D0308104D0308104D0308104D0308104D0308104D0308104D0308104D0308104D0308104D0308104D0308104D0308104D03081080
:400100004D0308104D0308104D0308104D0308104D0308104D0308104D0308104D0308104D0308104D0308104D0308104D0308104D0308104D0308104D0308104D0308103F
:400140004D0308104D0308104D0308104D0308104D0308104D0308104D0308104D0308104D0308104D0308104D0308104D0308104D0308104D0308104D0308104D030810FF
:400180004D0308104D0308104D0308104D0308104D0308104D0308104D0308104D0308104D0308104D0308104D0308104D0308104D0308104D0308104D0308104D030810BF
:4001C0004D0308104D0308104D0308104D0308104D0308104D0308104D0308104D0308104D0308104D0308104D0308104D0308104D0308104D0308104D0308104D0308107F
:400200004D0308104D0308104D0308104D0308104D0308104D0308104D0308104D0308104D0308104D0308104D0308104D0308104D0308104D0308104D0308104D0308103E
:400240004D0308104D0308104D0308104D0308104D0308104D0308104D0308104D0308104D0308104D0308104D0308104D0308104D0308104D0308104D0308104D030810FE
:400280004D0308104D0308104D03081010B5054C237833B9044B13B10448AFF300800123237010BDB048020800000000844D0810084B10B51BB108490848AFF30080084882
:4002C000036803B910BD074B002BFBD0BDE81040184700BF00000000B4480208844D081060430208000000007047FFF7FDFF72B6104C114DAC4209DA21686268A368043B1A
:40030000A2BFC858D050FAE70C34F3E70B490C4A00209142BCBF41F8040BFAE709480A490860BFF34F8F00F0A1F900F07BF900F073F8FEE7884D0810A04D0810B048020822
:40034000284B02080040020808ED00E0FEE7FEE700B504207146084202D0EFF3098001E0EFF30880043000F077FFFEE7264B022230B5C3F83021D3F83021D3F80821234B32
:400380001A605A6812B940F6FF7103E0012A03D14FF40061996005E0022A01D10021F9E7032AF5D099681A481A4DC1F30B01C0F80011D868002455F8221049B9032A03D102
:4003C000013001240A46F6E7022AF4DC0132F2E704B1D860032A08BFDA680B4808BF013201F1FF31C0F80C1112BF0132DA6000225A60D9681B6901229942026102D109B13E
:40040000014B5A6130BD00BF00003840CC48020800001441DC4A02081F4C204908B5204600F0EAFEB4F90030002B0CDB03F01F015B099B0003F1604303F5614301228A40FE
:40044000C3F880211A6062B601F08EF900F044F9134B144C1868002319460222406802F0F5F9114A0021204600F05CFF0F4A104B0121A160556810685D609568D2681860D8
:400480009D60DA60C4F80C0121610A4C21680A4802F0C4F9FAE700BF804908106D0308101C43020800003840904908108C420208DC4A0208CC48020844490810012000F023
:4004C000E3BB7047514B524AD3F8800300F00F00810001F1804101F5181130B5D1F8403303F00704032C07D0042C07D0494B4A49002C08BF0B460EE013680CE0D1F80033E7
:4005000003F01F03112B01D0132B02D14FF4004301E04FF4FA433D4930BBD1F89045D1F88805D1F8885515F0405FC0F3017005D0D1F88815C1F30171012901D1E40701D4B1
:4005400003283AD13149D1F88005D1F88445D1F88015C0F31100C1F30061C4F30C040131B3FBF4F3434326E0012826D1D1F84046D1F80006D1F8005615F0405F05D0D1F8FB
:400580000016C1F30171012901D1E10703D4C0F30171032911D11D48D0F80016D0F80046D0F8000601F07F014B43C4F30421B3FBF1F3C0F30441B3FBF1F31449D1F8801342
:4005C000C1F30111CB4015495360D1F890000969090E0131B3FBF1F19160C0F307210131B3FBF1F303F57421D360136101F23F210B48B1FBF0F103F2E73311754FF47A71BB
:40060000B3FBF1F39361DB03D36130BD000026409C42020800366E0100127A000000214040420F0008B50D4800F0ECFEFFF749FFFFF748FF00221146042000F0B9F90848CE
:4006400000F03AFA074B1B6893F8513013B1064800F06AFABDE8084000F044B9D44A0810E0480208204B02084C49081008B500F048FE074AD2F8883043F47003C2F88830C9
:40068000BFF34F8FBFF36F8FBDE8084000F03DBE00ED00E010B504462146034800F026FB0028F9D010BD00BF00006640054AD2F80833C3F30803002BF9D0024BD3F84003FC
:4006C000704700BF000066400149024800F03CBCEC4A02080000664010B5114C237853B9104A1149114800F041FB1149114800F083FD012323700F4BB3F90030002B08DB5C
:400700005909012203F01F0302FA03F30A4A42F82130064A136843F00043136010BD00BF604A0208EC4A0208DC49081000006640C90608108849081000E100E0034B1B68D5
:400740001A68D3F88430D058000E7047204B0208044B1B681A68D3F88430D058C0F30720704700BF204B0208034B1B68B3F8B0201B6A00FB02307047204B0208034B1B685B
:40078000D3F8B430C058C00F704700BF204B02081D4B984236D00FD840282CD005D800282FD010282BD119487047802825D0B0F5807F24D118467047154B984214D008D88C
:4007C000B0F1204F1DD0134B984218D14FF4A0007047114B98420AD00133984209D0023B98420CD10D4870474FF4A40070470C4870470C4870470C4870470C4870470C482C
:4008000070470020704700BF0600520001005000010000F0090000A0040000F00100520002005200030052000200500005005200FF00520008B50120FFF796FFFFF79EFF42
:4008400060B9074B1868FFF7A3FF064B1B685B6801229A609A68002AFCD108BD024808BD644A0208204B020802005000184B13B5186128B102230370FF2343700023438025
:40088000144A136893F850101446F1B11B8FADF80030114900236846019300F0ADFCBDF90030002B08DB5909012203F01F0302FA03F30A4A42F82130236893F8513023B1D7
:4008C00002220749012000F08FF902B010BD00BF644A0208204B0208EF43020800E100E0BD4302080148FFF7C1BF00BF784A0208054B1B68D3F8B430C358002BBDBF89B2B0
:400900004160002001487047204B020801008A000368002BBBBF89B2C26002488160B8BF0020704701008A00054B1B68D3F8B430C358002BBDBFC3680B600020014870478B
:40094000204B020801008A00F8B5154B0C46196891F83130834221D904B3226812F01F071CD1B1F8B0300D6A0E4E00FB0355D20839466068356001F0D7FA39462846FFF78E
:40098000B7FF394622463068FFF7C2FF014618B93068FFF7ADFF10B10348F8BD0348F8BD204B02087C4A020801018A0003018A0010B404465AB999B90B4B1A68B2F8B03004
:4009C000106A04FB0300094B1860084609E039B1064B5DF8044B5960191D9A60FFF7B4BF03485DF8044B7047204B02087C4A020803018A001C4B1A682DE9F041D2F80C8048
:400A0000D8F80020824204460D461E4624D919B900F077FC074600E0002730680368002B01DB124C13E06209D8F804100123A4EB421403FA04F451F822301C420ED023EAEF
:400A4000040341F8223000240021FFF751FF3DB9384600F05AFC03E0054C01E0054CF3E72046BDE8F08100BF7C4A02080301880004018A00020188000B4B1B68DB681A6810
:400A800082420ED942095968A0EB4210012303FA00F051F822301842044B054818BF184670470448704700BF7C4A0208010188000001880004018A00024B1A6802B91860DE
:400AC000704700BF884A0208F0B52C246043144C059F25685FFA83FE45F800E02C1811480668306AB6F8B060C3F307250EFB0606266105F1800665601B0C00EB461600EB09
:400B0000451041F20805A36043EA0343666143510023E2612162A3610FB13B88A381F0BD884A0208204B0208F0B5174B41691B688269DB8EC668076985B002AD00950B44CF
:400B40000446C16AADF808300392436A826A006AFFF7BAFF00223B46114600923046FFF7B3FF216B284600F047FBBDF90830002B08DB5909012203F01F0302FA03F3034A31
:400B800042F8213005B0F0BD204B020800E100E0F0B5124C26682C2707FB006425693DB107FB0161886928B92E68002E02DA03E00B48F0BD0B48F0BD4E68D4F804E0012408
:400BC00004FA06F7168846EA07461660EA608C6104FA0EF4A4B24B62AC60F0BD884A020804028A0007028A00074B10B51C682C2303FB0040C369934283BF036A002043F844
:400C00002210024810BD00BF884A02080A028A0073B54369DD6800262A0C044601961ED012041A601B68174B00691B68D3F8B430C358B34213DA01A9FFF776FE58B901982B
:400C4000E26903681E0CDBB2934204D2226A52F8233003B1984731462069FFF749FEADB265B163691D601B68636A002513B19847656202E0A36A03B19847A56163691B68EF
:400C800002B070BD204B0208034B1B682C2202FB0030FFF7BDBF00BF884A0208D0F8003303F00F03072B02D901EB420201E00A4407E0914204D0D0F8403321F8023BF8E71D
:400CC0007047914204D0D0F8403301F8013BF8E7704710B5D0F80843C4F30804944228BF14462246FFF7DAFF204610BD036813F4006FD0F8083214BF80224022C3F30803F9
:400D000093421ABFC0F84012012000207047D0F8003203F00F03072B02D901EB420201E00A4407E0914204D031F8023BC0F84032F8E77047914204D011F8013BC0F84032CE
:400D4000F8E77047036810B5D0F8084213F4006F14BF80234023C4F308041C1B944228BF14462246FFF7D3FF204610BD2DE9F043002800F0D580002900F0D2800F78022FFF
:400D800001D18C7F0CB14C68013C0B7F002B8B6804F00F0414BF4FF48036002644F00074092B34BF4FF40065002534432C4304603C0604F0407404644C7F4E7B8D7B002C07
:400DC0008C7C14BF4FF040094FF00009002C0C7C14BF4FF480684FF00008002C4C7C14BF4FF4807C4FF0000C002CCC6A04F1FF3406F1FF364FEA044406F007064FEA051571
:400E000004F4702405F0300544EA060444EA050444EA090444EA080414BF4FF4007E4FF0000E44EA0C0C4CEA0E0491F80CE08464CC7BBEF1000F14BF4FF4807C4FF0000CEA
:400E40002CB9022F14BF00244FF4007401E04FF40074013B03F00F034CEA030C4CEA0404C0F800438C6991F814C0240404F47F0444EA0C04C0F81043CC7F24B1012F0CBFFE
:400E80004FF48074002435432C43BEF1000F446414BF4FF480740024012F43EA04030CBF4FF4803400242343C0F8003291F83030C0F8043391F8203091F8214091F824601A
:400EC000002B14BF4FF000730023012C91F828400CBF4FF0807500253343012C0CBF4FF4803400242B43234303654C6B91F83830C0F8043240F66D332340C96BC0F8C83F56
:400F000040F273730B40C0F8883F00205AB1506090601060D06010621063D062BDE8F0830248BDE8F0831046BDE8F0830160AA0008694B6998422DBF4B69CB684A69C01AFB
:400F40003CBFC018801A7047D0F8003E1A072DE9F04705460C4640F1BB80D0F8CC3F13F448730AD04A681A434A60C0F8C03FD0F8C03F0B6B0BB110209847D5F8CC3F1B05F1
:400F800009D5636843F4006363604FF40063C5F8C03FD5F8C03FD5F8CC3FD80740F19880E269002A43D02B68A16913F4006F284614BF40262026FFF78CFE236AE2690344D6
:400FC000121A2362E261EAB9A3687BB1E368D5F804239E4294BF06F1FF3303F1FF3322F0FF02DBB21343C5F804330123C5F8C83F636823F001036360236B002B63D00420DB
:40100000984760E0D5F80033A16903F00F03072B88BF400008449642A06154D9D5F80433013A23F0FF031A43C5F804234BE0A368002B48D02B6813F4006FD5F808332669C9
:4010400014BF4FF040084FF02008C3F30809B9F1000F26D0E368676901369E4208BF0026B7420FD1236B0BB10820984763699F4208D10023C5F8C83F0FB17E1E11E0E668E8
:40108000013E0EE0D5F84023D5F8003303F00F03072BA36809F1FF3994BF9A5523F81620D5E7266121462846E668FFF741FF301A804508D900B10138D5F8043323F0FF033D
:4010C0001843C5F804030123C5F8C03FD5F8C03FD5F8003E590776D5D5F88C3F13F4A0630AD022681A432260C5F8803FD5F8803F236B0BB120209847D5F88C3FDA0750D57B
:401100002B68A26AD5F8006213F4006F14BF80274027012A06F00F0610D9D4F82480E2624146013A2846FFF70DFEA36A072EA3EB000388BF40004044A3626062D5F80832DA
:40114000C3F30803BB4227D0A36A012B24D10023A362636A072E94BF1E781E8800F0D1F84FF40073C5F84062C5F8803FD5F8803F00F0CBF8D5F8883F23F4007323F0010315
:4011800043F40073C5F8883F236843F002032360236B0BB1012098470123C5F8803FD5F8803FD5F88C3F9B050DD50022C5F8882F236823F001032360236BE2621BB10220B0
:4011C000BDE8F0471847BDE8F0870000074B9A68074B9A4218BF074A00F1100306BF52F8230042F8231052F82300704700ED00E0004002080000081010B5F0B1B0F90030B9
:401200004268002BA8BF03F160434FEA4212ADBF03F5614303F00F030A4CD2B2B6BFD2B283F80023E254084B9A68084B9A4206D1B0F90000FFF7CAFF01E0054810BD0020BC
:4012400010BD00BF14ED00E000ED00E00040020801005600FEE7000008B5234B02681A6042685A6082689A60C268DA6002691A6142695A6182699A61C269DA611B4A916AFB
:401280001962D16A5962516A9962516BD962926B1A63F1EE102A12F0900F21D0026A5A63426A9A63826ADA63C26A1A64026B5A64426B9A64826BDA64C26B1A65026C5A656C
:4012C000426C9A65826CDA65C26C1A66026D5A66426D9A66826DDA66C26D1A67026E5A67FFF7B8FF08BD00BF3848020800ED00E00230800803D001300238FCD100BF00BFAD
:401300007047EFF3108072B6704780F3108870474FF0B0535A7812B15878C0B2704721207047000070B5002867D0002A65D05368D56816691B029CB293689B0403F4802322
:401340002343147F23432C0404F440342343340604F0E06423430C1DA40189010351146843182DB1012D02D1C3F8084102E00125C3F8085136B943185569C3F80C51956994
:40138000C3F810514618936CC6F814415C1C15D0156B2D0205F47064956B2D0405F470252543946A04F00F042543146C2403A4B21B012C43DBB22343C6F82031D56A2D013D
:4013C00005F03004556B2D0205F440752543546A04F0030445EA0403D46BA401E4B21C43536C9B00014403F00C032343C1F82431136AC1F83831002070BD014870BD00BFC1
:401400000100B600014B1860704700BF204B020810B590B907292DD8FF2A2BD8164B1B68B3F874409B681C4454F8213023F47F4343EA022244F8212010BD01281AD10F29D4
:4014400018D8B2F5803F15D20B4B1B68B3F876009B681844120250F8213022F07F4223F47F0323F47F4322F0FF021A4340F82120002010BD014810BD204B020801004A0038
:401480000228F0B526D103293ED8B2F5803F3BD21F2B39D81D480668B6F87870B5683D44120255F8214022F07F4224F47F0022F0FF0220F47F40104345F82100B268B818A2
:4014C00050F8212022F0F80242EAC30340F821300020F0BD032817D1B1B9B2F1807F13D21F2B11D809480568B5F87A40AE68A059C0B240EA0222A251A868225822F0F8025B
:4015000042EAC3032350E3E70148F0BD204B020801004A000328F0B52AD808B9072906E0012801D10F2902E0022802D1032901D91EE0E9B90F4B1A6892F87040956892F8C8
:40154000716092F8733092F87220032704FA02F207FA03F313430C40384043F000432343B0401843C5F80004D5F800340020F0BD0148F0BD204B020801004A00032810B5C8
:401580001ED808B9072906E0012801D10F2902E0022802D1032901D912E089B9094B1B6893F871409A6893F8703000F003001940A04041F080410143C2F80014002010BDB5
:4015C000014810BD204B020801004A0010B5124B1B6893F83F20372A1CD903281AD808B9072906E0012801D10F2902E0022802D1032901D90EE069B993F871409A6893F84B
:40160000703000F00300A04019400143C2F8DC1C002010BD014810BD204B020801004A002DE9F8430746002871D000296FD08B6903F03F024B8913430A7A901E022805D82B
:40164000042A14BF43F0805343F0405348694E680C7C0643C86806431E430B78012B13BF0123002301200020012C91F82440BC6214BF43F4807340F480700124BC62C7F827
:40168000B000C7F8B430CB69C3F30B03C7F800310B6AC3F30B03C7F8043191F8253093B38AB3032A91F826408D6A0ED129462046FFF764FF29462046FFF788FF012C01D8E9
:4016C000002211E000231A4615E0D1F82C80D1F8309020462946FFF751FF29462046FFF775FF012C05D8424629462046FFF790FE05E04B46424629462046FFF7C1FE294625
:401700002046FFF707FF3E600020BDE8F8830148BDE8F8830100660070B516460C4659B10D462B1BB34204DA15F8010BFEF7B2FFF7E726EAE67070BD084670BD70B5164624
:401740000D4609B90C460CE00024B44209DAFEF7ADFFC0B20A28285504F1010401D00D28F3D1204670BD000010B5074C23782BB906490748FFF754FF01232370044A136802
:4017800043F00043136010BDC84A02088C4B08100000144181F0004102E000BF83F0004330B54FEA41044FEA430594EA050F08BF90EA020F1FBF54EA000C55EA020C7FEA64
:4017C000645C7FEA655C00F0E2804FEA5454D4EB5555B8BF6D420CDD2C4480EA020281EA030382EA000083EA010180EA020281EA0303362D88BF30BD11F0004F4FEA0131F9
:401800004FF4801C4CEA113102D0404261EB410113F0004F4FEA03334CEA133302D0524263EB430394EA050F00F0A780A4F10104D5F1200E0DDB02FA0EFC22FA05F2801868
:4018400041F1000103FA0EF2801843FA05F359410EE0A5F120050EF1200E012A03FA0EFC28BF4CF0020C43FA05F3C01851EBE37101F0004507D54FF0000EDCF1000C7EEB5A
:4018800000006EEB0101B1F5801F1BD3B1F5001F0CD349085FEA30004FEA3C0C04F101044FEA445212F5800F80F09A80BCF1004F08BF5FEA500C50F1000041EB045141EA6D
:4018C000050130BD5FEA4C0C404141EB010111F4801FA4F10104E9D191F0000F04BF01460020B1FA81F308BF2033A3F10B03B3F120020CDA0C3208DD02F1140CC2F10C0275
:4019000001FA0CF021FA02F10CE002F11402D8BFC2F1200C01FA02F120FA0CFCDCBF41EA0C019040E41AA2BF01EB0451294330BD6FEA04041F3C1CDA0C340EDC04F11404A2
:40194000C4F1200220FA04F001FA02F340EA030021FA04F345EA030130BDC4F10C04C4F1200220FA02F001FA04F340EA0300294630BD21FA04F0294630BD94F0000F83F49B
:40198000801306BF81F480110134013D4EE77FEA645C18BF7FEA655C29D094EA050F08BF90EA020F05D054EA000C04BF1946104630BD91EA030F1EBF0021002030BD5FEAB5
:4019C000545C05D14000494128BF41F0004130BD14F580043CBF01F5801130BD01F0004545F0FE4141F470014FF0000030BD7FEA645C1ABF194610467FEA655C1CBF0B46CC
:401A0000024650EA013406BF52EA033591EA030F41F4002130BD00BF90F0000F04BF0021704730B54FF4806404F132044FF000054FF0000150E700BF90F0000F04BF0021D9
:401A4000704730B54FF4806404F1320410F0004548BF40424FF000013EE700BF42004FEAE2014FEA31014FEA02701FBF12F07F4393F07F4F81F06051704792F0000F14BFE2
:401A800093F07F4F704730B54FF4607401F0004521F0004120E700BF50EA010208BF704730B54FF000050AE050EA010208BF704730B511F0004502D5404261EB41014FF4F6
:401AC000806404F132045FEA915C3FF4DCAE4FF003025FEADC0C18BF03325FEADC0C18BF033202EBDC02C2F1200300FA03FC20FA02F001FA03FE40EA0E0021FA02F11444E6
:401B0000C1E600BF70B54FF0FF0C4CF4E06C1CEA11541DBF1CEA135594EA0C0F95EA0C0F00F0DEF82C4481EA030621EA4C5123EA4C5350EA013518BF52EA033541F48011DD
:401B400043F4801338D0A0FB02CE4FF00005E1FB02E506F00042E0FB03E54FF00006E1FB03569CF0000F18BF4EF0010EA4F1FF04B6F5007F64F5407404D25FEA4E0E6D41F5
:401B800046EB060642EAC62141EA55514FEAC52040EA5E504FEACE2EB4F1FD0C88BFBCF5E06F1ED8BEF1004F08BF5FEA500E50F1000041EB045170BD06F0004646EA010125
:401BC00040EA020081EA0301B4EB5C04C2BFD4EB0C0541EA045170BD41F480114FF0000E013C00F3AB8014F1360FDEBF002001F0004170BDC4F10004203C35DA0C341BDC1E
:401C000004F11404C4F1200500FA05F320FA04F001FA05F240EA020001F0004221F0004110EBD37021FA04F642EB06015EEA430E08BF20EAD37070BDC4F10C04C4F120051A
:401C400000FA04F320FA05F001FA04F240EA020001F0004110EBD37041F100015EEA430E08BF20EAD37070BDC4F1200500FA05F24EEA020E20FA04F301FA05F243EA020382
:401C800021FA04F001F0004121FA04F220EA020000EBD3705EEA430E08BF20EAD37070BD94F0000F0FD101F00046400041EB010111F4801F08BF013CF7D041EA060195F080
:401CC000000F18BF704703F00046520043EB030313F4801F08BF013DF7D043EA0603704794EA0C0F0CEA135518BF95EA0C0F0CD050EA410618BF52EA4306D1D181EA0301F7
:401D000001F000414FF0000070BD50EA410606BF1046194652EA430619D094EA0C0F02D150EA013613D195EA0C0F05D152EA03361CBF104619460AD181EA030101F00041EA
:401D400041F0FE4141F470014FF0000070BD41F0FE4141F4780170BD70B54FF0FF0C4CF4E06C1CEA11541DBF1CEA135594EA0C0F95EA0C0F00F0A7F8A4EB050481EA030E10
:401D800052EA03354FEA013100F088804FEA03334FF0805545EA131343EA12634FEA022245EA111545EA10654FEA00260EF000419D4208BF964244F1FD0404F5407402D2A9
:401DC0005B084FEA3202B61A65EB03055B084FEA32024FF480104FF4002CB6EB020E75EB030E22BFB61A754640EA0C005B084FEA3202B6EB020E75EB030E22BFB61A7546B7
:401E000040EA5C005B084FEA3202B6EB020E75EB030E22BFB61A754640EA9C005B084FEA3202B6EB020E75EB030E22BFB61A754640EADC0055EA060E18D04FEA051545EAD7
:401E400016754FEA06164FEAC30343EA52734FEAC2025FEA1C1CC0D111F4801F0BD141EA00014FF000004FF0004CB6E711F4801F04BF01430020B4F1FD0C88BFBCF5E06FAF
:401E80003FF6AFAEB5EB030C04BFB6EB020C5FEA500C50F1000041EB045170BD0EF0004E4EEA113114EB5C04C2BFD4EB0C0541EA045170BD41F480114FF0000E013C90E6F2
:401EC00045EA060E8DE60CEA135594EA0C0F08BF95EA0C0F3FF43BAF94EA0C0F0AD150EA01347FF434AF95EA0C0F7FF425AF104619462CE795EA0C0F06D152EA03353FF4BD
:401F0000FDAE1046194622E750EA410618BF52EA43067FF4C5AE50EA41047FF40DAF52EA43057FF4EBAE12E702440346934202D003F8011BFAE770472DE9F04788B0002BA9
:401F4000149F1299109EDDF84CA01D4627F02007BBBF03F100431D4600232D231446B8BF1446462F0B7003D0452F03D1013601E0032300E0022307AA049206AA03928DE8F2
:401F8000480422462B4600F0A3FD472F804602D1119BDB0728D5462F08EB060911D198F80030302B0AD1002200232046294602F01FFC18B9C6F10106CAF80060DAF80030A9
:401FC0009944002200232046294602F011FC08B9302202E0CDF81C9006E0079B994503D9591C07911A70F8E7079B159AC8EB03034046136008B0BDE8F08773B5034600295C
:40200000B8BF494203F8022BB4BF2D222B220929427019DD0DF1070216460A2591FBF5F405FB14113031092C02F8011D2146F5DC3031541E02F8011CB4421A460AD214F853
:40204000012B03F8012BF7E730241A46214402F8024B5970101A02B070BD00002DE9F04F91B00C46DDF8688016461F46054601F047FC03680893184600F092FC00230E9372
:40208000D8F800300990073323F0070303F1080294F818A0D4F800B0C8F80020D3E90023C4E91223D4E9128929F000430B93CDF828804FF0FF32A74BDDE90A0102F0CAFB28
:4020C000A0B94FF0FF32A34BDDE90A0102F0A4FB60B9002200234046494602F093FB10B12D2384F843309C4B9C4A0AE042464B464046494602F0AEFB002800F09281984B46
:40210000984ABAF1470F8CBF90469846032323612BF0040323604FF000093DE0BAF1670F00F08A81BAF1470F00F08681236000210DF133020193636805900292009342467B
:402140004B460691CDF810A0CDF80CE02846FFF7F3FE0AF0DF03472B804600F08481BAF1650F0D9900F28D810139524604F150000D91FFF742FF0E9A8318012A8146236149
:4021800000F37C812268D10700F178819DF8333013B12D2384F84330009733460FAA2146284600F09FF9013002D14FF0FF3096E123685A0501D4236965E0BAF1650F40F2F8
:4021C000D58000220023D4E9120102F011FB78B30123654A31462846B8470130E5D00E9B0D9A9A420BDB2368D80708D423689B0740F111814FF0000804F1190906E1099B7E
:40220000089A31462846B8470130CED04FF0000804F11A090E9B013B9845E7DA01234A4631462846B8470130BFD008F10108F1E70D9B002B29DC01234B4A31462846B847C0
:402240000130B2D00D9B23B90E9B13B92368D907CCD5099B089A31462846B8470130A4D04FF0000904F11A0A0D9B5B42994509DA0123524631462846B847013095D009F140
:402280000109F1E70E9B4246A7E00E9AA36D9A42A8BF1A46002A914606DC4FF0000A29EAE97904F11A0B11E01346314642462846B8470130F1D178E701235A4631462846BD
:4022C000B84701303FF471AF0AF1010AA36DC9EB03029245F0DB08EB03090D9A0E9B9A420FDB2368DA070CD40E9B0D9A9844C9EB08089B1A9845A8BF9846B8F1000F08DC26
:402300000FE0099B089A31462846B8470130EBD14BE743464A4631462846B84701303FF444AF4FF0000928EAE87804F11A0A09E00123524631462846B84701303FF435AF6D
:4023400009F101090D9A0E9B9B1AC8EB03039945EEDB4BE7FFFFEF7FC84B0810CC4B0810D04B0810D44B0810D84B08100E9A012A01DCDB0738D50123424631462846B84728
:4023800001303FF412AF099B089A31462846B84701303FF40AAF00220023D4E9120102F027FA20B14FF0000804F11A0A0EE00E9B08F10102013B19E00123524631462846EF
:4023C000B84701303FF4F1AE08F101080E9B013B9845F1DB4B4604F1500231462846B84701307FF403AFE0E60123424631462846B8470130EED1D8E601234A46314628469C
:40240000B84701303FF4D1AE08F10108E3680F9A9B1A9845F0DBE0680F9B9842B8BF18465DE06268531C0EA84BF480630DF1340E7FF474AE062201E012B90122626075E68F
:40244000002106910DF133018DE80C00236005904246CDF810A0CDF80CE002914B462846FFF76AFD80460D9BD81C02DB626893421DDDAAF1020A5FFA8AFA70E601332361D2
:4024800084E6BAF1660F14D10029636807DD216113B92268D2071DD501330B4419E013B92268D00701D5023313E0012311E04FF0670A0D9B0E9A934205DB22682361D107DB
:4024C00008D5013305E0002BD4BFC3F102030123134423610D9BA3654FF0000956E611B0BDE8F08F2DE9F04791461F460A698B68DDF820809342B8BF1346C9F8003091F8D4
:40250000432006460C4612B10133C9F800302368990642BFD9F800300233C9F80030256815F0060510D104F1190A07E00123524639463046C04701301AD00135E368D9F8BE
:4025400000209B1A9D42F1DB94F843302268003318BF012392060FD5E1185A1C302081F84300224494F8451082F84310023303E04FF0FF30BDE8F08704F143023946304648
:40258000C0470130F4D02268D9F80050E36802F00602042A08BF5D1B2269A3680CBF25EAE57500259342C4BF9B1AED184FF000091A344D4509D00123224639463046C04738
:4025C0000130D5D009F10109F3E70020BDE8F0872DE9F04317460A7E85B06E2A984606460C460C9B01F1430E00F0AE8011D8632A22D009D8002A00F0BB80582A40F0CA80D2
:4026000081F84520834955E0642A1ED0692A1CD0C0E0732A00F0B08009D86F2A2ED0702A40F0B8800A6842F020020A603EE0752A24D0782A3AD0ADE01A6801F14205111DE6
:402640001960136884F84230A8E021681A6811F0800F02D0111D196008E011F0400F02F10401196002D0B2F9003000E01368002B3CDA2D225B4284F8432037E021681A68FD
:4026800011F0800F02D0111D196007E011F0400F02F10401196001D0138800E01368227E5C496F2A14BF0A2208221BE078225A4984F845202268186812F0800F00F10405ED
:4026C0001D6003D1550601D5038800E00368D00744BF42F0200222601BB9226822F0200222601022002084F8430001E049490A226568A560002D08DB206820F00400206010
:402700002BB9002D7DD175460CE0002B79D07546B3FBF2F002FB1033CB5C05F8013D03460028F5D1082A0BD12368DA0708D5236962689A42DEBF302305F8013C05F1FF351E
:40274000C5EB0E0323612EE008681A68496910F0800F03D0101D1860136808E010F0400F02F104001860136801D0198000E0196000232361754616E01A68111D19601568FE
:4027800062680021284601F02BF908B1401B6060636804E004F1420584F8422001232361002384F84330CDF800803B4603AA21463046FFF797FE013002D14FF0FF3026E001
:4027C00023692A4639463046C0470130F5D023689B0710D5002504F1190907E001234A4639463046C0470130E7D00135E368039A9B1A9D42F2DBE068039B9842B8BF18460A
:4028000005E00B7884F8423004F142058AE705B0BDE8F083DA4B0810EB4B08100FB40A4B13B51C6824B1A36913B9204600F0DEFF05AB049AA1680193204601F0E7FC02B022
:40284000BDE8104004B070471C4302082DE9F7431D464F4B1E6804460F46904626B1B36913B9304600F0C2FF4A4B9C4201D1746808E0494B9C4201D1B46803E0474B9C42A5
:4028800008BFF468B8F1020F04D0B8F1010F79D8002D77DB2146304600F03EFF616B41B104F14403994202D0304601F0D9FB002363630023A3616360A3891B0603D5216970
:4028C000304601F0CDFBA38923F44A6323F00303B8F1020FA3811ED001AB6A462146304601F012F8A3891843A0810DB9009D00E02FBB284601F068F80746D0B9DDF80090D1
:40290000A94502D14FF0FF3006E0484601F05CF8074678B9F6E70020A38943F00203A3810023A36004F1470323602361012363612AE0A946A38943F08003A3814D46B369AA
:4029400013B9304600F052FFB8F1010F08BFA389276004BF43F00103A381A389276103F0080080B2656158B113F001034FF000001DBF6D42A060A561A56008BF184603E0EF
:40298000A06001E04FF0FF3003B0BDE8F08300BF1C4302080C4C08102C4C08104C4C0810034613F8012B002AFBD1181A013870472DE9F74F03690C699C42804600F38380B6
:4029C000013C01F114074FEA840E00F1140657F8245006EB0E030193013556F82430B3FBF5F507EB0E09002D39D04FF0000A3846B446D34650F8042B93B205FB03A34FEA3A
:402A0000134A9BB2C3EB0B03120CBCF800B005FB02A213FA8BF34FEA124A1FFA82FBDCF80020CBEB124202EB23429BB243EA024381454FEA224B4CF8043BDBD256F80E301D
:402A40006BB9019B043B9E421A4602D3C8F8104005E01268043B002AF8D1013CF3E7404601F027FA00282CDB013530464FF0000E57F8041BD0F800C08AB2C2EB0E03090CC5
:402A800013FA8CF3C1EB1C4202EB23429BB243EA0243B9454FEA224E40F8043BE8D256F8242006EB840362B9043B9E421A4602D3C8F8104005E01268043B002AF8D1013C40
:402AC000F3E7284600E0002003B0BDE8F08F00002DE9F04F456A97B08246239CCDE9022345B9102000F070FFCAF82400456085600560C560DAF82430196859B15A684A6066
:402B0000012393408B60504600F0FAFFDAF8243000221A60039BA04A002BBFBF01232360039B23F00043B8BF0393DDF80C80A4BF0023236028F000431B0D1B0593421DD1C9
:402B4000229A42F20F731360029B43B9934A944BC8F31300002814BF1846104600E09048249B002B00F04A85C37813B100F1080300E0C31C249A136000F040BDDDE9024558
:402B8000002200232046294601F032FE074658B1229A01231360249B002B00F0228581481860013800F02ABD14AB019315AB009322462B46504601F0F7F9C8F30A560590B9
:402BC00056B1C5F3130343F07F51204641F44011A6F2FF3611971DE0159B149E1E4406F23243202B0ADD029A06F21240C3F1400322FA00F008FA03F3184304E0C3F1200048
:402C0000029B03FA00F0FEF707FF0123A1F1F871013E11930022644BFEF7C0FD58A3D3E90023FEF76FFF58A3D3E90023FEF7B8FD044630460D46FEF7FFFE55A3D3E90023ED
:402C4000FEF760FF02460B4620462946FEF7A8FD04460D4601F014FE0022834600232046294601F0CFFD58B15846FEF7E5FE02460B462046294601F0BBFD08B90BF1FF3B2B
:402C8000BBF1160F0DD8494901EBCB01DDE90223D1E9000101F0D4FD30B10BF1FF3B002300E00123109300E01090149B9E1B731E089343BFC3F10009002308934FF00009F2
:402CC000BBF1000F07DB089BCDF834B05B4408930023099306E0CBF1000309930023CBEB09090D93209B092B27D8052BC4BF043B2093209BA3F10203CCBF00250125032B3B
:402D000020D8DFE803F0060E0204012302E0012308E000230C93219B002B1CDD069398461EE000230C93219B5B4403F1010806934346012BB8BF012312E0012500232093AD
:402D40000C9501E001230C934FF0FF33069398460022122303E00123069398461A462192DAF8244000226260042101F114029A421ED86268013262604900F6E7AFF300801E
:402D800061436F63A787D23FB3C8608B288AC63FFB799F501344D33F0000F07FFC4B0810054C0810D94B08100000F83FA84C08106168504600F06FFEDAF8243020601B68DA
:402DC0000793B8F10E0F00F25D81002D00F05A819DED027BBBF1000F8DED0E7B31DDA04A0BF00F0302EBC30393ED007B4FEA2B14E2068DED0A7B0CD59A4BDDE90E01D3E97D
:402E00000823FEF7A9FF04F00F04CDE90201032600E00226934D6CB1E30708D5DDE90A01D5E90023FEF76EFECDE90A01013664100835F0E7DDE90A23DDE90201FEF78CFF46
:402E400020E0CBF1000404B3854B864D04F00F0203EBC203D3E90023DDE90E01FEF752FECDE9020124110023022654B1E70705D5D5E90023FEF746FE01360123641008355B
:402E8000F3E71BB1CDE9020100E00226109BEBB1DDE902450022744B2046294601F0B2FCA0B1B8F1000F11D0069B002B40F3E6800BF1FF330A9300226C4B20462946FEF745
:402EC00021FE0136CDE90201069F02E0CDF828B047463046FEF7B0FDDDE90223FEF712FE0022634BFEF75CFC0446A1F15075CFB90022604BDDE90201FEF750FC22462B4614
:402F0000CDE9020101F09CFC002840F04182224605F10043DDE9020101F074FC002840F02E82ABE00C9A4E4B791E002A4AD003EBC103D3E9002300204F49FEF70DFF22460A
:402F40002B46FEF72BFC079C05460E46DDE9020101F096FC1290FEF76FFD02460B46DDE90201FEF71BFC129B303304F8013B2A463346CDE9020101F045FC002840F02183AD
:402F8000DDE9022300203849FEF708FC2A46334601F038FC002840F0D280079BE31ABB426CDA0022314B28463146FEF7ABFD002205460E462D4BDDE90201FEF7A3FDCDE985
:402FC0000201C3E703EBC10122462B46D1E90001FEF798FD079BCDE91201DC191D46DDE9020101F04DFC0646FEF726FD303602460B46DDE90201FEF7D1FB05F8016BAC424C
:40300000CDE902014FF0000223D11B4BDDE91201FEF7C6FB02460B46DDE9020101F010FC002840F08C80DDE9122300201249FEF7B5FB02460B46DDE9020101F0E3FBE8B105
:4030400014F8013C302B04F1FF3240F0BA821446F6E7064BFEF756FDCDE90201BFE700BFA84C0810804C08100000F03F0000244000001C40000014400000E03FDDE90E34D2
:40308000CDE90234159B002B7CDBBBF10E0F79DC8F4B03EBCB03D3E90067219B002B14DAB8F1000F11DC40F06C810022894B30463946FEF727FDDDE9022301F0B7FB454667
:4030C0004646002840F05F8166E1079C32463B46DDE90201FEF740FE01F0D2FB0546FEF7ABFC32463B46FEF70DFD0B460246DDE90201FEF753FB05F1300E04F801EB079B2D
:40310000C3EB040EF045CDE902012ED102460B46FEF746FB8046894602460B463046394601F070FB78B942464B463046394601F05FFB002800F04782E90704D443E2DDF867
:4031400028B000E01C4614F8012C392A04F1FF3307D1079A9A42F5D1079930220BF1010B0A701A7801321A702DE200225A4BFEF7C9FC00220023CDE9020101F039FB0028B9
:40318000A4D020E20C9A002A2DD0209A012A0ADC119A12B103F2334302E0149BC3F13603099D4C4615E0099B08F1FF35AB42BFBF099B0995EA1A0D9BB7BF9B185D1B0D9312
:4031C0000025B8F1000FB9BFC8EB090400234C464346089A01211A4450469944089200F02EFD064602E0099D0C9E4C465CB1089B002B08DDA342089AA8BF2346C3EB09094B
:40320000E41AD31A0893099B002B1DDD0C9BABB185B131462A46504600F0ACFD059A01460646504600F014FD05990746504600F067FC0597099B5A1B06D000E0099A0599A7
:40324000504600F097FD05900121504600F0F7FC0D9B05465BB31A460146504600F08AFD209B012B054618DC029B83B9039BC3F3130373B9039B23F000473F0D3F054FB132
:40328000089B013309F101090893012702E0002700E0029F0D9B73B100E000272B6905EB8303186900F07EFCC0F1200004E0209B012BD9DD0D9F0120089B184410F01F00E1
:4032C0000ED0C0F12003042B08DDC0F11C0008E0A84C0810000014400000244006D018461C30089B0344814404440893B9F1000F05DD4A460599504600F08AFD0590089B6F
:40330000002B05DD29461A46504600F081FD0546109BEBB12946059800F0CBFD002817DA00230A220599504600F001FC0C9B05900BF1FF3B002B00F05881002331460A22A2
:40334000504600F0F4FB069B002B064637DC33E0B8F1000F2ADC209B022B27DDCDF81880069B83B929460522504600F0E0FB01460546059800F09DFD00280DDC03E03D468F
:4033800000E000252E46219B079C6FEA030B0AE0DDF828B03D463E46079B079A5C1C312313700BF1010BB0460026F7E00C9BCDF8188023B9079CB1E0209B022BD0DC002CCF
:4033C00005DD31462246504600F022FD06469FB17168504600F05FFB326902320446920006F10C010C3000F04BFB01222146504600F00EFD804600E0B046029BDDF81C901C
:4034000003F00103089329460598FFF7D1FA3146044600F13007059800F04BFD424602902946504600F061FDC36802463BB901460990059800F03DFD099A034600E0012304
:4034400011465046099300F05BFB099B4BB9209A3AB9089A2AB9392F28D0029B002B1ADC1BE0029A002A04DB1AD1209AC2B9089AB2B9002B11DD01220599504600F0C8FC94
:403480002946059000F015FD002802DC05D1FA0703D5392F0AD004F1310709F101040CE0002B09F101040BDD392F05D1392389F8003009F1010954E0013789F800706DE0EC
:4034C000079B069A04F8017CE31A9342A1463AD000230A220599504600F029FB464505904FF000034FF00A023146504604D100F01EFB0646804686E700F019FB41460646C9
:4035000000230A22504600F012FB80467BE700230A220599504600F00AFB059029460598FFF746FA00F1300704F8017B079B069AE31A9342EBDB079B012AACBF9B18013399
:40354000B0469946002601220599504600F060FC2946059000F0ADFC002802DC15D1FB0713D54C4614F8013C392B04F1FF3209D1079B934204D10BF1010B3123079A02E0D0
:403580001446EFE70133137008E04C4614F8013C302B04F1FF3201D11446F7E72946504600F0AEFAB8F1000F0DD02EB1464503D03146504600F0A4FA4146504600F0A0FA25
:4035C00001E0DDF828B00599504600F099FA0023229A23700BF101031360249B1BB11C6001E008480AE0079808E0069B002B3FF7E1AE209B022B7FF7DDAEB1E617B0BDE87B
:40360000F08F00BFD84B08108A892DE9F041054610070C4659D44B68002B02DC0B6C002B17DDE66AAEB102F48052002392B22F682B600AB1606D15E0216A01232846B047F3
:40364000411C0FD12B686BB11D2B01D0162B03D12F600020BDE8F081A38943F04003A381BDE8F081A3895A0705D56368C01A636B0BB1236CC01A00230246E66A216A2846DC
:40368000B047431CA38906D129681D293AD8214ACA40D60736D500226260D9042269226004D5421C01D12B6803B96065616B2F600029CED004F14403994202D0284600F017
:4036C000CFFC00206063BDE8F0810F69002FC0D093070E6808BF4B690F6018BF0023C7EB06088B6002E00744C0EB0808B8F1000FAFDD43463A46216AA66A2846B0470028D3
:40370000F1DCA38943F04003A3814FF0FF30BDE8F08100BF0100402038B50B6905460C46DBB118B183690BB900F060F80C4B9C4201D16C6808E00B4B9C4201D1AC6803E047
:40374000094B9C4208BFEC68B4F90C302BB121462846BDE83840FFF757BF002038BD00BF0C4C08102C4C08104C4C0810014900F0A9B800BF19370810002310B5044603605E
:403780004360836081814366C281036143618361194608225C30FEF7C7FB054B6362054BA362054BE362054B2462236310BD00BF6544081087440810BF440810E3440810F8
:4037C00070B568234D1E5D430E4605F1740100F095FC044640B1002180E842000C30A06005F16802FEF7A0FB204670BD836910B5044633BB8364C3640365124B124A1B686E
:403800008262984204BF0123836100F01FF86060204600F01BF8A060204600F017F80022E06004216068FFF7A7FF01220921A068FFF7A2FF02221221E068FFF79DFF01233E
:40384000A36110BDC44B08106D370810F8B51C4B1E68B369074613B93046FFF7C7FF4836B4687368013B04D4B4F90C507DB16834F8E733680BB13668F2E704213846FFF7F1
:403880009FFF30600028F6D10C233B60F8BD4FF6FF73E3810123A38165662560A560656025616561A5610822294604F15C00FEF73BFB6563A563A564E5642046F8BD00BF8C
:4038C000C44B08102DE9F8438046894600F14804002694B1A5686768013F0CD4AB89012B07D9B5F90E30013303D029464046C84706436835F0E72468EBE73046BDE8F8832F
:40390000004870472043020870B50E46B1F90E10002990B014461D4606DA00232B60B3891A060ED540230EE001AA00F0C3FE0028F3DB029A02F47042A2F500535A425A41DF
:403940002A604FF480630020236010B070BD00008B8973B59E0705460C4610D401AB6A46FFF7D2FF00990646284600F0C7FB68B9B4F90C309A0522D443F00203A38104F18D
:403980004703236023610123636118E00D4BAB62A389206043F08003A381009B6361019B20614BB1B4F90E10284600F095FE18B1A38943F00103A381A0893043A08102B0F8
:4039C00070BD00BF6D370810024B0146186800F095BB00BF1C430208000000000000000001F0FF01102A2BDB10F0070F08D010F8013B013A8B422DD010F0070F42B3F6D169
:403A0000F0B441EA012141EA014122F007047FF000070023F0E80256083C85EA010586EA010685FA47F5A3FA87F586FA47F6A5FA87F68EB9EED1F0BC01F0FF0102F00702C7
:403A400032B110F8013B013A83EA010313B1F8D10020704701387047002D06BF35460338073815F0010F07D1013015F4807F02BF013015F4C03F0130F0BC0138704700BF8C
:403A800010B5431E0A44914204D011F8014B03F8014FF8E710BD70B5456A04460E463DB91020FFF791FF6062456085600560C560656AEB6843B1636ADB6853F8260078B1EB
:403AC000026843F8262017E021220421204600F0B9FA636AE860DB68002BECD1002070BD012101FA06F56A1D9200204600F0AAFA0028F3D04660856000230361C36070BD6E
:403B000070B5446A06460D463CB91020FFF75CFF7062446084600460C4603DB1736A6A68DB6853F82210296043F8225070BD2DE9F0410D691F4606460C4601F1140E002304
:403B4000DEF8000081B202FB01710F0C000C02FB007089B2013301EB00419D424FEA10474EF8041BECDCD7B1A3689D4212DB616830460131FFF78FFF2269023204F10C01EC
:403B8000804692000C30FFF77BFF21463046FFF7B7FF444604EB850301355F6125612046BDE8F081030C1B0413B90004102300E0002310F07F4F04BF0002083310F0704FBE
:403BC00004BF0001043310F0404F04BF80000233002803DB420003D5581C70471846704720207047036813F007020BD0D90722D49A074BBF5B089B08036003604CBF0120A1
:403C00000220704799B209B91B0C102213F0FF0F04BF1B0A0832190704BF1B090432990704BF9B080232D90702D45B0805D00132036010467047002070472020704710B577
:403C40000C460121FFF727FF01224461026110BD2DE9F74F14460A6923699A42B8BF0B468846BCBFA0461C46D8F81070D4F81090D8F80830D8F8041007EB09069E42C8BFC2
:403C80000131FFF708FF00F1140505EB860C2B460022634502D243F8042BFAE704F1140208F1140102EB890301EB87070093009B0192934257D9B2F800B0BBF1000F23D015
:403CC0008946AE464FF0000859F8044BBEF800A0A3B20BFB03A34FEA144ADEF8004043444FEA14480BFB0A8404EB1344F2469BB243EA04434F454FEA14484AF8043B01D9A3
:403D0000D646E1E7CEF80480019BB3F802A00432BAF1000F21D02B682C4689464FF00008B9F800E0B4F802B00AFB0EBEF044A3469BB243EA08434BF8043B59F8043BB4F810
:403D400004E01B0C0AFB03E303EB18434F454FEA134801D95C46E3E763600435A7E75CF8043D13B9013E002EF9DC066103B0BDE8F08F00002DE9F843154612F0030206462C
:403D80000F4607D0013A214C002354F82220FFF7CEFE0746AD1036D0746A3CB91020FFF713FE7062446084600460C460D6F82480D8F808404CB940F271213046FFF73FFFC3
:403DC0000023C8F80800044603604FF00008EB070AD5394622463046FFF73AFF394681463046FFF78DFE4F466D100CD0206808B10446ECE7224621463046FFF729FF20601B
:403E0000C0F80080F4E73846BDE8F883744C08102DE9F0470C464FEA621A26694968A368564407469146751CAB4202DA01315B00FAE73846FFF72FFE0023804600F1140144
:403E40001A46534503DA41F823200133F9E72AEAEA73206901EB830319F01F0904F1140101EB800E14D0C9F1200C0022086800FA09F002439A4643F8042B51F8042B8E4593
:403E800022FA0CF2F2D8CAF8042042B1B51C06E0043B51F8042B43F8042F8E45F9D8013D3846C8F810502146FFF72AFE4046BDE8F08703690A699B1A10B511D192001430B1
:403EC000143183180A4453F8044D52F8041D8C4202D007D3012010BD9842F4D3002010BD184610BD4FF0FF3010BD2DE9F8430C460746114620461546FFF7DBFF061E08D15C
:403F000031463846FFF7C7FD012303614661BDE8F883BCBF23462C4638466168BABF1D4601260026FFF7B7FD2B69C660266905F11409143404EB860709EB830800F114056A
:403F40004FF0000C54F8043B59F8042B1CFA83F11FFA82FE120CCEEB0101C2EB134303EB214389B24FEA234CC84541EA0343A64645F8043BE6D8BE450ED25EF8041B1CFAA5
:403F800081F2131403EB114392B242EA03424FEA234C45F8042BEEE755F8043D0BB9013EFAE70661BDE8F8832DE9F34101211C46089E099D9046FFF76EFDC4F31303C4F3B9
:403FC0000A5407460CB143F480130193B8F1000F19D002A840F8088DFFF704FE009B48B1019AC0F1200102FA01F10B43C2407B61019200E07B61019BBB61002B14BF0221A8
:404000000121396107E001A8FFF7ECFD019B7B6101213961203034B1A4F2334404443460C0F1350009E007EB8103A0F2324030601869FFF7B7FDC0EB41102860384602B04B
:40404000BDE8F08138B502FB01F4214600F056F8054618B122460021FDF766FF284638BD38B50546002946D051F8043C0C1F002BB8BFE41800F052FB1F4A1368114613B940
:404080006360146032E0A3420ED92268A018834204BF18685B68636004BF121822600C6024E0A24203D813465A68002AF9D118681918A1420BD12168014458188242196083
:4040C00014D1106852685A60014419600EE002D90C232B600AE021686018824204BF10685268626004BF091821605C602846BDE8384000F014BB38BDD44A020870B5CD1CB2
:4041000025F0030508350C2D38BF0C25002D064601DBA94202D90C23336046E000F0FEFA234B1C681A462146A1B10B685B1B0ED40B2B03D90B60CC18CD501EE08C420DBFED
:4041400063684B686360136018BF0C4615E00C464968E9E7174C23681BB9304600F072F920602946304600F06DF9431C18D0C41C24F00304A0420DD12560304600F0CFFA96
:4041800004F10B00231D20F00700C31A0ED05A42E25070BD211A304600F054F90130EBD10C233360304600F0BAFA002070BD00BFD44A0208D04A02089368013B002B10B4BD
:4041C000936009DA9469A34202DBCBB20A2B03D15DF8044B00F08AB91368581C10601970C8B25DF8044B7047F8B506460F461446D518AC4208D03A4614F8011B3046FFF7A1
:40420000DBFF431CF5D100E00020F8BD2DE9F04F9DB00C4617460393064618B183690BB9FFF7E4FA7F4B9C4201D1746808E07E4B9C4201D1B46803E07C4B9C4208BFF468CC
:40424000A38918070CD5236953B10023099320238DF8293030238DF82A30DFF8D4B144E02146304600F0A8F90028EED04FF0FF30D5E0039A111D12680391002A80F28C80F8
:40428000524243F002000792049098F800302E2B00F08480032298F800106548FFF7A0FB48B14023CBEB000003FA00F0049B1843049008F1010898F800105E488DF8281066
:4042C000062208F10107FFF78BFB002800F09580594B002B40F08880039B073323F0070308330393099B53440993B846454615F8013B1BB9B8EB07090FD003E0252BF9D014
:40430000A846F3E74B463A4621463046FFF76CFF01307FD0099B4B44099398F80030002B78D000234FF0FF3204930793059206938DF853301A930127052229783F48FFF7CE
:404340004FFB05F10108049B38B13C4A801A07FA00F0184304904546EEE7D90644BF20228DF853201A0744BF2B228DF853202A782A2A3FF47EAF079A00210A20A846013521
:4043800098F80030303B092B03D800FB02320121F4E700293FF479AF079276E798F801302A2B0BD1039B1A1D1B680392002BB8BF4FF0FF3308F1020805936BE70023059383
:4043C00008F1010019460A258046013098F80020303A092A03D805FB01210123F4E7002B3FF458AF059155E703AB00932246144B04A93046FDF732FE07E003AB00932246DF
:404400000F4B04A93046FEF7E3F8B0F1FF3F82467FF468AFA3895B063FF528AF09981DB0BDE8F08F0C4C08102C4C08104C4C0810764D08107A4D08105D200810704D081000
:40444000E941081038B5064C002305460846236000F05EFA431C02D1236803B12B6038BD244B020810B50C46B1F90E1000F058F90028ABBF636DA3891B1823F48053ACBF94
:404480006365A38110BD2DE9F0411F468B89DB0505460C46164605D502230022B1F90E1000F02AF9A389B4F90E1023F48053A38132463B462846BDE8F04100F06BB810B594
:4044C0000C46B1F90E1000F017F9431CA38915BF606523F4805343F48053A38118BFA38110BDB1F90E1000F0D5B80000F8B50F461446064618B183690BB9FFF777F9224B65
:404500009C4201D1746808E0204B9C4201D1B46803E01F4B9C4208BFF468A369A360A3891A0709D523693BB123682069181A63699842FDB20FDB08E02146304600F03CF862
:404540000028F1D04FF0FF30F8BD21463046FFF7E3F80028F6D1A368013BA36023685A1C22601F706269431C934204D0A389DB0707D50A2D05D121463046FFF7CDF80028AC
:40458000E0D12846F8BD00BF0C4C08102C4C08104C4C081038B5074C054608461146002222601A46FDF7B8F8431C02D1236803B12B6038BD244B0208324B70B51D68064603
:4045C0000C4625B1AB6913B92846FFF70FF92E4B9C4201D16C6808E02C4B9C4201D1AC6803E02B4B9C4208BFEC68B4F90C309AB215071DD4D00602D4092232603AE05107B8
:4046000012D5616B41B104F14403994202D03046FFF726FD00236363A38923F02403A3810023636023692360A38943F00803A38123694BB9A38903F42073B3F5007F03D027
:4046400021463046FFF784F9A28912F0010305D00023A36063695B42A36103E0920758BF6369A36023695BB9B4F90C3003F0800080B230B143F04003A3814FF0FF3070BDAB
:40468000002070BD1C4302080C4C08102C4C08104C4C081038B5064C002305460846236000F016F9431C02D1236803B12B6038BD244B020838B5074C00230546084611465A
:4046C000236000F00DF9431C02D1236803B12B6038BD00BF244B020838B5064C002305460846236000F004F9431C02D1236803B12B6038BD244B020838B5074C054608466A
:404700001146002222601A4600F0FAF8431C02D1236803B12B6038BD244B02087047704738B5074C054608461146002222601A46FDF704F8431C02D1236803B12B6038BD4F
:40474000244B02084FF0FF3C06E000BF4FF0010C02E000BF4FF0010C4DF804CD4FEA410C7FEA6C5C4FEA430C18BF7FEA6C5C1BD001B050EA410C0CBF52EA430C91EA030F05
:4047800002BF90EA020F0020704710F1000F91EA030F58BF994208BF90422CBFD8176FEAE37040F0010070474FEA410C7FEA6C5C02D150EA013C07D14FEA430C7FEA6C5CAE
:4047C000D6D152EA033CD3D05DF8040B704700BF8446104662468C461946634600E000BF01B5FFF7B7FF002848BF10F1000F01BD4DF808EDFFF7F4FF0CBF012000205DF8F6
:4048000008FB00BF4DF808EDFFF7EAFF34BF012000205DF808FB00BF4DF808EDFFF7E0FF94BF012000205DF808FB00BF4DF808EDFFF7CEFF94BF012000205DF808FB00BFF0
:404840004DF808EDFFF7C4FF34BF012000205DF808FB00BF4FEA410C7FEA6C5C02D150EA013C0AD14FEA430C7FEA6C5C02D152EA033C02D14FF0000070474FF00100704757
:404880004FEA410212F5001215D211D56FF47873B3EB625212D94FEAC12343F0004343EA505311F0004F23FA02F018BF404270474FF00000704750EA013005D111F00040C1
:4048C00008BF6FF0004070474FF00000704700BF024B58221A604FF0FF307047244B0208024B58221A604FF0FF307047244B0208024B58221A600020704700BF244B0208D8
:40490000024B58221A604FF0FF307047244B0208044A05491368002B08BF0B461844106018467047D84A0208284B0208F8B500BFF8BC08BC9E467047F8B500BFF8BC08BC51
:404940009E467047256C750D0A0000000300000001000000010000000000000005036000040000000100000000000000010000000604600008000000404A0208BD0408102D
:404980005A000000070000002E0000000700000040420F00000000000000000000000000000000000A00000005000000000000000200000003000000FFFFFFFF03000000BD
:4049C000FFFFFFFF03000000FFFFFFFF03000000FFFFFFFF03000000FFFFFFFF000000000C00000008000000000200000000000000000000000000000000000000000000A8
:404A000000000000000000000B000000000000000000000000000000000000000000204000002440000000400000000000002340000030400000314000009F4000002240E2
:404A40000000104002020202020202020210101D800017007500FF030602063604102000000000007FC0000000040000000000000019324B647D00804000080B1000000074
:404A80000000FF012002001F00800004FF081018001000140018001C4044484C5000000008100000080000000400000004100000001200000421000000210000001600009C
:404AC00040114002C41300138013A013200000001C0000000000214000002540000001400000344000002440000031400000324000001F41000023400000114001010101DD
:404B00000101010101101010800019005500F0000501053B04101C01010000000FC000000004000001010101011D3A57789600082000101208000000001F00000010000FC6
:404B4000002000023F06080E00080009000A000B24282C3034000000100000009000000088000000080000008000000004F0000000F00000400200002005A000D001000149
:404B80008001A0012000000010000000010000000000000000000001000040000100000000000000220000000000000000000000010000000000000000000000000000003D
:404BC00043000000BC420208494E4600696E66004E414E006E616E00300030313233343536373839414243444546003031323334353637383961626364656600496E66697C
:404C00006E697479004E614E0000000000000000000000000000000000000000000000000000000000000000000000000000000000000000000000000000000000000000B3
:404C40000000000000000000000000000000000000000000000000000000000000000000000000000000000000000000504F534958002E0005000000190000007D000000D8
:404C80000080E03779C34143176E05B5B5B89346F5F93FE9034F384D321D30F94877825A3CBF737FDD4F1575000000000000F03F0000000000002440000000000000594049
:404CC0000000000000408F40000000000088C34000000000006AF8400000000080842E4100000000D01263410000000084D797410000000065CDCD41000000205FA00242A9
:404D0000000000E876483742000000A2941A6D42000040E59C30A2420000901EC4BCD64200003426F56B0C430080E03779C3414300A0D8855734764300C84E676DC1AB4300
:404D4000003D9160E458E143408CB5781DAF154450EFE2D6E41A4B4492D54D06CFF08044F64AE1C7022DB544B49DD9794378EA44232D302B2000686C4C006566674546473B
:404D8000000000000000000000000810004002088C020000A84D08108C420208AC050000B048020878020000F40100000A000000F40100001E2300000048E80100127A00FF
:404DC00000093D0000127A0000127A0008000000401F00000000A00F000000000C4C08102C4C08104C4C081000000000000000000000000000000000C04B0810000000006C
:404E00000000000000000000000000000000000000000000000000000000000000000000000000000000000000000000000000000000000000000000BC420208724C081094
:404E4000494908104949081049490810494908104949081049490810494908104949081049490810FFFFFFFFFFFFFFFFFFFFFFFFFFFF0000B10208108D02081000000000D4
:404E800080B210B5C40008B3114B1968B1F8B0200B6AC2EBC202134418680028FCDA0D4B3E20186041F61E705860A3F582730620C3F81805C3F81C45096AD3F81C050A446C
:404EC00000215160D3F81C25002AFBDA10BD00BF204B02080401264008B54378FF2B13D100F030FA0146042000F014FAC3685B681A6842F001021A601A68D207FCD40846C8
:404F0000BDE8084000F016BA08BDF8B51F4E052000F000FA33685A684FF260030746D45800F010FA3368A4B21A68D3F89030013C032C02EB03010546D35822D8032B16D083
:404F400000F0A8F9014600F0B5F9114A013001FB000002FB00F30F4A4FF47A701268B2FBF0F0B3FBF0F08230FFF78AFF09E00A4B1B78002BE4D10823BB600B68032BFCD093
:404F8000DEE72846BDE8F84000F0D4B9204B020840420F00A04202080B0000162DE9F04780460120894600F0B5F93D4B1B68D3F8B45093F850300746054423B1394B1B784A
:404FC000DBB100263FE000F0BDF9374A06460121384600F07FF948B9B8F1000F08D02B68002BFCDB00F05EF9044602E02F4C00E02F4C304600F09EF94EE0052000F08AF933
:4050000000F080F90446002845D100F08BF9294EB04240D0244A234612690121204600F051F9002837D1DFF890A00446002000F079F9B04203D054452DD00134F6E71E4BA5
:405040009C4228D0012600F07DF91C4BD3F81C35002B824605DA144A0121384600F03AF908B1124C0DE04846FFF70AFFB8F1000F06D02B68002BFCDB00F014F9044600E07C
:405080000B4C0EB95046B5E70121002000F02AF90028F9D1F6E7054C2046BDE8F08700BF204B02080B000016644A0208050052000100500001018800F049020000002640C9
:4050C0006E492DE9F8430B6806465C6800F012F9212844D10B68B3F8B0501A6AC5EBC5052A4410680028FCDAD06840F00100D060D06887072ED5D3F800E0D3F884C0D3F8E5
:405100008870D2F80C805EF80C005EF8077000024FEA17291FFA88F747EA096700F47F003843D0605EF80C2022F47F4242F410624EF80C20D3F888001F683A5822F47F426A
:4051400042F410623A501A68D3F884001058D3F8880012581B6A1D4400236B606B680A68DFF82CC11068D2F8943000EB030E444B18780025DCF81070012E47F00407CCF85B
:40518000107001D030BF06E020BF10B120BF054601E035463046DEF8007007F00307022FE8D005B11870B2F8B030126AC3EBC30313441A68002AFCDA00F09CF8212829D1A5
:4051C0000B68B3F8B0201C6AC2EBC2021444E068800718D51E68D3F884507059E468240A04F47F4420F47F40204370511C6A1E68D3F8885014447059E46820F47F40240E7B
:4052000040EA042070511B6A1A44D36823F00103D36027E0D4F80C3123BB1A4B1A481B4A0768D3F81865156841F61E7EC0F800E04FF0060EC3F818E54FF03E0EC2F800E00E
:405240004FF0440EC3F81CE5D3F81CE5BEF1000FFADA4FF0AA33C4F80C310A4B0760C3F8186515600A68B2F8B030126AC3EBC303134400225A60BDE8F88300BF204B020892
:405280008C4A020800002640080126400401264000ED00E001B40248844601BC604700BF3D07081001B40248844601BC604700BF3508081001B40248844601BC604700BF8C
:4052C0005107081001B40248844601BC604700BF910B081001B40248844601BC604700BF1109081001B40248844601BC604700BFF509081001B40248844601BC604700BF92
:405300001113081001B40248844601BC604700BF7D07081001B40248844601BC604700BF6907081001B40248844601BC604700BF790A081001B40248844601BC604700BFC2
:405340000B13081001B40248844601BC604700BF031308100000000000000000000000000000000000000000000000000000000000000000000000000000000000000000DD
:4053800000000000000000000000000000000000000000000000000000000000000000000000000000000000000000000000000000000000000000000000000000000000ED
:4053C00000000000000000000000000000000000000000000000000000000000000000000000000000000000000000000000000000000000000000000000000000000000AD
:0200000490303A
:020000009AA8BC
:0200000490501A
:0C0000000005E2F021002101E30EBBA886
:00000001FF