:020000041000EA
:4000000000400208230100100D00000085010010000000000000000000000000000000000000000000000000000000008101001000000000000000008101001081010010E9
:400040008101001081010010810100108101001081010010810100108101001081010010810100108101001081010010810100108101001081010010810100108101001060
:400080008101001081010010810100108101001081010010810100108101001081010010810100108101001081010010810100108101001081010010810100108101001020
:4000C00010B5064C2378002B07D1054B002B02D0044800E000BF0123237010BD3C060008000000006C210010084B10B5002B03D00749084800E000BF07480368002B00D19D
:4001000010BD064B002BFBD09847F9E700000000400600086C210010E8000008000000007047FFF7FDFF72B60F4C104DAC4209DA21686268A368043B02DBC858D050FAE71C
:400140000C34F3E70A490B4A0020521A02DD043A8850FCDC084809490860BFF34F8F00F005F900F01DF8FEE770210010882100103C060008140800080000000808ED00E04D
:40018000FEE7FEE700B504207146084202D0EFF3098001E0EFF30880043001F0B7F9FEE710B562B6014800F067F9FEE70000081010B5002000F026FF10BDC04670B5624949
:4001C000E0239B00CB580F2213401A00D0329200525807210A40032A05D0042A06D0002A12D15A4814E05A4A106811E01A00C0329200554952581F210A40112A06D0132A7C
:4002000004D0FA20C00103E0524801E080200002002B36D14C4BB222D2009A5801211140B125ED005A59120F032422405B591B0F1C4207D0444C63591B0F03242340012BDC
:4002400002D102E0012300E00023002B01D0002901D1032A4BD13C4BB022D2009D58AD03AD0B3D495958C904C90C9C58240E01231C40013401F054FC6843210001F050FCDC
:4002800035E0012B33D1304BC822D2009A5801251540C024E4001A59120F03210A401B591B0F194207D028490B591B0F03210B40012B02D102E0012300E00023002B01D049
:4002C000002D01D1032A12D11F4DC022D200AB587F210B40A958090A1F263140AC58240C3440584301F01CFC210001F019FCE0239B00154AD3581B0903221340D840144C68
:400300006060164B1D692D0AFC32154001351969090E013101F004FCA060290001F000FC0500E06020610E4BC0180E4901F0F8FB20750D4BE818FA21890001F0F1FBA061B3
:40034000C003E06170BDC0460000264000127A00C000000800366E0184050000000021403F420F0040420F00E703000010B5284801F0D0FB274CB022D200A3585B005B0831
:40038000A350E0218900635830208343635080235B04A350204A214BE250A02292010433E250FF221E4BE25001F0A2FBC0225200A35801218B43A35000F08CF9FFF7FEFEBE
:4003C000B0235B055B78002B04D0B0235B055B78DBB200E02123212B03D1124B0022DA605A60114C22008021042000F0B1FB2000103000F045FC0D4B1A685123D35C002B95
:4004000002D00B4800F0B2FC00F07AFA10BDC046B42000100000264001000200840500008C050000E00023405806000810080008881C00108023024AD35803201840704792
:400440000000214010B501F0F4F8084980228C58074B2340074C23438B508823034AD358DB06FAD501F0E9F810BDC04600002140FCFF00000100FA0570B50500830504D0FF
:40048000E821FF310F4801F013F801F0D2F80400FFF7D0FF032801D1FFF7D4FF0A4AB0239B00D55080215058084B03400848034353508823044AD358DB06FAD5200001F082
:4004C000BCF870BDBC1C001000002140FCFF00000300FA05FEE7C04630B587B06E49A022D2008B58032083438B506C4A116808688823CB58C3181868694908401860136827
:40050000186884241B59C01803681B021B0A80256D042B430360106805680359EB1818680140196013683E229A5C002A06D05A48E02189004258753CA24342503E229A5C20
:40054000002A06D05448E021890042583024A24342503E229B5C002B07D04F49E02292008B588020000603438B500021012000F07BFD0021022000F077FD0021032000F03C
:4005800073FD0021042000F06FFD0021002000F06BFD01A8434903000A0032CA32C312CA12C300F08FFD002802D00420FFF792FF39493D4A8B588020000603438B503B4856
:4005C00000F03CFE002802D00420FFF783FF324C374BE158374A0A40E250E158364A0A40E250E25880252D062A43E250043BE158324A0A40E250E158314A0A408021890186
:400600000A43E250E258802109020A43E2502D4A11682D4B0B40802149000B431360002001F048FA294BE2581543E550E158012291430A43E2506421002000F07FFF174BC6
:400640001B683F229A5C052A03D90021204A986881509A6874215B5AD2181168104B0B408C2189010B4313600C4B1A687323D15C703B8B4019007023D35C7220105C83403E
:400680000B43802109060B438021C9009068435093685B5807B030BD0000264010080008FF00FFFFD41C0010087F0000400D030004050000FEFCFFFFFFFF00FFFFF0FFFF62
:4006C000FF8FFFFF00002740FFFCFFFF0C050000140C000070B58AB09621002000F02EFF00F004FF002814D100F0F0FEC0235B00244AD358DB0705D41100234A8B585B005E
:400700005B088B501F49204A8B588020000603438B50012001F066F91C4A516C1C4B0B40E82189010B435364536C1B0AFF2213403A2B07D1154A516C164B0B40E821890131
:400740000B435364FFF7C8FE01AD134C2A002300143343CB43C243CB43C243CB43C229000E4800F0D5F82A002300383313CB13C213CB13C213CB13C22900094800F0C8F8A7
:400780000AB070BD000026400C05000000002740FF00FFFFFFC5FFDFD41C00108002324000033240214B984230D00ED8402831D004D800281FD010282AD031E080282BD0FE
:4007C00080235B00984229D02AE0194B984229D007D8A0231B0698420DD0164B984212D01EE0154B98420AD0144B984209D0144B984215D101E0002016E0124814E012486E
:4008000012E0124810E0A020C0030DE007480BE00F4809E00F4807E00F4805E0034803E00E4801E0A420C0037047C04606005200010000F0090000A0040000F0050000F094
:40084000030000F0010052000200520003005200010050000200500005005200FF00520070B5124B1A683123D35C002B04D1C421FF310F4800F01CFE0C4B1D682C00B42362
:40088000EB582A6A944663441B68002B0BDB094B1868FFF787FF6B6801229A6063689B68002BFBD100E0044870BDC04610080008301D0010E80700080200500010B50D4B05
:4008C0001861002805D002230370FD33437000234380094B1B6850229A5C002A08D051229B5C002B04D04F3A0449002000F0F8FA10BDC046E807000810080008610100084B
:4009000010B502481430FFF7D9FF10BDE807000870B505000C0000285DD000295DD0FF230A689A4303D099212D4800F0C1FDFF2322699A4303D09A21294800F0B9FDA36896
:400940005B0D03D09B21264800F0B2FD63685B0A03D09C21224800F0ABFDE3695B0F03D09D211F4800F0A4FD236A5B0F03D09E211B4800F09DFD1B4A11688B69EB1ADB0941
:4009800049691B01CB18216829607D211068415C6918E06808607E211068415C6918206908607F211068415C6918606908607C211068415C6918A06808606168A961116814
:4009C00080228A5CAD18A2692A60E2691A60226A5A60002002E0044800E0034870BDC046701D00101008000801005A0070B504000D000A4B1A68B423D3581B181B68002B56
:400A00000ADA0B0C03D00649064800F051FD2D042D0C6560002000E0034870BD10080008D5020000F01D001001008A0070B505000C000368002B01DA002300E0084B002B9F
:400A40000BD1EA60230C03D00649074800F030FD2404240CAC60002000E0014870BDC04601008A00BB020000F01D001070B505000C1E03D19921084800F01AFD074B1A6841
:400A8000B423D3585B191B68002B03DAEB682360002000E0024870BD301E00101008000801008A0070B504000D00234B1A683123D35C834236D9002936D00B68DB0635D1D9
:400AC0003123D35C984204D3C421FF311B4800F0EFFC194B1B681A6AB0215B5A5C431419174E34602B68DA080021686801F0A4F800212000FFF77AFF3468002D03D111491F
:400B00000E4800F0D5FC2A0000212000FFF78EFF00280DD10A4B18680021FFF767FF002808D108E0084806E0074804E0064802E0064800E0054870BD10080008F01D0010F1
:400B4000000800089303000003018A0001018A0010B50400002A17D1002915D1124B1A683123D35C984204D3C421FF310F4800F09FFC0D4B1B681A6AB0215B5A5C43141910
:400B80000B4B1C6000200EE0002A09D0002909D0074B59609A60191D2000FFF783FF02E0044800E0034810BD10080008F01D00100008000803018A00F0B583B00D001C4B30
:400BC0001B68DC68236883422DD947097B01C01A012383401E00002903D100F02AFD019001E000230193124B18680368002B01DA002300E00F4B002B0ED16368BF00DF19B9
:400C00003B68334203D0B3433B60002400E00A4C0021FFF7EBFE00E0084C002D04D1019800F00BFD00E0064C200003B0F0BDC0460008000801008A000201880003018800AD
:400C400004018A000A4B1B68DA68136883420BD943095901401A0121814052689B009B580B4203D0034802E0034800E003487047000800080101880004018A000001880050
:400C8000034B1B68002B01D1014B18607047C0460C080008F0B5474680B404000F0090461E002D4B1B68002B03D1B5212B4800F0FFFB294B1B682C2060431C18FF221500DF
:400CC00035402560330A13406360360CA660244B1A683123D35C9D4204D3C421FF31214800F0E6FB1E4B1A68B023D35A6B43116A8C466344236166683223D35C9E4204D3CC
:400D0000E021FF31174800F0D3FB154B1B681D6A80367601AD196561A668330C04D0FF214900104800F0C4FB330C03D00E490D4800F0BEFB3604330C1E43AE604346E36195
:400D400027620023A361069B002B02D000229B5EA38104BC9046F0BD0C080008701E001010080008F01D0010FF010000F0B58FB0041E03D15221294800F09AFB6368032B70
:400D800003D95421254800F093FBE36A002B03D15821224800F08CFB236B002B03D159211E4800F085FB07AA1300210061C961C321C921C302AD290023001433C1CBC1C123
:400DC00041CB41C10821535E0CAE3380144B1B6836215B5E07998C466344B370089B0D930B9B0A980096A26AE16AFFF753FF2B69E868002200920021FFF74CFF216B3000FA
:400E000000F0E8FA0023F25E002A05DB1F231A401E3B9340034A13600FB0F0BD701E00101008000800E100E0F8B505000F0016001C00002A03D1FD21224800F039FB224BE6
:400E40001B68002B03D1FE211E4800F031FB1E4B1B682C2128004843181879435918012213004D68AB401B044568AA4015000269002A20D08F69002F1FD11268002A01DA4A
:400E8000002200E0114A002A19D132681204120C134333600369DE6001238B614C6204692B0C03D00A490B4800F002FB2A04120CA260002004E0084802E0084800E0074895
:400EC000F8BDC046701E00100C08000801008A00BB020000F01D001004028A0007028A0070B504000D0016000F4B1B68002B04D1AF2149000D4800F0DBFA0B4B1B682C2074
:400F000060431C18236A002B04D1B1214900074800F0CEFAE369B34204D9236AB6009D51002000E0024870BD0C080008701E00100A028A0070B582B00400002301930028DB
:400F400004D1D221FF312D4800F0B2FA2369002B04D1E9214900294800F0AAFA6369002B04D1D421FF31254800F0A2FA236A002B04D1EA214900214800F09AFA6269D568C4
:400F80002B0C24D01B041360136820691C4B1A68B423D358C3181B68002B18DA01A9FFF765FD00280ED1019803681E0CFF221340E269934207D29B00226AD358002B02D017
:400FC000984700E0002631002069FFF70FFD2D042D0C0FD063691D601B68636A002B03D098470023636203E0A36A002B00D098470023A36163691B6802B070BD701E0010EC
:401000001008000810B50400084B1B68002B04D1B221FF31064800F04BFA044B1B682C2060431818FFF786FF10BDC0460C080008701E001010B50400094B1B689B6CC340C8
:40104000DB0703D4BE21074800F032FA044B1B681B691034A402E3580F20184010BDC04610080008B01E0010134B1A683C23D35C83421DD9042904D94B1EFF3B9BB2132B39
:4010800018D8FF290CD91F2319400C4A0300C0339B009950D03080000423835000200AE007231940D0308000044BC150002002E0034800E00248704710080008000026402D
:4010C00001004A0070B5041E03D14A494A4800F0EFF9B023DB00494AD358002B00DA87E0474B22689A4203D94649434800F0E0F923689B039B0BE279002A02D080225204E0
:4011000000E000221343B022D2003C498B50A2883D4B9A4204D98C218900374800F0C8F922893A4B9A4203D93949334800F0C0F9A388DB04D90C23891B04364A13400B4319
:40114000354A2E498B50A37A0F2B04D98E218900294800F0ADF9E37A0F2B03D92F49264800F0A6F9A289284B9A4203D92C49224800F09EF9A37A0F211940E27A1201FF2350
:4011800013400B43A289120226490A401343A27B1207C02189050A401343B122D20017498B50A379042B03D91F49134800F080F9228A164B9A4204D9912189000E4800F081
:4011C00077F90E4819494558194B1D40A3791B02E022D20013402B4343504558154B1D40238A1B040B4A13402B434350002000E0114870BD1F020000F01E0010000026400E
:40120000FFFF030029020000FF1F0000FF010000310200000000FF0184050000390200003A02000000FF1F00430200008C050000FFF8FFFFFFFF00FE03004A0070B50500D5
:401240003149324A8B588020000603438B502C0003E0012000F020F9013CB223DB002A4AD3585B0701D4002CF3D12749B122D2008858274B03408020800503438B50002DC5
:4012800001D0002C0CD02049B022D2008B588020000603438B5003E0012000F0FDF8013CB223DB00184AD358DB0701D4002CF3D1002D01D0002C08D01349B122D2008B58AE
:4012C000C020800503438B5013E00F4BB121C90058580F4A02408020800502435A5008395A58520052085A5008495A58520052085A50002D03D0002C03D0002002E000205E
:4013000000E0044870BDC046000026408C050000FFFFFFCF02004A0070B505000C001A4B1B6828229A5C012A15D1820807211000884327D19200AD1AED00FF20A8401B687B
:4013400020339A181168AC4023004B40184004004C40146016E03A229B5EDBB2994203D176210A4800F0A4F8074B1B681B680722154080221206154380229201944664445E
:40138000A400E55070BDC04610080008781F001070B504000D000B4B9A680B4B9A420CD1002904D13821FF31084800F081F81034054BA400E058E55003E01034A400044BBE
:4013C000E05870BD00ED00E000000008781F001000000010F0B5474680B482B0061E01914AD04368032B03D93221264800F060F80023F05E002804DBB178FFF78DFF00248F
:4014000000E0214C0023F15E7368002912DB88081E4FC0308000C55903221140C900FC3290468A4095439A01434613408B402B43C35116E089B20F220A40083A9208063208
:40144000920013481018476803221140C900FF252A008A4097439A012B0013408B403B4343600B4B9A680B4B9A4206D10023F05E0199FFF78DFF00E0034C200002B004BCC3
:401480009046F0BD781F00100100560000E100E000ED00E00000000810B5034B1B78584300F0BEF810BDC046D400000801BEFEE770B50D00044C18220100200000F0C4FB4F
:4014C000A5610020FFF7F2FF00060008054B802212069A649B6C002B01DB002000E002487047C0460000274003004600054B8022120198585B68FF221A4202D08023DB027D
:401500001843704700002640FEE7C04610B50A4B0268DA6142681A6282685A62C2689A620269DA6242691A6382695A63C2699A63FFF7EAFF10BDC04600060008F0B5474606
:4015400080B4002801D0192300E064238B429B415B42304D2C682268A826A45BA41822680327BA433B401A4322602C682268A45BA2181668284CA046264016602C68266879
:40158000AA229446A25A96193268BA43134333602A6813686546525BD3181A68444614401C60002805D010291BD921291BD8012024E0184B1B6855229A5C914215D9562216
:4015C0009A5C914213D957229A5C914211D958229A5C91420FD959229B5C99420DD804200CE000200AE0022008E0002006E0012004E0022002E0032000E00520054A126889
:40160000526813680F218B430343136004BC9046F0BDC04610080008FFFCFFFF000000000230800803D001300238FCD1C046C0467047EFF3108072B6704780F310887047C1
:4016400010B5B0235B059B899BB2002B04D0B0235B059B899BB201E080235B0080225200934215D1184C23681968683A9B58C9180B680F208343963A13430B6021680C68F4
:401680009C23CB58E318196881430A431A6019E00D4C2368196898229B58C918B02040050A4BC2580A4B13400A681343C022920013430B60226811689C23D358CB18054A0D
:4016C00082581A6010BDC0461008000848180000FFFCFFFF4418000030B5B0235B059B899BB2002B04D0B0235B059B899BB201E080235B0080225200934215D1184C236845
:401700001968683A9B58C9180B680F208343953A13430B6021680C689C23CB58E318196881430A431A6019E00D4D2B68196898229B58C918B0246405C12040012258094BB2
:4017400013400A681343C022920013430B602A6811689C23D358CB1822581A6030BDC04610080008FFFCFFFFB0235B059B899BB2002B04D0B0235B059B899BB201E0802376
:401780005B008022520093420DD1104B1B681A6898215B58D21811680D4B0B40C021C9010B43136011E0094B1B68196898229B58C918084BB0225205D258074B13400A6855
:4017C0001343C022920013430B60704710080008FF8FFFFF18180000FFFCFFFF30B5B0235B059B899BB2002B04D0B0235B059B899BB201E080235B008022520093420DD120
:40180000134B1B681A6898215B58D2181168114B0B408021C9010B43136018E00C4D2B68196898229B58C918B02464050A4822580A4B13400A681343C022920013430B6002
:401840002A6811689C23D358CB1822581A6030BD10080008FF8FFFFF4C180000FFFCFFFF10B5B0235B059B899BB2002B04D0B0235B059B899BB201E080235B0080225200C7
:40188000934217D10020FFF7D5FBB0235B055B78002B04D0B0235B055B78DBB200E02123222B03D8002803D1013004E0012002E0002000E0012010BDF8B50700012803D9E6
:4018C0003D493E48FFF7F4FDB0235B055B78002B04D0B0235B055B78DBB200E021239DB2B0235B059B899BB2002B04D0B0235B059E89B6B201E0802676000020FFF79AFBDD
:40190000002814D180235B009E4212D1222D12D82B4B1B685C682B4821582B4B19403B068022520413400B432350002404E0274C02E0264C00E0254C80235B009E4201D10B
:40194000222D03D880235B009E4232D01C4B1A683123D35C002B04D1C421FF311C48FFF7A7FD174B1B681D6A80235B009E4203D1002F05D0174A06E0002F03D0164A02E031
:40198000164A00E0164A01212800FFF74FF800280FD10B4B1A68B423D3585B191B68002BF7DBEB681B0E1B06A0221206934200D100242000F8BDC0464C0A0000BC1F0010CD
:4019C0001008000818F00000FFFFFFFE04004200301D0010010100300300000C010000300100000CF8B50500012804D9822109012948FFF75DFDFFF733FF002849D0FFF71D
:401A000018FE0700002D11D10021244B244AD150E823DB00B0225205D65CF6B20120FFF74BFF041E19D1FFF70BFE16E0B02252051C4BD0581A4B194958501B49565CF6B22B
:401A40001A481A581F218A4314390A431A500320FFF722FDFFF7C2FE0024002C15D11049124A8B581F20834306401E438E50002D02D1FFF779FE08E00720FFF70DFDFFF7C9
:401A80002BFE0020FFF718FF04003800FFF7D5FD00E0074C2000F8BDBC1F0010307F00000000264010180000410700001CFF000003004200042805D10B4A116804230B43AF
:401AC00013600FE0094B1A681168A023D358CB180006C022920410401860034A136804218B4313607047C04610E000E0100800080749C02252008B589B009B088020C00539
:401B000003438B508B588020000603438B50704700002640014B18607047C04610080008002243088B4274D303098B425FD3030A8B4244D3030B8B4228D3030C8B420DD30D
:401B4000FF22090212BA030C8B4202D31212090265D0030B8B4219D300E0090AC30B8B4201D3CB03C01A5241830B8B4201D38B03C01A5241430B8B4201D34B03C01A524120
:401B8000030B8B4201D30B03C01A5241C30A8B4201D3CB02C01A5241830A8B4201D38B02C01A5241430A8B4201D34B02C01A5241030A8B4201D30B02C01A5241CDD2C309F0
:401BC0008B4201D3CB01C01A524183098B4201D38B01C01A524143098B4201D34B01C01A524103098B4201D30B01C01A5241C3088B4201D3CB00C01A524183088B4201D349
:401C00008B00C01A524143088B4201D34B00C01A5241411A00D20146524110467047FFE701B5002000F006F802BDC0460029F7D076E770477047C04603008218934202D080
:401C400019700133FAE77047030030B5002A0DD00C7801335D1E013A2C700131002CF5D19A189A4202D01C700133FAE730BD0000F8B5C046F8BC08BC9E467047F8B5C0468B
:401C8000F8BC08BC9E4670470300000001000000010000000000000005036000040000000100000000000000010000000604600008000000C8070008B101001073797374C0
:401CC000656D5F70736F63365F636D30706C75732E630000F4010000140004010A000905080000006301000003000000000000000000000068000000000000000000000017
:401D0000000000001212000000000000000000000000000000000000000000BA0000000000000000000000000000000000001D1D47656E6572617465645F536F757263652C
:401D40005C50536F43365C70646C5C647269766572732F7065726970686572616C2F6970632F63795F6970635F6472762E68000047656E6572617465645F536F7572636579
:401D80005C50536F43365C70646C5C647269766572735C7065726970686572616C5C6770696F5C63795F6770696F2E630000000047656E6572617465645F536F757263657C
:401DC0005C50536F43365C70646C5C647269766572735C7065726970686572616C5C6770696F5C63795F6770696F2E680000000047656E6572617465645F536F7572636537
:401E00005C50536F43365C70646C5C647269766572735C7065726970686572616C5C6970635C63795F6970635F6472762E68000047656E6572617465645F536F7572636531
:401E40005C50536F43365C70646C5C647269766572735C7065726970686572616C5C6970635C63795F6970635F6472762E63000047656E6572617465645F536F75726365F6
:401E80005C50536F43365C70646C5C647269766572735C7065726970686572616C5C6970635C63795F6970635F706970652E630047656E6572617465645F536F7572636554
:401EC0005C50536F43365C70646C5C647269766572735C7065726970686572616C5C70726F745C63795F70726F742E630000000047656E6572617465645F536F757263650F
:401F00005C50536F43365C70646C5C647269766572735C7065726970686572616C5C737973636C6B5C63795F737973636C6B2E630000000047656E6572617465645F536FD5
:401F4000757263655C50536F43365C70646C5C647269766572735C7065726970686572616C5C737973636C6B5C63795F737973636C6B2E680000000047656E657261746566
:401F8000645F536F757263655C50536F43365C70646C5C647269766572735C7065726970686572616C5C737973696E745C63795F737973696E742E630000000047656E6530
:401FC00072617465645F536F757263655C50536F43365C70646C5C647269766572735C7065726970686572616C5C737973706D5C63795F737973706D2E630000000020403F
:4020000000002440000000400000000000002340000030400000314000009F40000022400000104002020202020202020210101D800017007500FF03060206360410200052
:40204000000000007FC0000000040000000000000019324B647D00804000080B100000000000FF012002001F00800004FF081018001000140018001C4044484C500000000F
:40208000081000000800000004000000041000000012000004210000002100000016000040114002C41300138013A013200000001C00000000002140000025400000014074
:4020C0000000344000002440000031400000324000001F410000234000001140010101010101010101101010800019005500F0000501053B04101C01010000000FC00000B3
:402100000004000001010101011D3A57789600082000101208000000001F00000010000F002000023F06080E00080009000A000B24282C303400000010000000900000002B
:4021400088000000080000008000000004F0000000F00000400200002005A000D00100018001A0012000000010000000000000000000001000000008C000000090210010A7
:40218000C0000008400500003C060008D80100000048E80100127A0000093D0000093D0000093D0004000000A00F00000000D007E9000010C10000100000000010B5000443
:4021C000400B27D0144B1A68146AB023D15ACA00531AE3181B68002BF4DA3E220F4B1A600F4A104B1A60104B0621A322D20099500E4A98509B58084B1A68106AB023D15AAE
:40220000CA00531AC31800225A60084B064AD358002BFADA10BDC04610080008040126401E1F000008012640000026401C05000010B54378FF2B20D100F01AFA04000F4B55
:402240001A683123D35C042B04D8C421FF310C4800F026FA094B1A68116AB023D35A9B00CB18DB685A68116801230B4313601368DB07FCD4200000F003FA10BD100800087C
:40228000301D0010F0B585B001900291544B1A683123D35C002B04D1C421FF31514800F0FFF94F4B1B681E6AB4229A58971950229B5C002B77D000F0D3F9050003283CD198
:4022C000474B1A683123D35C062B04D8C421FF31444800F0E5F9424B1968B023CB5A5A00D21853000A6A94466344B4228A58D3181B68002B23DB002000F0A2F93A4B9842E0
:402300001FD03A4B1A6900230021012000F0A0F9002803D0364C17E0013400E00024002000F08EF9304B984202D0324B9C42F3D9304B9C4207D92E4C06E0002404E02C4C0D
:4023400002E02B4C00E00024002C46D100F090F90390294B294AD358002B13DA234A0121300000F0A5F900280ED10298FFF726FF019B002B0AD03B68002BFCDB00F0A0F9AF
:40238000040004E01A4C02E0194C00E01C4C032D05D10121002000F07BF90028F9D1039800F06EF919E000F063F905000F4A0121300000F07DF9002809D1019B002B08D0B4
:4023C0003B68002BFCDB00F07BF9040002E0084C00E00B4C280000F053F9200005B0F0BD10080008301D001001018800E807000805005200EF4902001C0500000000264067
:4024000001005000F0B54F464646C0B4824B1A685468B0235B055B78002B04D0B0235B055B78DBB200E02123212B67D1B023D15ACB005B1A116A8C46634419680029F5DA1B
:40244000DD6802212943D960B023D15ACB005B1A116A8C466344D968C9073ED5D9680904090C8C4684271168D559A84641440968090A0904FF26360431400D00882611686A
:40248000894691598846C14449460968090A0906294365462943D9601168D359C9180A685E4B98461A4090252D012A430A605A4B99461A6813689C46925962441368414629
:4024C00019400B002B4313604B461A681568D15969180B689359EB181B684F4B1A68B021555AEB005B1B156AAC46634400255D60156A515ACA00531AEB185B68484A11694D
:4025000004230B431361012801D030BF00E020BF414B1A68B023D15ACB005B1A116A8C46634419680029F3DAB02149054978002904D0B02149054978C9B200E021212129AF
:4025400032D1D968C90722D510688421525880180468324A1440DB681B0C1B02FF2109020B40234303602C4B19688823C8580B689C46604403681A400D6AB023CC5AE1001D
:402580000B1BEB18DB681B0E1B021A430260224B1A68106AB023D15ACA00531AC318DA6802218A43DA6028E086235B00E358002B23D11C4807681C4BA321C9005E581B4A7D
:4025C000904615681A4A0260062058503E21424611600631174A9950164B134AD358002BFADA154A86235B00E2500E4B1F60A323DB000D4AD6500D4B1D60074B1A68106A85
:40260000B023D15ACA00531AC31800225A600CBC90469946F0BDC04610080008FF00FFFF00ED00E00801264000002640040126401E1F00001C050000AAAAAAAA000000004E
:4026400001B40248844601BC604700BF450C001001B40248844601BC604700BF290E001001B40248844601BC604700BF3504001001B40248844601BC604700BF3316001060
:4026800001B40248844601BC604700BF3B16001001B40248844601BC604700BFB90B001001B40248844601BC604700BFB114001001B40248844601BC604700BF2D0A001019
:4026C00001B40248844601BC604700BF6108001000000000000000000000000000000000000000000000000000000000000000000000000000000000000000000000000075
:402700000000000000000000000000000000000000000000000000000000000000000000000000000000000000000000000000000000000000000000000000000000000099
:402740000000000000000000000000000000000000000000000000000000000000000000000000000000000000000000000000000000000000000000000000000000000059
:402780000000000000000000000000000000000000000000000000000000000000000000000000000000000000000000000000000000000000000000000000000000000019
:4027C00000000000000000000000000000000000000000000000000000000000000000000000000000000000000000000000000000000000000000000000000000000000D9
:020000041008E2
:4000000000780408EB0208100D00000051030810510308105103081051030810000000000000000000000000000000004D0308104D030810000000004D0308104D030810DA
:400040004D0308104D0308104D0308104D0308104D0308104D0308104D0308104D0308104D0308104D0308104D0308104D0308104D0308104D0308104D0308104D03081000
:400080004D0308104D0308104D0308104D0308104D0308104D0308104D0308104D0308104D0308104D0308104D0308104D0308104D0308104D0308104D0308104D030810C0
:4000C0004D0308104D0308104D0308104D0308104D0308104D0308104D0308104D0308104D0308104D0308104D0308104D0308104D0308104D0308104D0308104D03081080
:400100004D0308104D0308104D0308104D0308104D0308104D0308104D0308104D0308104D0308104D0308104D0308104D0308104D0308104D0308104D0308104D0308103F
:400140004D0308104D0308104D0308104D0308104D0308104D0308104D0308104D0308104D0308104D0308104D0308104D0308104D0308104D0308104D0308104D030810FF
:400180004D0308104D0308104D0308104D0308104D0308104D0308104D0308104D0308104D0308104D0308104D0308104D0308104D0308104D0308104D0308104D030810BF
:4001C0004D0308104D0308104D0308104D0308104D0308104D0308104D0308104D0308104D0308104D0308104D0308104D0308104D0308104D0308104D0308104D0308107F
:400200004D0308104D0308104D0308104D0308104D0308104D0308104D0308104D0308104D0308104D0308104D0308104D0308104D0308104D0308104D0308104D0308103E
:400240004D0308104D0308104D0308104D0308104D0308104D0308104D0308104D0308104D0308104D0308104D0308104D0308104D0308104D0308104D0308104D030810FE
:400280004D0308104D0308104D03081010B5054C237833B9044B13B10448AFF300800123237010BD8449020800000000B44F0810084B10B51BB108490848AFF3008008487B
:4002C000036803B910BD074B002BFBD0BDE81040184700BF0000000088490208B44F081050430208000000007047FFF7FDFF72B6104C114DAC4209DA21686268A368043B23
:40030000A2BFC858D050FAE70C34F3E70B490C4A00209142BCBF41F8040BFAE709480A490860BFF34F8F00F033F900F00DF900F01DF8FEE7B84F0810D04F0810844902081B
:40034000D44B02080040020808ED00E0FEE7FEE700B504207146084202D0EFF3098001E0EFF30880043001F0BFF9FEE710B562B600F046F90A4B1868002302221946406818
:4003800002F0A0FA002407E0064802F083FA4FF47A7001F07FF90134632CF5DDFEE700BF0C430208E449081008B5012000F00CFD08BD00BF704700BF5C4AD2F8803303F094
:4003C0000F0303F1D00152F8212002F00702032A04D0042A05D092B9554914E0554A116811E003F1C002514951F8222002F01F02112A06D0132A04D04FF4FA4103E04E49AE
:4004000001E04FF400418BBB484BD3F8902502F00100D3F88825C2F30172D3F8883513F0405F07D0414BD3F88835C3F30173012B02D102E0012300E0002303B108B9032A82
:4004400046D13A48D0F88025C2F31103D0F88425C2F30C02D0F88005C0F300600130B1FBF2F202FB03F2B2FBF0F131E0012B2FD12E4BD3F8402602F00100D3F80026C2F358
:400480000172D3F8003613F0405F07D0274BD3F80036C3F30173012B02D102E0012300E0002303B108B9032A12D12048D0F8002602F07F02D0F80036C3F30423D0F80006B3
:4004C000C0F3044002FB01F2B2FBF3F2B2FBF0F1164BD3F88033C3F3011321FA03F215494A601648D0F89030C3F3072301330069000E0130B2FBF0F08860B2FBF3F3CB605F
:400500000B6103F5742202F23F220D48A0FB0202C2F387420A7503F2E7330A4AA2FB03239B098B61DB03CB61704700BF0000264000127A008C42020800366E010000214075
:4005400083DE1B43D34D621008B50D4801F030F9FFF730FFFFF730FF00221146042000F0FBF9084800F08EFA074B1B6893F8513013B1064800F0F6FA00F038F908BD00BFF3
:40058000384D0810A0490208CC4B0208FC49081008B501F006F9074AD2F8883043F47003C2F88830BFF34F8FBFF36F8F01F0FDF808BD00BF00ED00E010B504462146034859
:4005C00000F042FC0028F9D010BD00BF00006640054BD3F80833C3F30803002BF8D0024BD3F84003704700BF0000664008B50249024800F07DFF08BD944B02080000664017
:4006000008B5114B1B785BB9104A1149114800F04BFD1149114801F003F801220A4B1A700E4BB3F90030002B08DB590903F01F03012202FA03F30A4A42F82130054A13689C
:4006400043F00043136008BD204B0208944B0208384A081000006640ED050810304A081000E100E01F4B98422DD00CD840282ED003D8E8B1102828D02FE0802829D0B0F54D
:40068000807F28D029E0184B984228D006D8B0F1204F0DD0154B984212D01EE0144B98420AD00133984209D0023B984215D101E0002070470F4870470F4870470F48704747
:4006C0004FF4A0007047074870470D4870470D4870470D487047034870470C4870474FF4A400704706005200010000F0090000A0040000F0010052000200520003005200A9
:40070000010050000200500005005200FF00520038B5124B1B6893F83130012B04D840F2C3110F4800F0D0FF0C4B1D682A6AB5F8B03013442C46D5F8B420D358002B0BDBEE
:40074000084B1868FFF78EFF6B6801229A6063689B68002BFBD138BD034838BDCC4B0208784A0810244B0208020050001A4B186128B102230370FF23437000234380174B07
:400780001B6893F850202AB300B583B0B3F93830ADF80030002301931149684600F040FFBDF90030002B08DB590903F01F03012202FA03F30B4A42F82130084B1B6893F85E
:4007C000513023B102220849012000F077FA03B05DF804FB704700BF244B0208CC4B0208C143020800E100E07944020808B50248FFF7BCFF08BD00BF384B020838B50B4BF4
:400800001B68D3F8B4301B58002B0DDA0D4604460B0C1B0423B140F2D521054800F054FFA9B26160002038BD024838BDCC4B0208B84A081001008A0038B50368002B01DA0E
:40084000002300E0094B73B90D460446C2600B0C1B0423B140F2BB21054800F035FFA9B2A160002038BD014838BD00BF01008A00B84A081038B504460D4619B99921084834
:4008800000F022FF074B1B68D3F8B4301B59002B03DAE3682B60002038BD034838BD00BFF84A0810CC4B020801008A00254B1B6893F8313083423AD900293AD00B6813F0D7
:4008C0001F0F38D170B50D4604461E4B1B6893F83130984204D340F2C3111B4800F0F4FE184B1B68186AB3F8B03004FB0304174E34602A68D2080021686801F051FB00217E
:400900002046FFF77BFF346825B940F293310E4800F0DAFE2A4600212046FFF78DFF60B900210A4B1868FFF769FF40B970BD084870470748704706487047064870BD05486D
:4009400070BD00BFCC4B0208B84A08103C4B020803018A0001018A0010B504461346B2B9A9B9124B1B6893F83130984204D340F2C3110F4800F0A8FE0C4B1B681A6AB3F8F7
:40098000B03004FB03240B4B1C60002010BD43B149B1084A51609360111D2046FFF786FF10BD054810BD044810BD00BFCC4B0208B84A08103C4B020803018A002DE9F0411F
:4009C0001B4B1B68DC68236883422CD90D464609A0EB4610012303FA00F819B900F0E1FE074600E00027124B18680368002B01DA002300E00F4B83B9626852F8263018EA91
:400A0000030F05D023EA080342F82630002400E0094C0021FFF7F2FE00E0084C25B9384600F0C3FE00E0064C2046BDE8F08100BF3C4B020801008A000201880003018800E6
:400A400004018A000B4B1B68DB681A6882420CD94109A0EB4110012202FA00F05B6853F82130184203D004487047044870470448704700BF3C4B02080101880004018A006D
:400A800000018800024B1B680BB9014B18607047484B02082DE9F8430446884691461D46089F2C4B1B681BB9B5212B4800F00CFE284B1B682C2000FB04F01C18EEB21E5033
:400AC000C5F3072363602D0CA560244B1B6893F831309E4204D340F2C311214800F0F4FD1E4B1B68196AB3F8B02006FB02162661666893F832309E4204D340F2DF111848B0
:400B000000F0E2FD154B1B681D6A803605EB46156561A668330C1B0423B14FF4FF71104800F0D2FD330C1B0423B140F2FF110C4800F0CAFDB3B243EA0646AE60C4F81C90D8
:400B4000C4F820800023A36117B1B7F90030A381BDE8F883484B0208384B0810CC4B0208B84A0810F0B58FB0044618B95221274800F0AAFDA369072B03D95621234800F02F
:400B8000A3FDE36A1BB95821204800F09DFD236B1BB959211D4800F097FD07AD04F114060FCE0FC537682F6002AD26460FCE0FC533682B60164B1B68B3F93620079B1344D1
:400BC000ADF83030089B0D93A26AE16A0CAD00953B460A98FFF75EFF00210091069B0A460598FFF757FF216B284600F019FDBDF93030002B08DB590903F01F03012202FA4C
:400C000003F3044A42F821300FB0F0BD384B0810CC4B020800E100E0F8B506460F461D4614461AB9FD211F4800F04EFD1E4B1B681BB9FE211B4800F047FD1B4B1B682C21B2
:400C400001FB063001FB07314B68012202FA03F31B04466802FA06F60269EAB18F69EFB91268002A01DA002200E0104AC2B92288134323600369DC6001238B614D6204692E
:400C8000330C1B0423B140F2BB21094800F01CFDB2B2A2600020F8BD0648F8BD0648F8BD0548F8BD384B0810484B020801008A00B84A081004028A0007028A00F8B505465F
:400CC0000F4616460E4B1B6823B94FF4AF710D4800F0FAFC0A4B1B682C2404FB0534236A23B94FF4B171074800F0EEFCE369B34204D9236A43F826700020F8BD0248F8BD46
:400D0000484B0208384B08100A028A0070B582B000230193044620B940F2D111284800F0D3FC236923B94FF4E971254800F0CCFC636923B940F2D311214800F0C5FC236AE2
:400D400023B94FF4EA711E4800F0BEFC6369DD682A0C20D012041A601B682069194B1B68D3F8B430C358002B15DA01A9FFF782FD60B9019803681E0CDBB2E269934206D260
:400D8000226A52F8233013B1984700E0002631462069FFF733FDADB275B16369ADB21D601B68636A1BB198470023636202E0A36A03B198470023A36163691B6802B070BD54
:400DC000384B0810CC4B020810B50446074B1B6823B940F2B111064800F076FC034B1B682C2000FB0430FFF791FF10BD484B0208384B081010B4D0F8003303F00F03072B06
:400E000006D900230DE0D0F84043CC54013300E000239342F7D306E0D0F8404321F8134001339342F8D35DF8044B704710B51446D0F80833C3F308039A4200D31C4622465A
:400E4000FFF7D8FF204610BD036813F4006F01D0802200E04022D0F80832C3F30803934203D0C0F84012012070470020704700BF10B4D0F8003203F00F03072B06D9002302
:400E80000DE0CC5CC0F84042013300E000239342F7D306E031F81340C0F8404201339342F8D35DF8044B704710B51446036813F4006F01D0802200E04022D0F80832C3F3D5
:400EC0000803D31AA34200D81C462246FFF7D0FF204610BD2DE9F84305460C46036813F4006F02D04FF0800801E04FF04008D5F8007207F00F07A26A012A19D9D4F82490B6
:400F0000E262561EB9F1000F00D026B940F27351254800F0D9FB324649462846FFF7C4FFA36A1B1AA362072F00D9400048446062D5F80832C3F30803984533D0A36A012B77
:400F400030D10023A362072F02D8636A1E7801E0636A1E8800F025FCC5F840624FF40073C5F8803FD5F8803F00F01FFCD5F8883F23F4007222F0010242F4007623F4EE6302
:400F800023F0030323B140F22A41084800F09CFBC5F8886F236843F002032360236B0BB101209847BDE8F883784B0810B84B08102DE9F04105460C46036813F4006F01D0E0
:400FC000802600E040267608A769D4F81C8017B1B8F1000F04D14FF49961314800F074FB424639462846FFF721FF236A03442362E3691B1AE36173BBA368FBB1E3689E42EC
:4010000001D8013E00E05E1E2B6813F4006F01D0802300E040239E4204D34FF42071214800F052FBD5F8043323F0FF03F6B21E43C5F804630123C5F8C83F02E00023C5F85B
:40104000C83F636823F001036360236B33B304209847BDE8F081A169D5F8002302F00F02072A00D940000844A0619E4216D95C1E2B6813F4006F01D0802300E040239C42BC
:4010800004D34FF42071074800F01EFBD5F8043323F0FF02E3B21343C5F80433BDE8F081784B0810B84B0810002800F0A48170B50546002900F0A18116460C460B78022BE4
:4010C00003D93F21A24800F0FFFA637B023BDBB2062B03D940219E4800F0F6FAA37B3BB1022B05D0032B03D04121994800F0ECFA94F82130012B03D94221954800F0E4FAEC
:4011000094F82830012B03D94321914800F0DCFA2378012B06D86368083B082B94BF0023012307E0A37F2BB16368013B062B94BF002301231BB14521854800F0C5FAA368D0
:40114000053B042B03D94621814800F0BDFA6369FF2B03D947217E4800F0B6FAA369FF2B03D948217A4800F0AFFAA37C6BB1237833B9A368092B05D1A37B2BB1012304E0FE
:40118000012302E0012300E000231BB14A21704800F09AFA636B23F4366323F00D031BB14C216B4800F090FAE36B23F4EE6323F003031BB14D21664800F086FA2378022B99
:4011C00001D1A37F13B16268013A00E00022237F13B14FF4803100E00021A368082B02D84FF4006300E000230B4302F00F02134343F000732B60226B2B6813F4006F01D0D5
:40120000802300E040239A4203D36221504800F05BFAA26B2B6813F4006F01D0802300E040239A4203D36321494800F04DFA626A2B6813F4006F01D0802300E040239A4283
:4012400003D36421424800F03FFA23781B0603F040732B64637F0BB1402200E00022A37C13B14FF4806300E000231343227C12B14FF4807200E000221343627C12B14FF439
:40128000007200E000221A43E36A013B1B0403F470231343627B013A02F007021343A27B120102F030021343AB64237B13B14FF4807200E00022E37B23B92378022B03D144
:4012C000012302E0012300E0002313B14FF4007300E000231A43A368013B03F00F031343C5F80033227DA3691B0403F47F031343C5F81033E26AD5F8003303F00F03033335
:401300009A4201D3102A03D97A21114800F0DCF9E37F23B12378012B03D0002302E0002300E0012313B14FF4807200E00022637B013B03F007031A43A37B1B0103F0300363
:4013400013436B64237B2BB14FF4807203E000BFFC4B08100022A368013B03F00F0313432278012A02D14FF4803200E000221343C5F8003294F83030C5F8043394F8203044
:4013800013B14FF0007200E0002294F82130012B02D14FF0807300E00023134394F82820012A02D14FF4803200E00022134394F8242013432B6594F83830C5F80432636BC5
:4013C00023F4926323F002031B051B0DC5F8C83FE36B23F08C035B055B0DC5F8883F76B1002070603060B060F0603062F0623063044B736370BD04487047034870BD002016
:4014000070BD00BFEFCDAB000160AA000B694A69934202D34869181A7047CA694869101A184470472DE9F04107460D46036813F4006F02D04FF0800801E04FF040084FEAC0
:401440005808D7F80863C6F308062C6926E00134EB689C4200D100246B699C420FD12B6B0BB1082098476B699C4208D10023C7F8C83F0CB1013C13E0EC68013C10E0D7F879
:401480004023D7F8003303F00F03072B02D8AB681A5502E0AB6823F81420013E002ED6D12C61EC6829463846FFF7B0FF201A804519D908B1441E00E000243B6813F4006F40
:4014C00001D0802300E040239C4204D34FF42071064800F0F9F8D7F8040320F0FF03E0B21843C7F80403BDE8F08100BFB84B081038B504460D46D0F8003E13F0080F35D043
:40150000D0F8CC3F13F448730AD04A681A434A60C0F8C03FD0F8C03F0B6B0BB110209847D4F8CC3F13F4006F09D06B6843F400636B604FF40063C4F8C03FD4F8C03FD4F86E
:40154000CC3F13F0010F11D0EB6923B129462046FFF72EFD05E0AB681BB129462046FFF761FF0123C4F8C03FD4F8C03FD4F8003E13F0040F2ED0D4F88C3F13F4A0630AD01C
:401580002A681A432A60C4F8803FD4F8803F2B6B0BB120209847D4F88C3F13F0010F08D029462046FFF796FC0123C4F8803FD4F8803FD4F88C3F13F4007F0BD00022C4F85C
:4015C000882F2B6823F001032B60EA622B6B0BB10220984738BD00BF38B50D4B9A680D4B9A420FD10D46044621B940F237110A4800F06AF804F11003064A52F8230042F8BD
:40160000235038BD1030054B53F8200038BD00BF00ED00E0004002083C4C08100000081048B338B504460D464368072B03D93221134800F049F8B4F900306268002B08DBF2
:401640005201D2B203F1604303F5614383F8002305E003F00F035201D2B20A49CA540A4B9A680A4B9A4208D12946B4F90000FFF7B3FF002038BD06487047002038BD00BF7D
:401680003C4C081014ED00E000ED00E0004002080100560010B5044605E0084B186800F077F8A4F50044B4F5004FF6D8044B186800FB04F000F06CF810BD00BFA8420208E0
:4016C000A442020801BEFEE738B50D46044C18220146204601F0A8F9A5610020FFF7F2FFF0480208FEE700BF08B50268254BDA6142681A6282685A62C2689A620269DA62EF
:4017000042691A6382695A63C2699A631E4A916AD963D16A1964516A5964516B9964926BDA64F1EE103A13F0900F27D0026A154B1A65426A5A65826A9A65C26ADA65026BB3
:401740001A66426B5A66826B9A66C26BDA66026C1A67426C5A67826C9A67C26CDA67026DC3F88020426DC3F88420826DC3F88820C26DC3F88C20026EC3F89020FFF7B2FF24
:4017800008BD00BFF048020800ED00E0000000000230800803D001300238FCD100BF00BF7047EFF3108072B6704780F310887047014B1860704700BFCC4B020870B539B917
:4017C00000240AE015F8010BFEF7F6FE013402E016460D460024B442F4DB204670BD00BF70B561B900240FE0FEF7F2FEC0B2287001340A2808D00D2806D0013502E01646D9
:401800000D460024B442EFDB204670BD81F0004102E000BF83F0004330B54FEA41044FEA430594EA050F08BF90EA020F1FBF54EA000C55EA020C7FEA645C7FEA655C00F055
:40184000E2804FEA5454D4EB5555B8BF6D420CDD2C4480EA020281EA030382EA000083EA010180EA020281EA0303362D88BF30BD11F0004F4FEA01314FF4801C4CEA1131FB
:4018800002D0404261EB410113F0004F4FEA03334CEA133302D0524263EB430394EA050F00F0A780A4F10104D5F1200E0DDB02FA0EFC22FA05F2801841F1000103FA0EF20F
:4018C000801843FA05F359410EE0A5F120050EF1200E012A03FA0EFC28BF4CF0020C43FA05F3C01851EBE37101F0004507D54FF0000EDCF1000C7EEB00006EEB0101B1F509
:40190000801F1BD3B1F5001F0CD349085FEA30004FEA3C0C04F101044FEA445212F5800F80F09A80BCF1004F08BF5FEA500C50F1000041EB045141EA050130BD5FEA4C0C59
:40194000404141EB010111F4801FA4F10104E9D191F0000F04BF01460020B1FA81F308BF2033A3F10B03B3F120020CDA0C3208DD02F1140CC2F10C0201FA0CF021FA02F183
:401980000CE002F11402D8BFC2F1200C01FA02F120FA0CFCDCBF41EA0C019040E41AA2BF01EB0451294330BD6FEA04041F3C1CDA0C340EDC04F11404C4F1200220FA04F042
:4019C00001FA02F340EA030021FA04F345EA030130BDC4F10C04C4F1200220FA02F001FA04F340EA0300294630BD21FA04F0294630BD94F0000F83F4801306BF81F48011A2
:401A00000134013D4EE77FEA645C18BF7FEA655C29D094EA050F08BF90EA020F05D054EA000C04BF1946104630BD91EA030F1EBF0021002030BD5FEA545C05D14000494142
:401A400028BF41F0004130BD14F580043CBF01F5801130BD01F0004545F0FE4141F470014FF0000030BD7FEA645C1ABF194610467FEA655C1CBF0B46024650EA013406BF1F
:401A800052EA033591EA030F41F4002130BD00BF90F0000F04BF0021704730B54FF4806404F132044FF000054FF0000150E700BF90F0000F04BF0021704730B54FF4806412
:401AC00004F1320410F0004548BF40424FF000013EE700BF42004FEAE2014FEA31014FEA02701FBF12F07F4393F07F4F81F06051704792F0000F14BF93F07F4F704730B538
:401B00004FF4607401F0004521F0004120E700BF50EA010208BF704730B54FF000050AE050EA010208BF704730B511F0004502D5404261EB41014FF4806404F132045FEA0A
:401B4000915C3FF4DCAE4FF003025FEADC0C18BF03325FEADC0C18BF033202EBDC02C2F1200300FA03FC20FA02F001FA03FE40EA0E0021FA02F11444C1E600BF70B54FF0F3
:401B8000FF0C4CF4E06C1CEA11541DBF1CEA135594EA0C0F95EA0C0F00F0DEF82C4481EA030621EA4C5123EA4C5350EA013518BF52EA033541F4801143F4801338D0A0FBBA
:401BC00002CE4FF00005E1FB02E506F00042E0FB03E54FF00006E1FB03569CF0000F18BF4EF0010EA4F1FF04B6F5007F64F5407404D25FEA4E0E6D4146EB060642EAC62192
:401C000041EA55514FEAC52040EA5E504FEACE2EB4F1FD0C88BFBCF5E06F1ED8BEF1004F08BF5FEA500E50F1000041EB045170BD06F0004646EA010140EA020081EA030159
:401C4000B4EB5C04C2BFD4EB0C0541EA045170BD41F480114FF0000E013C00F3AB8014F1360FDEBF002001F0004170BDC4F10004203C35DA0C341BDC04F11404C4F1200551
:401C800000FA05F320FA04F001FA05F240EA020001F0004221F0004110EBD37021FA04F642EB06015EEA430E08BF20EAD37070BDC4F10C04C4F1200500FA04F320FA05F081
:401CC00001FA04F240EA020001F0004110EBD37041F100015EEA430E08BF20EAD37070BDC4F1200500FA05F24EEA020E20FA04F301FA05F243EA020321FA04F001F00041C1
:401D000021FA04F220EA020000EBD3705EEA430E08BF20EAD37070BD94F0000F0FD101F00046400041EB010111F4801F08BF013CF7D041EA060195F0000F18BF704703F0B0
:401D40000046520043EB030313F4801F08BF013DF7D043EA0603704794EA0C0F0CEA135518BF95EA0C0F0CD050EA410618BF52EA4306D1D181EA030101F000414FF0000095
:401D800070BD50EA410606BF1046194652EA430619D094EA0C0F02D150EA013613D195EA0C0F05D152EA03361CBF104619460AD181EA030101F0004141F0FE4141F47001C5
:401DC0004FF0000070BD41F0FE4141F4780170BD70B54FF0FF0C4CF4E06C1CEA11541DBF1CEA135594EA0C0F95EA0C0F00F0A7F8A4EB050481EA030E52EA03354FEA0131C7
:401E000000F088804FEA03334FF0805545EA131343EA12634FEA022245EA111545EA10654FEA00260EF000419D4208BF964244F1FD0404F5407402D25B084FEA3202B61A67
:401E400065EB03055B084FEA32024FF480104FF4002CB6EB020E75EB030E22BFB61A754640EA0C005B084FEA3202B6EB020E75EB030E22BFB61A754640EA5C005B084FEAB4
:401E80003202B6EB020E75EB030E22BFB61A754640EA9C005B084FEA3202B6EB020E75EB030E22BFB61A754640EADC0055EA060E18D04FEA051545EA16754FEA06164FEA60
:401EC000C30343EA52734FEAC2025FEA1C1CC0D111F4801F0BD141EA00014FF000004FF0004CB6E711F4801F04BF01430020B4F1FD0C88BFBCF5E06F3FF6AFAEB5EB030C07
:401F000004BFB6EB020C5FEA500C50F1000041EB045170BD0EF0004E4EEA113114EB5C04C2BFD4EB0C0541EA045170BD41F480114FF0000E013C90E645EA060E8DE60CEA06
:401F4000135594EA0C0F08BF95EA0C0F3FF43BAF94EA0C0F0AD150EA01347FF434AF95EA0C0F7FF425AF104619462CE795EA0C0F06D152EA03353FF4FDAE1046194622E77F
:401F800050EA410618BF52EA43067FF4C5AE50EA41047FF40DAF52EA43057FF4EBAE12E702440346934202D003F8011BFAE770472DE9F04788B0002B149F1299109EDDF8B1
:401FC0004CA01D4627F02007BBBF03F100431D4600232D231446B8BF1446462F0B7003D0452F03D1013601E0032300E0022307AA049206AA03928DE8480422462B4600F03E
:40200000B7FD472F804602D1119BDB0728D5462F08EB060911D198F80030302B0AD1002200232046294602F033FC18B9C6F10106CAF80060DAF8003099440022002320468D
:40204000294602F025FC08B9302202E0CDF81C9006E0079B994503D9591C07911A70F8E7079B159AC8EB03034046136008B0BDE8F08773B503460029B8BF494203F8022B25
:40208000B4BF2D222B220929427019DD0DF1070216460A2591FBF5F405FB14113031092C02F8011D2146F5DC3031541E02F8011CB4421A460AD214F8012B03F8012BF7E7CC
:4020C00030241A46214402F8024B5970101A02B070BD00002DE9F04F91B00C46DDF8688016461F46054601F05BFC03680893184600F092FC00230E93D8F80030099007333C
:4021000023F0070303F1080294F818A0D4F800B0C8F80020D3E90023C4E91223D4E9128929F000430B93CDF828804FF0FF32A74BDDE90A0102F0DEFBA0B94FF0FF32A34BAF
:40214000DDE90A0102F0B8FB60B9002200234046494602F0A7FB10B12D2384F843309C4B9C4A0AE042464B464046494602F0C2FB002800F09281984B984ABAF1470F8CBF12
:4021800090469846032323612BF0040323604FF000093DE0BAF1670F00F08A81BAF1470F00F08681236000210DF133020193636805900292009342464B460691CDF810A08C
:4021C000CDF80CE02846FFF7F3FE0AF0DF03472B804600F08481BAF1650F0D9900F28D810139524604F150000D91FFF742FF0E9A8318012A8146236100F37C812268D10714
:4022000000F178819DF8333013B12D2384F84330009733460FAA2146284600F09FF9013002D14FF0FF3096E123685A0501D4236965E0BAF1650F40F2D58000220023D4E972
:40224000120102F025FB78B30123654A31462846B8470130E5D00E9B0D9A9A420BDB2368D80708D423689B0740F111814FF0000804F1190906E1099B089A31462846B847BA
:402280000130CED04FF0000804F11A090E9B013B9845E7DA01234A4631462846B8470130BFD008F10108F1E70D9B002B29DC01234B4A31462846B8470130B2D00D9B23B98F
:4022C0000E9B13B92368D907CCD5099B089A31462846B8470130A4D04FF0000904F11A0A0D9B5B42994509DA0123524631462846B847013095D009F10109F1E70E9B4246E4
:40230000A7E00E9AA36D9A42A8BF1A46002A914606DC4FF0000A29EAE97904F11A0B11E01346314642462846B8470130F1D178E701235A4631462846B84701303FF471AFCC
:402340000AF1010AA36DC9EB03029245F0DB08EB03090D9A0E9B9A420FDB2368DA070CD40E9B0D9A9844C9EB08089B1A9845A8BF9846B8F1000F08DC0FE0099B089A31467C
:402380002846B8470130EBD14BE743464A4631462846B84701303FF444AF4FF0000928EAE87804F11A0A09E00123524631462846B84701303FF435AF09F101090D9A0E9B45
:4023C0009B1AC8EB03039945EEDB4BE7FFFFEF7FF84D0810FC4D0810004E0810044E0810084E08100E9A012A01DCDB0738D50123424631462846B84701303FF412AF099B36
:40240000089A31462846B84701303FF40AAF00220023D4E9120102F03BFA20B14FF0000804F11A0A0EE00E9B08F10102013B19E00123524631462846B84701303FF4F1AE21
:4024400008F101080E9B013B9845F1DB4B4604F1500231462846B84701307FF403AFE0E60123424631462846B8470130EED1D8E601234A4631462846B84701303FF4D1AE3B
:4024800008F10108E3680F9A9B1A9845F0DBE0680F9B9842B8BF18465DE06268531C0EA84BF480630DF1340E7FF474AE062201E012B90122626075E6002106910DF1330107
:4024C0008DE80C00236005904246CDF810A0CDF80CE002914B462846FFF76AFD80460D9BD81C02DB626893421DDDAAF1020A5FFA8AFA70E60133236184E6BAF1660F14D1CD
:402500000029636807DD216113B92268D2071DD501330B4419E013B92268D00701D5023313E0012311E04FF0670A0D9B0E9A934205DB22682361D10708D5013305E0002BA8
:40254000D4BFC3F102030123134423610D9BA3654FF0000956E611B0BDE8F08F2DE9F04791461F460A698B68DDF820809342B8BF1346C9F8003091F8432006460C4612B1B0
:402580000133C9F800302368990642BFD9F800300233C9F80030256815F0060510D104F1190A07E00123524639463046C04701301AD00135E368D9F800209B1A9D42F1DB82
:4025C00094F843302268003318BF012392060FD5E1185A1C302081F84300224494F8451082F84310023303E04FF0FF30BDE8F08704F1430239463046C0470130F4D02268C2
:40260000D9F80050E36802F00602042A08BF5D1B2269A3680CBF25EAE57500259342C4BF9B1AED184FF000091A344D4509D00123224639463046C0470130D5D009F1010963
:40264000F3E70020BDE8F0872DE9F04317460A7E85B06E2A984606460C460C9B01F1430E00F0AE8011D8632A22D009D8002A00F0BB80582A40F0CA8081F84520834955E04C
:40268000642A1ED0692A1CD0C0E0732A00F0B08009D86F2A2ED0702A40F0B8800A6842F020020A603EE0752A24D0782A3AD0ADE01A6801F14205111D1960136884F8423063
:4026C000A8E021681A6811F0800F02D0111D196008E011F0400F02F10401196002D0B2F9003000E01368002B3CDA2D225B4284F8432037E021681A6811F0800F02D0111DCF
:40270000196007E011F0400F02F10401196001D0138800E01368227E5C496F2A14BF0A2208221BE078225A4984F845202268186812F0800F00F104051D6003D1550601D57A
:40274000038800E00368D00744BF42F0200222601BB9226822F0200222601022002084F8430001E049490A226568A560002D08DB206820F0040020602BB9002D7DD17546F7
:402780000CE0002B79D07546B3FBF2F002FB1033CB5C05F8013D03460028F5D1082A0BD12368DA0708D5236962689A42DEBF302305F8013C05F1FF35C5EB0E0323612EE065
:4027C00008681A68496910F0800F03D0101D1860136808E010F0400F02F104001860136801D0198000E0196000232361754616E01A68111D1960156862680021284601F087
:402800003FF908B1401B6060636804E004F1420584F8422001232361002384F84330CDF800803B4603AA21463046FFF797FE013002D14FF0FF3026E023692A4639463046C5
:40284000C0470130F5D023689B0710D5002504F1190907E001234A4639463046C0470130E7D00135E368039A9B1A9D42F2DBE068039B9842B8BF184605E00B7884F8423024
:4028800004F142058AE705B0BDE8F0830A4E08101B4E08100FB40A4B13B51C6824B1A36913B9204600F0F2FF05AB049AA1680193204601F0FBFC02B0BDE8104004B070470A
:4028C0000C4302082DE9F7431D464F4B1E6804460F46904626B1B36913B9304600F0D6FF4A4B9C4201D1746808E0494B9C4201D1B46803E0474B9C4208BFF468B8F1020FA4
:4029000004D0B8F1010F79D8002D77DB2146304600F052FF616B41B104F14403994202D0304601F0EDFB002363630023A3616360A3891B0603D52169304601F0E1FBA38935
:4029400023F44A6323F00303B8F1020FA3811ED001AB6A462146304601F026F8A3891843A0810DB9009D00E02FBB284601F07CF80746D0B9DDF80090A94502D14FF0FF3054
:4029800006E0484601F070F8074678B9F6E70020A38943F00203A3810023A36004F1470323602361012363612AE0A946A38943F08003A3814D46B36913B9304600F066FFAE
:4029C000B8F1010F08BFA389276004BF43F00103A381A389276103F0080080B2656158B113F001034FF000001DBF6D42A060A561A56008BF184603E0A06001E04FF0FF30A3
:402A000003B0BDE8F08300BF0C4302083C4E08105C4E08107C4E0810034613F8012B002AFBD1181A0138704710B5034642B111F8014B03F8014B013A002CF7D11A4400E0CB
:402A400010BD934202D003F8014BFAE710BD2DE9F74F03690C699C42804600F38380013C01F114074FEA840E00F1140657F8245006EB0E030193013556F82430B3FBF5F52D
:402A800007EB0E09002D39D04FF0000A3846B446D34650F8042B93B205FB03A34FEA134A9BB2C3EB0B03120CBCF800B005FB02A213FA8BF34FEA124A1FFA82FBDCF800202C
:402AC000CBEB124202EB23429BB243EA024381454FEA224B4CF8043BDBD256F80E306BB9019B043B9E421A4602D3C8F8104005E01268043B002AF8D1013CF3E7404601F050
:402B000028FA00282CDB013530464FF0000E57F8041BD0F800C08AB2C2EB0E03090C13FA8CF3C1EB1C4202EB23429BB243EA0243B9454FEA224E40F8043BE8D256F8242035
:402B400006EB840362B9043B9E421A4602D3C8F8104005E01268043B002AF8D1013CF3E7284600E0002003B0BDE8F08F000000002DE9F04F456A97B08246239CCDE90223C4
:402B800045B9102000F070FFCAF82400456085600560C560DAF82430196859B15A684A60012393408B60504600F0FAFFDAF8243000221A60039BA04A002BBFBF0123236076
:402BC000039B23F00043B8BF0393DDF80C80A4BF0023236028F000431B0D1B0593421DD1229A42F20F731360029B43B9934A944BC8F31300002814BF1846104600E0904895
:402C0000249B002B00F04A85C37813B100F1080300E0C31C249A136000F040BDDDE90245002200232046294601F032FE074658B1229A01231360249B002B00F022858148D8
:402C40001860013800F02ABD14AB019315AB009322462B46504601F0F7F9C8F30A56059056B1C5F3130343F07F51204641F44011A6F2FF3611971DE0159B149E1E4406F234
:402C80003243202B0ADD029A06F21240C3F1400322FA00F008FA03F3184304E0C3F12000029B03FA00F0FEF7F3FE0123A1F1F871013E11930022644BFEF7ACFD58A3D3E9E1
:402CC0000023FEF75BFF58A3D3E90023FEF7A4FD044630460D46FEF7EBFE55A3D3E90023FEF74CFF02460B4620462946FEF794FD04460D4601F014FE0022834600232046E2
:402D0000294601F0CFFD58B15846FEF7D1FE02460B462046294601F0BBFD08B90BF1FF3BBBF1160F0DD8494901EBCB01DDE90223D1E9000101F0D4FD30B10BF1FF3B00234C
:402D400000E00123109300E01090149B9E1B731E089343BFC3F10009002308934FF00009BBF1000F07DB089BCDF834B05B4408930023099306E0CBF1000309930023CBEBD7
:402D800009090D93209B092B27D8052BC4BF043B2093209BA3F10203CCBF00250125032B20D8DFE803F0060E0204012302E0012308E000230C93219B002B1CDD069398467F
:402DC0001EE000230C93219B5B4403F1010806934346012BB8BF012312E00125002320930C9501E001230C934FF0FF33069398460022122303E00123069398461A462192CF
:402E0000DAF8244000226260042101F114029A421ED86268013262604900F6E7AFF3008061436F63A787D23FB3C8608B288AC63FFB799F501344D33F0000F07F2C4E0810D3
:402E4000354E0810094E08100000F83FD84E08106168504600F06FFEDAF8243020601B680793B8F10E0F00F25D81002D00F05A819DED027BBBF1000F8DED0E7B31DDA04A09
:402E80000BF00F0302EBC30393ED007B4FEA2B14E2068DED0A7B0CD59A4BDDE90E01D3E90823FEF795FF04F00F04CDE90201032600E00226934D6CB1E30708D5DDE90A0167
:402EC000D5E90023FEF75AFECDE90A01013664100835F0E7DDE90A23DDE90201FEF778FF20E0CBF1000404B3854B864D04F00F0203EBC203D3E90023DDE90E01FEF73EFE45
:402F0000CDE9020124110023022654B1E70705D5D5E90023FEF732FE0136012364100835F3E71BB1CDE9020100E00226109BEBB1DDE902450022744B2046294601F0B2FC69
:402F4000A0B1B8F1000F11D0069B002B40F3E6800BF1FF330A9300226C4B20462946FEF70DFE0136CDE90201069F02E0CDF828B047463046FEF79CFDDDE90223FEF7FEFD09
:402F80000022634BFEF748FC0446A1F15075CFB90022604BDDE90201FEF73CFC22462B46CDE9020101F09CFC002840F04182224605F10043DDE9020101F074FC002840F0C3
:402FC0002E82ABE00C9A4E4B791E002A4AD003EBC103D3E9002300204F49FEF7F9FE22462B46FEF717FC079C05460E46DDE9020101F096FC1290FEF75BFD02460B46DDE98A
:403000000201FEF707FC129B303304F8013B2A463346CDE9020101F045FC002840F02183DDE9022300203849FEF7F4FB2A46334601F038FC002840F0D280079BE31ABB42B9
:403040006CDA0022314B28463146FEF797FD002205460E462D4BDDE90201FEF78FFDCDE90201C3E703EBC10122462B46D1E90001FEF784FD079BCDE91201DC191D46DDE9D5
:40308000020101F04DFC0646FEF712FD303602460B46DDE90201FEF7BDFB05F8016BAC42CDE902014FF0000223D11B4BDDE91201FEF7B2FB02460B46DDE9020101F010FC89
:4030C000002840F08C80DDE9122300201249FEF7A1FB02460B46DDE9020101F0E3FBE8B114F8013C302B04F1FF3240F0BA821446F6E7064BFEF742FDCDE90201BFE700BF8B
:40310000D84E0810B04E08100000F03F0000244000001C40000014400000E03FDDE90E34CDE90234159B002B7CDBBBF10E0F79DC8F4B03EBCB03D3E90067219B002B14DA07
:40314000B8F1000F11DC40F06C810022894B30463946FEF713FDDDE9022301F0B7FB45464646002840F05F8166E1079C32463B46DDE90201FEF72CFE01F0D2FB0546FEF7F7
:4031800097FC32463B46FEF7F9FC0B460246DDE90201FEF73FFB05F1300E04F801EB079BC3EB040EF045CDE902012ED102460B46FEF732FB8046894602460B4630463946BF
:4031C00001F070FB78B942464B463046394601F05FFB002800F04782E90704D443E2DDF828B000E01C4614F8012C392A04F1FF3307D1079A9A42F5D1079930220BF1010B54
:403200000A701A7801321A702DE200225A4BFEF7B5FC00220023CDE9020101F039FB0028A4D020E20C9A002A2DD0209A012A0ADC119A12B103F2334302E0149BC3F1360399
:40324000099D4C4615E0099B08F1FF35AB42BFBF099B0995EA1A0D9BB7BF9B185D1B0D930025B8F1000FB9BFC8EB090400234C464346089A01211A4450469944089200F044
:403280002EFD064602E0099D0C9E4C465CB1089B002B08DDA342089AA8BF2346C3EB0909E41AD31A0893099B002B1DDD0C9BABB185B131462A46504600F0ACFD059A014678
:4032C0000646504600F014FD05990746504600F067FC0597099B5A1B06D000E0099A0599504600F097FD05900121504600F0F7FC0D9B05465BB31A460146504600F08AFD6C
:40330000209B012B054618DC029B83B9039BC3F3130373B9039B23F000473F0D3F054FB1089B013309F101090893012702E0002700E0029F0D9B73B100E000272B6905EBF1
:403340008303186900F07EFCC0F1200004E0209B012BD9DD0D9F0120089B184410F01F000ED0C0F12003042B08DDC0F11C0008E0D84E0810000014400000244006D01846FA
:403380001C30089B0344814404440893B9F1000F05DD4A460599504600F08AFD0590089B002B05DD29461A46504600F081FD0546109BEBB12946059800F0CBFD002817DAD2
:4033C00000230A220599504600F001FC0C9B05900BF1FF3B002B00F05881002331460A22504600F0F4FB069B002B064637DC33E0B8F1000F2ADC209B022B27DDCDF8188077
:40340000069B83B929460522504600F0E0FB01460546059800F09DFD00280DDC03E03D4600E000252E46219B079C6FEA030B0AE0DDF828B03D463E46079B079A5C1C31239C
:4034400013700BF1010BB0460026F7E00C9BCDF8188023B9079CB1E0209B022BD0DC002C05DD31462246504600F022FD06469FB17168504600F05FFB326902320446920094
:4034800006F10C010C3000F04BFB01222146504600F00EFD804600E0B046029BDDF81C9003F00103089329460598FFF7D0FA3146044600F13007059800F04BFD424602908B
:4034C0002946504600F061FDC36802463BB901460990059800F03DFD099A034600E0012311465046099300F05BFB099B4BB9209A3AB9089A2AB9392F28D0029B002B1ADCB4
:403500001BE0029A002A04DB1AD1209AC2B9089AB2B9002B11DD01220599504600F0C8FC2946059000F015FD002802DC05D1FA0703D5392F0AD004F1310709F101040CE085
:40354000002B09F101040BDD392F05D1392389F8003009F1010954E0013789F800706DE0079B069A04F8017CE31A9342A1463AD000230A220599504600F029FB464505900B
:403580004FF000034FF00A023146504604D100F01EFB0646804686E700F019FB4146064600230A22504600F012FB80467BE700230A220599504600F00AFB0590294605981A
:4035C000FFF745FA00F1300704F8017B079B069AE31A9342EBDB079B012AACBF9B180133B0469946002601220599504600F060FC2946059000F0ADFC002802DC15D1FB07D4
:4036000013D54C4614F8013C392B04F1FF3209D1079B934204D10BF1010B3123079A02E01446EFE70133137008E04C4614F8013C302B04F1FF3201D11446F7E729465046FE
:4036400000F0AEFAB8F1000F0DD02EB1464503D03146504600F0A4FA4146504600F0A0FA01E0DDF828B00599504600F099FA0023229A23700BF101031360249B1BB11C606D
:4036800001E008480AE0079808E0069B002B3FF7E1AE209B022B7FF7DDAEB1E617B0BDE8F08F00BF084E08108A892DE9F041054610070C4659D44B68002B02DC0B6C002BA6
:4036C00017DDE66AAEB102F48052002392B22F682B600AB1606D15E0216A01232846B047411C0FD12B686BB11D2B01D0162B03D12F600020BDE8F081A38943F04003A381A0
:40370000BDE8F081A3895A0705D56368C01A636B0BB1236CC01A00230246E66A216A2846B047431CA38906D129681D293AD8214ACA40D60736D500226260D9042269226053
:4037400004D5421C01D12B6803B96065616B2F600029CED004F14403994202D0284600F0CFFC00206063BDE8F0810F69002FC0D093070E6808BF4B690F6018BF0023C7EB22
:4037800006088B6002E00744C0EB0808B8F1000FAFDD43463A46216AA66A2846B0470028F1DCA38943F04003A3814FF0FF30BDE8F08100BF0100402038B50B6905460C467E
:4037C000DBB118B183690BB900F060F80C4B9C4201D16C6808E00B4B9C4201D1AC6803E0094B9C4208BFEC68B4F90C302BB121462846BDE83840FFF757BF002038BD00BFD8
:403800003C4E08105C4E08107C4E0810014900F0A9B800BFB9370810002310B5044603604360836081814366C281036143618361194608225C30FEF7B3FB054B6362054BCE
:40384000A362054BE362054B2462236310BD00BF05450810274508105F4508108345081070B568234D1E5D430E4605F1740100F095FC044640B1002180E842000C30A06007
:4038800005F16802FEF78CFB204670BD836910B5044633BB8364C3640365124B124A1B688262984204BF0123836100F01FF86060204600F01BF8A060204600F017F80022BE
:4038C000E06004216068FFF7A7FF01220921A068FFF7A2FF02221221E068FFF79DFF0123A36110BDF44D08100D380810F8B51C4B1E68B369074613B93046FFF7C7FF4836B8
:40390000B4687368013B04D4B4F90C507DB16834F8E733680BB13668F2E704213846FFF79FFF30600028F6D10C233B60F8BD4FF6FF73E3810123A38165662560A56065604A
:4039400025616561A5610822294604F15C00FEF727FB6563A563A564E5642046F8BD00BFF44D08102DE9F8438046894600F14804002694B1A5686768013F0CD4AB89012BB5
:4039800007D9B5F90E30013303D029464046C84706436835F0E72468EBE73046BDE8F883004870471043020870B50E46B1F90E10002990B014461D4606DA00232B60B389F2
:4039C0001A060ED540230EE001AA00F0C3FE0028F3DB029A02F47042A2F500535A425A412A604FF480630020236010B070BD00008B8973B59E0705460C4610D401AB6A46BE
:403A0000FFF7D2FF00990646284600F0C7FB68B9B4F90C309A0522D443F00203A38104F14703236023610123636118E00D4BAB62A389206043F08003A381009B6361019BB3
:403A400020614BB1B4F90E10284600F095FE18B1A38943F00103A381A0893043A08102B070BD00BF0D380810024B0146186800F095BB00BF0C430208000000000000000099
:403A800001F0FF01102A2BDB10F0070F08D010F8013B013A8B422DD010F0070F42B3F6D1F0B441EA012141EA014122F007047FF000070023F0E80256083C85EA010586EA5F
:403AC000010685FA47F5A3FA87F586FA47F6A5FA87F68EB9EED1F0BC01F0FF0102F0070232B110F8013B013A83EA010313B1F8D10020704701387047002D06BF35460338A5
:403B0000073815F0010F07D1013015F4807F02BF013015F4C03F0130F0BC0138704700BF10B5431E0A44914204D011F8014B03F8014FF8E710BD70B5456A04460E463DB9CB
:403B40001020FFF791FF6062456085600560C560656AEB6843B1636ADB6853F8260078B1026843F8262017E021220421204600F0B9FA636AE860DB68002BECD1002070BD19
:403B8000012101FA06F56A1D9200204600F0AAFA0028F3D04660856000230361C36070BD70B5446A06460D463CB91020FFF75CFF7062446084600460C4603DB1736A6A6826
:403BC000DB6853F82210296043F8225070BD2DE9F0410D691F4606460C4601F1140E0023DEF8000081B202FB01710F0C000C02FB007089B2013301EB00419D424FEA104794
:403C00004EF8041BECDCD7B1A3689D4212DB616830460131FFF78FFF2269023204F10C01804692000C30FFF77BFF21463046FFF7B7FF444604EB850301355F6125612046D2
:403C4000BDE8F081030C1B0413B90004102300E0002310F07F4F04BF0002083310F0704F04BF0001043310F0404F04BF80000233002803DB420003D5581C7047184670470B
:403C800020207047036813F007020BD0D90722D49A074BBF5B089B08036003604CBF01200220704799B209B91B0C102213F0FF0F04BF1B0A0832190704BF1B0904329907F3
:403CC00004BF9B080232D90702D45B0805D00132036010467047002070472020704710B50C460121FFF727FF01224461026110BD2DE9F74F14460A6923699A42B8BF0B4625
:403D00008846BCBFA0461C46D8F81070D4F81090D8F80830D8F8041007EB09069E42C8BF0131FFF708FF00F1140505EB860C2B460022634502D243F8042BFAE704F11402C2
:403D400008F1140102EB890301EB87070093009B0192934257D9B2F800B0BBF1000F23D08946AE464FF0000859F8044BBEF800A0A3B20BFB03A34FEA144ADEF8004043443F
:403D80004FEA14480BFB0A8404EB1344F2469BB243EA04434F454FEA14484AF8043B01D9D646E1E7CEF80480019BB3F802A00432BAF1000F21D02B682C4689464FF0000804
:403DC000B9F800E0B4F802B00AFB0EBEF044A3469BB243EA08434BF8043B59F8043BB4F804E01B0C0AFB03E303EB18434F454FEA134801D95C46E3E763600435A7E75CF8D8
:403E0000043D13B9013E002EF9DC066103B0BDE8F08F00002DE9F843154612F0030206460F4607D0013A214C002354F82220FFF7CEFE0746AD1036D0746A3CB91020FFF7A6
:403E400013FE7062446084600460C460D6F82480D8F808404CB940F271213046FFF73FFF0023C8F80800044603604FF00008EB070AD5394622463046FFF73AFF39468146D0
:403E80003046FFF78DFE4F466D100CD0206808B10446ECE7224621463046FFF729FF2060C0F80080F4E73846BDE8F883A44E08102DE9F0470C464FEA621A26694968A36882
:403EC000564407469146751CAB4202DA01315B00FAE73846FFF72FFE0023804600F114011A46534503DA41F823200133F9E72AEAEA73206901EB830319F01F0904F11401A0
:403F000001EB800E14D0C9F1200C0022086800FA09F002439A4643F8042B51F8042B8E4522FA0CF2F2D8CAF8042042B1B51C06E0043B51F8042B43F8042F8E45F9D8013D63
:403F40003846C8F810502146FFF72AFE4046BDE8F08703690A699B1A10B511D192001430143183180A4453F8044D52F8041D8C4202D007D3012010BD9842F4D3002010BD40
:403F8000184610BD4FF0FF3010BD2DE9F8430C460746114620461546FFF7DBFF061E08D131463846FFF7C7FD012303614661BDE8F883BCBF23462C4638466168BABF1D464F
:403FC00001260026FFF7B7FD2B69C660266905F11409143404EB860709EB830800F114054FF0000C54F8043B59F8042B1CFA83F11FFA82FE120CCEEB0101C2EB134303EBDE
:40400000214389B24FEA234CC84541EA0343A64645F8043BE6D8BE450ED25EF8041B1CFA81F2131403EB114392B242EA03424FEA234C45F8042BEEE755F8043D0BB9013E1C
:40404000FAE70661BDE8F8832DE9F34101211C46089E099D9046FFF76EFDC4F31303C4F30A5407460CB143F480130193B8F1000F19D002A840F8088DFFF704FE009B48B199
:40408000019AC0F1200102FA01F10B43C2407B61019200E07B61019BBB61002B14BF02210121396107E001A8FFF7ECFD019B7B6101213961203034B1A4F2334404443460D4
:4040C000C0F1350009E007EB8103A0F2324030601869FFF7B7FDC0EB41102860384602B0BDE8F08138B502FB01F4214600F056F8054618B122460021FDF752FF284638BD29
:4041000038B50546002946D051F8043C0C1F002BB8BFE41800F052FB1F4A1368114613B96360146032E0A3420ED92268A018834204BF18685B68636004BF121822600C60B2
:4041400024E0A24203D813465A68002AF9D118681918A1420BD12168014458188242196014D1106852685A60014419600EE002D90C232B600AE021686018824204BF106886
:404180005268626004BF091821605C602846BDE8384000F014BB38BD8C4B020870B5CD1C25F0030508350C2D38BF0C25002D064601DBA94202D90C23336046E000F0FEFA8E
:4041C000234B1C681A462146A1B10B685B1B0ED40B2B03D90B60CC18CD501EE08C420DBF63684B686360136018BF0C4615E00C464968E9E7174C23681BB9304600F072F99B
:4042000020602946304600F06DF9431C18D0C41C24F00304A0420DD12560304600F0CFFA04F10B00231D20F00700C31A0ED05A42E25070BD211A304600F054F90130EBD125
:404240000C233360304600F0BAFA002070BD00BF8C4B0208884B02089368013B002B10B4936009DA9469A34202DBCBB20A2B03D15DF8044B00F08AB91368581C1060197098
:40428000C8B25DF8044B7047F8B506460F461446D518AC4208D03A4614F8011B3046FFF7DBFF431CF5D100E00020F8BD2DE9F04F9DB00C4617460393064618B183690BB95A
:4042C000FFF7E4FA7F4B9C4201D1746808E07E4B9C4201D1B46803E07C4B9C4208BFF468A38918070CD5236953B10023099320238DF8293030238DF82A30DFF8D4B144E01E
:404300002146304600F0A8F90028EED04FF0FF30D5E0039A111D12680391002A80F28C80524243F002000792049098F800302E2B00F08480032298F800106548FFF7A0FB7F
:4043400048B14023CBEB000003FA00F0049B1843049008F1010898F800105E488DF82810062208F10107FFF78BFB002800F09580594B002B40F08880039B073323F00703DD
:4043800008330393099B53440993B846454615F8013B1BB9B8EB07090FD003E0252BF9D0A846F3E74B463A4621463046FFF76CFF01307FD0099B4B44099398F80030002BD0
:4043C00078D000234FF0FF3204930793059206938DF853301A930127052229783F48FFF74FFB05F10108049B38B13C4A801A07FA00F0184304904546EEE7D90644BF20220A
:404400008DF853201A0744BF2B228DF853202A782A2A3FF47EAF079A00210A20A846013598F80030303B092B03D800FB02320121F4E700293FF479AF079276E798F8013014
:404440002A2B0BD1039B1A1D1B680392002BB8BF4FF0FF3308F1020805936BE70023059308F1010019460A258046013098F80020303A092A03D805FB01210123F4E7002B70
:404480003FF458AF059155E703AB00932246144B04A93046FDF71EFE07E003AB009322460F4B04A93046FEF7CFF8B0F1FF3F82467FF468AFA3895B063FF528AF09981DB0B5
:4044C000BDE8F08F3C4E08105C4E08107C4E0810A64F0810AA4F0810D5200810A04F08108942081038B5064C002305460846236000F05EFA431C02D1236803B12B6038BD86
:40450000D04B020810B50C46B1F90E1000F058F90028ABBF636DA3891B1823F48053ACBF6365A38110BD2DE9F0411F468B89DB0505460C46164605D502230022B1F90E10E5
:4045400000F02AF9A389B4F90E1023F48053A38132463B462846BDE8F04100F06BB810B50C46B1F90E1000F017F9431CA38915BF606523F4805343F48053A38118BFA381BD
:4045800010BDB1F90E1000F0D5B80000F8B50F461446064618B183690BB9FFF777F9224B9C4201D1746808E0204B9C4201D1B46803E01F4B9C4208BFF468A369A360A389C1
:4045C0001A0709D523693BB123682069181A63699842FDB20FDB08E02146304600F03CF80028F1D04FF0FF30F8BD21463046FFF7E3F80028F6D1A368013BA36023685A1CE2
:4046000022601F706269431C934204D0A389DB0707D50A2D05D121463046FFF7CDF80028E0D12846F8BD00BF3C4E08105C4E08107C4E081038B5074C0546084611460022B4
:4046400022601A46FDF7BAF8431C02D1236803B12B6038BDD04B0208324B70B51D6806460C4625B1AB6913B92846FFF70FF92E4B9C4201D16C6808E02C4B9C4201D1AC6895
:4046800003E02B4B9C4208BFEC68B4F90C309AB215071DD4D00602D4092232603AE0510712D5616B41B104F14403994202D03046FFF726FD00236363A38923F02403A381FB
:4046C0000023636023692360A38943F00803A38123694BB9A38903F42073B3F5007F03D021463046FFF784F9A28912F0010305D00023A36063695B42A36103E0920758BF7B
:404700006369A36023695BB9B4F90C3003F0800080B230B143F04003A3814FF0FF3070BD002070BD0C4302083C4E08105C4E08107C4E081038B5064C0023054608462360FC
:4047400000F016F9431C02D1236803B12B6038BDD04B020838B5074C0023054608461146236000F00DF9431C02D1236803B12B6038BD00BFD04B020838B5064C00230546D6
:404780000846236000F004F9431C02D1236803B12B6038BDD04B020838B5074C054608461146002222601A4600F0FAF8431C02D1236803B12B6038BDD04B0208704770478B
:4047C00038B5074C054608461146002222601A46FDF706F8431C02D1236803B12B6038BDD04B02084FF0FF3C06E000BF4FF0010C02E000BF4FF0010C4DF804CD4FEA410C89
:404800007FEA6C5C4FEA430C18BF7FEA6C5C1BD001B050EA410C0CBF52EA430C91EA030F02BF90EA020F0020704710F1000F91EA030F58BF994208BF90422CBFD8176FEA33
:40484000E37040F0010070474FEA410C7FEA6C5C02D150EA013C07D14FEA430C7FEA6C5CD6D152EA033CD3D05DF8040B704700BF8446104662468C461946634600E000BF8B
:4048800001B5FFF7B7FF002848BF10F1000F01BD4DF808EDFFF7F4FF0CBF012000205DF808FB00BF4DF808EDFFF7EAFF34BF012000205DF808FB00BF4DF808EDFFF7E0FFE0
:4048C00094BF012000205DF808FB00BF4DF808EDFFF7CEFF94BF012000205DF808FB00BF4DF808EDFFF7C4FF34BF012000205DF808FB00BF4FEA410C7FEA6C5C02D150EA63
:40490000013C0AD14FEA430C7FEA6C5C02D152EA033C02D14FF0000070474FF0010070474FEA410212F5001215D211D56FF47873B3EB625212D94FEAC12343F0004343EAEB
:40494000505311F0004F23FA02F018BF404270474FF00000704750EA013005D111F0004008BF6FF0004070474FF00000704700BF024B58221A604FF0FF307047D04B020850
:40498000024B58221A604FF0FF307047D04B0208024B58221A600020704700BFD04B0208024B58221A604FF0FF307047D04B0208044A05491368002B08BF0B4618441060BF
:4049C00018467047904B0208D84B0208F8B500BFF8BC08BC9E467047F8B500BFF8BC08BC9E4670476C69746572616C6C7920616E797468696E6720706C7A000003000000C5
